:0300000001fffffe
:0300010001fffffd
:0300020001fffffc
:0300030001fffffb
:0300040001fffffa
:0300050001fffff9
:0300060001fffff8
:0300070001fffff7
:0300080001fffff6
:0300090001fffff5
:03000a0001fffff4
:03000b0001fffff3
:03000c0001fffff2
:03000d0001fffff1
:03000e0001fffff0
:03000f0001fffef0
:0300100001fffeef
:0300110001fffeee
:0300120001fffeed
:0300130001fffeec
:0300140001fffeeb
:0300150001fffeea
:0300160001fffee9
:0300170001fffee8
:0300180001fffee7
:0300190001fffde7
:03001a0001fffde6
:03001b0001fffde5
:03001c0001fffde4
:03001d0001fffde3
:03001e0001fffde2
:03001f0001fffde1
:0300200001fffde0
:0300210001fffce0
:0300220001fffcdf
:0300230001fffcde
:0300240001fffcdd
:0300250001fffcdc
:0300260001fffcdb
:0300270001fffbdb
:0300280001fffbda
:0300290001fffbd9
:03002a0001fffbd8
:03002b0001fffbd7
:03002c0001fffad7
:03002d0001fffad6
:03002e0001fffad5
:03002f0001fffad4
:0300300001fff9d4
:0300310001fff9d3
:0300320001fff9d2
:0300330001fff9d1
:0300340001fff8d1
:0300350001fff8d0
:0300360001fff8cf
:0300370001fff8ce
:0300380001fff7ce
:0300390001fff7cd
:03003a0001fff7cc
:03003b0001fff7cb
:03003c0001fff6cb
:03003d0001fff6ca
:03003e0001fff6c9
:03003f0001fff5c9
:0300400001fff5c8
:0300410001fff5c7
:0300420001fff5c6
:0300430001fff4c6
:0300440001fff4c5
:0300450001fff4c4
:0300460001fff3c4
:0300470001fff3c3
:0300480001fff3c2
:0300490001fff2c2
:03004a0001fff2c1
:03004b0001fff1c1
:03004c0001fff1c0
:03004d0001fff1bf
:03004e0001fff0bf
:03004f0001fff0be
:0300500001fff0bd
:0300510001ffefbd
:0300520001ffefbc
:0300530001ffeebc
:0300540001ffeebb
:0300550001ffeeba
:0300560001ffedba
:0300570001ffedb9
:0300580001ffecb9
:0300590001ffecb8
:03005a0001ffebb8
:03005b0001ffebb7
:03005c0001ffebb6
:03005d0001ffeab6
:03005e0001ffeab5
:03005f0001ffe9b5
:0300600001ffe9b4
:0300610001ffe8b4
:0300620001ffe8b3
:0300630001ffe7b3
:0300640001ffe7b2
:0300650001ffe6b2
:0300660001ffe6b1
:0300670001ffe5b1
:0300680001ffe5b0
:0300690001ffe4b0
:03006a0001ffe4af
:03006b0001ffe3af
:03006c0001ffe3ae
:03006d0001ffe2ae
:03006e0001ffe2ad
:03006f0001ffe1ad
:0300700001ffe1ac
:0300710001ffe0ac
:0300720001ffe0ab
:0300730001ffdfab
:0300740001ffdfaa
:0300750001ffdeaa
:0300760001ffddaa
:0300770001ffdda9
:0300780001ffdca9
:0300790001ffdca8
:03007a0001ffdba8
:03007b0001ffdba7
:03007c0001ffdaa7
:03007d0001ffd9a7
:03007e0001ffd9a6
:03007f0001ffd8a6
:0300800001ffd8a5
:0300810001ffd7a5
:0300820001ffd6a5
:0300830001ffd6a4
:0300840001ffd5a4
:0300850001ffd4a4
:0300860001ffd4a3
:0300870001ffd3a3
:0300880001ffd2a3
:0300890001ffd2a2
:03008a0001ffd1a2
:03008b0001ffd0a2
:03008c0001ffd0a1
:03008d0001ffcfa1
:03008e0001ffcea1
:03008f0001ffcea0
:0300900001ffcda0
:0300910001ffcca0
:0300920001ffcc9f
:0300930001ffcb9f
:0300940001ffca9f
:0300950001ffca9e
:0300960001ffc99e
:0300970001ffc89e
:0300980001ffc79e
:0300990001ffc79d
:03009a0001ffc69d
:03009b0001ffc59d
:03009c0001ffc49d
:03009d0001ffc49c
:03009e0001ffc39c
:03009f0001ffc29c
:0300a00001ffc19c
:0300a10001ffc19b
:0300a20001ffc09b
:0300a30001ffbf9b
:0300a40001ffbe9b
:0300a50001ffbd9b
:0300a60001ffbd9a
:0300a70001ffbc9a
:0300a80001ffbb9a
:0300a90001ffba9a
:0300aa0001ffb99a
:0300ab0001ffb999
:0300ac0001ffb899
:0300ad0001ffb799
:0300ae0001ffb699
:0300af0001ffb599
:0300b00001ffb499
:0300b10001ffb498
:0300b20001ffb398
:0300b30001ffb298
:0300b40001ffb198
:0300b50001ffb098
:0300b60001ffaf98
:0300b70001ffae98
:0300b80001ffad98
:0300b90001ffad97
:0300ba0001ffac97
:0300bb0001ffab97
:0300bc0001ffaa97
:0300bd0001ffa997
:0300be0001ffa897
:0300bf0001ffa797
:0300c00001ffa697
:0300c10001ffa597
:0300c20001ffa497
:0300c30001ffa397
:0300c40001ffa297
:0300c50001ffa197
:0300c60001ffa196
:0300c70001ffa096
:0300c80001ff9f96
:0300c90001ff9e96
:0300ca0001ff9d96
:0300cb0001ff9c96
:0300cc0001ff9b96
:0300cd0001ff9a96
:0300ce0001ff9996
:0300cf0001ff9896
:0300d00001ff9796
:0300d10001ff9696
:0300d20001ff9596
:0300d30001ff9496
:0300d40001ff9396
:0300d50001ff9296
:0300d60001ff9196
:0300d70001ff9096
:0300d80001ff8f96
:0300d90001ff8e96
:0300da0001ff8d96
:0300db0001ff8b97
:0300dc0001ff8a97
:0300dd0001ff8997
:0300de0001ff8897
:0300df0001ff8797
:0300e00001ff8697
:0300e10001ff8597
:0300e20001ff8497
:0300e30001ff8397
:0300e40001ff8297
:0300e50001ff8197
:0300e60001ff8097
:0300e70001ff7e98
:0300e80001ff7d98
:0300e90001ff7c98
:0300ea0001ff7b98
:0300eb0001ff7a98
:0300ec0001ff7998
:0300ed0001ff7898
:0300ee0001ff7798
:0300ef0001ff7599
:0300f00001ff7499
:0300f10001ff7399
:0300f20001ff7299
:0300f30001ff7199
:0300f40001ff7099
:0300f50001ff6e9a
:0300f60001ff6d9a
:0300f70001ff6c9a
:0300f80001ff6b9a
:0300f90001ff6a9a
:0300fa0001ff689b
:0300fb0001ff679b
:0300fc0001ff669b
:0300fd0001ff659b
:0300fe0001ff649b
:0300ff0001ff629c
:0301000001ff619b
:0301010001ff609b
:0301020001ff5f9b
:0301030001ff5d9c
:0301040001ff5c9c
:0301050001ff5b9c
:0301060001ff5a9c
:0301070001ff589d
:0301080001ff579d
:0301090001ff569d
:03010a0001ff559d
:03010b0001ff539e
:03010c0001ff529e
:03010d0001ff519e
:03010e0001ff4f9f
:03010f0001ff4e9f
:0301100001ff4d9f
:0301110001ff4ba0
:0301120001ff4aa0
:0301130001ff49a0
:0301140001ff47a1
:0301150001ff46a1
:0301160001ff45a1
:0301170001ff43a2
:0301180001ff42a2
:0301190001ff41a2
:03011a0001ff3fa3
:03011b0001ff3ea3
:03011c0001ff3da3
:03011d0001ff3ba4
:03011e0001ff3aa4
:03011f0001ff39a4
:0301200001ff37a5
:0301210001ff36a5
:0301220001ff34a6
:0301230001ff33a6
:0301240001ff32a6
:0301250001ff30a7
:0301260001ff2fa7
:0301270001ff2da8
:0301280001ff2ca8
:0301290001ff2ba8
:03012a0001ff29a9
:03012b0001ff28a9
:03012c0001ff26aa
:03012d0001ff25aa
:03012e0001ff23ab
:03012f0001ff22ab
:0301300001ff20ac
:0301310001ff1fac
:0301320001ff1dad
:0301330001ff1cad
:0301340001ff1aae
:0301350001ff19ae
:0301360001ff18ae
:0301370001ff16af
:0301380001ff15af
:0301390001ff13b0
:03013a0001ff11b1
:03013b0001ff10b1
:03013c0001ff0eb2
:03013d0001ff0db2
:03013e0001ff0bb3
:03013f0001ff0ab3
:0301400001ff08b4
:0301410001ff07b4
:0301420001ff05b5
:0301430001ff04b5
:0301440001ff02b6
:0301450001ff01b6
:0301460001feffb8
:0301470001fefdb9
:0301480001fefcb9
:0301490001fefaba
:03014a0001fef9ba
:03014b0001fef7bb
:03014c0001fef5bc
:03014d0001fef4bc
:03014e0001fef2bd
:03014f0001fef1bd
:0301500001feefbe
:0301510001feedbf
:0301520001feecbf
:0301530001feeac0
:0301540001fee9c0
:0301550001fee7c1
:0301560001fee5c2
:0301570001fee4c2
:0301580001fee2c3
:0301590001fee0c4
:03015a0001fedfc4
:03015b0001feddc5
:03015c0001fedbc6
:03015d0001fedac6
:03015e0001fed8c7
:03015f0001fed6c8
:0301600001fed5c8
:0301610001fed3c9
:0301620001fed1ca
:0301630001fecfcb
:0301640001fececb
:0301650001fecccc
:0301660001fecacd
:0301670001fec9cd
:0301680001fec7ce
:0301690001fec5cf
:03016a0001fec3d0
:03016b0001fec2d0
:03016c0001fec0d1
:03016d0001febed2
:03016e0001febcd3
:03016f0001febbd3
:0301700001feb9d4
:0301710001feb7d5
:0301720001feb5d6
:0301730001feb3d7
:0301740001feb2d7
:0301750001feb0d8
:0301760001feaed9
:0301770001feacda
:0301780001feaadb
:0301790001fea9db
:03017a0001fea7dc
:03017b0001fea5dd
:03017c0001fea3de
:03017d0001fea1df
:03017e0001fea0df
:03017f0001fe9ee0
:0301800001fe9ce1
:0301810001fe9ae2
:0301820001fe98e3
:0301830001fe96e4
:0301840001fe94e5
:0301850001fe93e5
:0301860001fe91e6
:0301870001fe8fe7
:0301880001fe8de8
:0301890001fe8be9
:03018a0001fe89ea
:03018b0001fe87eb
:03018c0001fe85ec
:03018d0001fe83ed
:03018e0001fe82ed
:03018f0001fe80ee
:0301900001fe7eef
:0301910001fe7cf0
:0301920001fe7af1
:0301930001fe78f2
:0301940001fe76f3
:0301950001fe74f4
:0301960001fe72f5
:0301970001fe70f6
:0301980001fe6ef7
:0301990001fe6cf8
:03019a0001fe6af9
:03019b0001fe68fa
:03019c0001fe66fb
:03019d0001fe64fc
:03019e0001fe62fd
:03019f0001fe60fe
:0301a00001fe5eff
:0301a10001fe5c00
:0301a20001fe5a01
:0301a30001fe5802
:0301a40001fe5603
:0301a50001fe5404
:0301a60001fe5205
:0301a70001fe5006
:0301a80001fe4e07
:0301a90001fe4c08
:0301aa0001fe4a09
:0301ab0001fe480a
:0301ac0001fe460b
:0301ad0001fe440c
:0301ae0001fe420d
:0301af0001fe400e
:0301b00001fe3e0f
:0301b10001fe3b11
:0301b20001fe3912
:0301b30001fe3713
:0301b40001fe3514
:0301b50001fe3315
:0301b60001fe3116
:0301b70001fe2f17
:0301b80001fe2d18
:0301b90001fe2b19
:0301ba0001fe291a
:0301bb0001fe261c
:0301bc0001fe241d
:0301bd0001fe221e
:0301be0001fe201f
:0301bf0001fe1e20
:0301c00001fe1c21
:0301c10001fe1a22
:0301c20001fe1724
:0301c30001fe1525
:0301c40001fe1326
:0301c50001fe1127
:0301c60001fe0f28
:0301c70001fe0c2a
:0301c80001fe0a2b
:0301c90001fe082c
:0301ca0001fe062d
:0301cb0001fe042e
:0301cc0001fe0130
:0301cd0001fdff32
:0301ce0001fdfd33
:0301cf0001fdfb34
:0301d00001fdf935
:0301d10001fdf637
:0301d20001fdf438
:0301d30001fdf239
:0301d40001fdf03a
:0301d50001fded3c
:0301d60001fdeb3d
:0301d70001fde93e
:0301d80001fde73f
:0301d90001fde441
:0301da0001fde242
:0301db0001fde043
:0301dc0001fddd45
:0301dd0001fddb46
:0301de0001fdd947
:0301df0001fdd748
:0301e00001fdd44a
:0301e10001fdd24b
:0301e20001fdd04c
:0301e30001fdcd4e
:0301e40001fdcb4f
:0301e50001fdc950
:0301e60001fdc652
:0301e70001fdc453
:0301e80001fdc254
:0301e90001fdbf56
:0301ea0001fdbd57
:0301eb0001fdbb58
:0301ec0001fdb85a
:0301ed0001fdb65b
:0301ee0001fdb35d
:0301ef0001fdb15e
:0301f00001fdaf5f
:0301f10001fdac61
:0301f20001fdaa62
:0301f30001fda764
:0301f40001fda565
:0301f50001fda366
:0301f60001fda068
:0301f70001fd9e69
:0301f80001fd9b6b
:0301f90001fd996c
:0301fa0001fd976d
:0301fb0001fd946f
:0301fc0001fd9270
:0301fd0001fd8f72
:0301fe0001fd8d73
:0301ff0001fd8a75
:0302000001fd8875
:0302010001fd8577
:0302020001fd8378
:0302030001fd807a
:0302040001fd7e7b
:0302050001fd7b7d
:0302060001fd797e
:0302070001fd7680
:0302080001fd7481
:0302090001fd7183
:03020a0001fd6f84
:03020b0001fd6c86
:03020c0001fd6a87
:03020d0001fd6789
:03020e0001fd658a
:03020f0001fd628c
:0302100001fd608d
:0302110001fd5d8f
:0302120001fd5b90
:0302130001fd5892
:0302140001fd5693
:0302150001fd5395
:0302160001fd5196
:0302170001fd4e98
:0302180001fd4b9a
:0302190001fd499b
:03021a0001fd469d
:03021b0001fd449e
:03021c0001fd41a0
:03021d0001fd3ea2
:03021e0001fd3ca3
:03021f0001fd39a5
:0302200001fd37a6
:0302210001fd34a8
:0302220001fd31aa
:0302230001fd2fab
:0302240001fd2cad
:0302250001fd29af
:0302260001fd27b0
:0302270001fd24b2
:0302280001fd21b4
:0302290001fd1fb5
:03022a0001fd1cb7
:03022b0001fd19b9
:03022c0001fd17ba
:03022d0001fd14bc
:03022e0001fd11be
:03022f0001fd0fbf
:0302300001fd0cc1
:0302310001fd09c3
:0302320001fd07c4
:0302330001fd04c6
:0302340001fd01c8
:0302350001fcffca
:0302360001fcfccc
:0302370001fcf9ce
:0302380001fcf6d0
:0302390001fcf4d1
:03023a0001fcf1d3
:03023b0001fceed5
:03023c0001fcebd7
:03023d0001fce9d8
:03023e0001fce6da
:03023f0001fce3dc
:0302400001fce0de
:0302410001fcdedf
:0302420001fcdbe1
:0302430001fcd8e3
:0302440001fcd5e5
:0302450001fcd2e7
:0302460001fcd0e8
:0302470001fccdea
:0302480001fccaec
:0302490001fcc7ee
:03024a0001fcc4f0
:03024b0001fcc2f1
:03024c0001fcbff3
:03024d0001fcbcf5
:03024e0001fcb9f7
:03024f0001fcb6f9
:0302500001fcb3fb
:0302510001fcb1fc
:0302520001fcaefe
:0302530001fcab00
:0302540001fca802
:0302550001fca504
:0302560001fca206
:0302570001fc9f08
:0302580001fc9d09
:0302590001fc9a0b
:03025a0001fc970d
:03025b0001fc940f
:03025c0001fc9111
:03025d0001fc8e13
:03025e0001fc8b15
:03025f0001fc8817
:0302600001fc8519
:0302610001fc821b
:0302620001fc7f1d
:0302630001fc7c1f
:0302640001fc7a20
:0302650001fc7722
:0302660001fc7424
:0302670001fc7126
:0302680001fc6e28
:0302690001fc6b2a
:03026a0001fc682c
:03026b0001fc652e
:03026c0001fc6230
:03026d0001fc5f32
:03026e0001fc5c34
:03026f0001fc5936
:0302700001fc5638
:0302710001fc533a
:0302720001fc503c
:0302730001fc4d3e
:0302740001fc4a40
:0302750001fc4742
:0302760001fc4444
:0302770001fc4146
:0302780001fc3e48
:0302790001fc3b4a
:03027a0001fc384c
:03027b0001fc354e
:03027c0001fc3250
:03027d0001fc2e53
:03027e0001fc2b55
:03027f0001fc2857
:0302800001fc2559
:0302810001fc225b
:0302820001fc1f5d
:0302830001fc1c5f
:0302840001fc1961
:0302850001fc1663
:0302860001fc1365
:0302870001fc1067
:0302880001fc0d69
:0302890001fc096c
:03028a0001fc066e
:03028b0001fc0370
:03028c0001fc0072
:03028d0001fbfd75
:03028e0001fbfa77
:03028f0001fbf779
:0302900001fbf37c
:0302910001fbf07e
:0302920001fbed80
:0302930001fbea82
:0302940001fbe784
:0302950001fbe486
:0302960001fbe089
:0302970001fbdd8b
:0302980001fbda8d
:0302990001fbd78f
:03029a0001fbd491
:03029b0001fbd094
:03029c0001fbcd96
:03029d0001fbca98
:03029e0001fbc79a
:03029f0001fbc49c
:0302a00001fbc09f
:0302a10001fbbda1
:0302a20001fbbaa3
:0302a30001fbb7a5
:0302a40001fbb3a8
:0302a50001fbb0aa
:0302a60001fbadac
:0302a70001fbaaae
:0302a80001fba6b1
:0302a90001fba3b3
:0302aa0001fba0b5
:0302ab0001fb9db7
:0302ac0001fb99ba
:0302ad0001fb96bc
:0302ae0001fb93be
:0302af0001fb8fc1
:0302b00001fb8cc3
:0302b10001fb89c5
:0302b20001fb85c8
:0302b30001fb82ca
:0302b40001fb7fcc
:0302b50001fb7cce
:0302b60001fb78d1
:0302b70001fb75d3
:0302b80001fb72d5
:0302b90001fb6ed8
:0302ba0001fb6bda
:0302bb0001fb67dd
:0302bc0001fb64df
:0302bd0001fb61e1
:0302be0001fb5de4
:0302bf0001fb5ae6
:0302c00001fb57e8
:0302c10001fb53eb
:0302c20001fb50ed
:0302c30001fb4cf0
:0302c40001fb49f2
:0302c50001fb46f4
:0302c60001fb42f7
:0302c70001fb3ff9
:0302c80001fb3bfc
:0302c90001fb38fe
:0302ca0001fb3500
:0302cb0001fb3103
:0302cc0001fb2e05
:0302cd0001fb2a08
:0302ce0001fb270a
:0302cf0001fb230d
:0302d00001fb200f
:0302d10001fb1c12
:0302d20001fb1914
:0302d30001fb1517
:0302d40001fb1219
:0302d50001fb0f1b
:0302d60001fb0b1e
:0302d70001fb0820
:0302d80001fb0423
:0302d90001fb0125
:0302da0001fafd29
:0302db0001fafa2b
:0302dc0001faf62e
:0302dd0001faf330
:0302de0001faef33
:0302df0001faeb36
:0302e00001fae838
:0302e10001fae43b
:0302e20001fae13d
:0302e30001fadd40
:0302e40001fada42
:0302e50001fad645
:0302e60001fad347
:0302e70001facf4a
:0302e80001facb4d
:0302e90001fac84f
:0302ea0001fac452
:0302eb0001fac154
:0302ec0001fabd57
:0302ed0001faba59
:0302ee0001fab65c
:0302ef0001fab25f
:0302f00001faaf61
:0302f10001faab64
:0302f20001faa866
:0302f30001faa469
:0302f40001faa06c
:0302f50001fa9d6e
:0302f60001fa9971
:0302f70001fa9574
:0302f80001fa9276
:0302f90001fa8e79
:0302fa0001fa8a7c
:0302fb0001fa877e
:0302fc0001fa8381
:0302fd0001fa7f84
:0302fe0001fa7c86
:0302ff0001fa7889
:0303000001fa748b
:0303010001fa718d
:0303020001fa6d90
:0303030001fa6993
:0303040001fa6695
:0303050001fa6298
:0303060001fa5e9b
:0303070001fa5a9e
:0303080001fa57a0
:0303090001fa53a3
:03030a0001fa4fa6
:03030b0001fa4ca8
:03030c0001fa48ab
:03030d0001fa44ae
:03030e0001fa40b1
:03030f0001fa3db3
:0303100001fa39b6
:0303110001fa35b9
:0303120001fa31bc
:0303130001fa2dbf
:0303140001fa2ac1
:0303150001fa26c4
:0303160001fa22c7
:0303170001fa1eca
:0303180001fa1acd
:0303190001fa17cf
:03031a0001fa13d2
:03031b0001fa0fd5
:03031c0001fa0bd8
:03031d0001fa07db
:03031e0001fa04dd
:03031f0001fa00e0
:0303200001f9fce4
:0303210001f9f8e7
:0303220001f9f4ea
:0303230001f9f0ed
:0303240001f9edef
:0303250001f9e9f2
:0303260001f9e5f5
:0303270001f9e1f8
:0303280001f9ddfb
:0303290001f9d9fe
:03032a0001f9d501
:03032b0001f9d104
:03032c0001f9cd07
:03032d0001f9ca09
:03032e0001f9c60c
:03032f0001f9c20f
:0303300001f9be12
:0303310001f9ba15
:0303320001f9b618
:0303330001f9b21b
:0303340001f9ae1e
:0303350001f9aa21
:0303360001f9a624
:0303370001f9a227
:0303380001f99e2a
:0303390001f99a2d
:03033a0001f99630
:03033b0001f99233
:03033c0001f98f35
:03033d0001f98b38
:03033e0001f9873b
:03033f0001f9833e
:0303400001f97f41
:0303410001f97b44
:0303420001f97747
:0303430001f9734a
:0303440001f96f4d
:0303450001f96b50
:0303460001f96753
:0303470001f96356
:0303480001f95e5a
:0303490001f95a5d
:03034a0001f95660
:03034b0001f95263
:03034c0001f94e66
:03034d0001f94a69
:03034e0001f9466c
:03034f0001f9426f
:0303500001f93e72
:0303510001f93a75
:0303520001f93678
:0303530001f9327b
:0303540001f92e7e
:0303550001f92a81
:0303560001f92684
:0303570001f92188
:0303580001f91d8b
:0303590001f9198e
:03035a0001f91591
:03035b0001f91194
:03035c0001f90d97
:03035d0001f9099a
:03035e0001f9059d
:03035f0001f901a0
:0303600001f8fca5
:0303610001f8f8a8
:0303620001f8f4ab
:0303630001f8f0ae
:0303640001f8ecb1
:0303650001f8e8b4
:0303660001f8e3b8
:0303670001f8dfbb
:0303680001f8dbbe
:0303690001f8d7c1
:03036a0001f8d3c4
:03036b0001f8cfc7
:03036c0001f8cacb
:03036d0001f8c6ce
:03036e0001f8c2d1
:03036f0001f8bed4
:0303700001f8b9d8
:0303710001f8b5db
:0303720001f8b1de
:0303730001f8ade1
:0303740001f8a9e4
:0303750001f8a4e8
:0303760001f8a0eb
:0303770001f89cee
:0303780001f898f1
:0303790001f893f5
:03037a0001f88ff8
:03037b0001f88bfb
:03037c0001f886ff
:03037d0001f88202
:03037e0001f87e05
:03037f0001f87a08
:0303800001f8750c
:0303810001f8710f
:0303820001f86d12
:0303830001f86816
:0303840001f86419
:0303850001f8601c
:0303860001f85b20
:0303870001f85723
:0303880001f85326
:0303890001f84e2a
:03038a0001f84a2d
:03038b0001f84630
:03038c0001f84134
:03038d0001f83d37
:03038e0001f8393a
:03038f0001f8343e
:0303900001f83041
:0303910001f82c44
:0303920001f82748
:0303930001f8234b
:0303940001f81e4f
:0303950001f81a52
:0303960001f81655
:0303970001f81159
:0303980001f80d5c
:0303990001f80860
:03039a0001f80463
:03039b0001f80066
:03039c0001f7fb6b
:03039d0001f7f76e
:03039e0001f7f272
:03039f0001f7ee75
:0303a00001f7e979
:0303a10001f7e57c
:0303a20001f7e080
:0303a30001f7dc83
:0303a40001f7d886
:0303a50001f7d38a
:0303a60001f7cf8d
:0303a70001f7ca91
:0303a80001f7c694
:0303a90001f7c198
:0303aa0001f7bd9b
:0303ab0001f7b89f
:0303ac0001f7b4a2
:0303ad0001f7afa6
:0303ae0001f7aba9
:0303af0001f7a6ad
:0303b00001f7a2b0
:0303b10001f79db4
:0303b20001f799b7
:0303b30001f794bb
:0303b40001f78fbf
:0303b50001f78bc2
:0303b60001f786c6
:0303b70001f782c9
:0303b80001f77dcd
:0303b90001f779d0
:0303ba0001f774d4
:0303bb0001f770d7
:0303bc0001f76bdb
:0303bd0001f766df
:0303be0001f762e2
:0303bf0001f75de6
:0303c00001f759e9
:0303c10001f754ed
:0303c20001f74ff1
:0303c30001f74bf4
:0303c40001f746f8
:0303c50001f742fb
:0303c60001f73dff
:0303c70001f73803
:0303c80001f73406
:0303c90001f72f0a
:0303ca0001f72a0e
:0303cb0001f72611
:0303cc0001f72115
:0303cd0001f71c19
:0303ce0001f7181c
:0303cf0001f71320
:0303d00001f70e24
:0303d10001f70a27
:0303d20001f7052b
:0303d30001f7002f
:0303d40001f6fc33
:0303d50001f6f737
:0303d60001f6f23b
:0303d70001f6ee3e
:0303d80001f6e942
:0303d90001f6e446
:0303da0001f6df4a
:0303db0001f6db4d
:0303dc0001f6d651
:0303dd0001f6d155
:0303de0001f6cc59
:0303df0001f6c85c
:0303e00001f6c360
:0303e10001f6be64
:0303e20001f6b968
:0303e30001f6b56b
:0303e40001f6b06f
:0303e50001f6ab73
:0303e60001f6a677
:0303e70001f6a27a
:0303e80001f69d7e
:0303e90001f69882
:0303ea0001f69386
:0303eb0001f68e8a
:0303ec0001f68a8d
:0303ed0001f68591
:0303ee0001f68095
:0303ef0001f67b99
:0303f00001f6769d
:0303f10001f672a0
:0303f20001f66da4
:0303f30001f668a8
:0303f40001f663ac
:0303f50001f65eb0
:0303f60001f659b4
:0303f70001f654b8
:0303f80001f650bb
:0303f90001f64bbf
:0303fa0001f646c3
:0303fb0001f641c7
:0303fc0001f63ccb
:0303fd0001f637cf
:0303fe0001f632d3
:0303ff0001f62dd7
:0304000001f629d9
:0304010001f624dd
:0304020001f61fe1
:0304030001f61ae5
:0304040001f615e9
:0304050001f610ed
:0304060001f60bf1
:0304070001f606f5
:0304080001f601f9
:0304090001f5fcfe
:03040a0001f5f702
:03040b0001f5f206
:03040c0001f5ed0a
:03040d0001f5e80e
:03040e0001f5e312
:03040f0001f5de16
:0304100001f5d91a
:0304110001f5d41e
:0304120001f5cf22
:0304130001f5ca26
:0304140001f5c629
:0304150001f5c12d
:0304160001f5bb32
:0304170001f5b636
:0304180001f5b13a
:0304190001f5ac3e
:03041a0001f5a742
:03041b0001f5a246
:03041c0001f59d4a
:03041d0001f5984e
:03041e0001f59352
:03041f0001f58e56
:0304200001f5895a
:0304210001f5845e
:0304220001f57f62
:0304230001f57a66
:0304240001f5756a
:0304250001f5706e
:0304260001f56b72
:0304270001f56676
:0304280001f5617a
:0304290001f55c7e
:03042a0001f55683
:03042b0001f55187
:03042c0001f54c8b
:03042d0001f5478f
:03042e0001f54293
:03042f0001f53d97
:0304300001f5389b
:0304310001f5339f
:0304320001f52da4
:0304330001f528a8
:0304340001f523ac
:0304350001f51eb0
:0304360001f519b4
:0304370001f514b8
:0304380001f50fbc
:0304390001f509c1
:03043a0001f504c5
:03043b0001f4ffca
:03043c0001f4face
:03043d0001f4f5d2
:03043e0001f4efd7
:03043f0001f4eadb
:0304400001f4e5df
:0304410001f4e0e3
:0304420001f4dbe7
:0304430001f4d5ec
:0304440001f4d0f0
:0304450001f4cbf4
:0304460001f4c6f8
:0304470001f4c0fd
:0304480001f4bb01
:0304490001f4b605
:03044a0001f4b109
:03044b0001f4ab0e
:03044c0001f4a612
:03044d0001f4a116
:03044e0001f49c1a
:03044f0001f4961f
:0304500001f49123
:0304510001f48c27
:0304520001f4872b
:0304530001f48130
:0304540001f47c34
:0304550001f47738
:0304560001f4713d
:0304570001f46c41
:0304580001f46745
:0304590001f4614a
:03045a0001f45c4e
:03045b0001f45752
:03045c0001f45157
:03045d0001f44c5b
:03045e0001f4475f
:03045f0001f44164
:0304600001f43c68
:0304610001f4376c
:0304620001f43171
:0304630001f42c75
:0304640001f42779
:0304650001f4217e
:0304660001f41c82
:0304670001f41687
:0304680001f4118b
:0304690001f40c8f
:03046a0001f40694
:03046b0001f40198
:03046c0001f3fb9e
:03046d0001f3f6a2
:03046e0001f3f1a6
:03046f0001f3ebab
:0304700001f3e6af
:0304710001f3e0b4
:0304720001f3dbb8
:0304730001f3d5bd
:0304740001f3d0c1
:0304750001f3cbc5
:0304760001f3c5ca
:0304770001f3c0ce
:0304780001f3bad3
:0304790001f3b5d7
:03047a0001f3afdc
:03047b0001f3aae0
:03047c0001f3a4e5
:03047d0001f39fe9
:03047e0001f399ee
:03047f0001f394f2
:0304800001f38ef7
:0304810001f389fb
:0304820001f38300
:0304830001f37e04
:0304840001f37809
:0304850001f3730d
:0304860001f36d12
:0304870001f36816
:0304880001f3621b
:0304890001f35d1f
:03048a0001f35724
:03048b0001f35129
:03048c0001f34c2d
:03048d0001f34632
:03048e0001f34136
:03048f0001f33b3b
:0304900001f3363f
:0304910001f33044
:0304920001f32a49
:0304930001f3254d
:0304940001f31f52
:0304950001f31a56
:0304960001f3145b
:0304970001f30e60
:0304980001f30964
:0304990001f30369
:03049a0001f2fd6f
:03049b0001f2f873
:03049c0001f2f278
:03049d0001f2ed7c
:03049e0001f2e781
:03049f0001f2e186
:0304a00001f2dc8a
:0304a10001f2d68f
:0304a20001f2d094
:0304a30001f2cb98
:0304a40001f2c59d
:0304a50001f2bfa2
:0304a60001f2baa6
:0304a70001f2b4ab
:0304a80001f2aeb0
:0304a90001f2a9b4
:0304aa0001f2a3b9
:0304ab0001f29dbe
:0304ac0001f297c3
:0304ad0001f292c7
:0304ae0001f28ccc
:0304af0001f286d1
:0304b00001f281d5
:0304b10001f27bda
:0304b20001f275df
:0304b30001f26fe4
:0304b40001f26ae8
:0304b50001f264ed
:0304b60001f25ef2
:0304b70001f258f7
:0304b80001f253fb
:0304b90001f24d00
:0304ba0001f24705
:0304bb0001f2410a
:0304bc0001f23b0f
:0304bd0001f23613
:0304be0001f23018
:0304bf0001f22a1d
:0304c00001f22422
:0304c10001f21e27
:0304c20001f2192b
:0304c30001f21330
:0304c40001f20d35
:0304c50001f2073a
:0304c60001f2013f
:0304c70001f1fb45
:0304c80001f1f649
:0304c90001f1f04e
:0304ca0001f1ea53
:0304cb0001f1e458
:0304cc0001f1de5d
:0304cd0001f1d862
:0304ce0001f1d267
:0304cf0001f1cd6b
:0304d00001f1c770
:0304d10001f1c175
:0304d20001f1bb7a
:0304d30001f1b57f
:0304d40001f1af84
:0304d50001f1a989
:0304d60001f1a38e
:0304d70001f19d93
:0304d80001f19798
:0304d90001f1929c
:0304da0001f18ca1
:0304db0001f186a6
:0304dc0001f180ab
:0304dd0001f17ab0
:0304de0001f174b5
:0304df0001f16eba
:0304e00001f168bf
:0304e10001f162c4
:0304e20001f15cc9
:0304e30001f156ce
:0304e40001f150d3
:0304e50001f14ad8
:0304e60001f144dd
:0304e70001f13ee2
:0304e80001f138e7
:0304e90001f132ec
:0304ea0001f12cf1
:0304eb0001f126f6
:0304ec0001f120fb
:0304ed0001f11a00
:0304ee0001f11405
:0304ef0001f10e0a
:0304f00001f1080f
:0304f10001f10214
:0304f20001f0fc1a
:0304f30001f0f61f
:0304f40001f0f024
:0304f50001f0ea29
:0304f60001f0e42e
:0304f70001f0de33
:0304f80001f0d838
:0304f90001f0d23d
:0304fa0001f0cc42
:0304fb0001f0c548
:0304fc0001f0bf4d
:0304fd0001f0b952
:0304fe0001f0b357
:0304ff0001f0ad5c
:0305000001f0a760
:0305010001f0a165
:0305020001f09b6a
:0305030001f0956f
:0305040001f08f74
:0305050001f0887a
:0305060001f0827f
:0305070001f07c84
:0305080001f07689
:0305090001f0708e
:03050a0001f06a93
:03050b0001f06498
:03050c0001f05d9e
:03050d0001f057a3
:03050e0001f051a8
:03050f0001f04bad
:0305100001f045b2
:0305110001f03eb8
:0305120001f038bd
:0305130001f032c2
:0305140001f02cc7
:0305150001f026cc
:0305160001f01fd2
:0305170001f019d7
:0305180001f013dc
:0305190001f00de1
:03051a0001f007e6
:03051b0001f000ec
:03051c0001effaf2
:03051d0001eff4f7
:03051e0001efeefc
:03051f0001efe702
:0305200001efe107
:0305210001efdb0c
:0305220001efd511
:0305230001efce17
:0305240001efc81c
:0305250001efc221
:0305260001efbc26
:0305270001efb52c
:0305280001efaf31
:0305290001efa936
:03052a0001efa23c
:03052b0001ef9c41
:03052c0001ef9646
:03052d0001ef8f4c
:03052e0001ef8951
:03052f0001ef8356
:0305300001ef7c5c
:0305310001ef7661
:0305320001ef7066
:0305330001ef696c
:0305340001ef6371
:0305350001ef5d76
:0305360001ef567c
:0305370001ef5081
:0305380001ef4a86
:0305390001ef438c
:03053a0001ef3d91
:03053b0001ef3796
:03053c0001ef309c
:03053d0001ef2aa1
:03053e0001ef23a7
:03053f0001ef1dac
:0305400001ef17b1
:0305410001ef10b7
:0305420001ef0abc
:0305430001ef03c2
:0305440001eefdc8
:0305450001eef6ce
:0305460001eef0d3
:0305470001eeead8
:0305480001eee3de
:0305490001eedde3
:03054a0001eed6e9
:03054b0001eed0ee
:03054c0001eec9f4
:03054d0001eec3f9
:03054e0001eebcff
:03054f0001eeb604
:0305500001eeaf0a
:0305510001eea90f
:0305520001eea314
:0305530001ee9c1a
:0305540001ee961f
:0305550001ee8f25
:0305560001ee892a
:0305570001ee8230
:0305580001ee7c35
:0305590001ee753b
:03055a0001ee6e41
:03055b0001ee6846
:03055c0001ee614c
:03055d0001ee5b51
:03055e0001ee5457
:03055f0001ee4e5c
:0305600001ee4762
:0305610001ee4167
:0305620001ee3a6d
:0305630001ee3472
:0305640001ee2d78
:0305650001ee267e
:0305660001ee2083
:0305670001ee1989
:0305680001ee138e
:0305690001ee0c94
:03056a0001ee059a
:03056b0001edffa0
:03056c0001edf8a6
:03056d0001edf2ab
:03056e0001edebb1
:03056f0001ede4b7
:0305700001eddebc
:0305710001edd7c2
:0305720001edd0c8
:0305730001edcacd
:0305740001edc3d3
:0305750001edbdd8
:0305760001edb6de
:0305770001edafe4
:0305780001eda9e9
:0305790001eda2ef
:03057a0001ed9bf5
:03057b0001ed95fa
:03057c0001ed8e00
:03057d0001ed8706
:03057e0001ed800c
:03057f0001ed7a11
:0305800001ed7317
:0305810001ed6c1d
:0305820001ed6622
:0305830001ed5f28
:0305840001ed582e
:0305850001ed5233
:0305860001ed4b39
:0305870001ed443f
:0305880001ed3d45
:0305890001ed374a
:03058a0001ed3050
:03058b0001ed2956
:03058c0001ed225c
:03058d0001ed1c61
:03058e0001ed1567
:03058f0001ed0e6d
:0305900001ed0773
:0305910001ed0079
:0305920001ecfa7f
:0305930001ecf385
:0305940001ecec8b
:0305950001ece591
:0305960001ecde97
:0305970001ecd89c
:0305980001ecd1a2
:0305990001eccaa8
:03059a0001ecc3ae
:03059b0001ecbcb4
:03059c0001ecb6b9
:03059d0001ecafbf
:03059e0001eca8c5
:03059f0001eca1cb
:0305a00001ec9ad1
:0305a10001ec93d7
:0305a20001ec8ddc
:0305a30001ec86e2
:0305a40001ec7fe8
:0305a50001ec78ee
:0305a60001ec71f4
:0305a70001ec6afa
:0305a80001ec6300
:0305a90001ec5c06
:0305aa0001ec550c
:0305ab0001ec4f11
:0305ac0001ec4817
:0305ad0001ec411d
:0305ae0001ec3a23
:0305af0001ec3329
:0305b00001ec2c2f
:0305b10001ec2535
:0305b20001ec1e3b
:0305b30001ec1741
:0305b40001ec1047
:0305b50001ec094d
:0305b60001ec0253
:0305b70001ebfb5a
:0305b80001ebf460
:0305b90001ebed66
:0305ba0001ebe76b
:0305bb0001ebe071
:0305bc0001ebd977
:0305bd0001ebd27d
:0305be0001ebcb83
:0305bf0001ebc489
:0305c00001ebbd8f
:0305c10001ebb695
:0305c20001ebaf9b
:0305c30001eba8a1
:0305c40001eba1a7
:0305c50001eb9aad
:0305c60001eb93b3
:0305c70001eb8bba
:0305c80001eb84c0
:0305c90001eb7dc6
:0305ca0001eb76cc
:0305cb0001eb6fd2
:0305cc0001eb68d8
:0305cd0001eb61de
:0305ce0001eb5ae4
:0305cf0001eb53ea
:0305d00001eb4cf0
:0305d10001eb45f6
:0305d20001eb3efc
:0305d30001eb3702
:0305d40001eb3008
:0305d50001eb290e
:0305d60001eb2115
:0305d70001eb1a1b
:0305d80001eb1321
:0305d90001eb0c27
:0305da0001eb052d
:0305db0001eafe34
:0305dc0001eaf73a
:0305dd0001eaf040
:0305de0001eae946
:0305df0001eae14d
:0305e00001eada53
:0305e10001ead359
:0305e20001eacc5f
:0305e30001eac565
:0305e40001eabe6b
:0305e50001eab672
:0305e60001eaaf78
:0305e70001eaa87e
:0305e80001eaa184
:0305e90001ea9a8a
:0305ea0001ea9390
:0305eb0001ea8b97
:0305ec0001ea849d
:0305ed0001ea7da3
:0305ee0001ea76a9
:0305ef0001ea6eb0
:0305f00001ea67b6
:0305f10001ea60bc
:0305f20001ea59c2
:0305f30001ea52c8
:0305f40001ea4acf
:0305f50001ea43d5
:0305f60001ea3cdb
:0305f70001ea35e1
:0305f80001ea2de8
:0305f90001ea26ee
:0305fa0001ea1ff4
:0305fb0001ea18fa
:0305fc0001ea1001
:0305fd0001ea0907
:0305fe0001ea020d
:0305ff0001e9fa15
:0306000001e9f31a
:0306010001e9ec20
:0306020001e9e526
:0306030001e9dd2d
:0306040001e9d633
:0306050001e9cf39
:0306060001e9c740
:0306070001e9c046
:0306080001e9b94c
:0306090001e9b153
:03060a0001e9aa59
:03060b0001e9a35f
:03060c0001e99b66
:03060d0001e9946c
:03060e0001e98d72
:03060f0001e98579
:0306100001e97e7f
:0306110001e97686
:0306120001e96f8c
:0306130001e96892
:0306140001e96099
:0306150001e9599f
:0306160001e952a5
:0306170001e94aac
:0306180001e943b2
:0306190001e93bb9
:03061a0001e934bf
:03061b0001e92cc6
:03061c0001e925cc
:03061d0001e91ed2
:03061e0001e916d9
:03061f0001e90fdf
:0306200001e907e6
:0306210001e900ec
:0306220001e8f8f4
:0306230001e8f1fa
:0306240001e8e901
:0306250001e8e207
:0306260001e8db0d
:0306270001e8d314
:0306280001e8cc1a
:0306290001e8c421
:03062a0001e8bd27
:03062b0001e8b52e
:03062c0001e8ae34
:03062d0001e8a63b
:03062e0001e89f41
:03062f0001e89748
:0306300001e8904e
:0306310001e88855
:0306320001e8815b
:0306330001e87962
:0306340001e87268
:0306350001e86a6f
:0306360001e86276
:0306370001e85b7c
:0306380001e85383
:0306390001e84c89
:03063a0001e84490
:03063b0001e83d96
:03063c0001e8359d
:03063d0001e82ea3
:03063e0001e826aa
:03063f0001e81eb1
:0306400001e817b7
:0306410001e80fbe
:0306420001e808c4
:0306430001e800cb
:0306440001e7f8d3
:0306450001e7f1d9
:0306460001e7e9e0
:0306470001e7e2e6
:0306480001e7daed
:0306490001e7d2f4
:03064a0001e7cbfa
:03064b0001e7c301
:03064c0001e7bb08
:03064d0001e7b40e
:03064e0001e7ac15
:03064f0001e7a41c
:0306500001e79d22
:0306510001e79529
:0306520001e78d30
:0306530001e78636
:0306540001e77e3d
:0306550001e77644
:0306560001e76f4a
:0306570001e76751
:0306580001e75f58
:0306590001e7585e
:03065a0001e75065
:03065b0001e7486c
:03065c0001e74073
:03065d0001e73979
:03065e0001e73180
:03065f0001e72987
:0306600001e7228d
:0306610001e71a94
:0306620001e7129b
:0306630001e70aa2
:0306640001e703a8
:0306650001e6fbb0
:0306660001e6f3b7
:0306670001e6ebbe
:0306680001e6e3c5
:0306690001e6dccb
:03066a0001e6d4d2
:03066b0001e6ccd9
:03066c0001e6c4e0
:03066d0001e6bde6
:03066e0001e6b5ed
:03066f0001e6adf4
:0306700001e6a5fb
:0306710001e69d02
:0306720001e69608
:0306730001e68e0f
:0306740001e68616
:0306750001e67e1d
:0306760001e67624
:0306770001e66e2b
:0306780001e66731
:0306790001e65f38
:03067a0001e6573f
:03067b0001e64f46
:03067c0001e6474d
:03067d0001e63f54
:03067e0001e6375b
:03067f0001e62f62
:0306800001e62868
:0306810001e6206f
:0306820001e61876
:0306830001e6107d
:0306840001e60884
:0306850001e6008b
:0306860001e5f893
:0306870001e5f09a
:0306880001e5e8a1
:0306890001e5e0a8
:03068a0001e5d9ae
:03068b0001e5d1b5
:03068c0001e5c9bc
:03068d0001e5c1c3
:03068e0001e5b9ca
:03068f0001e5b1d1
:0306900001e5a9d8
:0306910001e5a1df
:0306920001e599e6
:0306930001e591ed
:0306940001e589f4
:0306950001e581fb
:0306960001e57902
:0306970001e57109
:0306980001e56910
:0306990001e56117
:03069a0001e5591e
:03069b0001e55125
:03069c0001e5492c
:03069d0001e54133
:03069e0001e5393a
:03069f0001e53141
:0306a00001e52948
:0306a10001e5214f
:0306a20001e51956
:0306a30001e5115d
:0306a40001e50964
:0306a50001e5016b
:0306a60001e4f973
:0306a70001e4f17a
:0306a80001e4e981
:0306a90001e4e188
:0306aa0001e4d890
:0306ab0001e4d097
:0306ac0001e4c89e
:0306ad0001e4c0a5
:0306ae0001e4b8ac
:0306af0001e4b0b3
:0306b00001e4a8ba
:0306b10001e4a0c1
:0306b20001e498c8
:0306b30001e490cf
:0306b40001e487d7
:0306b50001e47fde
:0306b60001e477e5
:0306b70001e46fec
:0306b80001e467f3
:0306b90001e45ffa
:0306ba0001e45701
:0306bb0001e44f08
:0306bc0001e44610
:0306bd0001e43e17
:0306be0001e4361e
:0306bf0001e42e25
:0306c00001e4262c
:0306c10001e41e33
:0306c20001e4153b
:0306c30001e40d42
:0306c40001e40549
:0306c50001e3fd51
:0306c60001e3f558
:0306c70001e3ec60
:0306c80001e3e467
:0306c90001e3dc6e
:0306ca0001e3d475
:0306cb0001e3cb7d
:0306cc0001e3c384
:0306cd0001e3bb8b
:0306ce0001e3b392
:0306cf0001e3ab99
:0306d00001e3a2a1
:0306d10001e39aa8
:0306d20001e392af
:0306d30001e38ab6
:0306d40001e381be
:0306d50001e379c5
:0306d60001e371cc
:0306d70001e368d4
:0306d80001e360db
:0306d90001e358e2
:0306da0001e350e9
:0306db0001e347f1
:0306dc0001e33ff8
:0306dd0001e337ff
:0306de0001e32e07
:0306df0001e3260e
:0306e00001e31e15
:0306e10001e3151d
:0306e20001e30d24
:0306e30001e3052b
:0306e40001e2fc34
:0306e50001e2f43b
:0306e60001e2ec42
:0306e70001e2e34a
:0306e80001e2db51
:0306e90001e2d358
:0306ea0001e2ca60
:0306eb0001e2c267
:0306ec0001e2ba6e
:0306ed0001e2b176
:0306ee0001e2a97d
:0306ef0001e2a085
:0306f00001e2988c
:0306f10001e29093
:0306f20001e2879b
:0306f30001e27fa2
:0306f40001e276aa
:0306f50001e26eb1
:0306f60001e266b8
:0306f70001e25dc0
:0306f80001e255c7
:0306f90001e24ccf
:0306fa0001e244d6
:0306fb0001e23bde
:0306fc0001e233e5
:0306fd0001e22bec
:0306fe0001e222f4
:0306ff0001e21afb
:0307000001e21102
:0307010001e20909
:0307020001e20011
:0307030001e1f819
:0307040001e1ef21
:0307050001e1e728
:0307060001e1de30
:0307070001e1d637
:0307080001e1cd3f
:0307090001e1c546
:03070a0001e1bc4e
:03070b0001e1b455
:03070c0001e1ab5d
:03070d0001e1a364
:03070e0001e19a6c
:03070f0001e19273
:0307100001e1897b
:0307110001e18182
:0307120001e1788a
:0307130001e16f92
:0307140001e16799
:0307150001e15ea1
:0307160001e156a8
:0307170001e14db0
:0307180001e145b7
:0307190001e13cbf
:03071a0001e133c7
:03071b0001e12bce
:03071c0001e122d6
:03071d0001e11add
:03071e0001e111e5
:03071f0001e108ed
:0307200001e100f4
:0307210001e0f7fd
:0307220001e0ef04
:0307230001e0e60c
:0307240001e0dd14
:0307250001e0d51b
:0307260001e0cc23
:0307270001e0c32b
:0307280001e0bb32
:0307290001e0b23a
:03072a0001e0aa41
:03072b0001e0a149
:03072c0001e09851
:03072d0001e09058
:03072e0001e08760
:03072f0001e07e68
:0307300001e07570
:0307310001e06d77
:0307320001e0647f
:0307330001e05b87
:0307340001e0538e
:0307350001e04a96
:0307360001e0419e
:0307370001e039a5
:0307380001e030ad
:0307390001e027b5
:03073a0001e01ebd
:03073b0001e016c4
:03073c0001e00dcc
:03073d0001e004d4
:03073e0001dffbdd
:03073f0001dff3e4
:0307400001dfeaec
:0307410001dfe1f4
:0307420001dfd8fc
:0307430001dfd003
:0307440001dfc70b
:0307450001dfbe13
:0307460001dfb51b
:0307470001dfad22
:0307480001dfa42a
:0307490001df9b32
:03074a0001df923a
:03074b0001df8942
:03074c0001df8149
:03074d0001df7851
:03074e0001df6f59
:03074f0001df6661
:0307500001df5d69
:0307510001df5471
:0307520001df4c78
:0307530001df4380
:0307540001df3a88
:0307550001df3190
:0307560001df2898
:0307570001df1fa0
:0307580001df17a7
:0307590001df0eaf
:03075a0001df05b7
:03075b0001defcc0
:03075c0001def3c8
:03075d0001deead0
:03075e0001dee1d8
:03075f0001ded8e0
:0307600001decfe8
:0307610001dec7ef
:0307620001debef7
:0307630001deb5ff
:0307640001deac07
:0307650001dea30f
:0307660001de9a17
:0307670001de911f
:0307680001de8827
:0307690001de7f2f
:03076a0001de7637
:03076b0001de6d3f
:03076c0001de6447
:03076d0001de5b4f
:03076e0001de5257
:03076f0001de495f
:0307700001de4067
:0307710001de376f
:0307720001de2e77
:0307730001de267e
:0307740001de1d86
:0307750001de148e
:0307760001de0b96
:0307770001de029e
:0307780001ddf9a7
:0307790001ddf0af
:03077a0001dde6b8
:03077b0001ddddc0
:03077c0001ddd4c8
:03077d0001ddcbd0
:03077e0001ddc2d8
:03077f0001ddb9e0
:0307800001ddb0e8
:0307810001dda7f0
:0307820001dd9ef8
:0307830001dd9500
:0307840001dd8c08
:0307850001dd8310
:0307860001dd7a18
:0307870001dd7120
:0307880001dd6828
:0307890001dd5f30
:03078a0001dd5638
:03078b0001dd4d40
:03078c0001dd4349
:03078d0001dd3a51
:03078e0001dd3159
:03078f0001dd2861
:0307900001dd1f69
:0307910001dd1671
:0307920001dd0d79
:0307930001dd0481
:0307940001dcfa8b
:0307950001dcf193
:0307960001dce89b
:0307970001dcdfa3
:0307980001dcd6ab
:0307990001dccdb3
:03079a0001dcc4bb
:03079b0001dcbac4
:03079c0001dcb1cc
:03079d0001dca8d4
:03079e0001dc9fdc
:03079f0001dc96e4
:0307a00001dc8dec
:0307a10001dc83f5
:0307a20001dc7afd
:0307a30001dc7105
:0307a40001dc680d
:0307a50001dc5f15
:0307a60001dc551e
:0307a70001dc4c26
:0307a80001dc432e
:0307a90001dc3a36
:0307aa0001dc303f
:0307ab0001dc2747
:0307ac0001dc1e4f
:0307ad0001dc1557
:0307ae0001dc0b60
:0307af0001dc0268
:0307b00001dbf971
:0307b10001dbf079
:0307b20001dbe682
:0307b30001dbdd8a
:0307b40001dbd492
:0307b50001dbcb9a
:0307b60001dbc1a3
:0307b70001dbb8ab
:0307b80001dbafb3
:0307b90001dba5bc
:0307ba0001db9cc4
:0307bb0001db93cc
:0307bc0001db8ad4
:0307bd0001db80dd
:0307be0001db77e5
:0307bf0001db6eed
:0307c00001db64f6
:0307c10001db5bfe
:0307c20001db5206
:0307c30001db480f
:0307c40001db3f17
:0307c50001db361f
:0307c60001db2c28
:0307c70001db2330
:0307c80001db1939
:0307c90001db1041
:0307ca0001db0749
:0307cb0001dafd53
:0307cc0001daf45b
:0307cd0001daeb63
:0307ce0001dae16c
:0307cf0001dad874
:0307d00001dace7d
:0307d10001dac585
:0307d20001dabc8d
:0307d30001dab296
:0307d40001daa99e
:0307d50001da9fa7
:0307d60001da96af
:0307d70001da8cb8
:0307d80001da83c0
:0307d90001da7ac8
:0307da0001da70d1
:0307db0001da67d9
:0307dc0001da5de2
:0307dd0001da54ea
:0307de0001da4af3
:0307df0001da41fb
:0307e00001da3704
:0307e10001da2e0c
:0307e20001da2415
:0307e30001da1b1d
:0307e40001da1126
:0307e50001da082e
:0307e60001d9fe38
:0307e70001d9f540
:0307e80001d9eb49
:0307e90001d9e251
:0307ea0001d9d85a
:0307eb0001d9cf62
:0307ec0001d9c56b
:0307ed0001d9bc73
:0307ee0001d9b27c
:0307ef0001d9a984
:0307f00001d99f8d
:0307f10001d99695
:0307f20001d98c9e
:0307f30001d982a7
:0307f40001d979af
:0307f50001d96fb8
:0307f60001d966c0
:0307f70001d95cc9
:0307f80001d953d1
:0307f90001d949da
:0307fa0001d93fe3
:0307fb0001d936eb
:0307fc0001d92cf4
:0307fd0001d923fc
:0307fe0001d91905
:0307ff0001d90f0e
:0308000001d90615
:0308010001d8fc1f
:0308020001d8f327
:0308030001d8e930
:0308040001d8df39
:0308050001d8d641
:0308060001d8cc4a
:0308070001d8c253
:0308080001d8b95b
:0308090001d8af64
:03080a0001d8a56d
:03080b0001d89c75
:03080c0001d8927e
:03080d0001d88887
:03080e0001d87f8f
:03080f0001d87598
:0308100001d86ba1
:0308110001d862a9
:0308120001d858b2
:0308130001d84ebb
:0308140001d845c3
:0308150001d83bcc
:0308160001d831d5
:0308170001d827de
:0308180001d81ee6
:0308190001d814ef
:03081a0001d80af8
:03081b0001d80100
:03081c0001d7f70a
:03081d0001d7ed13
:03081e0001d7e31c
:03081f0001d7da24
:0308200001d7d02d
:0308210001d7c636
:0308220001d7bc3f
:0308230001d7b248
:0308240001d7a950
:0308250001d79f59
:0308260001d79562
:0308270001d78b6b
:0308280001d78273
:0308290001d7787c
:03082a0001d76e85
:03082b0001d7648e
:03082c0001d75a97
:03082d0001d7519f
:03082e0001d747a8
:03082f0001d73db1
:0308300001d733ba
:0308310001d729c3
:0308320001d71fcc
:0308330001d716d4
:0308340001d70cdd
:0308350001d702e6
:0308360001d6f8f0
:0308370001d6eef9
:0308380001d6e402
:0308390001d6da0b
:03083a0001d6d113
:03083b0001d6c71c
:03083c0001d6bd25
:03083d0001d6b32e
:03083e0001d6a937
:03083f0001d69f40
:0308400001d69549
:0308410001d68b52
:0308420001d6815b
:0308430001d67764
:0308440001d66e6c
:0308450001d66475
:0308460001d65a7e
:0308470001d65087
:0308480001d64690
:0308490001d63c99
:03084a0001d632a2
:03084b0001d628ab
:03084c0001d61eb4
:03084d0001d614bd
:03084e0001d60ac6
:03084f0001d600cf
:0308500001d5f6d9
:0308510001d5ece2
:0308520001d5e2eb
:0308530001d5d8f4
:0308540001d5cefd
:0308550001d5c406
:0308560001d5ba0f
:0308570001d5b018
:0308580001d5a621
:0308590001d59c2a
:03085a0001d59233
:03085b0001d5883c
:03085c0001d57e45
:03085d0001d5744e
:03085e0001d56a57
:03085f0001d56060
:0308600001d55669
:0308610001d54c72
:0308620001d5427b
:0308630001d53884
:0308640001d52e8d
:0308650001d52496
:0308660001d51a9f
:0308670001d510a8
:0308680001d506b1
:0308690001d4fbbc
:03086a0001d4f1c5
:03086b0001d4e7ce
:03086c0001d4ddd7
:03086d0001d4d3e0
:03086e0001d4c9e9
:03086f0001d4bff2
:0308700001d4b5fb
:0308710001d4ab04
:0308720001d4a10d
:0308730001d49617
:0308740001d48c20
:0308750001d48229
:0308760001d47832
:0308770001d46e3b
:0308780001d46444
:0308790001d45a4d
:03087a0001d44f57
:03087b0001d44560
:03087c0001d43b69
:03087d0001d43172
:03087e0001d4277b
:03087f0001d41d84
:0308800001d4128e
:0308810001d40897
:0308820001d3fea1
:0308830001d3f4aa
:0308840001d3eab3
:0308850001d3dfbd
:0308860001d3d5c6
:0308870001d3cbcf
:0308880001d3c1d8
:0308890001d3b7e1
:03088a0001d3aceb
:03088b0001d3a2f4
:03088c0001d398fd
:03088d0001d38e06
:03088e0001d38310
:03088f0001d37919
:0308900001d36f22
:0308910001d3652b
:0308920001d35a35
:0308930001d3503e
:0308940001d34647
:0308950001d33c50
:0308960001d3315a
:0308970001d32763
:0308980001d31d6c
:0308990001d31276
:03089a0001d3087f
:03089b0001d2fe89
:03089c0001d2f393
:03089d0001d2e99c
:03089e0001d2dfa5
:03089f0001d2d5ae
:0308a00001d2cab8
:0308a10001d2c0c1
:0308a20001d2b6ca
:0308a30001d2abd4
:0308a40001d2a1dd
:0308a50001d297e6
:0308a60001d28cf0
:0308a70001d282f9
:0308a80001d27703
:0308a90001d26d0c
:0308aa0001d26315
:0308ab0001d2581f
:0308ac0001d24e28
:0308ad0001d24431
:0308ae0001d2393b
:0308af0001d22f44
:0308b00001d2244e
:0308b10001d21a57
:0308b20001d21060
:0308b30001d2056a
:0308b40001d1fb74
:0308b50001d1f07e
:0308b60001d1e687
:0308b70001d1dc90
:0308b80001d1d19a
:0308b90001d1c7a3
:0308ba0001d1bcad
:0308bb0001d1b2b6
:0308bc0001d1a7c0
:0308bd0001d19dc9
:0308be0001d192d3
:0308bf0001d188dc
:0308c00001d17ee5
:0308c10001d173ef
:0308c20001d169f8
:0308c30001d15e02
:0308c40001d1540b
:0308c50001d14915
:0308c60001d13f1e
:0308c70001d13428
:0308c80001d12a31
:0308c90001d11f3b
:0308ca0001d11544
:0308cb0001d10a4e
:0308cc0001d10057
:0308cd0001d0f562
:0308ce0001d0eb6b
:0308cf0001d0e075
:0308d00001d0d67e
:0308d10001d0cb88
:0308d20001d0c092
:0308d30001d0b69b
:0308d40001d0aba5
:0308d50001d0a1ae
:0308d60001d096b8
:0308d70001d08cc1
:0308d80001d081cb
:0308d90001d077d4
:0308da0001d06cde
:0308db0001d061e8
:0308dc0001d057f1
:0308dd0001d04cfb
:0308de0001d04204
:0308df0001d0370e
:0308e00001d02c18
:0308e10001d02221
:0308e20001d0172b
:0308e30001d00d34
:0308e40001d0023e
:0308e50001cff749
:0308e60001cfed52
:0308e70001cfe25c
:0308e80001cfd766
:0308e90001cfcd6f
:0308ea0001cfc279
:0308eb0001cfb783
:0308ec0001cfad8c
:0308ed0001cfa296
:0308ee0001cf97a0
:0308ef0001cf8da9
:0308f00001cf82b3
:0308f10001cf77bd
:0308f20001cf6dc6
:0308f30001cf62d0
:0308f40001cf57da
:0308f50001cf4de3
:0308f60001cf42ed
:0308f70001cf37f7
:0308f80001cf2d00
:0308f90001cf220a
:0308fa0001cf1714
:0308fb0001cf0c1e
:0308fc0001cf0227
:0308fd0001cef732
:0308fe0001ceec3c
:0308ff0001cee245
:0309000001ced74e
:0309010001cecc58
:0309020001cec162
:0309030001ceb76b
:0309040001ceac75
:0309050001cea17f
:0309060001ce9689
:0309070001ce8b93
:0309080001ce819c
:0309090001ce76a6
:03090a0001ce6bb0
:03090b0001ce60ba
:03090c0001ce56c3
:03090d0001ce4bcd
:03090e0001ce40d7
:03090f0001ce35e1
:0309100001ce2aeb
:0309110001ce1ff5
:0309120001ce15fe
:0309130001ce0a08
:0309140001cdff13
:0309150001cdf41d
:0309160001cde927
:0309170001cdde31
:0309180001cdd43a
:0309190001cdc944
:03091a0001cdbe4e
:03091b0001cdb358
:03091c0001cda862
:03091d0001cd9d6c
:03091e0001cd9276
:03091f0001cd887f
:0309200001cd7d89
:0309210001cd7293
:0309220001cd679d
:0309230001cd5ca7
:0309240001cd51b1
:0309250001cd46bb
:0309260001cd3bc5
:0309270001cd30cf
:0309280001cd25d9
:0309290001cd1be2
:03092a0001cd10ec
:03092b0001cd05f6
:03092c0001ccfa01
:03092d0001ccef0b
:03092e0001cce415
:03092f0001ccd91f
:0309300001ccce29
:0309310001ccc333
:0309320001ccb83d
:0309330001ccad47
:0309340001cca251
:0309350001cc975b
:0309360001cc8c65
:0309370001cc816f
:0309380001cc7679
:0309390001cc6b83
:03093a0001cc608d
:03093b0001cc5597
:03093c0001cc4aa1
:03093d0001cc3fab
:03093e0001cc34b5
:03093f0001cc29bf
:0309400001cc1ec9
:0309410001cc13d3
:0309420001cc08dd
:0309430001cbfde8
:0309440001cbf2f2
:0309450001cbe7fc
:0309460001cbdc06
:0309470001cbd110
:0309480001cbc61a
:0309490001cbbb24
:03094a0001cbb02e
:03094b0001cba538
:03094c0001cb9a42
:03094d0001cb8e4d
:03094e0001cb8357
:03094f0001cb7861
:0309500001cb6d6b
:0309510001cb6275
:0309520001cb577f
:0309530001cb4c89
:0309540001cb4193
:0309550001cb369d
:0309560001cb2ba7
:0309570001cb1fb2
:0309580001cb14bc
:0309590001cb09c6
:03095a0001cafed1
:03095b0001caf3db
:03095c0001cae8e5
:03095d0001caddef
:03095e0001cad2f9
:03095f0001cac604
:0309600001cabb0e
:0309610001cab018
:0309620001caa522
:0309630001ca9a2c
:0309640001ca8f36
:0309650001ca8341
:0309660001ca784b
:0309670001ca6d55
:0309680001ca625f
:0309690001ca5769
:03096a0001ca4b74
:03096b0001ca407e
:03096c0001ca3588
:03096d0001ca2a92
:03096e0001ca1f9c
:03096f0001ca13a7
:0309700001ca08b1
:0309710001c9fdbc
:0309720001c9f2c6
:0309730001c9e6d1
:0309740001c9dbdb
:0309750001c9d0e5
:0309760001c9c5ef
:0309770001c9b9fa
:0309780001c9ae04
:0309790001c9a30e
:03097a0001c99818
:03097b0001c98c23
:03097c0001c9812d
:03097d0001c97637
:03097e0001c96a42
:03097f0001c95f4c
:0309800001c95456
:0309810001c94960
:0309820001c93d6b
:0309830001c93275
:0309840001c9277f
:0309850001c91b8a
:0309860001c91094
:0309870001c9059e
:0309880001c8f9aa
:0309890001c8eeb4
:03098a0001c8e3be
:03098b0001c8d7c9
:03098c0001c8ccd3
:03098d0001c8c1dd
:03098e0001c8b5e8
:03098f0001c8aaf2
:0309900001c89efd
:0309910001c89307
:0309920001c88811
:0309930001c87c1c
:0309940001c87126
:0309950001c86630
:0309960001c85a3b
:0309970001c84f45
:0309980001c84350
:0309990001c8385a
:03099a0001c82d64
:03099b0001c8216f
:03099c0001c81679
:03099d0001c80a84
:03099e0001c7ff8f
:03099f0001c7f39a
:0309a00001c7e8a4
:0309a10001c7ddae
:0309a20001c7d1b9
:0309a30001c7c6c3
:0309a40001c7bace
:0309a50001c7afd8
:0309a60001c7a3e3
:0309a70001c798ed
:0309a80001c78cf8
:0309a90001c78102
:0309aa0001c7750d
:0309ab0001c76a17
:0309ac0001c75e22
:0309ad0001c7532c
:0309ae0001c74737
:0309af0001c73c41
:0309b00001c7304c
:0309b10001c72556
:0309b20001c71961
:0309b30001c70e6b
:0309b40001c70276
:0309b50001c6f781
:0309b60001c6eb8c
:0309b70001c6e096
:0309b80001c6d4a1
:0309b90001c6c9ab
:0309ba0001c6bdb6
:0309bb0001c6b2c0
:0309bc0001c6a6cb
:0309bd0001c69bd5
:0309be0001c68fe0
:0309bf0001c683eb
:0309c00001c678f5
:0309c10001c66c00
:0309c20001c6610a
:0309c30001c65515
:0309c40001c64920
:0309c50001c63e2a
:0309c60001c63235
:0309c70001c6273f
:0309c80001c61b4a
:0309c90001c60f55
:0309ca0001c6045f
:0309cb0001c5f86b
:0309cc0001c5ed75
:0309cd0001c5e180
:0309ce0001c5d58b
:0309cf0001c5ca95
:0309d00001c5bea0
:0309d10001c5b2ab
:0309d20001c5a7b5
:0309d30001c59bc0
:0309d40001c58fcb
:0309d50001c584d5
:0309d60001c578e0
:0309d70001c56ceb
:0309d80001c561f5
:0309d90001c55500
:0309da0001c5490b
:0309db0001c53e15
:0309dc0001c53220
:0309dd0001c5262b
:0309de0001c51b35
:0309df0001c50f40
:0309e00001c5034b
:0309e10001c4f856
:0309e20001c4ec61
:0309e30001c4e06c
:0309e40001c4d477
:0309e50001c4c981
:0309e60001c4bd8c
:0309e70001c4b197
:0309e80001c4a5a2
:0309e90001c49aac
:0309ea0001c48eb7
:0309eb0001c482c2
:0309ec0001c476cd
:0309ed0001c46bd7
:0309ee0001c45fe2
:0309ef0001c453ed
:0309f00001c447f8
:0309f10001c43c02
:0309f20001c4300d
:0309f30001c42418
:0309f40001c41823
:0309f50001c40c2e
:0309f60001c40138
:0309f70001c3f544
:0309f80001c3e94f
:0309f90001c3dd5a
:0309fa0001c3d165
:0309fb0001c3c570
:0309fc0001c3ba7a
:0309fd0001c3ae85
:0309fe0001c3a290
:0309ff0001c3969b
:030a000001c38aa5
:030a010001c37eb0
:030a020001c373ba
:030a030001c367c5
:030a040001c35bd0
:030a050001c34fdb
:030a060001c343e6
:030a070001c337f1
:030a080001c32bfc
:030a090001c32006
:030a0a0001c31411
:030a0b0001c3081c
:030a0c0001c2fc28
:030a0d0001c2f033
:030a0e0001c2e43e
:030a0f0001c2d849
:030a100001c2cc54
:030a110001c2c05f
:030a120001c2b46a
:030a130001c2a875
:030a140001c29d7f
:030a150001c2918a
:030a160001c28595
:030a170001c279a0
:030a180001c26dab
:030a190001c261b6
:030a1a0001c255c1
:030a1b0001c249cc
:030a1c0001c23dd7
:030a1d0001c231e2
:030a1e0001c225ed
:030a1f0001c219f8
:030a200001c20d03
:030a210001c2010e
:030a220001c1f51a
:030a230001c1e925
:030a240001c1dd30
:030a250001c1d13b
:030a260001c1c546
:030a270001c1b951
:030a280001c1ad5c
:030a290001c1a167
:030a2a0001c19572
:030a2b0001c1897d
:030a2c0001c17d88
:030a2d0001c17193
:030a2e0001c1659e
:030a2f0001c159a9
:030a300001c14db4
:030a310001c141bf
:030a320001c135ca
:030a330001c129d5
:030a340001c11de0
:030a350001c110ec
:030a360001c104f7
:030a370001c0f803
:030a380001c0ec0e
:030a390001c0e019
:030a3a0001c0d424
:030a3b0001c0c82f
:030a3c0001c0bc3a
:030a3d0001c0b045
:030a3e0001c0a450
:030a3f0001c0975c
:030a400001c08b67
:030a410001c07f72
:030a420001c0737d
:030a430001c06788
:030a440001c05b93
:030a450001c04f9e
:030a460001c043a9
:030a470001c036b5
:030a480001c02ac0
:030a490001c01ecb
:030a4a0001c012d6
:030a4b0001c006e1
:030a4c0001bffaed
:030a4d0001bfedf9
:030a4e0001bfe104
:030a4f0001bfd50f
:030a500001bfc91a
:030a510001bfbd25
:030a520001bfb130
:030a530001bfa43c
:030a540001bf9847
:030a550001bf8c52
:030a560001bf805d
:030a570001bf7468
:030a580001bf6774
:030a590001bf5b7f
:030a5a0001bf4f8a
:030a5b0001bf4395
:030a5c0001bf36a1
:030a5d0001bf2aac
:030a5e0001bf1eb7
:030a5f0001bf12c2
:030a600001bf05ce
:030a610001bef9da
:030a620001beede5
:030a630001bee1f0
:030a640001bed4fc
:030a650001bec807
:030a660001bebc12
:030a670001beb01d
:030a680001bea329
:030a690001be9734
:030a6a0001be8b3f
:030a6b0001be7e4b
:030a6c0001be7256
:030a6d0001be6661
:030a6e0001be596d
:030a6f0001be4d78
:030a700001be4183
:030a710001be358e
:030a720001be289a
:030a730001be1ca5
:030a740001be10b0
:030a750001be03bc
:030a760001bdf7c8
:030a770001bdead4
:030a780001bddedf
:030a790001bdd2ea
:030a7a0001bdc5f6
:030a7b0001bdb901
:030a7c0001bdad0c
:030a7d0001bda018
:030a7e0001bd9423
:030a7f0001bd882e
:030a800001bd7b3a
:030a810001bd6f45
:030a820001bd6251
:030a830001bd565c
:030a840001bd4a67
:030a850001bd3d73
:030a860001bd317e
:030a870001bd248a
:030a880001bd1895
:030a890001bd0ca0
:030a8a0001bcffad
:030a8b0001bcf3b8
:030a8c0001bce6c4
:030a8d0001bcdacf
:030a8e0001bccddb
:030a8f0001bcc1e6
:030a900001bcb4f2
:030a910001bca8fd
:030a920001bc9c08
:030a930001bc8f14
:030a940001bc831f
:030a950001bc762b
:030a960001bc6a36
:030a970001bc5d42
:030a980001bc514d
:030a990001bc4459
:030a9a0001bc3864
:030a9b0001bc2b70
:030a9c0001bc1f7b
:030a9d0001bc1287
:030a9e0001bc0692
:030a9f0001bbf99f
:030aa00001bbedaa
:030aa10001bbe0b6
:030aa20001bbd4c1
:030aa30001bbc7cd
:030aa40001bbbad9
:030aa50001bbaee4
:030aa60001bba1f0
:030aa70001bb95fb
:030aa80001bb8807
:030aa90001bb7c12
:030aaa0001bb6f1e
:030aab0001bb6329
:030aac0001bb5635
:030aad0001bb4941
:030aae0001bb3d4c
:030aaf0001bb3058
:030ab00001bb2463
:030ab10001bb176f
:030ab20001bb0b7a
:030ab30001bafe87
:030ab40001baf193
:030ab50001bae59e
:030ab60001bad8aa
:030ab70001baccb5
:030ab80001babfc1
:030ab90001bab2cd
:030aba0001baa6d8
:030abb0001ba99e4
:030abc0001ba8cf0
:030abd0001ba80fb
:030abe0001ba7307
:030abf0001ba6613
:030ac00001ba5a1e
:030ac10001ba4d2a
:030ac20001ba4036
:030ac30001ba3441
:030ac40001ba274d
:030ac50001ba1a59
:030ac60001ba0e64
:030ac70001ba0170
:030ac80001b9f47d
:030ac90001b9e888
:030aca0001b9db94
:030acb0001b9cea0
:030acc0001b9c2ab
:030acd0001b9b5b7
:030ace0001b9a8c3
:030acf0001b99bcf
:030ad00001b98fda
:030ad10001b982e6
:030ad20001b975f2
:030ad30001b969fd
:030ad40001b95c09
:030ad50001b94f15
:030ad60001b94221
:030ad70001b9362c
:030ad80001b92938
:030ad90001b91c44
:030ada0001b90f50
:030adb0001b9035b
:030adc0001b8f668
:030add0001b8e974
:030ade0001b8dc80
:030adf0001b8cf8c
:030ae00001b8c397
:030ae10001b8b6a3
:030ae20001b8a9af
:030ae30001b89cbb
:030ae40001b890c6
:030ae50001b883d2
:030ae60001b876de
:030ae70001b869ea
:030ae80001b85cf6
:030ae90001b84f02
:030aea0001b8430d
:030aeb0001b83619
:030aec0001b82925
:030aed0001b81c31
:030aee0001b80f3d
:030aef0001b80249
:030af00001b7f655
:030af10001b7e961
:030af20001b7dc6d
:030af30001b7cf79
:030af40001b7c285
:030af50001b7b591
:030af60001b7a89d
:030af70001b79ba9
:030af80001b78fb4
:030af90001b782c0
:030afa0001b775cc
:030afb0001b768d8
:030afc0001b75be4
:030afd0001b74ef0
:030afe0001b741fc
:030aff0001b73408
:030b000001b72713
:030b010001b71a1f
:030b020001b70d2b
:030b030001b70136
:030b040001b6f443
:030b050001b6e74f
:030b060001b6da5b
:030b070001b6cd67
:030b080001b6c073
:030b090001b6b37f
:030b0a0001b6a68b
:030b0b0001b69997
:030b0c0001b68ca3
:030b0d0001b67faf
:030b0e0001b672bb
:030b0f0001b665c7
:030b100001b658d3
:030b110001b64bdf
:030b120001b63eeb
:030b130001b631f7
:030b140001b62403
:030b150001b6170f
:030b160001b60a1b
:030b170001b5fd28
:030b180001b5f034
:030b190001b5e340
:030b1a0001b5d64c
:030b1b0001b5c958
:030b1c0001b5bc64
:030b1d0001b5af70
:030b1e0001b5a27c
:030b1f0001b59588
:030b200001b58894
:030b210001b57ba0
:030b220001b56eac
:030b230001b561b8
:030b240001b554c4
:030b250001b546d1
:030b260001b539dd
:030b270001b52ce9
:030b280001b51ff5
:030b290001b51201
:030b2a0001b5050d
:030b2b0001b4f81a
:030b2c0001b4eb26
:030b2d0001b4de32
:030b2e0001b4d13e
:030b2f0001b4c44a
:030b300001b4b657
:030b310001b4a963
:030b320001b49c6f
:030b330001b48f7b
:030b340001b48287
:030b350001b47593
:030b360001b4689f
:030b370001b45aac
:030b380001b44db8
:030b390001b440c4
:030b3a0001b433d0
:030b3b0001b426dc
:030b3c0001b419e8
:030b3d0001b40cf4
:030b3e0001b3fe02
:030b3f0001b3f10e
:030b400001b3e41a
:030b410001b3d726
:030b420001b3ca32
:030b430001b3bc3f
:030b440001b3af4b
:030b450001b3a257
:030b460001b39563
:030b470001b3886f
:030b480001b37a7c
:030b490001b36d88
:030b4a0001b36094
:030b4b0001b353a0
:030b4c0001b345ad
:030b4d0001b338b9
:030b4e0001b32bc5
:030b4f0001b31ed1
:030b500001b311dd
:030b510001b303ea
:030b520001b2f6f7
:030b530001b2e903
:030b540001b2db10
:030b550001b2ce1c
:030b560001b2c128
:030b570001b2b434
:030b580001b2a641
:030b590001b2994d
:030b5a0001b28c59
:030b5b0001b27f65
:030b5c0001b27172
:030b5d0001b2647e
:030b5e0001b2578a
:030b5f0001b24997
:030b600001b23ca3
:030b610001b22faf
:030b620001b221bc
:030b630001b214c8
:030b640001b207d4
:030b650001b1f9e2
:030b660001b1ecee
:030b670001b1dffa
:030b680001b1d107
:030b690001b1c413
:030b6a0001b1b71f
:030b6b0001b1a92c
:030b6c0001b19c38
:030b6d0001b18f44
:030b6e0001b18151
:030b6f0001b1745d
:030b700001b1666a
:030b710001b15976
:030b720001b14c82
:030b730001b13e8f
:030b740001b1319b
:030b750001b123a8
:030b760001b116b4
:030b770001b109c0
:030b780001b0fbce
:030b790001b0eeda
:030b7a0001b0e0e7
:030b7b0001b0d3f3
:030b7c0001b0c6ff
:030b7d0001b0b80c
:030b7e0001b0ab18
:030b7f0001b09d25
:030b800001b09031
:030b810001b0823e
:030b820001b0754a
:030b830001b06757
:030b840001b05a63
:030b850001b04d6f
:030b860001b03f7c
:030b870001b03288
:030b880001b02495
:030b890001b017a1
:030b8a0001b009ae
:030b8b0001affcbb
:030b8c0001afeec8
:030b8d0001afe1d4
:030b8e0001afd3e1
:030b8f0001afc6ed
:030b900001afb8fa
:030b910001afab06
:030b920001af9d13
:030b930001af901f
:030b940001af822c
:030b950001af7538
:030b960001af6745
:030b970001af5952
:030b980001af4c5e
:030b990001af3e6b
:030b9a0001af3177
:030b9b0001af2384
:030b9c0001af1690
:030b9d0001af089d
:030b9e0001aefbaa
:030b9f0001aeedb7
:030ba00001aedfc4
:030ba10001aed2d0
:030ba20001aec4dd
:030ba30001aeb7e9
:030ba40001aea9f6
:030ba50001ae9c02
:030ba60001ae8e0f
:030ba70001ae801c
:030ba80001ae7328
:030ba90001ae6535
:030baa0001ae5742
:030bab0001ae4a4e
:030bac0001ae3c5b
:030bad0001ae2f67
:030bae0001ae2174
:030baf0001ae1381
:030bb00001ae068d
:030bb10001adf89b
:030bb20001adeaa8
:030bb30001adddb4
:030bb40001adcfc1
:030bb50001adc1ce
:030bb60001adb4da
:030bb70001ada6e7
:030bb80001ad98f4
:030bb90001ad8b00
:030bba0001ad7d0d
:030bbb0001ad6f1a
:030bbc0001ad6226
:030bbd0001ad5433
:030bbe0001ad4640
:030bbf0001ad394c
:030bc00001ad2b59
:030bc10001ad1d66
:030bc20001ad1072
:030bc30001ad027f
:030bc40001acf48d
:030bc50001ace69a
:030bc60001acd9a6
:030bc70001accbb3
:030bc80001acbdc0
:030bc90001acafcd
:030bca0001aca2d9
:030bcb0001ac94e6
:030bcc0001ac86f3
:030bcd0001ac7800
:030bce0001ac6b0c
:030bcf0001ac5d19
:030bd00001ac4f26
:030bd10001ac4133
:030bd20001ac343f
:030bd30001ac264c
:030bd40001ac1859
:030bd50001ac0a66
:030bd60001abfc74
:030bd70001abef80
:030bd80001abe18d
:030bd90001abd39a
:030bda0001abc5a7
:030bdb0001abb7b4
:030bdc0001abaac0
:030bdd0001ab9ccd
:030bde0001ab8eda
:030bdf0001ab80e7
:030be00001ab72f4
:030be10001ab6401
:030be20001ab570d
:030be30001ab491a
:030be40001ab3b27
:030be50001ab2d34
:030be60001ab1f41
:030be70001ab114e
:030be80001ab045a
:030be90001aaf668
:030bea0001aae875
:030beb0001aada82
:030bec0001aacc8f
:030bed0001aabe9c
:030bee0001aab0a9
:030bef0001aaa2b6
:030bf00001aa94c3
:030bf10001aa87cf
:030bf20001aa79dc
:030bf30001aa6be9
:030bf40001aa5df6
:030bf50001aa4f03
:030bf60001aa4110
:030bf70001aa331d
:030bf80001aa252a
:030bf90001aa1737
:030bfa0001aa0944
:030bfb0001a9fb52
:030bfc0001a9ed5f
:030bfd0001a9df6c
:030bfe0001a9d179
:030bff0001a9c485
:030c000001a9b691
:030c010001a9a89e
:030c020001a99aab
:030c030001a98cb8
:030c040001a97ec5
:030c050001a970d2
:030c060001a962df
:030c070001a954ec
:030c080001a946f9
:030c090001a93806
:030c0a0001a92a13
:030c0b0001a91c20
:030c0c0001a90e2d
:030c0d0001a9003a
:030c0e0001a8f248
:030c0f0001a8e455
:030c100001a8d662
:030c110001a8c86f
:030c120001a8ba7c
:030c130001a8ac89
:030c140001a89d97
:030c150001a88fa4
:030c160001a881b1
:030c170001a873be
:030c180001a865cb
:030c190001a857d8
:030c1a0001a849e5
:030c1b0001a83bf2
:030c1c0001a82dff
:030c1d0001a81f0c
:030c1e0001a81119
:030c1f0001a80326
:030c200001a7f534
:030c210001a7e741
:030c220001a7d94e
:030c230001a7ca5c
:030c240001a7bc69
:030c250001a7ae76
:030c260001a7a083
:030c270001a79290
:030c280001a7849d
:030c290001a776aa
:030c2a0001a768b7
:030c2b0001a759c5
:030c2c0001a74bd2
:030c2d0001a73ddf
:030c2e0001a72fec
:030c2f0001a721f9
:030c300001a71306
:030c310001a70513
:030c320001a6f622
:030c330001a6e82f
:030c340001a6da3c
:030c350001a6cc49
:030c360001a6be56
:030c370001a6b063
:030c380001a6a171
:030c390001a6937e
:030c3a0001a6858b
:030c3b0001a67798
:030c3c0001a669a5
:030c3d0001a65ab3
:030c3e0001a64cc0
:030c3f0001a63ecd
:030c400001a630da
:030c410001a622e7
:030c420001a613f5
:030c430001a60502
:030c440001a5f710
:030c450001a5e91d
:030c460001a5da2b
:030c470001a5cc38
:030c480001a5be45
:030c490001a5b052
:030c4a0001a5a160
:030c4b0001a5936d
:030c4c0001a5857a
:030c4d0001a57787
:030c4e0001a56895
:030c4f0001a55aa2
:030c500001a54caf
:030c510001a53dbd
:030c520001a52fca
:030c530001a521d7
:030c540001a513e4
:030c550001a504f2
:030c560001a4f600
:030c570001a4e80d
:030c580001a4d91b
:030c590001a4cb28
:030c5a0001a4bd35
:030c5b0001a4ae43
:030c5c0001a4a050
:030c5d0001a4925d
:030c5e0001a4836b
:030c5f0001a47578
:030c600001a46785
:030c610001a45893
:030c620001a44aa0
:030c630001a43cad
:030c640001a42dbb
:030c650001a41fc8
:030c660001a411d5
:030c670001a402e3
:030c680001a3f4f1
:030c690001a3e5ff
:030c6a0001a3d70c
:030c6b0001a3c919
:030c6c0001a3ba27
:030c6d0001a3ac34
:030c6e0001a39e41
:030c6f0001a38f4f
:030c700001a3815c
:030c710001a3726a
:030c720001a36477
:030c730001a35585
:030c740001a34792
:030c750001a3399f
:030c760001a32aad
:030c770001a31cba
:030c780001a30dc8
:030c790001a2ffd6
:030c7a0001a2f0e4
:030c7b0001a2e2f1
:030c7c0001a2d4fe
:030c7d0001a2c50c
:030c7e0001a2b719
:030c7f0001a2a827
:030c800001a29a34
:030c810001a28b42
:030c820001a27d4f
:030c830001a26e5d
:030c840001a2606a
:030c850001a25178
:030c860001a24385
:030c870001a23493
:030c880001a226a0
:030c890001a217ae
:030c8a0001a209bb
:030c8b0001a1faca
:030c8c0001a1ecd7
:030c8d0001a1dde5
:030c8e0001a1cff2
:030c8f0001a1c000
:030c900001a1b20d
:030c910001a1a31b
:030c920001a19528
:030c930001a18636
:030c940001a17744
:030c950001a16951
:030c960001a15a5f
:030c970001a14c6c
:030c980001a13d7a
:030c990001a12f87
:030c9a0001a12095
:030c9b0001a111a3
:030c9c0001a103b0
:030c9d0001a0f4bf
:030c9e0001a0e6cc
:030c9f0001a0d7da
:030ca00001a0c9e7
:030ca10001a0baf5
:030ca20001a0ab03
:030ca30001a09d10
:030ca40001a08e1e
:030ca50001a0802b
:030ca60001a07139
:030ca70001a06247
:030ca80001a05454
:030ca90001a04562
:030caa0001a03670
:030cab0001a0287d
:030cac0001a0198b
:030cad0001a00a99
:030cae00019ffca7
:030caf00019fedb5
:030cb000019fdec3
:030cb100019fd0d0
:030cb200019fc1de
:030cb300019fb2ec
:030cb400019fa4f9
:030cb500019f9507
:030cb600019f8615
:030cb700019f7822
:030cb800019f6930
:030cb900019f5a3e
:030cba00019f4c4b
:030cbb00019f3d59
:030cbc00019f2e67
:030cbd00019f2074
:030cbe00019f1182
:030cbf00019f0290
:030cc000019ef39f
:030cc100019ee5ac
:030cc200019ed6ba
:030cc300019ec7c8
:030cc400019eb9d5
:030cc500019eaae3
:030cc600019e9bf1
:030cc700019e8cff
:030cc800019e7e0c
:030cc900019e6f1a
:030cca00019e6028
:030ccb00019e5136
:030ccc00019e4244
:030ccd00019e3451
:030cce00019e255f
:030ccf00019e166d
:030cd000019e077b
:030cd100019df989
:030cd200019dea97
:030cd300019ddba5
:030cd400019dccb3
:030cd500019dbdc1
:030cd600019dafce
:030cd700019da0dc
:030cd800019d91ea
:030cd900019d82f8
:030cda00019d7306
:030cdb00019d6513
:030cdc00019d5621
:030cdd00019d472f
:030cde00019d383d
:030cdf00019d294b
:030ce000019d1a59
:030ce100019d0b67
:030ce200019cfd75
:030ce300019cee83
:030ce400019cdf91
:030ce500019cd09f
:030ce600019cc1ad
:030ce700019cb2bb
:030ce800019ca3c9
:030ce900019c95d6
:030cea00019c86e4
:030ceb00019c77f2
:030cec00019c6800
:030ced00019c590e
:030cee00019c4a1c
:030cef00019c3b2a
:030cf000019c2c38
:030cf100019c1d46
:030cf200019c0e54
:030cf300019c0061
:030cf400019bf170
:030cf500019be27e
:030cf600019bd38c
:030cf700019bc49a
:030cf800019bb5a8
:030cf900019ba6b6
:030cfa00019b97c4
:030cfb00019b88d2
:030cfc00019b79e0
:030cfd00019b6aee
:030cfe00019b5bfc
:030cff00019b4c0a
:030d0000019b3d17
:030d0100019b2e25
:030d0200019b1f33
:030d0300019b1041
:030d0400019b014f
:030d0500019af25e
:030d0600019ae36c
:030d0700019ad47a
:030d0800019ac588
:030d0900019ab696
:030d0a00019aa7a4
:030d0b00019a98b2
:030d0c00019a89c0
:030d0d00019a7ace
:030d0e00019a6bdc
:030d0f00019a5cea
:030d1000019a4df8
:030d1100019a3e06
:030d1200019a2f14
:030d1300019a2022
:030d1400019a1130
:030d1500019a023e
:030d16000199f34d
:030d17000199e45b
:030d18000199d569
:030d19000199c677
:030d1a000199b785
:030d1b000199a893
:030d1c00019998a2
:030d1d00019989b0
:030d1e0001997abe
:030d1f0001996bcc
:030d200001995cda
:030d210001994de8
:030d220001993ef6
:030d230001992f04
:030d240001992012
:030d250001991120
:030d26000199022e
:030d27000198f23e
:030d28000198e34c
:030d29000198d45a
:030d2a000198c568
:030d2b000198b676
:030d2c000198a784
:030d2d0001989892
:030d2e00019888a1
:030d2f00019879af
:030d300001986abd
:030d310001985bcb
:030d320001984cd9
:030d330001983de7
:030d340001982df6
:030d350001981e04
:030d360001980f12
:030d370001980020
:030d38000197f12f
:030d39000197e23d
:030d3a000197d24c
:030d3b000197c35a
:030d3c000197b468
:030d3d000197a576
:030d3e0001979684
:030d3f0001978693
:030d4000019777a1
:030d4100019768af
:030d4200019759bd
:030d4300019749cc
:030d440001973ada
:030d450001972be8
:030d460001971cf6
:030d470001970d04
:030d48000196fd14
:030d49000196ee22
:030d4a000196df30
:030d4b000196d03e
:030d4c000196c04d
:030d4d000196b15b
:030d4e000196a269
:030d4f0001969278
:030d500001968386
:030d510001967494
:030d5200019665a2
:030d5300019655b1
:030d5400019646bf
:030d5500019637cd
:030d5600019627dc
:030d5700019618ea
:030d5800019609f8
:030d59000195f908
:030d5a000195ea16
:030d5b000195db24
:030d5c000195cc32
:030d5d000195bc41
:030d5e000195ad4f
:030d5f0001959e5d
:030d600001958e6c
:030d610001957f7a
:030d620001957088
:030d630001956097
:030d6400019551a5
:030d6500019541b4
:030d6600019532c2
:030d6700019523d0
:030d6800019513df
:030d6900019504ed
:030d6a000194f5fc
:030d6b000194e50b
:030d6c000194d619
:030d6d000194c628
:030d6e000194b736
:030d6f000194a844
:030d700001949853
:030d710001948961
:030d720001947970
:030d730001946a7e
:030d740001945b8c
:030d750001944b9b
:030d760001943ca9
:030d770001942cb8
:030d780001941dc6
:030d790001940dd5
:030d7a000193fee4
:030d7b000193eff2
:030d7c000193df01
:030d7d000193d00f
:030d7e000193c01e
:030d7f000193b12c
:030d80000193a13b
:030d810001939249
:030d820001938258
:030d830001937366
:030d840001936375
:030d850001935483
:030d860001934591
:030d8700019335a0
:030d8800019326ae
:030d8900019316bd
:030d8a00019307cb
:030d8b000192f7db
:030d8c000192e8e9
:030d8d000192d8f8
:030d8e000192c906
:030d8f000192b915
:030d90000192a924
:030d910001929a32
:030d920001928a41
:030d930001927b4f
:030d940001926b5e
:030d950001925c6c
:030d960001924c7b
:030d970001923d89
:030d980001922d98
:030d990001921ea6
:030d9a0001920eb5
:030d9b000191fec5
:030d9c000191efd3
:030d9d000191dfe2
:030d9e000191d0f0
:030d9f000191c0ff
:030da0000191b10d
:030da1000191a11c
:030da2000191912b
:030da30001918239
:030da40001917248
:030da50001916356
:030da60001915365
:030da70001914374
:030da80001913482
:030da90001912491
:030daa000191159f
:030dab00019105ae
:030dac000190f5be
:030dad000190e6cc
:030dae000190d6db
:030daf000190c6ea
:030db0000190b7f8
:030db1000190a707
:030db20001909815
:030db30001908824
:030db40001907833
:030db50001906941
:030db60001905950
:030db7000190495f
:030db80001903a6d
:030db90001902a7c
:030dba0001901a8b
:030dbb0001900a9a
:030dbc00018ffba9
:030dbd00018febb8
:030dbe00018fdbc7
:030dbf00018fccd5
:030dc000018fbce4
:030dc100018facf3
:030dc200018f9d01
:030dc300018f8d10
:030dc400018f7d1f
:030dc500018f6d2e
:030dc600018f5e3c
:030dc700018f4e4b
:030dc800018f3e5a
:030dc900018f2f68
:030dca00018f1f77
:030dcb00018f0f86
:030dcc00018eff96
:030dcd00018ef0a4
:030dce00018ee0b3
:030dcf00018ed0c2
:030dd000018ec0d1
:030dd100018eb0e0
:030dd200018ea1ee
:030dd300018e91fd
:030dd400018e810c
:030dd500018e711b
:030dd600018e6229
:030dd700018e5238
:030dd800018e4247
:030dd900018e3256
:030dda00018e2265
:030ddb00018e1373
:030ddc00018e0382
:030ddd00018df392
:030dde00018de3a1
:030ddf00018dd3b0
:030de000018dc4be
:030de100018db4cd
:030de200018da4dc
