:0300000001fffffe
:0300010001fffffd
:0300020001fffffc
:0300030001fffffb
:0300040001fffffa
:0300050001fffff9
:0300060001fffff8
:0300070001fffff7
:0300080001fffff6
:0300090001fffff5
:03000a0001fffff4
:03000b0001fffff3
:03000c0001fffff2
:03000d0001fffff1
:03000e0001fffff0
:03000f0001ffffef
:0300100001ffffee
:0300110001ffffed
:0300120001ffffec
:0300130001ffffeb
:0300140001ffffea
:0300150001ffffe9
:0300160001ffffe8
:0300170001ffffe7
:0300180001ffffe6
:0300190001ffffe5
:03001a0001ffffe4
:03001b0001ffffe3
:03001c0001ffffe2
:03001d0001fffee2
:03001e0001fffee1
:03001f0001fffee0
:0300200001fffedf
:0300210001fffede
:0300220001fffedd
:0300230001fffedc
:0300240001fffedb
:0300250001fffeda
:0300260001fffed9
:0300270001fffed8
:0300280001fffed7
:0300290001fffed6
:03002a0001fffed5
:03002b0001fffed4
:03002c0001fffed3
:03002d0001fffed2
:03002e0001fffed1
:03002f0001fffed0
:0300300001fffecf
:0300310001fffece
:0300320001fffdce
:0300330001fffdcd
:0300340001fffdcc
:0300350001fffdcb
:0300360001fffdca
:0300370001fffdc9
:0300380001fffdc8
:0300390001fffdc7
:03003a0001fffdc6
:03003b0001fffdc5
:03003c0001fffdc4
:03003d0001fffdc3
:03003e0001fffdc2
:03003f0001fffdc1
:0300400001fffdc0
:0300410001fffcc0
:0300420001fffcbf
:0300430001fffcbe
:0300440001fffcbd
:0300450001fffcbc
:0300460001fffcbb
:0300470001fffcba
:0300480001fffcb9
:0300490001fffcb8
:03004a0001fffcb7
:03004b0001fffcb6
:03004c0001fffcb5
:03004d0001fffbb5
:03004e0001fffbb4
:03004f0001fffbb3
:0300500001fffbb2
:0300510001fffbb1
:0300520001fffbb0
:0300530001fffbaf
:0300540001fffbae
:0300550001fffbad
:0300560001fffbac
:0300570001fffaac
:0300580001fffaab
:0300590001fffaaa
:03005a0001fffaa9
:03005b0001fffaa8
:03005c0001fffaa7
:03005d0001fffaa6
:03005e0001fffaa5
:03005f0001fffaa4
:0300600001fff9a4
:0300610001fff9a3
:0300620001fff9a2
:0300630001fff9a1
:0300640001fff9a0
:0300650001fff99f
:0300660001fff99e
:0300670001fff99d
:0300680001fff89d
:0300690001fff89c
:03006a0001fff89b
:03006b0001fff89a
:03006c0001fff899
:03006d0001fff898
:03006e0001fff897
:03006f0001fff896
:0300700001fff796
:0300710001fff795
:0300720001fff794
:0300730001fff793
:0300740001fff792
:0300750001fff791
:0300760001fff790
:0300770001fff690
:0300780001fff68f
:0300790001fff68e
:03007a0001fff68d
:03007b0001fff68c
:03007c0001fff68b
:03007d0001fff68a
:03007e0001fff58a
:03007f0001fff589
:0300800001fff588
:0300810001fff587
:0300820001fff586
:0300830001fff585
:0300840001fff584
:0300850001fff484
:0300860001fff483
:0300870001fff482
:0300880001fff481
:0300890001fff480
:03008a0001fff47f
:03008b0001fff37f
:03008c0001fff37e
:03008d0001fff37d
:03008e0001fff37c
:03008f0001fff37b
:0300900001fff37a
:0300910001fff27a
:0300920001fff279
:0300930001fff278
:0300940001fff277
:0300950001fff276
:0300960001fff176
:0300970001fff175
:0300980001fff174
:0300990001fff173
:03009a0001fff172
:03009b0001fff171
:03009c0001fff071
:03009d0001fff070
:03009e0001fff06f
:03009f0001fff06e
:0300a00001fff06d
:0300a10001ffef6d
:0300a20001ffef6c
:0300a30001ffef6b
:0300a40001ffef6a
:0300a50001ffef69
:0300a60001ffee69
:0300a70001ffee68
:0300a80001ffee67
:0300a90001ffee66
:0300aa0001ffee65
:0300ab0001ffed65
:0300ac0001ffed64
:0300ad0001ffed63
:0300ae0001ffed62
:0300af0001ffed61
:0300b00001ffec61
:0300b10001ffec60
:0300b20001ffec5f
:0300b30001ffec5e
:0300b40001ffeb5e
:0300b50001ffeb5d
:0300b60001ffeb5c
:0300b70001ffeb5b
:0300b80001ffeb5a
:0300b90001ffea5a
:0300ba0001ffea59
:0300bb0001ffea58
:0300bc0001ffea57
:0300bd0001ffe957
:0300be0001ffe956
:0300bf0001ffe955
:0300c00001ffe954
:0300c10001ffe953
:0300c20001ffe853
:0300c30001ffe852
:0300c40001ffe851
:0300c50001ffe850
:0300c60001ffe750
:0300c70001ffe74f
:0300c80001ffe74e
:0300c90001ffe74d
:0300ca0001ffe64d
:0300cb0001ffe64c
:0300cc0001ffe64b
:0300cd0001ffe64a
:0300ce0001ffe54a
:0300cf0001ffe549
:0300d00001ffe548
:0300d10001ffe547
:0300d20001ffe447
:0300d30001ffe446
:0300d40001ffe445
:0300d50001ffe444
:0300d60001ffe344
:0300d70001ffe343
:0300d80001ffe342
:0300d90001ffe341
:0300da0001ffe241
:0300db0001ffe240
:0300dc0001ffe23f
:0300dd0001ffe23e
:0300de0001ffe13e
:0300df0001ffe13d
:0300e00001ffe13c
:0300e10001ffe13b
:0300e20001ffe03b
:0300e30001ffe03a
:0300e40001ffe039
:0300e50001ffdf39
:0300e60001ffdf38
:0300e70001ffdf37
:0300e80001ffdf36
:0300e90001ffde36
:0300ea0001ffde35
:0300eb0001ffde34
:0300ec0001ffdd34
:0300ed0001ffdd33
:0300ee0001ffdd32
:0300ef0001ffdd31
:0300f00001ffdc31
:0300f10001ffdc30
:0300f20001ffdc2f
:0300f30001ffdb2f
:0300f40001ffdb2e
:0300f50001ffdb2d
:0300f60001ffdb2c
:0300f70001ffda2c
:0300f80001ffda2b
:0300f90001ffda2a
:0300fa0001ffd92a
:0300fb0001ffd929
:0300fc0001ffd928
:0300fd0001ffd828
:0300fe0001ffd827
:0300ff0001ffd826
:0301000001ffd824
:0301010001ffd724
:0301020001ffd723
:0301030001ffd722
:0301040001ffd622
:0301050001ffd621
:0301060001ffd620
:0301070001ffd520
:0301080001ffd51f
:0301090001ffd51e
:03010a0001ffd41e
:03010b0001ffd41d
:03010c0001ffd41c
:03010d0001ffd31c
:03010e0001ffd31b
:03010f0001ffd31a
:0301100001ffd21a
:0301110001ffd219
:0301120001ffd218
:0301130001ffd118
:0301140001ffd117
:0301150001ffd116
:0301160001ffd016
:0301170001ffd015
:0301180001ffd014
:0301190001ffcf14
:03011a0001ffcf13
:03011b0001ffcf12
:03011c0001ffce12
:03011d0001ffce11
:03011e0001ffce10
:03011f0001ffcd10
:0301200001ffcd0f
:0301210001ffcd0e
:0301220001ffcc0e
:0301230001ffcc0d
:0301240001ffcc0c
:0301250001ffcb0c
:0301260001ffcb0b
:0301270001ffcb0a
:0301280001ffca0a
:0301290001ffca09
:03012a0001ffca08
:03012b0001ffc908
:03012c0001ffc907
:03012d0001ffc807
:03012e0001ffc806
:03012f0001ffc805
:0301300001ffc705
:0301310001ffc704
:0301320001ffc703
:0301330001ffc603
:0301340001ffc602
:0301350001ffc502
:0301360001ffc501
:0301370001ffc500
:0301380001ffc400
:0301390001ffc4ff
:03013a0001ffc4fe
:03013b0001ffc3fe
:03013c0001ffc3fd
:03013d0001ffc2fd
:03013e0001ffc2fc
:03013f0001ffc2fb
:0301400001ffc1fb
:0301410001ffc1fa
:0301420001ffc1f9
:0301430001ffc0f9
:0301440001ffc0f8
:0301450001ffbff8
:0301460001ffbff7
:0301470001ffbff6
:0301480001ffbef6
:0301490001ffbef5
:03014a0001ffbdf5
:03014b0001ffbdf4
:03014c0001ffbdf3
:03014d0001ffbcf3
:03014e0001ffbcf2
:03014f0001ffbbf2
:0301500001ffbbf1
:0301510001ffbbf0
:0301520001ffbaf0
:0301530001ffbaef
:0301540001ffb9ef
:0301550001ffb9ee
:0301560001ffb9ed
:0301570001ffb8ed
:0301580001ffb8ec
:0301590001ffb7ec
:03015a0001ffb7eb
:03015b0001ffb6eb
:03015c0001ffb6ea
:03015d0001ffb6e9
:03015e0001ffb5e9
:03015f0001ffb5e8
:0301600001ffb4e8
:0301610001ffb4e7
:0301620001ffb4e6
:0301630001ffb3e6
:0301640001ffb3e5
:0301650001ffb2e5
:0301660001ffb2e4
:0301670001ffb1e4
:0301680001ffb1e3
:0301690001ffb1e2
:03016a0001ffb0e2
:03016b0001ffb0e1
:03016c0001ffafe1
:03016d0001ffafe0
:03016e0001ffaee0
:03016f0001ffaedf
:0301700001ffaddf
:0301710001ffadde
:0301720001ffaddd
:0301730001ffacdd
:0301740001ffacdc
:0301750001ffabdc
:0301760001ffabdb
:0301770001ffaadb
:0301780001ffaada
:0301790001ffa9da
:03017a0001ffa9d9
:03017b0001ffa8d9
:03017c0001ffa8d8
:03017d0001ffa8d7
:03017e0001ffa7d7
:03017f0001ffa7d6
:0301800001ffa6d6
:0301810001ffa6d5
:0301820001ffa5d5
:0301830001ffa5d4
:0301840001ffa4d4
:0301850001ffa4d3
:0301860001ffa3d3
:0301870001ffa3d2
:0301880001ffa2d2
:0301890001ffa2d1
:03018a0001ffa1d1
:03018b0001ffa1d0
:03018c0001ffa1cf
:03018d0001ffa0cf
:03018e0001ffa0ce
:03018f0001ff9fce
:0301900001ff9fcd
:0301910001ff9ecd
:0301920001ff9ecc
:0301930001ff9dcc
:0301940001ff9dcb
:0301950001ff9ccb
:0301960001ff9cca
:0301970001ff9bca
:0301980001ff9bc9
:0301990001ff9ac9
:03019a0001ff9ac8
:03019b0001ff99c8
:03019c0001ff99c7
:03019d0001ff98c7
:03019e0001ff98c6
:03019f0001ff97c6
:0301a00001ff97c5
:0301a10001ff96c5
:0301a20001ff96c4
:0301a30001ff95c4
:0301a40001ff95c3
:0301a50001ff94c3
:0301a60001ff94c2
:0301a70001ff93c2
:0301a80001ff93c1
:0301a90001ff92c1
:0301aa0001ff92c0
:0301ab0001ff91c0
:0301ac0001ff91bf
:0301ad0001ff90bf
:0301ae0001ff90be
:0301af0001ff8fbe
:0301b00001ff8fbd
:0301b10001ff8ebd
:0301b20001ff8ebc
:0301b30001ff8dbc
:0301b40001ff8dbb
:0301b50001ff8cbb
:0301b60001ff8bbb
:0301b70001ff8bba
:0301b80001ff8aba
:0301b90001ff8ab9
:0301ba0001ff89b9
:0301bb0001ff89b8
:0301bc0001ff88b8
:0301bd0001ff88b7
:0301be0001ff87b7
:0301bf0001ff87b6
:0301c00001ff86b6
:0301c10001ff86b5
:0301c20001ff85b5
:0301c30001ff84b5
:0301c40001ff84b4
:0301c50001ff83b4
:0301c60001ff83b3
:0301c70001ff82b3
:0301c80001ff82b2
:0301c90001ff81b2
:0301ca0001ff81b1
:0301cb0001ff80b1
:0301cc0001ff80b0
:0301cd0001ff7fb0
:0301ce0001ff7eb0
:0301cf0001ff7eaf
:0301d00001ff7daf
:0301d10001ff7dae
:0301d20001ff7cae
:0301d30001ff7cad
:0301d40001ff7bad
:0301d50001ff7bac
:0301d60001ff7aac
:0301d70001ff79ac
:0301d80001ff79ab
:0301d90001ff78ab
:0301da0001ff78aa
:0301db0001ff77aa
:0301dc0001ff77a9
:0301dd0001ff76a9
:0301de0001ff75a9
:0301df0001ff75a8
:0301e00001ff74a8
:0301e10001ff74a7
:0301e20001ff73a7
:0301e30001ff72a7
:0301e40001ff72a6
:0301e50001ff71a6
:0301e60001ff71a5
:0301e70001ff70a5
:0301e80001ff70a4
:0301e90001ff6fa4
:0301ea0001ff6ea4
:0301eb0001ff6ea3
:0301ec0001ff6da3
:0301ed0001ff6da2
:0301ee0001ff6ca2
:0301ef0001ff6ba2
:0301f00001ff6ba1
:0301f10001ff6aa1
:0301f20001ff6aa0
:0301f30001ff69a0
:0301f40001ff68a0
:0301f50001ff689f
:0301f60001ff679f
:0301f70001ff679e
:0301f80001ff669e
:0301f90001ff659e
:0301fa0001ff659d
:0301fb0001ff649d
:0301fc0001ff649c
:0301fd0001ff639c
:0301fe0001ff629c
:0301ff0001ff629b
:0302000001ff619a
:0302010001ff6199
:0302020001ff6099
:0302030001ff5f99
:0302040001ff5f98
:0302050001ff5e98
:0302060001ff5d98
:0302070001ff5d97
:0302080001ff5c97
:0302090001ff5c96
:03020a0001ff5b96
:03020b0001ff5a96
:03020c0001ff5a95
:03020d0001ff5995
:03020e0001ff5895
:03020f0001ff5894
:0302100001ff5794
:0302110001ff5694
:0302120001ff5693
:0302130001ff5593
:0302140001ff5592
:0302150001ff5492
:0302160001ff5392
:0302170001ff5391
:0302180001ff5291
:0302190001ff5191
:03021a0001ff5190
:03021b0001ff5090
:03021c0001ff4f90
:03021d0001ff4f8f
:03021e0001ff4e8f
:03021f0001ff4d8f
:0302200001ff4d8e
:0302210001ff4c8e
:0302220001ff4b8e
:0302230001ff4b8d
:0302240001ff4a8d
:0302250001ff498d
:0302260001ff498c
:0302270001ff488c
:0302280001ff478c
:0302290001ff478b
:03022a0001ff468b
:03022b0001ff458b
:03022c0001ff458a
:03022d0001ff448a
:03022e0001ff438a
:03022f0001ff4389
:0302300001ff4289
:0302310001ff4189
:0302320001ff4188
:0302330001ff4088
:0302340001ff3f88
:0302350001ff3f87
:0302360001ff3e87
:0302370001ff3d87
:0302380001ff3d86
:0302390001ff3c86
:03023a0001ff3b86
:03023b0001ff3b85
:03023c0001ff3a85
:03023d0001ff3985
:03023e0001ff3984
:03023f0001ff3884
:0302400001ff3784
:0302410001ff3684
:0302420001ff3683
:0302430001ff3583
:0302440001ff3483
:0302450001ff3482
:0302460001ff3382
:0302470001ff3282
:0302480001ff3281
:0302490001ff3181
:03024a0001ff3081
:03024b0001ff2f81
:03024c0001ff2f80
:03024d0001ff2e80
:03024e0001ff2d80
:03024f0001ff2d7f
:0302500001ff2c7f
:0302510001ff2b7f
:0302520001ff2b7e
:0302530001ff2a7e
:0302540001ff297e
:0302550001ff287e
:0302560001ff287d
:0302570001ff277d
:0302580001ff267d
:0302590001ff257d
:03025a0001ff257c
:03025b0001ff247c
:03025c0001ff237c
:03025d0001ff237b
:03025e0001ff227b
:03025f0001ff217b
:0302600001ff207b
:0302610001ff207a
:0302620001ff1f7a
:0302630001ff1e7a
:0302640001ff1d7a
:0302650001ff1d79
:0302660001ff1c79
:0302670001ff1b79
:0302680001ff1a79
:0302690001ff1a78
:03026a0001ff1978
:03026b0001ff1878
:03026c0001ff1877
:03026d0001ff1777
:03026e0001ff1677
:03026f0001ff1577
:0302700001ff1576
:0302710001ff1476
:0302720001ff1376
:0302730001ff1276
:0302740001ff1176
:0302750001ff1175
:0302760001ff1075
:0302770001ff0f75
:0302780001ff0e75
:0302790001ff0e74
:03027a0001ff0d74
:03027b0001ff0c74
:03027c0001ff0b74
:03027d0001ff0b73
:03027e0001ff0a73
:03027f0001ff0973
:0302800001ff0873
:0302810001ff0872
:0302820001ff0772
:0302830001ff0672
:0302840001ff0572
:0302850001ff0472
:0302860001ff0471
:0302870001ff0371
:0302880001ff0271
:0302890001ff0171
:03028a0001ff0170
:03028b0001ff0070
:03028c0001feff71
:03028d0001fefe71
:03028e0001fefd71
:03028f0001fefd70
:0302900001fefc70
:0302910001fefb70
:0302920001fefa70
:0302930001fef970
:0302940001fef96f
:0302950001fef86f
:0302960001fef76f
:0302970001fef66f
:0302980001fef56f
:0302990001fef56e
:03029a0001fef46e
:03029b0001fef36e
:03029c0001fef26e
:03029d0001fef16e
:03029e0001fef16d
:03029f0001fef06d
:0302a00001feef6d
:0302a10001feee6d
:0302a20001feed6d
:0302a30001feed6c
:0302a40001feec6c
:0302a50001feeb6c
:0302a60001feea6c
:0302a70001fee96c
:0302a80001fee96b
:0302a90001fee86b
:0302aa0001fee76b
:0302ab0001fee66b
:0302ac0001fee56b
:0302ad0001fee46b
:0302ae0001fee46a
:0302af0001fee36a
:0302b00001fee26a
:0302b10001fee16a
:0302b20001fee06a
:0302b30001fedf6a
:0302b40001fedf69
:0302b50001fede69
:0302b60001fedd69
:0302b70001fedc69
:0302b80001fedb69
:0302b90001feda69
:0302ba0001feda68
:0302bb0001fed968
:0302bc0001fed868
:0302bd0001fed768
:0302be0001fed668
:0302bf0001fed568
:0302c00001fed567
:0302c10001fed467
:0302c20001fed367
:0302c30001fed267
:0302c40001fed167
:0302c50001fed067
:0302c60001fecf67
:0302c70001fecf66
:0302c80001fece66
:0302c90001fecd66
:0302ca0001fecc66
:0302cb0001fecb66
:0302cc0001feca66
:0302cd0001fec966
:0302ce0001fec965
:0302cf0001fec865
:0302d00001fec765
:0302d10001fec665
:0302d20001fec565
:0302d30001fec465
:0302d40001fec365
:0302d50001fec265
:0302d60001fec264
:0302d70001fec164
:0302d80001fec064
:0302d90001febf64
:0302da0001febe64
:0302db0001febd64
:0302dc0001febc64
:0302dd0001febb64
:0302de0001febb63
:0302df0001feba63
:0302e00001feb963
:0302e10001feb863
:0302e20001feb763
:0302e30001feb663
:0302e40001feb563
:0302e50001feb463
:0302e60001feb363
:0302e70001feb362
:0302e80001feb262
:0302e90001feb162
:0302ea0001feb062
:0302eb0001feaf62
:0302ec0001feae62
:0302ed0001fead62
:0302ee0001feac62
:0302ef0001feab62
:0302f00001feaa62
:0302f10001feaa61
:0302f20001fea961
:0302f30001fea861
:0302f40001fea761
:0302f50001fea661
:0302f60001fea561
:0302f70001fea461
:0302f80001fea361
:0302f90001fea261
:0302fa0001fea161
:0302fb0001fea061
:0302fc0001fea060
:0302fd0001fe9f60
:0302fe0001fe9e60
:0302ff0001fe9d60
:0303000001fe9c5f
:0303010001fe9b5f
:0303020001fe9a5f
:0303030001fe995f
:0303040001fe985f
:0303050001fe975f
:0303060001fe965f
:0303070001fe955f
:0303080001fe945f
:0303090001fe935f
:03030a0001fe935e
:03030b0001fe925e
:03030c0001fe915e
:03030d0001fe905e
:03030e0001fe8f5e
:03030f0001fe8e5e
:0303100001fe8d5e
:0303110001fe8c5e
:0303120001fe8b5e
:0303130001fe8a5e
:0303140001fe895e
:0303150001fe885e
:0303160001fe875e
:0303170001fe865e
:0303180001fe855e
:0303190001fe845e
:03031a0001fe835e
:03031b0001fe825e
:03031c0001fe825d
:03031d0001fe815d
:03031e0001fe805d
:03031f0001fe7f5d
:0303200001fe7e5d
:0303210001fe7d5d
:0303220001fe7c5d
:0303230001fe7b5d
:0303240001fe7a5d
:0303250001fe795d
:0303260001fe785d
:0303270001fe775d
:0303280001fe765d
:0303290001fe755d
:03032a0001fe745d
:03032b0001fe735d
:03032c0001fe725d
:03032d0001fe715d
:03032e0001fe705d
:03032f0001fe6f5d
:0303300001fe6e5d
:0303310001fe6d5d
:0303320001fe6c5d
:0303330001fe6b5d
:0303340001fe6a5d
:0303350001fe695d
:0303360001fe685d
:0303370001fe675d
:0303380001fe665d
:0303390001fe655d
:03033a0001fe645d
:03033b0001fe635d
:03033c0001fe625d
:03033d0001fe615d
:03033e0001fe605d
:03033f0001fe5f5d
:0303400001fe5e5d
:0303410001fe5d5d
:0303420001fe5c5d
:0303430001fe5b5d
:0303440001fe5a5d
:0303450001fe595d
:0303460001fe585d
:0303470001fe575d
:0303480001fe565d
:0303490001fe555d
:03034a0001fe545d
:03034b0001fe535d
:03034c0001fe525d
:03034d0001fe515d
:03034e0001fe505d
:03034f0001fe4f5d
:0303500001fe4e5d
:0303510001fe4d5d
:0303520001fe4c5d
:0303530001fe4b5d
:0303540001fe4a5d
:0303550001fe495d
:0303560001fe485d
:0303570001fe475d
:0303580001fe465d
:0303590001fe455d
:03035a0001fe445d
:03035b0001fe435d
:03035c0001fe425d
:03035d0001fe415d
:03035e0001fe405d
:03035f0001fe3f5d
:0303600001fe3e5d
:0303610001fe3d5d
:0303620001fe3b5e
:0303630001fe3a5e
:0303640001fe395e
:0303650001fe385e
:0303660001fe375e
:0303670001fe365e
:0303680001fe355e
:0303690001fe345e
:03036a0001fe335e
:03036b0001fe325e
:03036c0001fe315e
:03036d0001fe305e
:03036e0001fe2f5e
:03036f0001fe2e5e
:0303700001fe2d5e
:0303710001fe2c5e
:0303720001fe2b5e
:0303730001fe2a5e
:0303740001fe295e
:0303750001fe275f
:0303760001fe265f
:0303770001fe255f
:0303780001fe245f
:0303790001fe235f
:03037a0001fe225f
:03037b0001fe215f
:03037c0001fe205f
:03037d0001fe1f5f
:03037e0001fe1e5f
:03037f0001fe1d5f
:0303800001fe1c5f
:0303810001fe1b5f
:0303820001fe1a5f
:0303830001fe1860
:0303840001fe1760
:0303850001fe1660
:0303860001fe1560
:0303870001fe1460
:0303880001fe1360
:0303890001fe1260
:03038a0001fe1160
:03038b0001fe1060
:03038c0001fe0f60
:03038d0001fe0e60
:03038e0001fe0c61
:03038f0001fe0b61
:0303900001fe0a61
:0303910001fe0961
:0303920001fe0861
:0303930001fe0761
:0303940001fe0661
:0303950001fe0561
:0303960001fe0461
:0303970001fe0361
:0303980001fe0162
:0303990001fe0062
:03039a0001fdff63
:03039b0001fdfe63
:03039c0001fdfd63
:03039d0001fdfc63
:03039e0001fdfb63
:03039f0001fdfa63
:0303a00001fdf963
:0303a10001fdf764
:0303a20001fdf664
:0303a30001fdf564
:0303a40001fdf464
:0303a50001fdf364
:0303a60001fdf264
:0303a70001fdf164
:0303a80001fdf064
:0303a90001fdee65
:0303aa0001fded65
:0303ab0001fdec65
:0303ac0001fdeb65
:0303ad0001fdea65
:0303ae0001fde965
:0303af0001fde865
:0303b00001fde765
:0303b10001fde566
:0303b20001fde466
:0303b30001fde366
:0303b40001fde266
:0303b50001fde166
:0303b60001fde066
:0303b70001fddf66
:0303b80001fddd67
:0303b90001fddc67
:0303ba0001fddb67
:0303bb0001fdda67
:0303bc0001fdd967
:0303bd0001fdd867
:0303be0001fdd767
:0303bf0001fdd568
:0303c00001fdd468
:0303c10001fdd368
:0303c20001fdd268
:0303c30001fdd168
:0303c40001fdd068
:0303c50001fdce69
:0303c60001fdcd69
:0303c70001fdcc69
:0303c80001fdcb69
:0303c90001fdca69
:0303ca0001fdc969
:0303cb0001fdc76a
:0303cc0001fdc66a
:0303cd0001fdc56a
:0303ce0001fdc46a
:0303cf0001fdc36a
:0303d00001fdc26a
:0303d10001fdc06b
:0303d20001fdbf6b
:0303d30001fdbe6b
:0303d40001fdbd6b
:0303d50001fdbc6b
:0303d60001fdbb6b
:0303d70001fdb96c
:0303d80001fdb86c
:0303d90001fdb76c
:0303da0001fdb66c
:0303db0001fdb56c
:0303dc0001fdb36d
:0303dd0001fdb26d
:0303de0001fdb16d
:0303df0001fdb06d
:0303e00001fdaf6d
:0303e10001fdad6e
:0303e20001fdac6e
:0303e30001fdab6e
:0303e40001fdaa6e
:0303e50001fda96e
:0303e60001fda76f
:0303e70001fda66f
:0303e80001fda56f
:0303e90001fda46f
:0303ea0001fda36f
:0303eb0001fda170
:0303ec0001fda070
:0303ed0001fd9f70
:0303ee0001fd9e70
:0303ef0001fd9d70
:0303f00001fd9b71
:0303f10001fd9a71
:0303f20001fd9971
:0303f30001fd9871
:0303f40001fd9771
:0303f50001fd9572
:0303f60001fd9472
:0303f70001fd9372
:0303f80001fd9272
:0303f90001fd9073
:0303fa0001fd8f73
:0303fb0001fd8e73
:0303fc0001fd8d73
:0303fd0001fd8c73
:0303fe0001fd8a74
:0303ff0001fd8974
:0304000001fd8873
:0304010001fd8773
:0304020001fd8574
:0304030001fd8474
:0304040001fd8374
:0304050001fd8274
:0304060001fd8075
:0304070001fd7f75
:0304080001fd7e75
:0304090001fd7d75
:03040a0001fd7b76
:03040b0001fd7a76
:03040c0001fd7976
:03040d0001fd7876
:03040e0001fd7677
:03040f0001fd7577
:0304100001fd7477
:0304110001fd7377
:0304120001fd7178
:0304130001fd7078
:0304140001fd6f78
:0304150001fd6e78
:0304160001fd6c79
:0304170001fd6b79
:0304180001fd6a79
:0304190001fd6979
:03041a0001fd677a
:03041b0001fd667a
:03041c0001fd657a
:03041d0001fd647a
:03041e0001fd627b
:03041f0001fd617b
:0304200001fd607b
:0304210001fd5f7b
:0304220001fd5d7c
:0304230001fd5c7c
:0304240001fd5b7c
:0304250001fd597d
:0304260001fd587d
:0304270001fd577d
:0304280001fd567d
:0304290001fd547e
:03042a0001fd537e
:03042b0001fd527e
:03042c0001fd517e
:03042d0001fd4f7f
:03042e0001fd4e7f
:03042f0001fd4d7f
:0304300001fd4b80
:0304310001fd4a80
:0304320001fd4980
:0304330001fd4781
:0304340001fd4681
:0304350001fd4581
:0304360001fd4481
:0304370001fd4282
:0304380001fd4182
:0304390001fd4082
:03043a0001fd3e83
:03043b0001fd3d83
:03043c0001fd3c83
:03043d0001fd3a84
:03043e0001fd3984
:03043f0001fd3884
:0304400001fd3784
:0304410001fd3585
:0304420001fd3485
:0304430001fd3385
:0304440001fd3186
:0304450001fd3086
:0304460001fd2f86
:0304470001fd2d87
:0304480001fd2c87
:0304490001fd2b87
:03044a0001fd2988
:03044b0001fd2888
:03044c0001fd2788
:03044d0001fd2589
:03044e0001fd2489
:03044f0001fd2389
:0304500001fd218a
:0304510001fd208a
:0304520001fd1f8a
:0304530001fd1d8b
:0304540001fd1c8b
:0304550001fd1b8b
:0304560001fd198c
:0304570001fd188c
:0304580001fd178c
:0304590001fd158d
:03045a0001fd148d
:03045b0001fd138d
:03045c0001fd118e
:03045d0001fd108e
:03045e0001fd0f8e
:03045f0001fd0d8f
:0304600001fd0c8f
:0304610001fd0b8f
:0304620001fd0990
:0304630001fd0890
:0304640001fd0790
:0304650001fd0591
:0304660001fd0491
:0304670001fd0391
:0304680001fd0192
:0304690001fd0092
:03046a0001fcff93
:03046b0001fcfd94
:03046c0001fcfc94
:03046d0001fcfa95
:03046e0001fcf995
:03046f0001fcf895
:0304700001fcf696
:0304710001fcf596
:0304720001fcf496
:0304730001fcf297
:0304740001fcf197
:0304750001fcf097
:0304760001fcee98
:0304770001fced98
:0304780001fceb99
:0304790001fcea99
:03047a0001fce999
:03047b0001fce79a
:03047c0001fce69a
:03047d0001fce59a
:03047e0001fce39b
:03047f0001fce29b
:0304800001fce09c
:0304810001fcdf9c
:0304820001fcde9c
:0304830001fcdc9d
:0304840001fcdb9d
:0304850001fcd99e
:0304860001fcd89e
:0304870001fcd79e
:0304880001fcd59f
:0304890001fcd49f
:03048a0001fcd2a0
:03048b0001fcd1a0
:03048c0001fcd0a0
:03048d0001fccea1
:03048e0001fccda1
:03048f0001fccba2
:0304900001fccaa2
:0304910001fcc9a2
:0304920001fcc7a3
:0304930001fcc6a3
:0304940001fcc4a4
:0304950001fcc3a4
:0304960001fcc2a4
:0304970001fcc0a5
:0304980001fcbfa5
:0304990001fcbda6
:03049a0001fcbca6
:03049b0001fcbba6
:03049c0001fcb9a7
:03049d0001fcb8a7
:03049e0001fcb6a8
:03049f0001fcb5a8
:0304a00001fcb3a9
:0304a10001fcb2a9
:0304a20001fcb1a9
:0304a30001fcafaa
:0304a40001fcaeaa
:0304a50001fcacab
:0304a60001fcabab
:0304a70001fca9ac
:0304a80001fca8ac
:0304a90001fca7ac
:0304aa0001fca5ad
:0304ab0001fca4ad
:0304ac0001fca2ae
:0304ad0001fca1ae
:0304ae0001fc9faf
:0304af0001fc9eaf
:0304b00001fc9daf
:0304b10001fc9bb0
:0304b20001fc9ab0
:0304b30001fc98b1
:0304b40001fc97b1
:0304b50001fc95b2
:0304b60001fc94b2
:0304b70001fc92b3
:0304b80001fc91b3
:0304b90001fc8fb4
:0304ba0001fc8eb4
:0304bb0001fc8db4
:0304bc0001fc8bb5
:0304bd0001fc8ab5
:0304be0001fc88b6
:0304bf0001fc87b6
:0304c00001fc85b7
:0304c10001fc84b7
:0304c20001fc82b8
:0304c30001fc81b8
:0304c40001fc7fb9
:0304c50001fc7eb9
:0304c60001fc7cba
:0304c70001fc7bba
:0304c80001fc7aba
:0304c90001fc78bb
:0304ca0001fc77bb
:0304cb0001fc75bc
:0304cc0001fc74bc
:0304cd0001fc72bd
:0304ce0001fc71bd
:0304cf0001fc6fbe
:0304d00001fc6ebe
:0304d10001fc6cbf
:0304d20001fc6bbf
:0304d30001fc69c0
:0304d40001fc68c0
:0304d50001fc66c1
:0304d60001fc65c1
:0304d70001fc63c2
:0304d80001fc62c2
:0304d90001fc60c3
:0304da0001fc5fc3
:0304db0001fc5dc4
:0304dc0001fc5cc4
:0304dd0001fc5ac5
:0304de0001fc59c5
:0304df0001fc57c6
:0304e00001fc56c6
:0304e10001fc54c7
:0304e20001fc53c7
:0304e30001fc51c8
:0304e40001fc50c8
:0304e50001fc4ec9
:0304e60001fc4dc9
:0304e70001fc4bca
:0304e80001fc4aca
:0304e90001fc48cb
:0304ea0001fc47cb
:0304eb0001fc45cc
:0304ec0001fc44cc
:0304ed0001fc42cd
:0304ee0001fc41cd
:0304ef0001fc3fce
:0304f00001fc3ece
:0304f10001fc3ccf
:0304f20001fc3bcf
:0304f30001fc39d0
:0304f40001fc38d0
:0304f50001fc36d1
:0304f60001fc35d1
:0304f70001fc33d2
:0304f80001fc32d2
:0304f90001fc30d3
:0304fa0001fc2ed4
:0304fb0001fc2dd4
:0304fc0001fc2bd5
:0304fd0001fc2ad5
:0304fe0001fc28d6
:0304ff0001fc27d6
:0305000001fc25d6
:0305010001fc24d6
:0305020001fc22d7
:0305030001fc21d7
:0305040001fc1fd8
:0305050001fc1ed8
:0305060001fc1cd9
:0305070001fc1ada
:0305080001fc19da
:0305090001fc17db
:03050a0001fc16db
:03050b0001fc14dc
:03050c0001fc13dc
:03050d0001fc11dd
:03050e0001fc10dd
:03050f0001fc0ede
:0305100001fc0dde
:0305110001fc0bdf
:0305120001fc09e0
:0305130001fc08e0
:0305140001fc06e1
:0305150001fc05e1
:0305160001fc03e2
:0305170001fc02e2
:0305180001fc00e3
:0305190001fbfee5
:03051a0001fbfde5
:03051b0001fbfbe6
:03051c0001fbfae6
:03051d0001fbf8e7
:03051e0001fbf7e7
:03051f0001fbf5e8
:0305200001fbf3e9
:0305210001fbf2e9
:0305220001fbf0ea
:0305230001fbefea
:0305240001fbedeb
:0305250001fbeceb
:0305260001fbeaec
:0305270001fbe8ed
:0305280001fbe7ed
:0305290001fbe5ee
:03052a0001fbe4ee
:03052b0001fbe2ef
:03052c0001fbe0f0
:03052d0001fbdff0
:03052e0001fbddf1
:03052f0001fbdcf1
:0305300001fbdaf2
:0305310001fbd8f3
:0305320001fbd7f3
:0305330001fbd5f4
:0305340001fbd4f4
:0305350001fbd2f5
:0305360001fbd0f6
:0305370001fbcff6
:0305380001fbcdf7
:0305390001fbccf7
:03053a0001fbcaf8
:03053b0001fbc8f9
:03053c0001fbc7f9
:03053d0001fbc5fa
:03053e0001fbc4fa
:03053f0001fbc2fb
:0305400001fbc0fc
:0305410001fbbffc
:0305420001fbbdfd
:0305430001fbbcfd
:0305440001fbbafe
:0305450001fbb8ff
:0305460001fbb7ff
:0305470001fbb500
:0305480001fbb301
:0305490001fbb201
:03054a0001fbb002
:03054b0001fbaf02
:03054c0001fbad03
:03054d0001fbab04
:03054e0001fbaa04
:03054f0001fba805
:0305500001fba606
:0305510001fba506
:0305520001fba307
:0305530001fba108
:0305540001fba008
:0305550001fb9e09
:0305560001fb9d09
:0305570001fb9b0a
:0305580001fb990b
:0305590001fb980b
:03055a0001fb960c
:03055b0001fb940d
:03055c0001fb930d
:03055d0001fb910e
:03055e0001fb8f0f
:03055f0001fb8e0f
:0305600001fb8c10
:0305610001fb8a11
:0305620001fb8911
:0305630001fb8712
:0305640001fb8513
:0305650001fb8413
:0305660001fb8214
:0305670001fb8114
:0305680001fb7f15
:0305690001fb7d16
:03056a0001fb7c16
:03056b0001fb7a17
:03056c0001fb7818
:03056d0001fb7718
:03056e0001fb7519
:03056f0001fb731a
:0305700001fb721a
:0305710001fb701b
:0305720001fb6e1c
:0305730001fb6c1d
:0305740001fb6b1d
:0305750001fb691e
:0305760001fb671f
:0305770001fb661f
:0305780001fb6420
:0305790001fb6221
:03057a0001fb6121
:03057b0001fb5f22
:03057c0001fb5d23
:03057d0001fb5c23
:03057e0001fb5a24
:03057f0001fb5825
:0305800001fb5725
:0305810001fb5526
:0305820001fb5327
:0305830001fb5227
:0305840001fb5028
:0305850001fb4e29
:0305860001fb4c2a
:0305870001fb4b2a
:0305880001fb492b
:0305890001fb472c
:03058a0001fb462c
:03058b0001fb442d
:03058c0001fb422e
:03058d0001fb412e
:03058e0001fb3f2f
:03058f0001fb3d30
:0305900001fb3b31
:0305910001fb3a31
:0305920001fb3832
:0305930001fb3633
:0305940001fb3533
:0305950001fb3334
:0305960001fb3135
:0305970001fb2f36
:0305980001fb2e36
:0305990001fb2c37
:03059a0001fb2a38
:03059b0001fb2938
:03059c0001fb2739
:03059d0001fb253a
:03059e0001fb233b
:03059f0001fb223b
:0305a00001fb203c
:0305a10001fb1e3d
:0305a20001fb1c3e
:0305a30001fb1b3e
:0305a40001fb193f
:0305a50001fb1740
:0305a60001fb1541
:0305a70001fb1441
:0305a80001fb1242
:0305a90001fb1043
:0305aa0001fb0f43
:0305ab0001fb0d44
:0305ac0001fb0b45
:0305ad0001fb0946
:0305ae0001fb0846
:0305af0001fb0647
:0305b00001fb0448
:0305b10001fb0249
:0305b20001fb0149
:0305b30001faff4b
:0305b40001fafd4c
:0305b50001fafb4d
:0305b60001fafa4d
:0305b70001faf84e
:0305b80001faf64f
:0305b90001faf450
:0305ba0001faf350
:0305bb0001faf151
:0305bc0001faef52
:0305bd0001faed53
:0305be0001faeb54
:0305bf0001faea54
:0305c00001fae855
:0305c10001fae656
:0305c20001fae457
:0305c30001fae357
:0305c40001fae158
:0305c50001fadf59
:0305c60001fadd5a
:0305c70001fadc5a
:0305c80001fada5b
:0305c90001fad85c
:0305ca0001fad65d
:0305cb0001fad45e
:0305cc0001fad35e
:0305cd0001fad15f
:0305ce0001facf60
:0305cf0001facd61
:0305d00001facb62
:0305d10001faca62
:0305d20001fac863
:0305d30001fac664
:0305d40001fac465
:0305d50001fac365
:0305d60001fac166
:0305d70001fabf67
:0305d80001fabd68
:0305d90001fabb69
:0305da0001faba69
:0305db0001fab86a
:0305dc0001fab66b
:0305dd0001fab46c
:0305de0001fab26d
:0305df0001fab16d
:0305e00001faaf6e
:0305e10001faad6f
:0305e20001faab70
:0305e30001faa971
:0305e40001faa871
:0305e50001faa672
:0305e60001faa473
:0305e70001faa274
:0305e80001faa075
:0305e90001fa9e76
:0305ea0001fa9d76
:0305eb0001fa9b77
:0305ec0001fa9978
:0305ed0001fa9779
:0305ee0001fa957a
:0305ef0001fa947a
:0305f00001fa927b
:0305f10001fa907c
:0305f20001fa8e7d
:0305f30001fa8c7e
:0305f40001fa8a7f
:0305f50001fa897f
:0305f60001fa8780
:0305f70001fa8581
:0305f80001fa8382
:0305f90001fa8183
:0305fa0001fa7f84
:0305fb0001fa7e84
:0305fc0001fa7c85
:0305fd0001fa7a86
:0305fe0001fa7887
:0305ff0001fa7688
:0306000001fa7488
:0306010001fa7388
:0306020001fa7189
:0306030001fa6f8a
:0306040001fa6d8b
:0306050001fa6b8c
:0306060001fa698d
:0306070001fa678e
:0306080001fa668e
:0306090001fa648f
:03060a0001fa6290
:03060b0001fa6091
:03060c0001fa5e92
:03060d0001fa5c93
:03060e0001fa5a94
:03060f0001fa5994
:0306100001fa5795
:0306110001fa5596
:0306120001fa5397
:0306130001fa5198
:0306140001fa4f99
:0306150001fa4d9a
:0306160001fa4c9a
:0306170001fa4a9b
:0306180001fa489c
:0306190001fa469d
:03061a0001fa449e
:03061b0001fa429f
:03061c0001fa40a0
:03061d0001fa3ea1
:03061e0001fa3da1
:03061f0001fa3ba2
:0306200001fa39a3
:0306210001fa37a4
:0306220001fa35a5
:0306230001fa33a6
:0306240001fa31a7
:0306250001fa2fa8
:0306260001fa2da9
:0306270001fa2ca9
:0306280001fa2aaa
:0306290001fa28ab
:03062a0001fa26ac
:03062b0001fa24ad
:03062c0001fa22ae
:03062d0001fa20af
:03062e0001fa1eb0
:03062f0001fa1cb1
:0306300001fa1ab2
:0306310001fa19b2
:0306320001fa17b3
:0306330001fa15b4
:0306340001fa13b5
:0306350001fa11b6
:0306360001fa0fb7
:0306370001fa0db8
:0306380001fa0bb9
:0306390001fa09ba
:03063a0001fa07bb
:03063b0001fa05bc
:03063c0001fa04bc
:03063d0001fa02bd
:03063e0001fa00be
:03063f0001f9fec0
:0306400001f9fcc1
:0306410001f9fac2
:0306420001f9f8c3
:0306430001f9f6c4
:0306440001f9f4c5
:0306450001f9f2c6
:0306460001f9f0c7
:0306470001f9eec8
:0306480001f9edc8
:0306490001f9ebc9
:03064a0001f9e9ca
:03064b0001f9e7cb
:03064c0001f9e5cc
:03064d0001f9e3cd
:03064e0001f9e1ce
:03064f0001f9dfcf
:0306500001f9ddd0
:0306510001f9dbd1
:0306520001f9d9d2
:0306530001f9d7d3
:0306540001f9d5d4
:0306550001f9d3d5
:0306560001f9d1d6
:0306570001f9cfd7
:0306580001f9cdd8
:0306590001f9ccd8
:03065a0001f9cad9
:03065b0001f9c8da
:03065c0001f9c6db
:03065d0001f9c4dc
:03065e0001f9c2dd
:03065f0001f9c0de
:0306600001f9bedf
:0306610001f9bce0
:0306620001f9bae1
:0306630001f9b8e2
:0306640001f9b6e3
:0306650001f9b4e4
:0306660001f9b2e5
:0306670001f9b0e6
:0306680001f9aee7
:0306690001f9ace8
:03066a0001f9aae9
:03066b0001f9a8ea
:03066c0001f9a6eb
:03066d0001f9a4ec
:03066e0001f9a2ed
:03066f0001f9a0ee
:0306700001f99eef
:0306710001f99cf0
:0306720001f99af1
:0306730001f998f2
:0306740001f996f3
:0306750001f994f4
:0306760001f992f5
:0306770001f991f5
:0306780001f98ff6
:0306790001f98df7
:03067a0001f98bf8
:03067b0001f989f9
:03067c0001f987fa
:03067d0001f985fb
:03067e0001f983fc
:03067f0001f981fd
:0306800001f97ffe
:0306810001f97dff
:0306820001f97b00
:0306830001f97901
:0306840001f97702
:0306850001f97503
:0306860001f97304
:0306870001f97105
:0306880001f96f06
:0306890001f96d07
:03068a0001f96b08
:03068b0001f96909
:03068c0001f9670a
:03068d0001f9650b
:03068e0001f9630c
:03068f0001f9610d
:0306900001f95e0f
:0306910001f95c10
:0306920001f95a11
:0306930001f95812
:0306940001f95613
:0306950001f95414
:0306960001f95215
:0306970001f95016
:0306980001f94e17
:0306990001f94c18
:03069a0001f94a19
:03069b0001f9481a
:03069c0001f9461b
:03069d0001f9441c
:03069e0001f9421d
:03069f0001f9401e
:0306a00001f93e1f
:0306a10001f93c20
:0306a20001f93a21
:0306a30001f93822
:0306a40001f93623
:0306a50001f93424
:0306a60001f93225
:0306a70001f93026
:0306a80001f92e27
:0306a90001f92c28
:0306aa0001f92a29
:0306ab0001f9282a
:0306ac0001f9262b
:0306ad0001f9242c
:0306ae0001f9212e
:0306af0001f91f2f
:0306b00001f91d30
:0306b10001f91b31
:0306b20001f91932
:0306b30001f91733
:0306b40001f91534
:0306b50001f91335
:0306b60001f91136
:0306b70001f90f37
:0306b80001f90d38
:0306b90001f90b39
:0306ba0001f9093a
:0306bb0001f9073b
:0306bc0001f9053c
:0306bd0001f9033d
:0306be0001f9013e
:0306bf0001f8fe41
:0306c00001f8fc42
:0306c10001f8fa43
:0306c20001f8f844
:0306c30001f8f645
:0306c40001f8f446
:0306c50001f8f247
:0306c60001f8f048
:0306c70001f8ee49
:0306c80001f8ec4a
:0306c90001f8ea4b
:0306ca0001f8e84c
:0306cb0001f8e64d
:0306cc0001f8e34f
:0306cd0001f8e150
:0306ce0001f8df51
:0306cf0001f8dd52
:0306d00001f8db53
:0306d10001f8d954
:0306d20001f8d755
:0306d30001f8d556
:0306d40001f8d357
:0306d50001f8d158
:0306d60001f8cf59
:0306d70001f8cc5b
:0306d80001f8ca5c
:0306d90001f8c85d
:0306da0001f8c65e
:0306db0001f8c45f
:0306dc0001f8c260
:0306dd0001f8c061
:0306de0001f8be62
:0306df0001f8bc63
:0306e00001f8b965
:0306e10001f8b766
:0306e20001f8b567
:0306e30001f8b368
:0306e40001f8b169
:0306e50001f8af6a
:0306e60001f8ad6b
:0306e70001f8ab6c
:0306e80001f8a96d
:0306e90001f8a66f
:0306ea0001f8a470
:0306eb0001f8a271
:0306ec0001f8a072
:0306ed0001f89e73
:0306ee0001f89c74
:0306ef0001f89a75
:0306f00001f89876
:0306f10001f89578
:0306f20001f89379
:0306f30001f8917a
:0306f40001f88f7b
:0306f50001f88d7c
:0306f60001f88b7d
:0306f70001f8897e
:0306f80001f88680
:0306f90001f88481
:0306fa0001f88282
:0306fb0001f88083
:0306fc0001f87e84
:0306fd0001f87c85
:0306fe0001f87a86
:0306ff0001f87788
:0307000001f87588
:0307010001f87389
:0307020001f8718a
:0307030001f86f8b
:0307040001f86d8c
:0307050001f86b8d
:0307060001f8688f
:0307070001f86690
:0307080001f86491
:0307090001f86292
:03070a0001f86093
:03070b0001f85e94
:03070c0001f85b96
:03070d0001f85997
:03070e0001f85798
:03070f0001f85599
:0307100001f8539a
:0307110001f8519b
:0307120001f84e9d
:0307130001f84c9e
:0307140001f84a9f
:0307150001f848a0
:0307160001f846a1
:0307170001f844a2
:0307180001f841a4
:0307190001f83fa5
:03071a0001f83da6
:03071b0001f83ba7
:03071c0001f839a8
:03071d0001f837a9
:03071e0001f834ab
:03071f0001f832ac
:0307200001f830ad
:0307210001f82eae
:0307220001f82caf
:0307230001f829b1
:0307240001f827b2
:0307250001f825b3
:0307260001f823b4
:0307270001f821b5
:0307280001f81eb7
:0307290001f81cb8
:03072a0001f81ab9
:03072b0001f818ba
:03072c0001f816bb
:03072d0001f813bd
:03072e0001f811be
:03072f0001f80fbf
:0307300001f80dc0
:0307310001f80bc1
:0307320001f808c3
:0307330001f806c4
:0307340001f804c5
:0307350001f802c6
:0307360001f800c7
:0307370001f7fdca
:0307380001f7fbcb
:0307390001f7f9cc
:03073a0001f7f7cd
:03073b0001f7f5ce
:03073c0001f7f2d0
:03073d0001f7f0d1
:03073e0001f7eed2
:03073f0001f7ecd3
:0307400001f7e9d5
:0307410001f7e7d6
:0307420001f7e5d7
:0307430001f7e3d8
:0307440001f7e0da
:0307450001f7dedb
:0307460001f7dcdc
:0307470001f7dadd
:0307480001f7d8de
:0307490001f7d5e0
:03074a0001f7d3e1
:03074b0001f7d1e2
:03074c0001f7cfe3
:03074d0001f7cce5
:03074e0001f7cae6
:03074f0001f7c8e7
:0307500001f7c6e8
:0307510001f7c3ea
:0307520001f7c1eb
:0307530001f7bfec
:0307540001f7bded
:0307550001f7baef
:0307560001f7b8f0
:0307570001f7b6f1
:0307580001f7b4f2
:0307590001f7b1f4
:03075a0001f7aff5
:03075b0001f7adf6
:03075c0001f7abf7
:03075d0001f7a8f9
:03075e0001f7a6fa
:03075f0001f7a4fb
:0307600001f7a2fc
:0307610001f79ffe
:0307620001f79dff
:0307630001f79b00
:0307640001f79901
:0307650001f79603
:0307660001f79404
:0307670001f79205
:0307680001f78f07
:0307690001f78d08
:03076a0001f78b09
:03076b0001f7890a
:03076c0001f7860c
:03076d0001f7840d
:03076e0001f7820e
:03076f0001f7800f
:0307700001f77d11
:0307710001f77b12
:0307720001f77913
:0307730001f77615
:0307740001f77416
:0307750001f77217
:0307760001f77018
:0307770001f76d1a
:0307780001f76b1b
:0307790001f7691c
:03077a0001f7661e
:03077b0001f7641f
:03077c0001f76220
:03077d0001f76021
:03077e0001f75d23
:03077f0001f75b24
:0307800001f75925
:0307810001f75627
:0307820001f75428
:0307830001f75229
:0307840001f74f2b
:0307850001f74d2c
:0307860001f74b2d
:0307870001f7482f
:0307880001f74630
:0307890001f74431
:03078a0001f74232
:03078b0001f73f34
:03078c0001f73d35
:03078d0001f73b36
:03078e0001f73838
:03078f0001f73639
:0307900001f7343a
:0307910001f7313c
:0307920001f72f3d
:0307930001f72d3e
:0307940001f72a40
:0307950001f72841
:0307960001f72642
:0307970001f72344
:0307980001f72145
:0307990001f71f46
:03079a0001f71c48
:03079b0001f71a49
:03079c0001f7184a
:03079d0001f7154c
:03079e0001f7134d
:03079f0001f7114e
:0307a00001f70e50
:0307a10001f70c51
:0307a20001f70a52
:0307a30001f70754
:0307a40001f70555
:0307a50001f70356
:0307a60001f70058
:0307a70001f6fe5a
:0307a80001f6fc5b
:0307a90001f6f95d
:0307aa0001f6f75e
:0307ab0001f6f55f
:0307ac0001f6f261
:0307ad0001f6f062
:0307ae0001f6ee63
:0307af0001f6eb65
:0307b00001f6e966
:0307b10001f6e668
:0307b20001f6e469
:0307b30001f6e26a
:0307b40001f6df6c
:0307b50001f6dd6d
:0307b60001f6db6e
:0307b70001f6d870
:0307b80001f6d671
:0307b90001f6d472
:0307ba0001f6d174
:0307bb0001f6cf75
:0307bc0001f6cc77
:0307bd0001f6ca78
:0307be0001f6c879
:0307bf0001f6c57b
:0307c00001f6c37c
:0307c10001f6c17d
:0307c20001f6be7f
:0307c30001f6bc80
:0307c40001f6b982
:0307c50001f6b783
:0307c60001f6b584
:0307c70001f6b286
:0307c80001f6b087
:0307c90001f6ae88
:0307ca0001f6ab8a
:0307cb0001f6a98b
:0307cc0001f6a68d
:0307cd0001f6a48e
:0307ce0001f6a28f
:0307cf0001f69f91
:0307d00001f69d92
:0307d10001f69a94
:0307d20001f69895
:0307d30001f69696
:0307d40001f69398
:0307d50001f69199
:0307d60001f68e9b
:0307d70001f68c9c
:0307d80001f68a9d
:0307d90001f6879f
:0307da0001f685a0
:0307db0001f682a2
:0307dc0001f680a3
:0307dd0001f67ea4
:0307de0001f67ba6
:0307df0001f679a7
:0307e00001f676a9
:0307e10001f674aa
:0307e20001f672ab
:0307e30001f66fad
:0307e40001f66dae
:0307e50001f66ab0
:0307e60001f668b1
:0307e70001f665b3
:0307e80001f663b4
:0307e90001f661b5
:0307ea0001f65eb7
:0307eb0001f65cb8
:0307ec0001f659ba
:0307ed0001f657bb
:0307ee0001f654bd
:0307ef0001f652be
:0307f00001f650bf
:0307f10001f64dc1
:0307f20001f64bc2
:0307f30001f648c4
:0307f40001f646c5
:0307f50001f643c7
:0307f60001f641c8
:0307f70001f63fc9
:0307f80001f63ccb
:0307f90001f63acc
:0307fa0001f637ce
:0307fb0001f635cf
:0307fc0001f632d1
:0307fd0001f630d2
:0307fe0001f62dd4
:0307ff0001f62bd5
:0308000001f629d5
:0308010001f626d7
:0308020001f624d8
:0308030001f621da
:0308040001f61fdb
:0308050001f61cdd
:0308060001f61ade
:0308070001f617e0
:0308080001f615e1
:0308090001f612e3
:03080a0001f610e4
:03080b0001f60de6
:03080c0001f60be7
:03080d0001f609e8
:03080e0001f606ea
:03080f0001f604eb
:0308100001f601ed
:0308110001f5ffef
:0308120001f5fcf1
:0308130001f5faf2
:0308140001f5f7f4
:0308150001f5f5f5
:0308160001f5f2f7
:0308170001f5f0f8
:0308180001f5edfa
:0308190001f5ebfb
:03081a0001f5e8fd
:03081b0001f5e6fe
:03081c0001f5e300
:03081d0001f5e101
:03081e0001f5de03
:03081f0001f5dc04
:0308200001f5d906
:0308210001f5d707
:0308220001f5d409
:0308230001f5d20a
:0308240001f5cf0c
:0308250001f5cd0d
:0308260001f5ca0f
:0308270001f5c810
:0308280001f5c611
:0308290001f5c313
:03082a0001f5c114
:03082b0001f5be16
:03082c0001f5bb18
:03082d0001f5b919
:03082e0001f5b61b
:03082f0001f5b41c
:0308300001f5b11e
:0308310001f5af1f
:0308320001f5ac21
:0308330001f5aa22
:0308340001f5a724
:0308350001f5a525
:0308360001f5a227
:0308370001f5a028
:0308380001f59d2a
:0308390001f59b2b
:03083a0001f5982d
:03083b0001f5962e
:03083c0001f59330
:03083d0001f59131
:03083e0001f58e33
:03083f0001f58c34
:0308400001f58936
:0308410001f58737
:0308420001f58439
:0308430001f5823a
:0308440001f57f3c
:0308450001f57d3d
:0308460001f57a3f
:0308470001f57741
:0308480001f57542
:0308490001f57244
:03084a0001f57045
:03084b0001f56d47
:03084c0001f56b48
:03084d0001f5684a
:03084e0001f5664b
:03084f0001f5634d
:0308500001f5614e
:0308510001f55e50
:0308520001f55c51
:0308530001f55953
:0308540001f55655
:0308550001f55456
:0308560001f55158
:0308570001f54f59
:0308580001f54c5b
:0308590001f54a5c
:03085a0001f5475e
:03085b0001f5455f
:03085c0001f54261
:03085d0001f53f63
:03085e0001f53d64
:03085f0001f53a66
:0308600001f53867
:0308610001f53569
:0308620001f5336a
:0308630001f5306c
:0308640001f52d6e
:0308650001f52b6f
:0308660001f52871
:0308670001f52672
:0308680001f52374
:0308690001f52175
:03086a0001f51e77
:03086b0001f51b79
:03086c0001f5197a
:03086d0001f5167c
:03086e0001f5147d
:03086f0001f5117f
:0308700001f50f80
:0308710001f50c82
:0308720001f50984
:0308730001f50785
:0308740001f50487
:0308750001f50288
:0308760001f4ff8b
:0308770001f4fc8d
:0308780001f4fa8e
:0308790001f4f790
:03087a0001f4f591
:03087b0001f4f293
:03087c0001f4ef95
:03087d0001f4ed96
:03087e0001f4ea98
:03087f0001f4e899
:0308800001f4e59b
:0308810001f4e29d
:0308820001f4e09e
:0308830001f4dda0
:0308840001f4dba1
:0308850001f4d8a3
:0308860001f4d5a5
:0308870001f4d3a6
:0308880001f4d0a8
:0308890001f4cea9
:03088a0001f4cbab
:03088b0001f4c8ad
:03088c0001f4c6ae
:03088d0001f4c3b0
:03088e0001f4c0b2
:03088f0001f4beb3
:0308900001f4bbb5
:0308910001f4b9b6
:0308920001f4b6b8
:0308930001f4b3ba
:0308940001f4b1bb
:0308950001f4aebd
:0308960001f4abbf
:0308970001f4a9c0
:0308980001f4a6c2
:0308990001f4a4c3
:03089a0001f4a1c5
:03089b0001f49ec7
:03089c0001f49cc8
:03089d0001f499ca
:03089e0001f496cc
:03089f0001f494cd
:0308a00001f491cf
:0308a10001f48fd0
:0308a20001f48cd2
:0308a30001f489d4
:0308a40001f487d5
:0308a50001f484d7
:0308a60001f481d9
:0308a70001f47fda
:0308a80001f47cdc
:0308a90001f479de
:0308aa0001f477df
:0308ab0001f474e1
:0308ac0001f471e3
:0308ad0001f46fe4
:0308ae0001f46ce6
:0308af0001f469e8
:0308b00001f467e9
:0308b10001f464eb
:0308b20001f461ed
:0308b30001f45fee
:0308b40001f45cf0
:0308b50001f459f2
:0308b60001f457f3
:0308b70001f454f5
:0308b80001f451f7
:0308b90001f44ff8
:0308ba0001f44cfa
:0308bb0001f449fc
:0308bc0001f447fd
:0308bd0001f444ff
:0308be0001f44101
:0308bf0001f43f02
:0308c00001f43c04
:0308c10001f43906
:0308c20001f43707
:0308c30001f43409
:0308c40001f4310b
:0308c50001f42f0c
:0308c60001f42c0e
:0308c70001f42910
:0308c80001f42711
:0308c90001f42413
:0308ca0001f42115
:0308cb0001f41f16
:0308cc0001f41c18
:0308cd0001f4191a
:0308ce0001f4161c
:0308cf0001f4141d
:0308d00001f4111f
:0308d10001f40e21
:0308d20001f40c22
:0308d30001f40924
:0308d40001f40626
:0308d50001f40427
:0308d60001f40129
:0308d70001f3fe2c
:0308d80001f3fb2e
:0308d90001f3f92f
:0308da0001f3f631
:0308db0001f3f333
:0308dc0001f3f134
:0308dd0001f3ee36
:0308de0001f3eb38
:0308df0001f3e83a
:0308e00001f3e63b
:0308e10001f3e33d
:0308e20001f3e03f
:0308e30001f3de40
:0308e40001f3db42
:0308e50001f3d844
:0308e60001f3d546
:0308e70001f3d347
:0308e80001f3d049
:0308e90001f3cd4b
:0308ea0001f3cb4c
:0308eb0001f3c84e
:0308ec0001f3c550
:0308ed0001f3c252
:0308ee0001f3c053
:0308ef0001f3bd55
:0308f00001f3ba57
:0308f10001f3b759
:0308f20001f3b55a
:0308f30001f3b25c
:0308f40001f3af5e
:0308f50001f3ac60
:0308f60001f3aa61
:0308f70001f3a763
:0308f80001f3a465
:0308f90001f3a167
:0308fa0001f39f68
:0308fb0001f39c6a
:0308fc0001f3996c
:0308fd0001f3976d
:0308fe0001f3946f
:0308ff0001f39171
:0309000001f38e72
:0309010001f38c73
:0309020001f38975
:0309030001f38677
:0309040001f38379
:0309050001f3807b
:0309060001f37e7c
:0309070001f37b7e
:0309080001f37880
:0309090001f37582
:03090a0001f37383
:03090b0001f37085
:03090c0001f36d87
:03090d0001f36a89
:03090e0001f3688a
:03090f0001f3658c
:0309100001f3628e
:0309110001f35f90
:0309120001f35d91
:0309130001f35a93
:0309140001f35795
:0309150001f35497
:0309160001f35199
:0309170001f34f9a
:0309180001f34c9c
:0309190001f3499e
:03091a0001f346a0
:03091b0001f343a2
:03091c0001f341a3
:03091d0001f33ea5
:03091e0001f33ba7
:03091f0001f338a9
:0309200001f336aa
:0309210001f333ac
:0309220001f330ae
:0309230001f32db0
:0309240001f32ab2
:0309250001f328b3
:0309260001f325b5
:0309270001f322b7
:0309280001f31fb9
:0309290001f31cbb
:03092a0001f31abc
:03092b0001f317be
:03092c0001f314c0
:03092d0001f311c2
:03092e0001f30ec4
:03092f0001f30cc5
:0309300001f309c7
:0309310001f306c9
:0309320001f303cb
:0309330001f300cd
:0309340001f2fdd0
:0309350001f2fbd1
:0309360001f2f8d3
:0309370001f2f5d5
:0309380001f2f2d7
:0309390001f2efd9
:03093a0001f2edda
:03093b0001f2eadc
:03093c0001f2e7de
:03093d0001f2e4e0
:03093e0001f2e1e2
:03093f0001f2dee4
:0309400001f2dce5
:0309410001f2d9e7
:0309420001f2d6e9
:0309430001f2d3eb
:0309440001f2d0ed
:0309450001f2cdef
:0309460001f2cbf0
:0309470001f2c8f2
:0309480001f2c5f4
:0309490001f2c2f6
:03094a0001f2bff8
:03094b0001f2bcfa
:03094c0001f2bafb
:03094d0001f2b7fd
:03094e0001f2b4ff
:03094f0001f2b101
:0309500001f2ae03
:0309510001f2ab05
:0309520001f2a906
:0309530001f2a608
:0309540001f2a30a
:0309550001f2a00c
:0309560001f29d0e
:0309570001f29a10
:0309580001f29712
:0309590001f29513
:03095a0001f29215
:03095b0001f28f17
:03095c0001f28c19
:03095d0001f2891b
:03095e0001f2861d
:03095f0001f2831f
:0309600001f28120
:0309610001f27e22
:0309620001f27b24
:0309630001f27826
:0309640001f27528
:0309650001f2722a
:0309660001f26f2c
:0309670001f26c2e
:0309680001f26a2f
:0309690001f26731
:03096a0001f26433
:03096b0001f26135
:03096c0001f25e37
:03096d0001f25b39
:03096e0001f2583b
:03096f0001f2553d
:0309700001f2533e
:0309710001f25040
:0309720001f24d42
:0309730001f24a44
:0309740001f24746
:0309750001f24448
:0309760001f2414a
:0309770001f23e4c
:0309780001f23b4e
:0309790001f2394f
:03097a0001f23651
:03097b0001f23353
:03097c0001f23055
:03097d0001f22d57
:03097e0001f22a59
:03097f0001f2275b
:0309800001f2245d
:0309810001f2215f
:0309820001f21e61
:0309830001f21b63
:0309840001f21964
:0309850001f21666
:0309860001f21368
:0309870001f2106a
:0309880001f20d6c
:0309890001f20a6e
:03098a0001f20770
:03098b0001f20472
:03098c0001f20174
:03098d0001f1fe77
:03098e0001f1fb79
:03098f0001f1f97a
:0309900001f1f67c
:0309910001f1f37e
:0309920001f1f080
:0309930001f1ed82
:0309940001f1ea84
:0309950001f1e786
:0309960001f1e488
:0309970001f1e18a
:0309980001f1de8c
:0309990001f1db8e
:03099a0001f1d890
:03099b0001f1d592
:03099c0001f1d294
:03099d0001f1d095
:03099e0001f1cd97
:03099f0001f1ca99
:0309a00001f1c79b
:0309a10001f1c49d
:0309a20001f1c19f
:0309a30001f1bea1
:0309a40001f1bba3
:0309a50001f1b8a5
:0309a60001f1b5a7
:0309a70001f1b2a9
:0309a80001f1afab
:0309a90001f1acad
:0309aa0001f1a9af
:0309ab0001f1a6b1
:0309ac0001f1a3b3
:0309ad0001f1a0b5
:0309ae0001f19db7
:0309af0001f19ab9
:0309b00001f197bb
:0309b10001f195bc
:0309b20001f192be
:0309b30001f18fc0
:0309b40001f18cc2
:0309b50001f189c4
:0309b60001f186c6
:0309b70001f183c8
:0309b80001f180ca
:0309b90001f17dcc
:0309ba0001f17ace
:0309bb0001f177d0
:0309bc0001f174d2
:0309bd0001f171d4
:0309be0001f16ed6
:0309bf0001f16bd8
:0309c00001f168da
:0309c10001f165dc
:0309c20001f162de
:0309c30001f15fe0
:0309c40001f15ce2
:0309c50001f159e4
:0309c60001f156e6
:0309c70001f153e8
:0309c80001f150ea
:0309c90001f14dec
:0309ca0001f14aee
:0309cb0001f147f0
:0309cc0001f144f2
:0309cd0001f141f4
:0309ce0001f13ef6
:0309cf0001f13bf8
:0309d00001f138fa
:0309d10001f135fc
:0309d20001f132fe
:0309d30001f12f00
:0309d40001f12c02
:0309d50001f12904
:0309d60001f12606
:0309d70001f12308
:0309d80001f1200a
:0309d90001f11d0c
:0309da0001f11a0e
:0309db0001f11710
:0309dc0001f11412
:0309dd0001f11114
:0309de0001f10e16
:0309df0001f10b18
:0309e00001f1081a
:0309e10001f1051c
:0309e20001f1021e
:0309e30001f0ff21
:0309e40001f0fc23
:0309e50001f0f925
:0309e60001f0f627
:0309e70001f0f329
:0309e80001f0f02b
:0309e90001f0ed2d
:0309ea0001f0ea2f
:0309eb0001f0e731
:0309ec0001f0e433
:0309ed0001f0e135
:0309ee0001f0de37
:0309ef0001f0db39
:0309f00001f0d83b
:0309f10001f0d53d
:0309f20001f0d23f
:0309f30001f0cf41
:0309f40001f0cc43
:0309f50001f0c846
:0309f60001f0c548
:0309f70001f0c24a
:0309f80001f0bf4c
:0309f90001f0bc4e
:0309fa0001f0b950
:0309fb0001f0b652
:0309fc0001f0b354
:0309fd0001f0b056
:0309fe0001f0ad58
:0309ff0001f0aa5a
:030a000001f0a75b
:030a010001f0a45d
:030a020001f0a15f
:030a030001f09e61
:030a040001f09b63
:030a050001f09865
:030a060001f09567
:030a070001f09269
:030a080001f08f6b
:030a090001f08b6e
:030a0a0001f08870
:030a0b0001f08572
:030a0c0001f08274
:030a0d0001f07f76
:030a0e0001f07c78
:030a0f0001f0797a
:030a100001f0767c
:030a110001f0737e
:030a120001f07080
:030a130001f06d82
:030a140001f06a84
:030a150001f06786
:030a160001f06488
:030a170001f0608b
:030a180001f05d8d
:030a190001f05a8f
:030a1a0001f05791
:030a1b0001f05493
:030a1c0001f05195
:030a1d0001f04e97
:030a1e0001f04b99
:030a1f0001f0489b
:030a200001f0459d
:030a210001f0429f
:030a220001f03ea2
:030a230001f03ba4
:030a240001f038a6
:030a250001f035a8
:030a260001f032aa
:030a270001f02fac
:030a280001f02cae
:030a290001f029b0
:030a2a0001f026b2
:030a2b0001f023b4
:030a2c0001f01fb7
:030a2d0001f01cb9
:030a2e0001f019bb
:030a2f0001f016bd
:030a300001f013bf
:030a310001f010c1
:030a320001f00dc3
:030a330001f00ac5
:030a340001f007c7
:030a350001f003ca
:030a360001f000cc
:030a370001effdcf
:030a380001effad1
:030a390001eff7d3
:030a3a0001eff4d5
:030a3b0001eff1d7
:030a3c0001efeed9
:030a3d0001efebdb
:030a3e0001efe7de
:030a3f0001efe4e0
:030a400001efe1e2
:030a410001efdee4
:030a420001efdbe6
:030a430001efd8e8
:030a440001efd5ea
:030a450001efd2ec
:030a460001efceef
:030a470001efcbf1
:030a480001efc8f3
:030a490001efc5f5
:030a4a0001efc2f7
:030a4b0001efbff9
:030a4c0001efbcfb
:030a4d0001efb8fe
:030a4e0001efb500
:030a4f0001efb202
:030a500001efaf04
:030a510001efac06
:030a520001efa908
:030a530001efa60a
:030a540001efa20d
:030a550001ef9f0f
:030a560001ef9c11
:030a570001ef9913
:030a580001ef9615
:030a590001ef9317
:030a5a0001ef8f1a
:030a5b0001ef8c1c
:030a5c0001ef891e
:030a5d0001ef8620
:030a5e0001ef8322
:030a5f0001ef8024
:030a600001ef7c27
:030a610001ef7929
:030a620001ef762b
:030a630001ef732d
:030a640001ef702f
:030a650001ef6d31
:030a660001ef6934
:030a670001ef6636
:030a680001ef6338
:030a690001ef603a
:030a6a0001ef5d3c
:030a6b0001ef5a3e
:030a6c0001ef5641
:030a6d0001ef5343
:030a6e0001ef5045
:030a6f0001ef4d47
:030a700001ef4a49
:030a710001ef464c
:030a720001ef434e
:030a730001ef4050
:030a740001ef3d52
:030a750001ef3a54
:030a760001ef3756
:030a770001ef3359
:030a780001ef305b
:030a790001ef2d5d
:030a7a0001ef2a5f
:030a7b0001ef2761
:030a7c0001ef2364
:030a7d0001ef2066
:030a7e0001ef1d68
:030a7f0001ef1a6a
:030a800001ef176c
:030a810001ef136f
:030a820001ef1071
:030a830001ef0d73
:030a840001ef0a75
:030a850001ef0777
:030a860001ef037a
:030a870001ef007c
:030a880001eefd7f
:030a890001eefa81
:030a8a0001eef684
:030a8b0001eef386
:030a8c0001eef088
:030a8d0001eeed8a
:030a8e0001eeea8c
:030a8f0001eee68f
:030a900001eee391
:030a910001eee093
:030a920001eedd95
:030a930001eeda97
:030a940001eed69a
:030a950001eed39c
:030a960001eed09e
:030a970001eecda0
:030a980001eec9a3
:030a990001eec6a5
:030a9a0001eec3a7
:030a9b0001eec0a9
:030a9c0001eebcac
:030a9d0001eeb9ae
:030a9e0001eeb6b0
:030a9f0001eeb3b2
:030aa00001eeafb5
:030aa10001eeacb7
:030aa20001eea9b9
:030aa30001eea6bb
:030aa40001eea3bd
:030aa50001ee9fc0
:030aa60001ee9cc2
:030aa70001ee99c4
:030aa80001ee96c6
:030aa90001ee92c9
:030aaa0001ee8fcb
:030aab0001ee8ccd
:030aac0001ee89cf
:030aad0001ee85d2
:030aae0001ee82d4
:030aaf0001ee7fd6
:030ab00001ee7cd8
:030ab10001ee78db
:030ab20001ee75dd
:030ab30001ee72df
:030ab40001ee6ee2
:030ab50001ee6be4
:030ab60001ee68e6
:030ab70001ee65e8
:030ab80001ee61eb
:030ab90001ee5eed
:030aba0001ee5bef
:030abb0001ee58f1
:030abc0001ee54f4
:030abd0001ee51f6
:030abe0001ee4ef8
:030abf0001ee4afb
:030ac00001ee47fd
:030ac10001ee44ff
:030ac20001ee4101
:030ac30001ee3d04
:030ac40001ee3a06
:030ac50001ee3708
:030ac60001ee340a
:030ac70001ee300d
:030ac80001ee2d0f
:030ac90001ee2a11
:030aca0001ee2614
:030acb0001ee2316
:030acc0001ee2018
:030acd0001ee1d1a
:030ace0001ee191d
:030acf0001ee161f
:030ad00001ee1321
:030ad10001ee0f24
:030ad20001ee0c26
:030ad30001ee0928
:030ad40001ee052b
:030ad50001ee022d
:030ad60001edff30
:030ad70001edfc32
:030ad80001edf835
:030ad90001edf537
:030ada0001edf239
:030adb0001edee3c
:030adc0001edeb3e
:030add0001ede840
:030ade0001ede443
:030adf0001ede145
:030ae00001edde47
:030ae10001edda4a
:030ae20001edd74c
:030ae30001edd44e
:030ae40001edd051
:030ae50001edcd53
:030ae60001edca55
:030ae70001edc757
:030ae80001edc35a
:030ae90001edc05c
:030aea0001edbd5e
:030aeb0001edb961
:030aec0001edb663
:030aed0001edb365
:030aee0001edaf68
:030aef0001edac6a
:030af00001eda96c
:030af10001eda56f
:030af20001eda271
:030af30001ed9f73
:030af40001ed9b76
:030af50001ed9878
:030af60001ed957a
:030af70001ed917d
:030af80001ed8e7f
:030af90001ed8b81
:030afa0001ed8784
:030afb0001ed8486
:030afc0001ed8089
:030afd0001ed7d8b
:030afe0001ed7a8d
:030aff0001ed7690
:030b000001ed7391
:030b010001ed7093
:030b020001ed6c96
:030b030001ed6998
:030b040001ed669a
:030b050001ed629d
:030b060001ed5f9f
:030b070001ed5ca1
:030b080001ed58a4
:030b090001ed55a6
:030b0a0001ed52a8
:030b0b0001ed4eab
:030b0c0001ed4bad
:030b0d0001ed47b0
:030b0e0001ed44b2
:030b0f0001ed41b4
:030b100001ed3db7
:030b110001ed3ab9
:030b120001ed37bb
:030b130001ed33be
:030b140001ed30c0
:030b150001ed2cc3
:030b160001ed29c5
:030b170001ed26c7
:030b180001ed22ca
:030b190001ed1fcc
:030b1a0001ed1cce
:030b1b0001ed18d1
:030b1c0001ed15d3
:030b1d0001ed11d6
:030b1e0001ed0ed8
:030b1f0001ed0bda
:030b200001ed07dd
:030b210001ed04df
:030b220001ed00e2
:030b230001ecfde5
:030b240001ecfae7
:030b250001ecf6ea
:030b260001ecf3ec
:030b270001ecefef
:030b280001ececf1
:030b290001ece9f3
:030b2a0001ece5f6
:030b2b0001ece2f8
:030b2c0001ecdefb
:030b2d0001ecdbfd
:030b2e0001ecd8ff
:030b2f0001ecd402
:030b300001ecd104
:030b310001eccd07
:030b320001ecca09
:030b330001ecc70b
:030b340001ecc30e
:030b350001ecc010
:030b360001ecbc13
:030b370001ecb915
:030b380001ecb617
:030b390001ecb21a
:030b3a0001ecaf1c
:030b3b0001ecab1f
:030b3c0001eca821
:030b3d0001eca424
:030b3e0001eca126
:030b3f0001ec9e28
:030b400001ec9a2b
:030b410001ec972d
:030b420001ec9330
:030b430001ec9032
:030b440001ec8d34
:030b450001ec8937
:030b460001ec8639
:030b470001ec823c
:030b480001ec7f3e
:030b490001ec7b41
:030b4a0001ec7843
:030b4b0001ec7446
:030b4c0001ec7148
:030b4d0001ec6e4a
:030b4e0001ec6a4d
:030b4f0001ec674f
:030b500001ec6352
:030b510001ec6054
:030b520001ec5c57
:030b530001ec5959
:030b540001ec555c
:030b550001ec525e
:030b560001ec4f60
:030b570001ec4b63
:030b580001ec4865
:030b590001ec4468
:030b5a0001ec416a
:030b5b0001ec3d6d
:030b5c0001ec3a6f
:030b5d0001ec3672
:030b5e0001ec3374
:030b5f0001ec2f77
:030b600001ec2c79
:030b610001ec297b
:030b620001ec257e
:030b630001ec2280
:030b640001ec1e83
:030b650001ec1b85
:030b660001ec1788
:030b670001ec148a
:030b680001ec108d
:030b690001ec0d8f
:030b6a0001ec0992
:030b6b0001ec0694
:030b6c0001ec0297
:030b6d0001ebff9a
:030b6e0001ebfb9d
:030b6f0001ebf89f
:030b700001ebf4a2
:030b710001ebf1a4
:030b720001ebeda7
:030b730001ebeaa9
:030b740001ebe7ab
:030b750001ebe3ae
:030b760001ebe0b0
:030b770001ebdcb3
:030b780001ebd9b5
:030b790001ebd5b8
:030b7a0001ebd2ba
:030b7b0001ebcebd
:030b7c0001ebcbbf
:030b7d0001ebc7c2
:030b7e0001ebc4c4
:030b7f0001ebc0c7
:030b800001ebbdc9
:030b810001ebb9cc
:030b820001ebb6ce
:030b830001ebb2d1
:030b840001ebafd3
:030b850001ebabd6
:030b860001eba8d8
:030b870001eba4db
:030b880001eba1dd
:030b890001eb9de0
:030b8a0001eb9ae2
:030b8b0001eb96e5
:030b8c0001eb93e7
:030b8d0001eb8fea
:030b8e0001eb8bed
:030b8f0001eb88ef
:030b900001eb84f2
:030b910001eb81f4
:030b920001eb7df7
:030b930001eb7af9
:030b940001eb76fc
:030b950001eb73fe
:030b960001eb6f01
:030b970001eb6c03
:030b980001eb6806
:030b990001eb6508
:030b9a0001eb610b
:030b9b0001eb5e0d
:030b9c0001eb5a10
:030b9d0001eb5712
:030b9e0001eb5315
:030b9f0001eb5017
:030ba00001eb4c1a
:030ba10001eb481d
:030ba20001eb451f
:030ba30001eb4122
:030ba40001eb3e24
:030ba50001eb3a27
:030ba60001eb3729
:030ba70001eb332c
:030ba80001eb302e
:030ba90001eb2c31
:030baa0001eb2933
:030bab0001eb2536
:030bac0001eb2139
:030bad0001eb1e3b
:030bae0001eb1a3e
:030baf0001eb1740
:030bb00001eb1343
:030bb10001eb1045
:030bb20001eb0c48
:030bb30001eb094a
:030bb40001eb054d
:030bb50001eb0150
:030bb60001eafe53
:030bb70001eafa56
:030bb80001eaf758
:030bb90001eaf35b
:030bba0001eaf05d
:030bbb0001eaec60
:030bbc0001eae962
:030bbd0001eae565
:030bbe0001eae168
:030bbf0001eade6a
:030bc00001eada6d
:030bc10001ead76f
:030bc20001ead372
:030bc30001eacf75
:030bc40001eacc77
:030bc50001eac87a
:030bc60001eac57c
:030bc70001eac17f
:030bc80001eabe81
:030bc90001eaba84
:030bca0001eab687
:030bcb0001eab389
:030bcc0001eaaf8c
:030bcd0001eaac8e
:030bce0001eaa891
:030bcf0001eaa494
:030bd00001eaa196
:030bd10001ea9d99
:030bd20001ea9a9b
:030bd30001ea969e
:030bd40001ea93a0
:030bd50001ea8fa3
:030bd60001ea8ba6
:030bd70001ea88a8
:030bd80001ea84ab
:030bd90001ea81ad
:030bda0001ea7db0
:030bdb0001ea79b3
:030bdc0001ea76b5
:030bdd0001ea72b8
:030bde0001ea6ebb
:030bdf0001ea6bbd
:030be00001ea67c0
:030be10001ea64c2
:030be20001ea60c5
:030be30001ea5cc8
:030be40001ea59ca
:030be50001ea55cd
:030be60001ea52cf
:030be70001ea4ed2
:030be80001ea4ad5
:030be90001ea47d7
:030bea0001ea43da
:030beb0001ea3fdd
:030bec0001ea3cdf
:030bed0001ea38e2
:030bee0001ea35e4
:030bef0001ea31e7
:030bf00001ea2dea
:030bf10001ea2aec
:030bf20001ea26ef
:030bf30001ea22f2
:030bf40001ea1ff4
:030bf50001ea1bf7
:030bf60001ea18f9
:030bf70001ea14fc
:030bf80001ea10ff
:030bf90001ea0d01
:030bfa0001ea0904
:030bfb0001ea0507
:030bfc0001ea0209
:030bfd0001e9fe0d
:030bfe0001e9fa10
:030bff0001e9f712
:030c000001e9f314
:030c010001e9ef17
:030c020001e9ec19
:030c030001e9e81c
:030c040001e9e51e
:030c050001e9e121
:030c060001e9dd24
:030c070001e9da26
:030c080001e9d629
:030c090001e9d22c
:030c0a0001e9cf2e
:030c0b0001e9cb31
:030c0c0001e9c734
:030c0d0001e9c436
:030c0e0001e9c039
:030c0f0001e9bc3c
:030c100001e9b93e
:030c110001e9b541
:030c120001e9b144
:030c130001e9ae46
:030c140001e9aa49
:030c150001e9a64c
:030c160001e9a34e
:030c170001e99f51
:030c180001e99b54
:030c190001e99856
:030c1a0001e99459
:030c1b0001e9905c
:030c1c0001e98d5e
:030c1d0001e98961
:030c1e0001e98564
:030c1f0001e98167
:030c200001e97e69
:030c210001e97a6c
:030c220001e9766f
:030c230001e97371
:030c240001e96f74
:030c250001e96b77
:030c260001e96879
:030c270001e9647c
:030c280001e9607f
:030c290001e95d81
:030c2a0001e95984
:030c2b0001e95587
:030c2c0001e95289
:030c2d0001e94e8c
:030c2e0001e94a8f
:030c2f0001e94692
:030c300001e94394
:030c310001e93f97
:030c320001e93b9a
:030c330001e9389c
:030c340001e9349f
:030c350001e930a2
:030c360001e92ca5
:030c370001e929a7
:030c380001e925aa
:030c390001e921ad
:030c3a0001e91eaf
:030c3b0001e91ab2
:030c3c0001e916b5
:030c3d0001e912b8
:030c3e0001e90fba
:030c3f0001e90bbd
:030c400001e907c0
:030c410001e904c2
:030c420001e900c5
:030c430001e8fcc9
:030c440001e8f8cc
:030c450001e8f5ce
:030c460001e8f1d1
:030c470001e8edd4
:030c480001e8e9d7
:030c490001e8e6d9
:030c4a0001e8e2dc
:030c4b0001e8dedf
:030c4c0001e8dbe1
:030c4d0001e8d7e4
:030c4e0001e8d3e7
:030c4f0001e8cfea
:030c500001e8ccec
:030c510001e8c8ef
:030c520001e8c4f2
:030c530001e8c0f5
:030c540001e8bdf7
:030c550001e8b9fa
:030c560001e8b5fd
:030c570001e8b100
:030c580001e8ae02
:030c590001e8aa05
:030c5a0001e8a608
:030c5b0001e8a20b
:030c5c0001e89f0d
:030c5d0001e89b10
:030c5e0001e89713
:030c5f0001e89316
:030c600001e89018
:030c610001e88c1b
:030c620001e8881e
:030c630001e88421
:030c640001e88123
:030c650001e87d26
:030c660001e87929
:030c670001e8752c
:030c680001e8722e
:030c690001e86e31
:030c6a0001e86a34
:030c6b0001e86637
:030c6c0001e8623a
:030c6d0001e85f3c
:030c6e0001e85b3f
:030c6f0001e85742
:030c700001e85345
:030c710001e85047
:030c720001e84c4a
:030c730001e8484d
:030c740001e84450
:030c750001e84053
:030c760001e83d55
:030c770001e83958
:030c780001e8355b
:030c790001e8315e
:030c7a0001e82e60
:030c7b0001e82a63
:030c7c0001e82666
:030c7d0001e82269
:030c7e0001e81e6c
:030c7f0001e81b6e
:030c800001e81771
:030c810001e81374
:030c820001e80f77
:030c830001e80b7a
:030c840001e8087c
:030c850001e8047f
:030c860001e80082
:030c870001e7fc86
:030c880001e7f889
:030c890001e7f58b
:030c8a0001e7f18e
:030c8b0001e7ed91
:030c8c0001e7e994
:030c8d0001e7e597
:030c8e0001e7e299
:030c8f0001e7de9c
:030c900001e7da9f
:030c910001e7d6a2
:030c920001e7d2a5
:030c930001e7cea8
:030c940001e7cbaa
:030c950001e7c7ad
:030c960001e7c3b0
:030c970001e7bfb3
:030c980001e7bbb6
:030c990001e7b8b8
:030c9a0001e7b4bb
:030c9b0001e7b0be
:030c9c0001e7acc1
:030c9d0001e7a8c4
:030c9e0001e7a4c7
:030c9f0001e7a1c9
:030ca00001e79dcc
:030ca10001e799cf
:030ca20001e795d2
:030ca30001e791d5
:030ca40001e78dd8
:030ca50001e78ada
:030ca60001e786dd
:030ca70001e782e0
:030ca80001e77ee3
:030ca90001e77ae6
:030caa0001e776e9
:030cab0001e773eb
:030cac0001e76fee
:030cad0001e76bf1
:030cae0001e767f4
:030caf0001e763f7
:030cb00001e75ffa
:030cb10001e75bfd
:030cb20001e758ff
:030cb30001e75402
:030cb40001e75005
:030cb50001e74c08
:030cb60001e7480b
:030cb70001e7440e
:030cb80001e74011
:030cb90001e73d13
:030cba0001e73916
:030cbb0001e73519
:030cbc0001e7311c
:030cbd0001e72d1f
:030cbe0001e72922
:030cbf0001e72525
:030cc00001e72227
:030cc10001e71e2a
:030cc20001e71a2d
:030cc30001e71630
:030cc40001e71233
:030cc50001e70e36
:030cc60001e70a39
:030cc70001e7063c
:030cc80001e7033e
:030cc90001e6ff42
:030cca0001e6fb45
:030ccb0001e6f748
:030ccc0001e6f34b
:030ccd0001e6ef4e
:030cce0001e6eb51
:030ccf0001e6e754
:030cd00001e6e357
:030cd10001e6e059
:030cd20001e6dc5c
:030cd30001e6d85f
:030cd40001e6d462
:030cd50001e6d065
:030cd60001e6cc68
:030cd70001e6c86b
:030cd80001e6c46e
:030cd90001e6c071
:030cda0001e6bd73
:030cdb0001e6b976
:030cdc0001e6b579
:030cdd0001e6b17c
:030cde0001e6ad7f
:030cdf0001e6a982
:030ce00001e6a585
:030ce10001e6a188
:030ce20001e69d8b
:030ce30001e6998e
:030ce40001e69690
:030ce50001e69293
:030ce60001e68e96
:030ce70001e68a99
:030ce80001e6869c
:030ce90001e6829f
:030cea0001e67ea2
:030ceb0001e67aa5
:030cec0001e676a8
:030ced0001e672ab
:030cee0001e66eae
:030cef0001e66ab1
:030cf00001e667b3
:030cf10001e663b6
:030cf20001e65fb9
:030cf30001e65bbc
:030cf40001e657bf
:030cf50001e653c2
:030cf60001e64fc5
:030cf70001e64bc8
:030cf80001e647cb
:030cf90001e643ce
:030cfa0001e63fd1
:030cfb0001e63bd4
:030cfc0001e637d7
:030cfd0001e633da
:030cfe0001e62fdd
:030cff0001e62cdf
:030d000001e628e1
:030d010001e624e4
:030d020001e620e7
:030d030001e61cea
:030d040001e618ed
:030d050001e614f0
:030d060001e610f3
:030d070001e60cf6
:030d080001e608f9
:030d090001e604fc
:030d0a0001e600ff
:030d0b0001e5fc03
:030d0c0001e5f806
:030d0d0001e5f409
:030d0e0001e5f00c
:030d0f0001e5ec0f
:030d100001e5e812
:030d110001e5e415
:030d120001e5e018
:030d130001e5dd1a
:030d140001e5d91d
:030d150001e5d520
:030d160001e5d123
:030d170001e5cd26
:030d180001e5c929
:030d190001e5c52c
:030d1a0001e5c12f
:030d1b0001e5bd32
:030d1c0001e5b935
:030d1d0001e5b538
:030d1e0001e5b13b
:030d1f0001e5ad3e
:030d200001e5a941
:030d210001e5a544
:030d220001e5a147
:030d230001e59d4a
:030d240001e5994d
:030d250001e59550
:030d260001e59153
:030d270001e58d56
:030d280001e58959
:030d290001e5855c
:030d2a0001e5815f
:030d2b0001e57d62
:030d2c0001e57965
:030d2d0001e57568
:030d2e0001e5716b
:030d2f0001e56d6e
:030d300001e56971
:030d310001e56574
:030d320001e56177
:030d330001e55d7a
:030d340001e5597d
:030d350001e55580
:030d360001e55183
:030d370001e54d86
:030d380001e54989
:030d390001e5458c
:030d3a0001e5418f
:030d3b0001e53d92
:030d3c0001e53995
:030d3d0001e53598
:030d3e0001e5319b
:030d3f0001e52d9e
:030d400001e529a1
:030d410001e525a4
:030d420001e521a7
:030d430001e51daa
:030d440001e519ad
:030d450001e515b0
:030d460001e511b3
:030d470001e50db6
:030d480001e509b9
:030d490001e505bc
:030d4a0001e501bf
:030d4b0001e4fdc3
:030d4c0001e4f9c6
:030d4d0001e4f5c9
:030d4e0001e4f1cc
:030d4f0001e4edcf
:030d500001e4e9d2
:030d510001e4e5d5
:030d520001e4e1d8
:030d530001e4dddb
:030d540001e4d8df
:030d550001e4d4e2
:030d560001e4d0e5
:030d570001e4cce8
:030d580001e4c8eb
:030d590001e4c4ee
:030d5a0001e4c0f1
:030d5b0001e4bcf4
:030d5c0001e4b8f7
:030d5d0001e4b4fa
:030d5e0001e4b0fd
:030d5f0001e4ac00
:030d600001e4a803
:030d610001e4a406
:030d620001e4a009
:030d630001e49c0c
:030d640001e4980f
:030d650001e49412
:030d660001e49015
:030d670001e48c18
:030d680001e4871c
:030d690001e4831f
:030d6a0001e47f22
:030d6b0001e47b25
:030d6c0001e47728
:030d6d0001e4732b
:030d6e0001e46f2e
:030d6f0001e46b31
:030d700001e46734
:030d710001e46337
:030d720001e45f3a
:030d730001e45b3d
:030d740001e45740
:030d750001e45343
:030d760001e44f46
:030d770001e44a4a
:030d780001e4464d
:030d790001e44250
:030d7a0001e43e53
:030d7b0001e43a56
:030d7c0001e43659
:030d7d0001e4325c
:030d7e0001e42e5f
:030d7f0001e42a62
:030d800001e42665
:030d810001e42268
:030d820001e41e6b
:030d830001e4196f
:030d840001e41572
:030d850001e41175
:030d860001e40d78
:030d870001e4097b
:030d880001e4057e
:030d890001e40181
:030d8a0001e3fd85
:030d8b0001e3f988
:030d8c0001e3f58b
:030d8d0001e3f08f
:030d8e0001e3ec92
:030d8f0001e3e895
:030d900001e3e498
:030d910001e3e09b
:030d920001e3dc9e
:030d930001e3d8a1
:030d940001e3d4a4
:030d950001e3d0a7
:030d960001e3cbab
:030d970001e3c7ae
:030d980001e3c3b1
:030d990001e3bfb4
:030d9a0001e3bbb7
:030d9b0001e3b7ba
:030d9c0001e3b3bd
:030d9d0001e3afc0
:030d9e0001e3abc3
:030d9f0001e3a6c7
:030da00001e3a2ca
:030da10001e39ecd
:030da20001e39ad0
:030da30001e396d3
:030da40001e392d6
:030da50001e38ed9
:030da60001e38adc
:030da70001e385e0
:030da80001e381e3
:030da90001e37de6
:030daa0001e379e9
:030dab0001e375ec
:030dac0001e371ef
:030dad0001e36df2
:030dae0001e368f6
:030daf0001e364f9
:030db00001e360fc
:030db10001e35cff
:030db20001e35802
:030db30001e35405
:030db40001e35008
:030db50001e34b0c
:030db60001e3470f
:030db70001e34312
:030db80001e33f15
:030db90001e33b18
:030dba0001e3371b
:030dbb0001e3331e
:030dbc0001e32e22
:030dbd0001e32a25
:030dbe0001e32628
:030dbf0001e3222b
:030dc00001e31e2e
:030dc10001e31a31
:030dc20001e31535
:030dc30001e31138
:030dc40001e30d3b
:030dc50001e3093e
:030dc60001e30541
:030dc70001e30144
:030dc80001e2fc49
:030dc90001e2f84c
:030dca0001e2f44f
:030dcb0001e2f052
:030dcc0001e2ec55
:030dcd0001e2e858
:030dce0001e2e35c
:030dcf0001e2df5f
:030dd00001e2db62
:030dd10001e2d765
:030dd20001e2d368
:030dd30001e2ce6c
:030dd40001e2ca6f
:030dd50001e2c672
:030dd60001e2c275
:030dd70001e2be78
:030dd80001e2ba7b
:030dd90001e2b57f
:030dda0001e2b182
:030ddb0001e2ad85
:030ddc0001e2a988
:030ddd0001e2a58b
:030dde0001e2a08f
:030ddf0001e29c92
:030de00001e29895
:030de10001e29498
:030de20001e2909b
