:0300000001fffffe
:0300010001fffffd
:0300020001fffffc
:0300030001fffffb
:0300040001fffffa
:0300050001fffff9
:0300060001fffff8
:0300070001fffff7
:0300080001fffff6
:0300090001fffff5
:03000a0001fffef5
:03000b0001fffef4
:03000c0001fffef3
:03000d0001fffef2
:03000e0001fffef1
:03000f0001fffef0
:0300100001fffeef
:0300110001fffdef
:0300120001fffdee
:0300130001fffded
:0300140001fffdec
:0300150001fffdeb
:0300160001fffceb
:0300170001fffcea
:0300180001fffce9
:0300190001fffce8
:03001a0001fffbe8
:03001b0001fffbe7
:03001c0001fffbe6
:03001d0001fffae6
:03001e0001fffae5
:03001f0001fffae4
:0300200001fff9e4
:0300210001fff9e3
:0300220001fff9e2
:0300230001fff8e2
:0300240001fff8e1
:0300250001fff8e0
:0300260001fff7e0
:0300270001fff7df
:0300280001fff6df
:0300290001fff6de
:03002a0001fff5de
:03002b0001fff5dd
:03002c0001fff5dc
:03002d0001fff4dc
:03002e0001fff4db
:03002f0001fff3db
:0300300001fff3da
:0300310001fff2da
:0300320001fff1da
:0300330001fff1d9
:0300340001fff0d9
:0300350001fff0d8
:0300360001ffefd8
:0300370001ffefd7
:0300380001ffeed7
:0300390001ffedd7
:03003a0001ffedd6
:03003b0001ffecd6
:03003c0001ffebd6
:03003d0001ffebd5
:03003e0001ffead5
:03003f0001ffe9d5
:0300400001ffe9d4
:0300410001ffe8d4
:0300420001ffe7d4
:0300430001ffe7d3
:0300440001ffe6d3
:0300450001ffe5d3
:0300460001ffe4d3
:0300470001ffe4d2
:0300480001ffe3d2
:0300490001ffe2d2
:03004a0001ffe1d2
:03004b0001ffe1d1
:03004c0001ffe0d1
:03004d0001ffdfd1
:03004e0001ffded1
:03004f0001ffddd1
:0300500001ffdcd1
:0300510001ffdbd1
:0300520001ffdbd0
:0300530001ffdad0
:0300540001ffd9d0
:0300550001ffd8d0
:0300560001ffd7d0
:0300570001ffd6d0
:0300580001ffd5d0
:0300590001ffd4d0
:03005a0001ffd3d0
:03005b0001ffd2d0
:03005c0001ffd1d0
:03005d0001ffd0d0
:03005e0001ffcfd0
:03005f0001ffced0
:0300600001ffcdd0
:0300610001ffccd0
:0300620001ffcbd0
:0300630001ffcad0
:0300640001ffc9d0
:0300650001ffc8d0
:0300660001ffc7d0
:0300670001ffc5d1
:0300680001ffc4d1
:0300690001ffc3d1
:03006a0001ffc2d1
:03006b0001ffc1d1
:03006c0001ffc0d1
:03006d0001ffbfd1
:03006e0001ffbdd2
:03006f0001ffbcd2
:0300700001ffbbd2
:0300710001ffbad2
:0300720001ffb9d2
:0300730001ffb7d3
:0300740001ffb6d3
:0300750001ffb5d3
:0300760001ffb4d3
:0300770001ffb2d4
:0300780001ffb1d4
:0300790001ffb0d4
:03007a0001ffaed5
:03007b0001ffadd5
:03007c0001ffacd5
:03007d0001ffaad6
:03007e0001ffa9d6
:03007f0001ffa8d6
:0300800001ffa6d7
:0300810001ffa5d7
:0300820001ffa3d8
:0300830001ffa2d8
:0300840001ffa1d8
:0300850001ff9fd9
:0300860001ff9ed9
:0300870001ff9cda
:0300880001ff9bda
:0300890001ff99db
:03008a0001ff98db
:03008b0001ff96dc
:03008c0001ff95dc
:03008d0001ff93dd
:03008e0001ff92dd
:03008f0001ff90de
:0300900001ff8fde
:0300910001ff8ddf
:0300920001ff8be0
:0300930001ff8ae0
:0300940001ff88e1
:0300950001ff87e1
:0300960001ff85e2
:0300970001ff83e3
:0300980001ff82e3
:0300990001ff80e4
:03009a0001ff7ee5
:03009b0001ff7de5
:03009c0001ff7be6
:03009d0001ff79e7
:03009e0001ff78e7
:03009f0001ff76e8
:0300a00001ff74e9
:0300a10001ff72ea
:0300a20001ff71ea
:0300a30001ff6feb
:0300a40001ff6dec
:0300a50001ff6bed
:0300a60001ff6aed
:0300a70001ff68ee
:0300a80001ff66ef
:0300a90001ff64f0
:0300aa0001ff62f1
:0300ab0001ff61f1
:0300ac0001ff5ff2
:0300ad0001ff5df3
:0300ae0001ff5bf4
:0300af0001ff59f5
:0300b00001ff57f6
:0300b10001ff55f7
:0300b20001ff53f8
:0300b30001ff51f9
:0300b40001ff4ffa
:0300b50001ff4dfb
:0300b60001ff4bfc
:0300b70001ff49fd
:0300b80001ff47fe
:0300b90001ff45ff
:0300ba0001ff4300
:0300bb0001ff4101
:0300bc0001ff3f02
:0300bd0001ff3d03
:0300be0001ff3b04
:0300bf0001ff3905
:0300c00001ff3706
:0300c10001ff3507
:0300c20001ff3308
:0300c30001ff3109
:0300c40001ff2f0a
:0300c50001ff2d0b
:0300c60001ff2b0c
:0300c70001ff280e
:0300c80001ff260f
:0300c90001ff2410
:0300ca0001ff2211
:0300cb0001ff2012
:0300cc0001ff1d14
:0300cd0001ff1b15
:0300ce0001ff1916
:0300cf0001ff1717
:0300d00001ff1518
:0300d10001ff121a
:0300d20001ff101b
:0300d30001ff0e1c
:0300d40001ff0b1e
:0300d50001ff091f
:0300d60001ff0720
:0300d70001ff0422
:0300d80001ff0223
:0300d90001ff0024
:0300da0001fefd27
:0300db0001fefb28
:0300dc0001fef929
:0300dd0001fef62b
:0300de0001fef42c
:0300df0001fef12e
:0300e00001feef2f
:0300e10001feed30
:0300e20001feea32
:0300e30001fee833
:0300e40001fee535
:0300e50001fee336
:0300e60001fee038
:0300e70001fede39
:0300e80001fedb3b
:0300e90001fed93c
:0300ea0001fed63e
:0300eb0001fed43f
:0300ec0001fed141
:0300ed0001fecf42
:0300ee0001fecc44
:0300ef0001fec946
:0300f00001fec747
:0300f10001fec449
:0300f20001fec24a
:0300f30001febf4c
:0300f40001febc4e
:0300f50001feba4f
:0300f60001feb751
:0300f70001feb453
:0300f80001feb254
:0300f90001feaf56
:0300fa0001feac58
:0300fb0001feaa59
:0300fc0001fea75b
:0300fd0001fea45d
:0300fe0001fea15f
:0300ff0001fe9f60
:0301000001fe9c61
:0301010001fe9963
:0301020001fe9665
:0301030001fe9367
:0301040001fe9168
:0301050001fe8e6a
:0301060001fe8b6c
:0301070001fe886e
:0301080001fe8570
:0301090001fe8272
:03010a0001fe8073
:03010b0001fe7d75
:03010c0001fe7a77
:03010d0001fe7779
:03010e0001fe747b
:03010f0001fe717d
:0301100001fe6e7f
:0301110001fe6b81
:0301120001fe6883
:0301130001fe6585
:0301140001fe6287
:0301150001fe5f89
:0301160001fe5c8b
:0301170001fe598d
:0301180001fe568f
:0301190001fe5391
:03011a0001fe5093
:03011b0001fe4d95
:03011c0001fe4a97
:03011d0001fe4799
:03011e0001fe449b
:03011f0001fe419d
:0301200001fe3e9f
:0301210001fe3aa2
:0301220001fe37a4
:0301230001fe34a6
:0301240001fe31a8
:0301250001fe2eaa
:0301260001fe2bac
:0301270001fe27af
:0301280001fe24b1
:0301290001fe21b3
:03012a0001fe1eb5
:03012b0001fe1bb7
:03012c0001fe17ba
:03012d0001fe14bc
:03012e0001fe11be
:03012f0001fe0ec0
:0301300001fe0ac3
:0301310001fe07c5
:0301320001fe04c7
:0301330001fe00ca
:0301340001fdfdcd
:0301350001fdfacf
:0301360001fdf6d2
:0301370001fdf3d4
:0301380001fdf0d6
:0301390001fdecd9
:03013a0001fde9db
:03013b0001fde5de
:03013c0001fde2e0
:03013d0001fddfe2
:03013e0001fddbe5
:03013f0001fdd8e7
:0301400001fdd4ea
:0301410001fdd1ec
:0301420001fdcdef
:0301430001fdcaf1
:0301440001fdc6f4
:0301450001fdc3f6
:0301460001fdbff9
:0301470001fdbcfb
:0301480001fdb8fe
:0301490001fdb500
:03014a0001fdb103
:03014b0001fdad06
:03014c0001fdaa08
:03014d0001fda60b
:03014e0001fda30d
:03014f0001fd9f10
:0301500001fd9b13
:0301510001fd9815
:0301520001fd9418
:0301530001fd901b
:0301540001fd8d1d
:0301550001fd8920
:0301560001fd8523
:0301570001fd8225
:0301580001fd7e28
:0301590001fd7a2b
:03015a0001fd762e
:03015b0001fd7330
:03015c0001fd6f33
:03015d0001fd6b36
:03015e0001fd6739
:03015f0001fd643b
:0301600001fd603e
:0301610001fd5c41
:0301620001fd5844
:0301630001fd5447
:0301640001fd5149
:0301650001fd4d4c
:0301660001fd494f
:0301670001fd4552
:0301680001fd4155
:0301690001fd3d58
:03016a0001fd395b
:03016b0001fd355e
:03016c0001fd3161
:03016d0001fd2d64
:03016e0001fd2967
:03016f0001fd256a
:0301700001fd216d
:0301710001fd1d70
:0301720001fd1973
:0301730001fd1576
:0301740001fd1179
:0301750001fd0d7c
:0301760001fd097f
:0301770001fd0582
:0301780001fd0185
:0301790001fcfd89
:03017a0001fcf98c
:03017b0001fcf58f
:03017c0001fcf192
:03017d0001fced95
:03017e0001fce998
:03017f0001fce59b
:0301800001fce09f
:0301810001fcdca2
:0301820001fcd8a5
:0301830001fcd4a8
:0301840001fcd0ab
:0301850001fccbaf
:0301860001fcc7b2
:0301870001fcc3b5
:0301880001fcbfb8
:0301890001fcbbbb
:03018a0001fcb6bf
:03018b0001fcb2c2
:03018c0001fcaec5
:03018d0001fca9c9
:03018e0001fca5cc
:03018f0001fca1cf
:0301900001fc9dd2
:0301910001fc98d6
:0301920001fc94d9
:0301930001fc8fdd
:0301940001fc8be0
:0301950001fc87e3
:0301960001fc82e7
:0301970001fc7eea
:0301980001fc7aed
:0301990001fc75f1
:03019a0001fc71f4
:03019b0001fc6cf8
:03019c0001fc68fb
:03019d0001fc63ff
:03019e0001fc5f02
:03019f0001fc5a06
:0301a00001fc5609
:0301a10001fc510d
:0301a20001fc4d10
:0301a30001fc4814
:0301a40001fc4417
:0301a50001fc3f1b
:0301a60001fc3b1e
:0301a70001fc3622
:0301a80001fc3225
:0301a90001fc2d29
:0301aa0001fc282d
:0301ab0001fc2430
:0301ac0001fc1f34
:0301ad0001fc1a38
:0301ae0001fc163b
:0301af0001fc113f
:0301b00001fc0d42
:0301b10001fc0846
:0301b20001fc034a
:0301b30001fbfe4f
:0301b40001fbfa52
:0301b50001fbf556
:0301b60001fbf05a
:0301b70001fbec5d
:0301b80001fbe761
:0301b90001fbe265
:0301ba0001fbdd69
:0301bb0001fbd86d
:0301bc0001fbd470
:0301bd0001fbcf74
:0301be0001fbca78
:0301bf0001fbc57c
:0301c00001fbc080
:0301c10001fbbc83
:0301c20001fbb787
:0301c30001fbb28b
:0301c40001fbad8f
:0301c50001fba893
:0301c60001fba397
:0301c70001fb9e9b
:0301c80001fb999f
:0301c90001fb94a3
:0301ca0001fb8fa7
:0301cb0001fb8aab
:0301cc0001fb85af
:0301cd0001fb81b2
:0301ce0001fb7cb6
:0301cf0001fb77ba
:0301d00001fb72be
:0301d10001fb6cc3
:0301d20001fb67c7
:0301d30001fb62cb
:0301d40001fb5dcf
:0301d50001fb58d3
:0301d60001fb53d7
:0301d70001fb4edb
:0301d80001fb49df
:0301d90001fb44e3
:0301da0001fb3fe7
:0301db0001fb3aeb
:0301dc0001fb35ef
:0301dd0001fb2ff4
:0301de0001fb2af8
:0301df0001fb25fc
:0301e00001fb2000
:0301e10001fb1b04
:0301e20001fb1509
:0301e30001fb100d
:0301e40001fb0b11
:0301e50001fb0615
:0301e60001fb0119
:0301e70001fafb1f
:0301e80001faf623
:0301e90001faf127
:0301ea0001faeb2c
:0301eb0001fae630
:0301ec0001fae134
:0301ed0001fadc38
:0301ee0001fad63d
:0301ef0001fad141
:0301f00001facb46
:0301f10001fac64a
:0301f20001fac14e
:0301f30001fabb53
:0301f40001fab657
:0301f50001fab15b
:0301f60001faab60
:0301f70001faa664
:0301f80001faa069
:0301f90001fa9b6d
:0301fa0001fa9572
:0301fb0001fa9076
:0301fc0001fa8a7b
:0301fd0001fa857f
:0301fe0001fa7f84
:0301ff0001fa7a88
:0302000001fa748c
:0302010001fa6f90
:0302020001fa6995
:0302030001fa6499
:0302040001fa5e9e
:0302050001fa59a2
:0302060001fa53a7
:0302070001fa4dac
:0302080001fa48b0
:0302090001fa42b5
:03020a0001fa3db9
:03020b0001fa37be
:03020c0001fa31c3
:03020d0001fa2cc7
:03020e0001fa26cc
:03020f0001fa20d1
:0302100001fa1ad6
:0302110001fa15da
:0302120001fa0fdf
:0302130001fa09e4
:0302140001fa04e8
:0302150001f9feee
:0302160001f9f8f3
:0302170001f9f2f8
:0302180001f9edfc
:0302190001f9e701
:03021a0001f9e106
:03021b0001f9db0b
:03021c0001f9d510
:03021d0001f9cf15
:03021e0001f9ca19
:03021f0001f9c41e
:0302200001f9be23
:0302210001f9b828
:0302220001f9b22d
:0302230001f9ac32
:0302240001f9a637
:0302250001f9a03c
:0302260001f99a41
:0302270001f99446
:0302280001f98f4a
:0302290001f9894f
:03022a0001f98354
:03022b0001f97d59
:03022c0001f9775e
:03022d0001f97163
:03022e0001f96b68
:03022f0001f9656d
:0302300001f95e73
:0302310001f95878
:0302320001f9527d
:0302330001f94c82
:0302340001f94687
:0302350001f9408c
:0302360001f93a91
:0302370001f93496
:0302380001f92e9b
:0302390001f928a0
:03023a0001f921a6
:03023b0001f91bab
:03023c0001f915b0
:03023d0001f90fb5
:03023e0001f909ba
:03023f0001f903bf
:0302400001f8fcc6
:0302410001f8f6cb
:0302420001f8f0d0
:0302430001f8ead5
:0302440001f8e3db
:0302450001f8dde0
:0302460001f8d7e5
:0302470001f8d1ea
:0302480001f8caf0
:0302490001f8c4f5
:03024a0001f8befa
:03024b0001f8b700
:03024c0001f8b105
:03024d0001f8ab0a
:03024e0001f8a410
:03024f0001f89e15
:0302500001f8981a
:0302510001f89120
:0302520001f88b25
:0302530001f8842b
:0302540001f87e30
:0302550001f87736
:0302560001f8713b
:0302570001f86b40
:0302580001f86446
:0302590001f85e4b
:03025a0001f85751
:03025b0001f85156
:03025c0001f84a5c
:03025d0001f84461
:03025e0001f83d67
:03025f0001f8376c
:0302600001f83072
:0302610001f82978
:0302620001f8237d
:0302630001f81c83
:0302640001f81688
:0302650001f80f8e
:0302660001f80894
:0302670001f80299
:0302680001f7fba0
:0302690001f7f5a5
:03026a0001f7eeab
:03026b0001f7e7b1
:03026c0001f7e0b7
:03026d0001f7dabc
:03026e0001f7d3c2
:03026f0001f7ccc8
:0302700001f7c6cd
:0302710001f7bfd3
:0302720001f7b8d9
:0302730001f7b1df
:0302740001f7abe4
:0302750001f7a4ea
:0302760001f79df0
:0302770001f796f6
:0302780001f78ffc
:0302790001f78901
:03027a0001f78207
:03027b0001f77b0d
:03027c0001f77413
:03027d0001f76d19
:03027e0001f7661f
:03027f0001f76024
:0302800001f7592a
:0302810001f75230
:0302820001f74b36
:0302830001f7443c
:0302840001f73d42
:0302850001f73648
:0302860001f72f4e
:0302870001f72854
:0302880001f7215a
:0302890001f71a60
:03028a0001f71366
:03028b0001f70c6c
:03028c0001f70572
:03028d0001f6fe79
:03028e0001f6f77f
:03028f0001f6f085
:0302900001f6e98b
:0302910001f6e291
:0302920001f6db97
:0302930001f6d49d
:0302940001f6cca4
:0302950001f6c5aa
:0302960001f6beb0
:0302970001f6b7b6
:0302980001f6b0bc
:0302990001f6a9c2
:03029a0001f6a2c8
:03029b0001f69acf
:03029c0001f693d5
:03029d0001f68cdb
:03029e0001f685e1
:03029f0001f67ee7
:0302a00001f676ee
:0302a10001f66ff4
:0302a20001f668fa
:0302a30001f66100
:0302a40001f65907
:0302a50001f6520d
:0302a60001f64b13
:0302a70001f6431a
:0302a80001f63c20
:0302a90001f63526
:0302aa0001f62d2d
:0302ab0001f62633
:0302ac0001f61f39
:0302ad0001f61740
:0302ae0001f61046
:0302af0001f6094c
:0302b00001f60153
:0302b10001f5fa5a
:0302b20001f5f261
:0302b30001f5eb67
:0302b40001f5e36e
:0302b50001f5dc74
:0302b60001f5d47b
:0302b70001f5cd81
:0302b80001f5c687
:0302b90001f5be8e
:0302ba0001f5b695
:0302bb0001f5af9b
:0302bc0001f5a7a2
:0302bd0001f5a0a8
:0302be0001f598af
:0302bf0001f591b5
:0302c00001f589bc
:0302c10001f582c2
:0302c20001f57ac9
:0302c30001f572d0
:0302c40001f56bd6
:0302c50001f563dd
:0302c60001f55ce3
:0302c70001f554ea
:0302c80001f54cf1
:0302c90001f545f7
:0302ca0001f53dfe
:0302cb0001f53505
:0302cc0001f52d0c
:0302cd0001f52612
:0302ce0001f51e19
:0302cf0001f51620
:0302d00001f50f26
:0302d10001f5072d
:0302d20001f4ff35
:0302d30001f4f73c
:0302d40001f4ef43
:0302d50001f4e849
:0302d60001f4e050
:0302d70001f4d857
:0302d80001f4d05e
:0302d90001f4c865
:0302da0001f4c06c
:0302db0001f4b972
:0302dc0001f4b179
:0302dd0001f4a980
:0302de0001f4a187
:0302df0001f4998e
:0302e00001f49195
:0302e10001f4899c
:0302e20001f481a3
:0302e30001f479aa
:0302e40001f471b1
:0302e50001f469b8
:0302e60001f461bf
:0302e70001f459c6
:0302e80001f451cd
:0302e90001f449d4
:0302ea0001f441db
:0302eb0001f439e2
:0302ec0001f431e9
:0302ed0001f429f0
:0302ee0001f421f7
:0302ef0001f419fe
:0302f00001f41105
:0302f10001f4090c
:0302f20001f40113
:0302f30001f3f91b
:0302f40001f3f122
:0302f50001f3e82a
:0302f60001f3e031
:0302f70001f3d838
:0302f80001f3d03f
:0302f90001f3c846
:0302fa0001f3c04d
:0302fb0001f3b755
:0302fc0001f3af5c
:0302fd0001f3a763
:0302fe0001f39f6a
:0302ff0001f39771
:0303000001f38e78
:0303010001f3867f
:0303020001f37e86
:0303030001f3758e
:0303040001f36d95
:0303050001f3659c
:0303060001f35da3
:0303070001f354ab
:0303080001f34cb2
:0303090001f343ba
:03030a0001f33bc1
:03030b0001f333c8
:03030c0001f32ad0
:03030d0001f322d7
:03030e0001f31ade
:03030f0001f311e6
:0303100001f309ed
:0303110001f300f5
:0303120001f2f8fd
:0303130001f2ef05
:0303140001f2e70c
:0303150001f2de14
:0303160001f2d61b
:0303170001f2cd23
:0303180001f2c52a
:0303190001f2bc32
:03031a0001f2b439
:03031b0001f2ab41
:03031c0001f2a348
:03031d0001f29a50
:03031e0001f29257
:03031f0001f2895f
:0303200001f28166
:0303210001f2786e
:0303220001f26f76
:0303230001f2677d
:0303240001f25e85
:0303250001f2558d
:0303260001f24d94
:0303270001f2449c
:0303280001f23ba4
:0303290001f233ab
:03032a0001f22ab3
:03032b0001f221bb
:03032c0001f219c2
:03032d0001f210ca
:03032e0001f207d2
:03032f0001f1fedb
:0303300001f1f6e2
:0303310001f1edea
:0303320001f1e4f2
:0303330001f1dbfa
:0303340001f1d202
:0303350001f1ca09
:0303360001f1c111
:0303370001f1b819
:0303380001f1af21
:0303390001f1a629
:03033a0001f19d31
:03033b0001f19538
:03033c0001f18c40
:03033d0001f18348
:03033e0001f17a50
:03033f0001f17158
:0303400001f16860
:0303410001f15f68
:0303420001f15670
:0303430001f14d78
:0303440001f14480
:0303450001f13b88
:0303460001f13290
:0303470001f12998
:0303480001f120a0
:0303490001f117a8
:03034a0001f10eb0
:03034b0001f105b8
:03034c0001f0fcc1
:03034d0001f0f3c9
:03034e0001f0ead1
:03034f0001f0e1d9
:0303500001f0d8e1
:0303510001f0cfe9
:0303520001f0c5f2
:0303530001f0bcfa
:0303540001f0b302
:0303550001f0aa0a
:0303560001f0a112
:0303570001f0981a
:0303580001f08f22
:0303590001f0852b
:03035a0001f07c33
:03035b0001f0733b
:03035c0001f06a43
:03035d0001f0604c
:03035e0001f05754
:03035f0001f04e5c
:0303600001f04564
:0303610001f03b6d
:0303620001f03275
:0303630001f0297d
:0303640001f01f86
:0303650001f0168e
:0303660001f00d96
:0303670001f0039f
:0303680001effaa8
:0303690001eff1b0
:03036a0001efe7b9
:03036b0001efdec1
:03036c0001efd5c9
:03036d0001efcbd2
:03036e0001efc2da
:03036f0001efb8e3
:0303700001efafeb
:0303710001efa6f3
:0303720001ef9cfc
:0303730001ef9304
:0303740001ef890d
:0303750001ef8015
:0303760001ef761e
:0303770001ef6d26
:0303780001ef632f
:0303790001ef5a37
:03037a0001ef5040
:03037b0001ef4649
:03037c0001ef3d51
:03037d0001ef335a
:03037e0001ef2a62
:03037f0001ef206b
:0303800001ef1773
:0303810001ef0d7c
:0303820001ef0385
:0303830001eefa8e
:0303840001eef097
:0303850001eee6a0
:0303860001eedda8
:0303870001eed3b1
:0303880001eec9ba
:0303890001eec0c2
:03038a0001eeb6cb
:03038b0001eeacd4
:03038c0001eea3dc
:03038d0001ee99e5
:03038e0001ee8fee
:03038f0001ee85f7
:0303900001ee7cff
:0303910001ee7208
:0303920001ee6811
:0303930001ee5e1a
:0303940001ee5423
:0303950001ee4a2c
:0303960001ee4134
:0303970001ee373d
:0303980001ee2d46
:0303990001ee234f
:03039a0001ee1958
:03039b0001ee0f61
:03039c0001ee056a
:03039d0001edfc73
:03039e0001edf27c
:03039f0001ede885
:0303a00001edde8e
:0303a10001edd497
:0303a20001edcaa0
:0303a30001edc0a9
:0303a40001edb6b2
:0303a50001edacbb
:0303a60001eda2c4
:0303a70001ed98cd
:0303a80001ed8ed6
:0303a90001ed84df
:0303aa0001ed7ae8
:0303ab0001ed70f1
:0303ac0001ed66fa
:0303ad0001ed5c03
:0303ae0001ed520c
:0303af0001ed4716
:0303b00001ed3d1f
:0303b10001ed3328
:0303b20001ed2931
:0303b30001ed1f3a
:0303b40001ed1543
:0303b50001ed0b4c
:0303b60001ed0056
:0303b70001ecf660
:0303b80001ecec69
:0303b90001ece272
:0303ba0001ecd87b
:0303bb0001eccd85
:0303bc0001ecc38e
:0303bd0001ecb997
:0303be0001ecafa0
:0303bf0001eca4aa
:0303c00001ec9ab3
:0303c10001ec90bc
:0303c20001ec86c5
:0303c30001ec7bcf
:0303c40001ec71d8
:0303c50001ec67e1
:0303c60001ec5ceb
:0303c70001ec52f4
:0303c80001ec48fd
:0303c90001ec3d07
:0303ca0001ec3310
:0303cb0001ec2919
:0303cc0001ec1e23
:0303cd0001ec142c
:0303ce0001ec0936
:0303cf0001ebff40
:0303d00001ebf44a
:0303d10001ebea53
:0303d20001ebe05c
:0303d30001ebd566
:0303d40001ebcb6f
:0303d50001ebc079
:0303d60001ebb682
:0303d70001ebab8c
:0303d80001eba195
:0303d90001eb969f
:0303da0001eb8ba9
:0303db0001eb81b2
:0303dc0001eb76bc
:0303dd0001eb6cc5
:0303de0001eb61cf
:0303df0001eb57d8
:0303e00001eb4ce2
:0303e10001eb41ec
:0303e20001eb37f5
:0303e30001eb2cff
:0303e40001eb2109
:0303e50001eb1712
:0303e60001eb0c1c
:0303e70001eb0126
:0303e80001eaf730
:0303e90001eaec3a
:0303ea0001eae144
:0303eb0001ead74d
:0303ec0001eacc57
:0303ed0001eac161
:0303ee0001eab66b
:0303ef0001eaac74
:0303f00001eaa17e
:0303f10001ea9688
:0303f20001ea8b92
:0303f30001ea819b
:0303f40001ea76a5
:0303f50001ea6baf
:0303f60001ea60b9
:0303f70001ea55c3
:0303f80001ea4acd
:0303f90001ea3fd7
:0303fa0001ea35e0
:0303fb0001ea2aea
:0303fc0001ea1ff4
:0303fd0001ea14fe
:0303fe0001ea0908
:0303ff0001e9fe13
:0304000001e9f31c
:0304010001e9e826
:0304020001e9dd30
:0304030001e9d23a
:0304040001e9c744
:0304050001e9bc4e
:0304060001e9b158
:0304070001e9a662
:0304080001e99b6c
:0304090001e99076
:03040a0001e98580
:03040b0001e97a8a
:03040c0001e96f94
:03040d0001e9649e
:03040e0001e959a8
:03040f0001e94eb2
:0304100001e943bc
:0304110001e938c6
:0304120001e92cd1
:0304130001e921db
:0304140001e916e5
:0304150001e90bef
:0304160001e900f9
:0304170001e8f504
:0304180001e8e90f
:0304190001e8de19
:03041a0001e8d323
:03041b0001e8c82d
:03041c0001e8bd37
:03041d0001e8b142
:03041e0001e8a64c
:03041f0001e89b56
:0304200001e89060
:0304210001e8846b
:0304220001e87975
:0304230001e86e7f
:0304240001e8628a
:0304250001e85794
:0304260001e84c9e
:0304270001e840a9
:0304280001e835b3
:0304290001e82abd
:03042a0001e81ec8
:03042b0001e813d2
:03042c0001e808dc
:03042d0001e7fce8
:03042e0001e7f1f2
:03042f0001e7e5fd
:0304300001e7da07
:0304310001e7ce12
:0304320001e7c31c
:0304330001e7b826
:0304340001e7ac31
:0304350001e7a13b
:0304360001e79546
:0304370001e78a50
:0304380001e77e5b
:0304390001e77365
:03043a0001e76770
:03043b0001e75b7b
:03043c0001e75085
:03043d0001e74490
:03043e0001e7399a
:03043f0001e72da5
:0304400001e722af
:0304410001e716ba
:0304420001e70ac5
:0304430001e6ffd0
:0304440001e6f3db
:0304450001e6e7e6
:0304460001e6dcf0
:0304470001e6d0fb
:0304480001e6c406
:0304490001e6b910
:03044a0001e6ad1b
:03044b0001e6a126
:03044c0001e69630
:03044d0001e68a3b
:03044e0001e67e46
:03044f0001e67251
:0304500001e6675b
:0304510001e65b66
:0304520001e64f71
:0304530001e6437c
:0304540001e63787
:0304550001e62c91
:0304560001e6209c
:0304570001e614a7
:0304580001e608b2
:0304590001e5fcbe
:03045a0001e5f0c9
:03045b0001e5e4d4
:03045c0001e5d9de
:03045d0001e5cde9
:03045e0001e5c1f4
:03045f0001e5b5ff
:0304600001e5a90a
:0304610001e59d15
:0304620001e59120
:0304630001e5852b
:0304640001e57936
:0304650001e56d41
:0304660001e5614c
:0304670001e55557
:0304680001e54962
:0304690001e53d6d
:03046a0001e53178
:03046b0001e52583
:03046c0001e5198e
:03046d0001e50d99
:03046e0001e501a4
:03046f0001e4f5b0
:0304700001e4e9bb
:0304710001e4ddc6
:0304720001e4d0d2
:0304730001e4c4dd
:0304740001e4b8e8
:0304750001e4acf3
:0304760001e4a0fe
:0304770001e49409
:0304780001e48715
:0304790001e47b20
:03047a0001e46f2b
:03047b0001e46336
:03047c0001e45741
:03047d0001e44a4d
:03047e0001e43e58
:03047f0001e43263
:0304800001e4266e
:0304810001e4197a
:0304820001e40d85
:0304830001e40190
:0304840001e3f59c
:0304850001e3e8a8
:0304860001e3dcb3
:0304870001e3d0be
:0304880001e3c3ca
:0304890001e3b7d5
:03048a0001e3abe0
:03048b0001e39eec
:03048c0001e392f7
:03048d0001e38503
:03048e0001e3790e
:03048f0001e36d19
:0304900001e36025
:0304910001e35430
:0304920001e3473c
:0304930001e33b47
:0304940001e32e53
:0304950001e3225e
:0304960001e3156a
:0304970001e30975
:0304980001e2fc82
:0304990001e2f08d
:03049a0001e2e399
:03049b0001e2d7a4
:03049c0001e2cab0
:03049d0001e2bebb
:03049e0001e2b1c7
:03049f0001e2a5d2
:0304a00001e298de
:0304a10001e28bea
:0304a20001e27ff5
:0304a30001e27201
:0304a40001e2660c
:0304a50001e25918
:0304a60001e24c24
:0304a70001e2402f
:0304a80001e2333b
:0304a90001e22647
:0304aa0001e21a52
:0304ab0001e20d5e
:0304ac0001e2006a
:0304ad0001e1f377
:0304ae0001e1e782
:0304af0001e1da8e
:0304b00001e1cd9a
:0304b10001e1c0a6
:0304b20001e1b4b1
:0304b30001e1a7bd
:0304b40001e19ac9
:0304b50001e18dd5
:0304b60001e181e0
:0304b70001e174ec
:0304b80001e167f8
:0304b90001e15a04
:0304ba0001e14d10
:0304bb0001e1401c
:0304bc0001e13328
:0304bd0001e12733
:0304be0001e11a3f
:0304bf0001e10d4b
:0304c00001e10057
:0304c10001e0f364
:0304c20001e0e670
:0304c30001e0d97c
:0304c40001e0cc88
:0304c50001e0bf94
:0304c60001e0b2a0
:0304c70001e0a5ac
:0304c80001e098b8
:0304c90001e08bc4
:0304ca0001e07ed0
:0304cb0001e071dc
:0304cc0001e064e8
:0304cd0001e057f4
:0304ce0001e04a00
:0304cf0001e03d0c
:0304d00001e03018
:0304d10001e02324
:0304d20001e01630
:0304d30001e0093c
:0304d40001dffb4a
:0304d50001dfee56
:0304d60001dfe162
:0304d70001dfd46e
:0304d80001dfc77a
:0304d90001dfba86
:0304da0001dfad92
:0304db0001df9f9f
:0304dc0001df92ab
:0304dd0001df85b7
:0304de0001df78c3
:0304df0001df6bcf
:0304e00001df5ddc
:0304e10001df50e8
:0304e20001df43f4
:0304e30001df3600
:0304e40001df280d
:0304e50001df1b19
:0304e60001df0e25
:0304e70001df0032
:0304e80001def33f
:0304e90001dee64b
:0304ea0001ded858
:0304eb0001decb64
:0304ec0001debe70
:0304ed0001deb07d
:0304ee0001dea389
:0304ef0001de9596
:0304f00001de88a2
:0304f10001de7bae
:0304f20001de6dbb
:0304f30001de60c7
:0304f40001de52d4
:0304f50001de45e0
:0304f60001de37ed
:0304f70001de2af9
:0304f80001de1d05
:0304f90001de0f12
:0304fa0001de021e
:0304fb0001ddf42c
:0304fc0001dde639
:0304fd0001ddd945
:0304fe0001ddcb52
:0304ff0001ddbe5e
:0305000001ddb06a
:0305010001dda376
:0305020001dd9583
:0305030001dd888f
:0305040001dd7a9c
:0305050001dd6ca9
:0305060001dd5fb5
:0305070001dd51c2
:0305080001dd43cf
:0305090001dd36db
:03050a0001dd28e8
:03050b0001dd1af5
:03050c0001dd0d01
:03050d0001dcff0f
:03050e0001dcf11c
:03050f0001dce428
:0305100001dcd635
:0305110001dcc842
:0305120001dcba4f
:0305130001dcad5b
:0305140001dc9f68
:0305150001dc9175
:0305160001dc8382
:0305170001dc768e
:0305180001dc689b
:0305190001dc5aa8
:03051a0001dc4cb5
:03051b0001dc3ec2
:03051c0001dc30cf
:03051d0001dc23db
:03051e0001dc15e8
:03051f0001dc07f5
:0305200001dbf903
:0305210001dbeb10
:0305220001dbdd1d
:0305230001dbcf2a
:0305240001dbc137
:0305250001dbb344
:0305260001dba551
:0305270001db975e
:0305280001db8a6a
:0305290001db7c77
:03052a0001db6e84
:03052b0001db6091
:03052c0001db529e
:03052d0001db44ab
:03052e0001db36b8
:03052f0001db27c6
:0305300001db19d3
:0305310001db0be0
:0305320001dafdee
:0305330001daeffb
:0305340001dae108
:0305350001dad315
:0305360001dac522
:0305370001dab72f
:0305380001daa93c
:0305390001da9b49
:03053a0001da8c57
:03053b0001da7e64
:03053c0001da7071
:03053d0001da627e
:03053e0001da548b
:03053f0001da4698
:0305400001da37a6
:0305410001da29b3
:0305420001da1bc0
:0305430001da0dcd
:0305440001d9fedc
:0305450001d9f0e9
:0305460001d9e2f6
:0305470001d9d403
:0305480001d9c511
:0305490001d9b71e
:03054a0001d9a92b
:03054b0001d99a39
:03054c0001d98c46
:03054d0001d97e53
:03054e0001d96f61
:03054f0001d9616e
:0305500001d9537b
:0305510001d94489
:0305520001d93696
:0305530001d927a4
:0305540001d919b1
:0305550001d90bbe
:0305560001d8fccd
:0305570001d8eeda
:0305580001d8dfe8
:0305590001d8d1f5
:03055a0001d8c203
:03055b0001d8b410
:03055c0001d8a51e
:03055d0001d8972b
:03055e0001d88839
:03055f0001d87a46
:0305600001d86b54
:0305610001d85d61
:0305620001d84e6f
:0305630001d8407c
:0305640001d8318a
:0305650001d82397
:0305660001d814a5
:0305670001d805b3
:0305680001d7f7c1
:0305690001d7e8cf
:03056a0001d7dadc
:03056b0001d7cbea
:03056c0001d7bcf8
:03056d0001d7ae05
:03056e0001d79f13
:03056f0001d79021
:0305700001d7822e
:0305710001d7733c
:0305720001d7644a
:0305730001d75558
:0305740001d74765
:0305750001d73873
:0305760001d72981
:0305770001d71a8f
:0305780001d70c9c
:0305790001d6fdab
:03057a0001d6eeb9
:03057b0001d6dfc7
:03057c0001d6d1d4
:03057d0001d6c2e2
:03057e0001d6b3f0
:03057f0001d6a4fe
:0305800001d6950c
:0305810001d6861a
:0305820001d67728
:0305830001d66935
:0305840001d65a43
:0305850001d64b51
:0305860001d63c5f
:0305870001d62d6d
:0305880001d61e7b
:0305890001d60f89
:03058a0001d60097
:03058b0001d5f1a6
:03058c0001d5e2b4
:03058d0001d5d3c2
:03058e0001d5c4d0
:03058f0001d5b5de
:0305900001d5a6ec
:0305910001d597fa
:0305920001d58808
:0305930001d57916
:0305940001d56a24
:0305950001d55b32
:0305960001d54c40
:0305970001d53d4e
:0305980001d52e5c
:0305990001d51f6a
:03059a0001d51078
:03059b0001d50186
:03059c0001d4f196
:03059d0001d4e2a4
:03059e0001d4d3b2
:03059f0001d4c4c0
:0305a00001d4b5ce
:0305a10001d4a6dc
:0305a20001d496eb
:0305a30001d487f9
:0305a40001d47807
:0305a50001d46915
:0305a60001d45a23
:0305a70001d44a32
:0305a80001d43b40
:0305a90001d42c4e
:0305aa0001d41d5c
:0305ab0001d40d6b
:0305ac0001d3fe7a
:0305ad0001d3ef88
:0305ae0001d3df97
:0305af0001d3d0a5
:0305b00001d3c1b3
:0305b10001d3b1c2
:0305b20001d3a2d0
:0305b30001d393de
:0305b40001d383ed
:0305b50001d374fb
:0305b60001d36509
:0305b70001d35518
:0305b80001d34626
:0305b90001d33635
:0305ba0001d32743
:0305bb0001d31851
:0305bc0001d30860
:0305bd0001d2f96f
:0305be0001d2e97e
:0305bf0001d2da8c
:0305c00001d2ca9b
:0305c10001d2bba9
:0305c20001d2abb8
:0305c30001d29cc6
:0305c40001d28cd5
:0305c50001d27de3
:0305c60001d26df2
:0305c70001d25e00
:0305c80001d24e0f
:0305c90001d23e1e
:0305ca0001d22f2c
:0305cb0001d21f3b
:0305cc0001d21049
:0305cd0001d20058
:0305ce0001d1f068
:0305cf0001d1e176
:0305d00001d1d185
:0305d10001d1c194
:0305d20001d1b2a2
:0305d30001d1a2b1
:0305d40001d192c0
:0305d50001d183ce
:0305d60001d173dd
:0305d70001d163ec
:0305d80001d154fa
:0305d90001d14409
:0305da0001d13418
:0305db0001d12427
:0305dc0001d11535
:0305dd0001d10544
:0305de0001d0f554
:0305df0001d0e563
:0305e00001d0d671
:0305e10001d0c680
:0305e20001d0b68f
:0305e30001d0a69e
:0305e40001d096ad
:0305e50001d086bc
:0305e60001d077ca
:0305e70001d067d9
:0305e80001d057e8
:0305e90001d047f7
:0305ea0001d03706
:0305eb0001d02715
:0305ec0001d01724
:0305ed0001d00733
:0305ee0001cff743
:0305ef0001cfe752
:0305f00001cfd761
:0305f10001cfc770
:0305f20001cfb77f
:0305f30001cfa78e
:0305f40001cf979d
:0305f50001cf87ac
:0305f60001cf77bb
:0305f70001cf67ca
:0305f80001cf57d9
:0305f90001cf47e8
:0305fa0001cf37f7
:0305fb0001cf2706
:0305fc0001cf1715
:0305fd0001cf0724
:0305fe0001cef734
:0305ff0001cee743
:0306000001ced751
:0306010001cec760
:0306020001ceb76f
:0306030001cea67f
:0306040001ce968e
:0306050001ce869d
:0306060001ce76ac
:0306070001ce66bb
:0306080001ce56ca
:0306090001ce45da
:03060a0001ce35e9
:03060b0001ce25f8
:03060c0001ce1507
:03060d0001ce0417
:03060e0001cdf427
:03060f0001cde436
:0306100001cdd445
:0306110001cdc355
:0306120001cdb364
:0306130001cda373
:0306140001cd9283
:0306150001cd8292
:0306160001cd72a1
:0306170001cd61b1
:0306180001cd51c0
:0306190001cd41cf
:03061a0001cd30df
:03061b0001cd20ee
:03061c0001cd10fd
:03061d0001ccff0e
:03061e0001ccef1d
:03061f0001ccde2d
:0306200001ccce3c
:0306210001ccbe4b
:0306220001ccad5b
:0306230001cc9d6a
:0306240001cc8c7a
:0306250001cc7c89
:0306260001cc6b99
:0306270001cc5ba8
:0306280001cc4ab8
:0306290001cc3ac7
:03062a0001cc29d7
:03062b0001cc19e6
:03062c0001cc08f6
:03062d0001cbf806
:03062e0001cbe716
:03062f0001cbd626
:0306300001cbc635
:0306310001cbb545
:0306320001cba554
:0306330001cb9464
:0306340001cb8374
:0306350001cb7383
:0306360001cb6293
:0306370001cb51a3
:0306380001cb41b2
:0306390001cb30c2
:03063a0001cb1fd2
:03063b0001cb0fe1
:03063c0001cafef2
:03063d0001caed02
:03063e0001cadd11
:03063f0001cacc21
:0306400001cabb31
:0306410001caaa41
:0306420001ca9a50
:0306430001ca8960
:0306440001ca7870
:0306450001ca6780
:0306460001ca578f
:0306470001ca469f
:0306480001ca35af
:0306490001ca24bf
:03064a0001ca13cf
:03064b0001ca02df
:03064c0001c9f2ef
:03064d0001c9e1ff
:03064e0001c9d00f
:03064f0001c9bf1f
:0306500001c9ae2f
:0306510001c99d3f
:0306520001c98c4f
:0306530001c97b5f
:0306540001c96a6f
:0306550001c9597f
:0306560001c9498e
:0306570001c9389e
:0306580001c927ae
:0306590001c916be
:03065a0001c905ce
:03065b0001c8f4df
:03065c0001c8e3ef
:03065d0001c8d2ff
:03065e0001c8c10f
:03065f0001c8b01f
:0306600001c89e30
:0306610001c88d40
:0306620001c87c50
:0306630001c86b60
:0306640001c85a70
:0306650001c84980
:0306660001c83890
:0306670001c827a0
:0306680001c816b0
:0306690001c805c0
:03066a0001c7f3d2
:03066b0001c7e2e2
:03066c0001c7d1f2
:03066d0001c7c002
:03066e0001c7af12
:03066f0001c79e22
:0306700001c78c33
:0306710001c77b43
:0306720001c76a53
:0306730001c75963
:0306740001c74774
:0306750001c73684
:0306760001c72594
:0306770001c714a4
:0306780001c702b5
:0306790001c6f1c6
:03067a0001c6e0d6
:03067b0001c6cfe6
:03067c0001c6bdf7
:03067d0001c6ac07
:03067e0001c69b17
:03067f0001c68928
:0306800001c67838
:0306810001c66649
:0306820001c65559
:0306830001c64469
:0306840001c6327a
:0306850001c6218a
:0306860001c60f9b
:0306870001c5feac
:0306880001c5edbc
:0306890001c5dbcd
:03068a0001c5cadd
:03068b0001c5b8ee
:03068c0001c5a7fe
:03068d0001c5950f
:03068e0001c5841f
:03068f0001c57230
:0306900001c56140
:0306910001c54f51
:0306920001c53e61
:0306930001c52c72
:0306940001c51b82
:0306950001c50993
:0306960001c4f8a4
:0306970001c4e6b5
:0306980001c4d4c6
:0306990001c4c3d6
:03069a0001c4b1e7
:03069b0001c4a0f7
:03069c0001c48e08
:03069d0001c47c19
:03069e0001c46b29
:03069f0001c4593a
:0306a00001c4474b
:0306a10001c4365b
:0306a20001c4246c
:0306a30001c4127d
:0306a40001c4018d
:0306a50001c3ef9f
:0306a60001c3ddb0
:0306a70001c3cbc1
:0306a80001c3bad1
:0306a90001c3a8e2
:0306aa0001c396f3
:0306ab0001c38404
:0306ac0001c37314
:0306ad0001c36125
:0306ae0001c34f36
:0306af0001c33d47
:0306b00001c32b58
:0306b10001c31a68
:0306b20001c30879
:0306b30001c2f68b
:0306b40001c2e49c
:0306b50001c2d2ad
:0306b60001c2c0be
:0306b70001c2aecf
:0306b80001c29ddf
:0306b90001c28bf0
:0306ba0001c27901
:0306bb0001c26712
:0306bc0001c25523
:0306bd0001c24334
:0306be0001c23145
:0306bf0001c21f56
:0306c00001c20d67
:0306c10001c1fb79
:0306c20001c1e98a
:0306c30001c1d79b
:0306c40001c1c5ac
:0306c50001c1b3bd
:0306c60001c1a1ce
:0306c70001c18fdf
:0306c80001c17df0
:0306c90001c16b01
:0306ca0001c15912
:0306cb0001c14723
:0306cc0001c13534
:0306cd0001c12345
:0306ce0001c11057
:0306cf0001c0fe69
:0306d00001c0ec7a
:0306d10001c0da8b
:0306d20001c0c89c
:0306d30001c0b6ad
:0306d40001c0a4be
:0306d50001c091d0
:0306d60001c07fe1
:0306d70001c06df2
:0306d80001c05b03
:0306d90001c04914
:0306da0001c03626
:0306db0001c02437
:0306dc0001c01248
:0306dd0001c00059
:0306de0001bfed6c
:0306df0001bfdb7d
:0306e00001bfc98e
:0306e10001bfb79f
:0306e20001bfa4b1
:0306e30001bf92c2
:0306e40001bf80d3
:0306e50001bf6de5
:0306e60001bf5bf6
:0306e70001bf4907
:0306e80001bf3619
:0306e90001bf242a
:0306ea0001bf123b
:0306eb0001beff4e
:0306ec0001beed5f
:0306ed0001bedb70
:0306ee0001bec882
:0306ef0001beb693
:0306f00001bea3a5
:0306f10001be91b6
:0306f20001be7ec8
:0306f30001be6cd9
:0306f40001be59eb
:0306f50001be47fc
:0306f60001be350d
:0306f70001be221f
:0306f80001be1030
:0306f90001bdfd43
:0306fa0001bdea55
:0306fb0001bdd866
:0306fc0001bdc578
:0306fd0001bdb389
:0306fe0001bda09b
:0306ff0001bd8eac
:0307000001bd7bbd
:0307010001bd69ce
:0307020001bd56e0
:0307030001bd43f2
:0307040001bd3103
:0307050001bd1e15
:0307060001bd0c26
:0307070001bcf939
:0307080001bce64b
:0307090001bcd45c
:03070a0001bcc16e
:03070b0001bcae80
:03070c0001bc9c91
:03070d0001bc89a3
:03070e0001bc76b5
:03070f0001bc63c7
:0307100001bc51d8
:0307110001bc3eea
:0307120001bc2bfc
:0307130001bc180e
:0307140001bc061f
:0307150001bbf332
:0307160001bbe044
:0307170001bbcd56
:0307180001bbba68
:0307190001bba879
:03071a0001bb958b
:03071b0001bb829d
:03071c0001bb6faf
:03071d0001bb5cc1
:03071e0001bb49d3
:03071f0001bb37e4
:0307200001bb24f6
:0307210001bb1108
:0307220001bafe1b
:0307230001baeb2d
:0307240001bad83f
:0307250001bac551
:0307260001bab263
:0307270001ba9f75
:0307280001ba8c87
:0307290001ba7999
:03072a0001ba66ab
:03072b0001ba53bd
:03072c0001ba40cf
:03072d0001ba2de1
:03072e0001ba1af3
:03072f0001ba0705
:0307300001b9f418
:0307310001b9e12a
:0307320001b9ce3c
:0307330001b9bb4e
:0307340001b9a860
:0307350001b99572
:0307360001b98284
:0307370001b96f96
:0307380001b95ca8
:0307390001b949ba
:03073a0001b936cc
:03073b0001b922df
:03073c0001b90ff1
:03073d0001b8fc04
:03073e0001b8e916
:03073f0001b8d628
:0307400001b8c33a
:0307410001b8b04c
:0307420001b89c5f
:0307430001b88971
:0307440001b87683
:0307450001b86395
:0307460001b84fa8
:0307470001b83cba
:0307480001b829cc
:0307490001b816de
:03074a0001b802f1
:03074b0001b7ef04
:03074c0001b7dc16
:03074d0001b7c928
:03074e0001b7b53b
:03074f0001b7a24d
:0307500001b78f5f
:0307510001b77b72
:0307520001b76884
:0307530001b75596
:0307540001b741a9
:0307550001b72ebb
:0307560001b71ace
:0307570001b707e0
:0307580001b6f4f3
:0307590001b6e006
:03075a0001b6cd18
:03075b0001b6b92b
:03075c0001b6a63d
:03075d0001b69250
:03075e0001b67f62
:03075f0001b66c74
:0307600001b65887
:0307610001b64599
:0307620001b631ac
:0307630001b61ebe
:0307640001b60ad1
:0307650001b5f7e4
:0307660001b5e3f7
:0307670001b5cf0a
:0307680001b5bc1c
:0307690001b5a82f
:03076a0001b59541
:03076b0001b58154
:03076c0001b56e66
:03076d0001b55a79
:03076e0001b5468c
:03076f0001b5339e
:0307700001b51fb1
:0307710001b50cc3
:0307720001b4f8d7
:0307730001b4e4ea
:0307740001b4d1fc
:0307750001b4bd0f
:0307760001b4a922
:0307770001b49634
:0307780001b48247
:0307790001b46e5a
:03077a0001b45a6d
:03077b0001b4477f
:03077c0001b43392
:03077d0001b41fa5
:03077e0001b40cb7
:03077f0001b3f8cb
:0307800001b3e4de
:0307810001b3d0f1
:0307820001b3bc04
:0307830001b3a916
:0307840001b39529
:0307850001b3813c
:0307860001b36d4f
:0307870001b35962
:0307880001b34575
:0307890001b33287
:03078a0001b31e9a
:03078b0001b30aad
:03078c0001b2f6c1
:03078d0001b2e2d4
:03078e0001b2cee7
:03078f0001b2bafa
:0307900001b2a60d
:0307910001b29220
:0307920001b27f32
:0307930001b26b45
:0307940001b25758
:0307950001b2436b
:0307960001b22f7e
:0307970001b21b91
:0307980001b207a4
:0307990001b1f3b8
:03079a0001b1dfcb
:03079b0001b1cbde
:03079c0001b1b7f1
:03079d0001b1a304
:03079e0001b18f17
:03079f0001b17a2b
:0307a00001b1663e
:0307a10001b15251
:0307a20001b13e64
:0307a30001b12a77
:0307a40001b1168a
:0307a50001b1029d
:0307a60001b0eeb1
:0307a70001b0dac4
:0307a80001b0c6d7
:0307a90001b0b1eb
:0307aa0001b09dfe
:0307ab0001b08911
:0307ac0001b07524
:0307ad0001b06137
:0307ae0001b04d4a
:0307af0001b0385e
:0307b00001b02471
:0307b10001b01084
:0307b20001affc98
:0307b30001afe7ac
:0307b40001afd3bf
:0307b50001afbfd2
:0307b60001afabe5
:0307b70001af96f9
:0307b80001af820c
:0307b90001af6e1f
:0307ba0001af5933
:0307bb0001af4546
:0307bc0001af3159
:0307bd0001af1d6c
:0307be0001af0880
:0307bf0001aef494
:0307c00001aedfa8
:0307c10001aecbbb
:0307c20001aeb7ce
:0307c30001aea2e2
:0307c40001ae8ef5
:0307c50001ae7a08
:0307c60001ae651c
:0307c70001ae512f
:0307c80001ae3c43
:0307c90001ae2856
:0307ca0001ae136a
:0307cb0001adff7e
:0307cc0001adea92
:0307cd0001add6a5
:0307ce0001adc1b9
:0307cf0001adadcc
:0307d00001ad98e0
:0307d10001ad84f3
:0307d20001ad6f07
:0307d30001ad5b1a
:0307d40001ad462e
:0307d50001ad3241
:0307d60001ad1d55
:0307d70001ad0968
:0307d80001acf47d
:0307d90001ace090
:0307da0001accba4
:0307db0001acb6b8
:0307dc0001aca2cb
:0307dd0001ac8ddf
:0307de0001ac78f3
:0307df0001ac6406
:0307e00001ac4f1a
:0307e10001ac3a2e
:0307e20001ac2641
:0307e30001ac1155
:0307e40001abfc6a
:0307e50001abe87d
:0307e60001abd391
:0307e70001abbea5
:0307e80001abaab8
:0307e90001ab95cc
:0307ea0001ab80e0
:0307eb0001ab6bf4
:0307ec0001ab5707
:0307ed0001ab421b
:0307ee0001ab2d2f
:0307ef0001ab1843
:0307f00001ab0456
:0307f10001aaef6b
:0307f20001aada7f
:0307f30001aac593
:0307f40001aab0a7
:0307f50001aa9bbb
:0307f60001aa87ce
:0307f70001aa72e2
:0307f80001aa5df6
:0307f90001aa480a
:0307fa0001aa331e
:0307fb0001aa1e32
:0307fc0001aa0946
:0307fd0001a9f45b
:0307fe0001a9df6f
:0307ff0001a9ca83
:0308000001a9b695
:0308010001a9a1a9
:0308020001a98cbd
:0308030001a977d1
:0308040001a962e5
:0308050001a94df9
:0308060001a9380d
:0308070001a92321
:0308080001a90e35
:0308090001a8f94a
:03080a0001a8e45e
:03080b0001a8cf72
:03080c0001a8ba86
:03080d0001a8a59a
:03080e0001a88faf
:03080f0001a87ac3
:0308100001a865d7
:0308110001a850eb
:0308120001a83bff
:0308130001a82613
:0308140001a81127
:0308150001a7fc3c
:0308160001a7e750
:0308170001a7d165
:0308180001a7bc79
:0308190001a7a78d
:03081a0001a792a1
:03081b0001a77db5
:03081c0001a768c9
:03081d0001a752de
:03081e0001a73df2
:03081f0001a72806
:0308200001a7131a
:0308210001a6fd30
:0308220001a6e844
:0308230001a6d358
:0308240001a6be6c
:0308250001a6a881
:0308260001a69395
:0308270001a67ea9
:0308280001a669bd
:0308290001a653d2
:03082a0001a63ee6
:03082b0001a629fa
:03082c0001a6130f
:03082d0001a5fe24
:03082e0001a5e938
:03082f0001a5d34d
:0308300001a5be61
:0308310001a5a876
:0308320001a5938a
:0308330001a57e9e
:0308340001a568b3
:0308350001a553c7
:0308360001a53ddc
:0308370001a528f0
:0308380001a51304
:0308390001a4fd1a
:03083a0001a4e82e
:03083b0001a4d243
:03083c0001a4bd57
:03083d0001a4a76c
:03083e0001a49280
:03083f0001a47c95
:0308400001a467a9
:0308410001a451be
:0308420001a43cd2
:0308430001a426e7
:0308440001a411fb
:0308450001a3fb11
:0308460001a3e526
:0308470001a3d03a
:0308480001a3ba4f
:0308490001a3a563
:03084a0001a38f78
:03084b0001a3798d
:03084c0001a364a1
:03084d0001a34eb6
:03084e0001a339ca
:03084f0001a323df
:0308500001a30df4
:0308510001a2f809
:0308520001a2e21e
:0308530001a2cc33
:0308540001a2b747
:0308550001a2a15c
:0308560001a28b71
:0308570001a27586
:0308580001a2609a
:0308590001a24aaf
:03085a0001a234c4
:03085b0001a21fd8
:03085c0001a209ed
:03085d0001a1f303
:03085e0001a1dd18
:03085f0001a1c72d
:0308600001a1b241
:0308610001a19c56
:0308620001a1866b
:0308630001a17080
:0308640001a15a95
:0308650001a144aa
:0308660001a12fbe
:0308670001a119d3
:0308680001a103e8
:0308690001a0edfe
:03086a0001a0d713
:03086b0001a0c128
:03086c0001a0ab3d
:03086d0001a09552
:03086e0001a08066
:03086f0001a06a7b
:0308700001a05490
:0308710001a03ea5
:0308720001a028ba
:0308730001a012cf
:03087400019ffce5
:03087500019fe6fa
:03087600019fd00f
:03087700019fba24
:03087800019fa439
:03087900019f8e4e
:03087a00019f7863
:03087b00019f6278
:03087c00019f4c8d
:03087d00019f36a2
:03087e00019f20b7
:03087f00019f0acc
:03088000019ef3e3
:03088100019eddf8
:03088200019ec70d
:03088300019eb122
:03088400019e9b37
:03088500019e854c
:03088600019e6f61
:03088700019e5976
:03088800019e428c
:03088900019e2ca1
:03088a00019e16b6
:03088b00019e00cb
:03088c00019deae1
:03088d00019dd4f6
:03088e00019dbd0c
:03088f00019da721
:03089000019d9136
:03089100019d7b4b
:03089200019d6560
:03089300019d4e76
:03089400019d388b
:03089500019d22a0
:03089600019d0bb6
:03089700019cf5cc
:03089800019cdfe1
:03089900019cc9f6
:03089a00019cb20c
:03089b00019c9c21
:03089c00019c8636
:03089d00019c6f4c
:03089e00019c5961
:03089f00019c4376
:0308a000019c2c8c
:0308a100019c16a1
:0308a200019c00b6
:0308a300019be9cd
:0308a400019bd3e2
:0308a500019bbcf8
:0308a600019ba60d
:0308a700019b8f23
:0308a800019b7938
:0308a900019b634d
:0308aa00019b4c63
:0308ab00019b3678
:0308ac00019b1f8e
:0308ad00019b09a3
:0308ae00019af2ba
:0308af00019adccf
:0308b000019ac5e5
:0308b100019aaffa
:0308b200019a9810
:0308b300019a8225
:0308b400019a6b3b
:0308b500019a5550
:0308b600019a3e66
:0308b700019a287b
:0308b800019a1191
:0308b9000199faa8
:0308ba000199e4bd
:0308bb000199cdd3
:0308bc000199b7e8
:0308bd000199a0fe
:0308be0001998914
:0308bf0001997329
:0308c00001995c3f
:0308c10001994654
:0308c20001992f6a
:0308c30001991880
:0308c40001990295
:0308c5000198ebac
:0308c6000198d4c2
:0308c7000198bdd8
:0308c8000198a7ed
:0308c90001989003
:0308ca0001987919
:0308cb000198632e
:0308cc0001984c44
:0308cd000198355a
:0308ce0001981e70
:0308cf0001980885
:0308d0000197f19c
:0308d1000197dab2
:0308d2000197c3c8
:0308d3000197acde
:0308d400019796f3
:0308d50001977f09
:0308d6000197681f
:0308d70001975135
:0308d80001973a4b
:0308d90001972361
:0308da0001970d76
:0308db000196f68d
:0308dc000196dfa3
:0308dd000196c8b9
:0308de000196b1cf
:0308df0001969ae5
:0308e000019683fb
:0308e10001966c11
:0308e20001965527
:0308e30001963e3d
:0308e40001962753
:0308e50001961069
:0308e6000195f980
:0308e7000195e395
:0308e8000195ccab
:0308e9000195b5c1
:0308ea0001959ed7
:0308eb00019587ed
:0308ec0001957003
:0308ed000195581a
:0308ee0001954130
:0308ef0001952a46
:0308f0000195135c
:0308f1000194fc73
:0308f2000194e589
:0308f3000194ce9f
:0308f4000194b7b5
:0308f5000194a0cb
:0308f600019489e1
:0308f700019472f7
:0308f80001945b0d
:0308f90001944324
:0308fa0001942c3a
:0308fb0001941550
:0308fc000193fe67
:0308fd000193e77d
:0308fe000193d093
:0308ff000193b9a9
:030900000193a1bf
:0309010001938ad5
:03090200019373eb
:0309030001935c01
:0309040001934517
:0309050001932d2e
:0309060001931644
:030907000192ff5b
:030908000192e871
:030909000192d088
:03090a000192b99e
:03090b000192a2b4
:03090c0001928acb
:03090d00019273e1
:03090e0001925cf7
:03090f000192440e
:0309100001922d24
:030911000192163a
:030912000191fe52
:030913000191e768
:030914000191d07e
:030915000191b895
:030916000191a1ab
:0309170001918ac1
:03091800019172d8
:0309190001915bee
:03091a0001914305
:03091b0001912c1b
:03091c0001911531
:03091d000190fd49
:03091e000190e65f
:03091f000190ce76
:030920000190b78c
:0309210001909fa3
:03092200019088b9
:03092300019070d0
:03092400019059e6
:03092500019041fd
:0309260001902a13
:030927000190122a
:03092800018ffb41
:03092900018fe358
:03092a00018fcc6e
:03092b00018fb485
:03092c00018f9d9b
:03092d00018f85b2
:03092e00018f6dc9
:03092f00018f56df
:03093000018f3ef6
:03093100018f270c
:03093200018f0f23
:03093300018ef73b
:03093400018ee051
:03093500018ec868
:03093600018eb07f
:03093700018e9995
:03093800018e81ac
:03093900018e69c3
:03093a00018e52d9
:03093b00018e3af0
:03093c00018e2207
:03093d00018e0b1d
:03093e00018df335
:03093f00018ddb4c
:03094000018dc462
:03094100018dac79
:03094200018d9490
:03094300018d7ca7
:03094400018d65bd
:03094500018d4dd4
:03094600018d35eb
:03094700018d1d02
:03094800018d0519
:03094900018cee30
:03094a00018cd647
:03094b00018cbe5e
:03094c00018ca675
:03094d00018c8e8c
:03094e00018c76a3
:03094f00018c5fb9
:03095000018c47d0
:03095100018c2fe7
:03095200018c17fe
:03095300018bff16
:03095400018be72d
:03095500018bcf44
:03095600018bb75b
:03095700018b9f72
:03095800018b8789
:03095900018b709f
:03095a00018b58b6
:03095b00018b40cd
:03095c00018b28e4
:03095d00018b10fb
:03095e00018af813
:03095f00018ae02a
:03096000018ac841
:03096100018ab058
:03096200018a986f
:03096300018a8086
:03096400018a689d
:03096500018a50b4
:03096600018a37cc
:03096700018a1fe3
:03096800018a07fa
:030969000189ef12
:03096a000189d729
:03096b000189bf40
:03096c000189a757
:03096d0001898f6e
:03096e0001897785
:03096f0001895f9c
:03097000018947b3
:0309710001892ecb
:03097200018916e2
:030973000188fefa
:030974000188e611
:030975000188ce28
:030976000188b63f
:0309770001889d57
:030978000188856e
:0309790001886d85
:03097a000188559c
:03097b0001883cb4
:03097c00018824cb
:03097d0001880ce2
:03097e000187f4fa
:03097f000187dc11
:030980000187c329
:030981000187ab40
:0309820001879357
:0309830001877a6f
:0309840001876286
:0309850001874a9d
:03098600018731b5
:03098700018719cc
:03098800018701e3
:030989000186e8fc
:03098a000186d013
:03098b000186b82a
:03098c0001869f42
:03098d0001868759
:03098e0001866f70
:03098f0001865688
:0309900001863e9f
:03099100018625b7
:0309920001860dce
:030993000185f5e6
:030994000185dcfe
:030995000185c415
:030996000185ab2d
:0309970001859344
:0309980001857a5c
:0309990001856273
:03099a000185498b
:03099b00018531a2
:03099c00018518ba
:03099d00018500d1
:03099e000184e7ea
:03099f000184cf01
:0309a0000184b619
:0309a10001849e30
:0309a20001848548
:0309a30001846d5f
:0309a40001845477
:0309a50001843c8e
:0309a600018423a6
:0309a70001840abe
:0309a8000183f2d6
:0309a9000183d9ee
:0309aa000183c105
:0309ab000183a81d
:0309ac0001838f35
:0309ad000183774c
:0309ae0001835e64
:0309af000183457c
:0309b00001832d93
:0309b100018314ab
:0309b2000182fbc4
:0309b3000182e3db
:0309b4000182caf3
:0309b5000182b10b
:0309b60001829922
:0309b7000182803a
:0309b80001826752
:0309b90001824e6a
:0309ba0001823681
:0309bb0001821d99
:0309bc00018204b1
:0309bd000181ebca
:0309be000181d3e1
:0309bf000181baf9
:0309c0000181a111
:0309c10001818829
:0309c20001816f41
:0309c30001815758
:0309c40001813e70
:0309c50001812588
:0309c60001810ca0
:0309c7000180f3b9
:0309c8000180dad1
:0309c9000180c1e9
:0309ca000180a900
:0309cb0001809018
:0309cc0001807730
:0309cd0001805e48
:0309ce0001804560
:0309cf0001802c78
:0309d00001801390
:0309d100017ffaa9
:0309d200017fe1c1
:0309d300017fc8d9
:0309d400017faff1
:0309d500017f9609
:0309d600017f7d21
:0309d700017f6439
:0309d800017f4b51
:0309d900017f3269
:0309da00017f1981
:0309db00017f0099
:0309dc00017ee7b2
:0309dd00017ececa
:0309de00017eb5e2
:0309df00017e9cfa
:0309e000017e8312
:0309e100017e6a2a
:0309e200017e5142
:0309e300017e385a
:0309e400017e1f72
:0309e500017e068a
:0309e600017deda3
:0309e700017dd4bb
:0309e800017dbad4
:0309e900017da1ec
:0309ea00017d8804
:0309eb00017d6f1c
:0309ec00017d5634
:0309ed00017d3d4c
:0309ee00017d2464
:0309ef00017d0a7d
:0309f000017cf196
:0309f100017cd8ae
:0309f200017cbfc6
:0309f300017ca6de
:0309f400017c8cf7
:0309f500017c730f
:0309f600017c5a27
:0309f700017c413f
:0309f800017c2758
:0309f900017c0e70
:0309fa00017bf589
:0309fb00017bdca1
:0309fc00017bc2ba
:0309fd00017ba9d2
:0309fe00017b90ea
:0309ff00017b7702
:030a0000017b5d1a
:030a0100017b4432
:030a0200017b2b4a
:030a0300017b1163
:030a0400017af87c
:030a0500017adf94
:030a0600017ac5ad
:030a0700017aacc5
:030a0800017a92de
:030a0900017a79f6
:030a0a00017a600e
:030a0b00017a4627
:030a0c00017a2d3f
:030a0d00017a1358
:030a0e000179fa71
:030a0f000179e189
:030a10000179c7a2
:030a11000179aeba
:030a1200017994d3
:030a130001797beb
:030a140001796104
:030a15000179481c
:030a160001792e35
:030a17000179154d
:030a18000178fb67
:030a19000178e27f
:030a1a000178c898
:030a1b000178afb0
:030a1c00017895c9
:030a1d0001787ce1
:030a1e00017862fa
:030a1f0001784912
:030a200001782f2b
:030a210001781544
:030a22000177fc5d
:030a23000177e276
:030a24000177c98e
:030a25000177afa7
:030a2600017795c0
:030a270001777cd8
:030a2800017762f1
:030a29000177480a
:030a2a0001772f22
:030a2b000177153b
:030a2c000176fc54
:030a2d000176e26d
:030a2e000176c886
:030a2f000176ae9f
:030a3000017695b7
:030a310001767bd0
:030a3200017661e9
:030a330001764801
:030a340001762e1a
:030a350001761433
:030a36000175fa4d
:030a37000175e165
:030a38000175c77e
:030a39000175ad97
:030a3a00017593b0
:030a3b0001757ac8
:030a3c00017560e1
:030a3d00017546fa
:030a3e0001752c13
:030a3f000175122c
:030a40000174f945
:030a41000174df5e
:030a42000174c577
:030a43000174ab90
:030a4400017491a9
:030a4500017477c2
:030a460001745ddb
:030a4700017444f3
:030a480001742a0c
:030a490001741025
:030a4a000173f63f
:030a4b000173dc58
:030a4c000173c271
:030a4d000173a88a
:030a4e0001738ea3
:030a4f00017374bc
:030a500001735ad5
:030a5100017340ee
:030a520001732607
:030a530001730c20
:030a54000172f23a
:030a55000172d853
:030a56000172be6c
:030a57000172a485
:030a580001728a9e
:030a5900017270b7
:030a5a00017256d0
:030a5b0001723ce9
:030a5c0001722202
:030a5d000172081b
:030a5e000171ee35
:030a5f000171d44e
:030a60000171ba67
:030a61000171a080
:030a620001718699
:030a630001716cb2
:030a6400017152cb
:030a6500017138e4
:030a660001711dfe
:030a670001710317
:030a68000170e931
:030a69000170cf4a
:030a6a000170b563
:030a6b0001709b7c
:030a6c0001708195
:030a6d00017066af
:030a6e0001704cc8
:030a6f00017032e1
:030a7000017018fa
:030a7100016ffe14
:030a7200016fe32e
:030a7300016fc947
:030a7400016faf60
:030a7500016f9579
:030a7600016f7a93
:030a7700016f60ac
:030a7800016f46c5
:030a7900016f2cde
:030a7a00016f11f8
:030a7b00016ef712
:030a7c00016edd2b
:030a7d00016ec344
:030a7e00016ea85e
:030a7f00016e8e77
:030a8000016e7490
:030a8100016e59aa
:030a8200016e3fc3
:030a8300016e25dc
:030a8400016e0af6
:030a8500016df010
:030a8600016dd52a
:030a8700016dbb43
:030a8800016da15c
:030a8900016d8676
:030a8a00016d6c8f
:030a8b00016d51a9
:030a8c00016d37c2
:030a8d00016d1ddb
:030a8e00016d02f5
:030a8f00016ce80f
:030a9000016ccd29
:030a9100016cb342
:030a9200016c985c
:030a9300016c7e75
:030a9400016c638f
:030a9500016c49a8
:030a9600016c2ec2
:030a9700016c14db
:030a9800016bf9f6
:030a9900016bdf0f
:030a9a00016bc429
:030a9b00016baa42
:030a9c00016b8f5c
:030a9d00016b7575
:030a9e00016b5a8f
:030a9f00016b40a8
:030aa000016b25c2
:030aa100016b0bdb
:030aa200016af0f6
:030aa300016ad510
:030aa400016abb29
:030aa500016aa043
:030aa600016a865c
:030aa700016a6b76
:030aa800016a5090
:030aa900016a36a9
:030aaa00016a1bc3
:030aab00016a00dd
:030aac000169e6f7
:030aad000169cb11
:030aae000169b02b
:030aaf0001699644
:030ab00001697b5e
:030ab10001696078
:030ab20001694691
:030ab30001692bab
:030ab400016910c5
:030ab5000168f5e0
:030ab6000168dbf9
:030ab7000168c013
:030ab8000168a52d
:030ab90001688a47
:030aba0001687060
:030abb000168557a
:030abc0001683a94
:030abd0001681fae
:030abe00016804c8
:030abf000167eae2
:030ac0000167cffc
:030ac1000167b416
:030ac20001679930
:030ac30001677e4a
:030ac40001676364
:030ac5000167497d
:030ac60001672e97
:030ac700016713b1
:030ac8000166f8cc
:030ac9000166dde6
:030aca000166c200
:030acb000166a71a
:030acc0001668c34
:030acd000166714e
:030ace0001665767
:030acf0001663c81
:030ad0000166219b
:030ad100016606b5
:030ad2000165ebd0
:030ad3000165d0ea
:030ad4000165b504
:030ad50001659a1e
:030ad60001657f38
:030ad70001656452
:030ad8000165496c
:030ad90001652e86
:030ada00016513a0
:030adb000164f8bb
:030adc000164ddd5
:030add000164c2ef
:030ade000164a709
:030adf0001648c23
:030ae0000164713d
:030ae10001645657
:030ae20001643a72
:030ae30001641f8c
:030ae400016404a6
:030ae5000163e9c1
:030ae6000163cedb
:030ae7000163b3f5
:030ae8000163980f
:030ae90001637d29
:030aea0001636243
:030aeb000163465e
:030aec0001632b78
:030aed0001631092
:030aee000162f5ad
:030aef000162dac7
:030af0000162bfe1
:030af1000162a3fc
:030af20001628816
:030af30001626d30
:030af4000162524a
:030af50001623764
:030af60001621b7f
:030af70001620099
:030af8000161e5b4
:030af9000161cace
:030afa000161aee9
:030afb0001619303
:030afc000161781d
:030afd0001615d37
:030afe0001614152
:030aff000161266c
:030b000001610b85
:030b01000160efa1
:030b02000160d4bb
:030b03000160b9d5
:030b040001609df0
:030b05000160820a
:030b060001606724
:030b070001604b3f
:030b080001603059
:030b090001601573
:030b0a00015ff98f
:030b0b00015fdea9
:030b0c00015fc3c3
:030b0d00015fa7de
:030b0e00015f8cf8
:030b0f00015f7013
:030b1000015f552d
:030b1100015f3a47
:030b1200015f1e62
:030b1300015f037c
:030b1400015ee798
:030b1500015eccb2
:030b1600015eb0cd
:030b1700015e95e7
:030b1800015e7902
:030b1900015e5e1c
:030b1a00015e4237
:030b1b00015e2751
:030b1c00015e0b6c
:030b1d00015df087
:030b1e00015dd4a2
:030b1f00015db9bc
:030b2000015d9dd7
:030b2100015d82f1
:030b2200015d660c
:030b2300015d4b26
:030b2400015d2f41
:030b2500015d135c
:030b2600015cf877
:030b2700015cdc92
:030b2800015cc1ac
:030b2900015ca5c7
:030b2a00015c89e2
:030b2b00015c6efc
:030b2c00015c5217
:030b2d00015c3731
:030b2e00015c1b4c
:030b2f00015bff68
:030b3000015be482
:030b3100015bc89d
:030b3200015bacb8
:030b3300015b91d2
:030b3400015b75ed
:030b3500015b5908
:030b3600015b3e22
:030b3700015b223d
:030b3800015b0658
:030b3900015aea74
:030b3a00015acf8e
:030b3b00015ab3a9
:030b3c00015a97c4
:030b3d00015a7bdf
:030b3e00015a60f9
:030b3f00015a4414
:030b4000015a282f
:030b4100015a0c4a
:030b42000159f165
:030b43000159d580
:030b44000159b99b
:030b450001599db6
:030b4600015981d1
:030b4700015966eb
:030b480001594a06
:030b490001592e21
:030b4a000159123c
:030b4b000158f658
:030b4c000158da73
:030b4d000158be8e
:030b4e000158a3a8
:030b4f00015887c3
:030b500001586bde
:030b510001584ff9
:030b520001583314
:030b53000158172f
:030b54000157fb4b
:030b55000157df66
:030b56000157c381
:030b57000157a79c
:030b580001578bb7
:030b590001576fd2
:030b5a00015753ed
:030b5b0001573807
:030b5c0001571c22
:030b5d000157003d
:030b5e000156e459
:030b5f000156c874
:030b60000156ac8f
:030b6100015690aa
:030b6200015674c5
:030b6300015657e1
:030b640001563bfc
:030b650001561f17
:030b660001560332
:030b67000155e74e
:030b68000155cb69
:030b69000155af84
:030b6a000155939f
:030b6b00015577ba
:030b6c0001555bd5
:030b6d0001553ff0
:030b6e000155230b
:030b6f0001550726
:030b70000154ea43
:030b71000154ce5e
:030b72000154b279
:030b730001549694
:030b740001547aaf
:030b750001545eca
:030b7600015442e5
:030b770001542501
:030b78000154091c
:030b79000153ed38
:030b7a000153d153
:030b7b000153b56e
:030b7c000153988a
:030b7d0001537ca5
:030b7e00015360c0
:030b7f00015344db
:030b8000015327f7
:030b810001530b12
:030b82000152ef2e
:030b83000152d349
:030b84000152b665
:030b850001529a80
:030b860001527e9b
:030b8700015262b6
:030b8800015245d2
:030b8900015229ed
:030b8a0001520d08
:030b8b000151f025
:030b8c000151d440
:030b8d000151b85b
:030b8e0001519b77
:030b8f0001517f92
:030b9000015163ad
:030b9100015146c9
:030b920001512ae4
:030b930001510eff
:030b94000150f11c
:030b95000150d537
:030b96000150b853
:030b970001509c6e
:030b980001508089
:030b9900015063a5
:030b9a00015047c0
:030b9b0001502adc
:030b9c0001500ef7
:030b9d00014ff114
:030b9e00014fd52f
:030b9f00014fb94a
:030ba000014f9c66
:030ba100014f8081
:030ba200014f639d
:030ba300014f47b8
:030ba400014f2ad4
:030ba500014f0eef
:030ba600014ef10c
:030ba700014ed527
:030ba800014eb843
:030ba900014e9c5e
:030baa00014e7f7a
:030bab00014e6395
:030bac00014e46b1
:030bad00014e29cd
:030bae00014e0de8
:030baf00014df005
:030bb000014dd420
:030bb100014db73c
:030bb200014d9a58
:030bb300014d7e73
:030bb400014d618f
:030bb500014d45aa
:030bb600014d28c6
:030bb700014d0be2
:030bb800014ceffe
:030bb900014cd21a
:030bba00014cb536
:030bbb00014c9951
:030bbc00014c7c6d
:030bbd00014c5f89
:030bbe00014c43a4
:030bbf00014c26c0
:030bc000014c09dc
:030bc100014bedf8
:030bc200014bd014
:030bc300014bb330
:030bc400014b974b
:030bc500014b7a67
:030bc600014b5d83
:030bc700014b409f
:030bc800014b24ba
:030bc900014b07d6
:030bca00014aeaf3
:030bcb00014acd0f
:030bcc00014ab12a
:030bcd00014a9446
:030bce00014a7762
:030bcf00014a5a7e
:030bd000014a3d9a
:030bd100014a21b5
:030bd200014a04d1
:030bd3000149e7ee
:030bd4000149ca0a
:030bd5000149ad26
:030bd60001499042
:030bd7000149745d
:030bd80001495779
:030bd90001493a95
:030bda0001491db1
:030bdb00014900cd
:030bdc000148e3ea
:030bdd000148c606
:030bde000148a922
:030bdf0001488c3e
:030be00001487059
:030be10001485375
:030be20001483691
:030be300014819ad
:030be4000147fcca
:030be5000147dfe6
:030be6000147c202
:030be7000147a51e
:030be8000147883a
:030be90001476b56
:030bea0001474e72
:030beb000147318e
:030bec00014714aa
:030bed000146f7c7
:030bee000146dae3
:030bef000146bdff
:030bf0000146a01b
:030bf10001468337
:030bf20001466653
:030bf3000146496f
:030bf40001462c8b
:030bf50001460fa7
:030bf6000145f2c4
:030bf7000145d5e0
:030bf8000145b7fd
:030bf90001459a19
:030bfa0001457d35
:030bfb0001456051
:030bfc000145436d
:030bfd0001452689
:030bfe00014509a5
:030bff000144ecc2
:030c00000144cfdd
:030c01000144b1fa
:030c020001449416
:030c030001447732
:030c040001445a4e
:030c050001443d6a
:030c060001442086
:030c0700014402a3
:030c08000143e5c0
:030c09000143c8dc
:030c0a000143abf8
:030c0b0001438e14
:030c0c0001437031
:030c0d000143534d
:030c0e0001433669
:030c0f0001431985
:030c10000142fba3
:030c11000142debf
:030c12000142c1db
:030c13000142a4f7
:030c140001428614
:030c150001426930
:030c160001424c4c
:030c170001422e69
:030c180001421185
:030c19000141f4a2
:030c1a000141d7be
:030c1b000141b9db
:030c1c0001419cf7
:030c1d0001417f13
:030c1e0001416130
:030c1f000141444c
:030c200001412768
:030c210001410985
:030c22000140eca2
:030c23000140cebf
:030c24000140b1db
:030c2500014094f7
:030c260001407614
:030c270001405930
:030c280001403b4d
:030c290001401e69
:030c2a0001400185
:030c2b00013fe3a3
:030c2c00013fc6bf
:030c2d00013fa8dc
:030c2e00013f8bf8
:030c2f00013f6d15
:030c3000013f5031
:030c3100013f324e
:030c3200013f156a
:030c3300013ef788
:030c3400013edaa4
:030c3500013ebcc1
:030c3600013e9fdd
:030c3700013e81fa
:030c3800013e6416
:030c3900013e4633
:030c3a00013e294f
:030c3b00013e0b6c
:030c3c00013dee89
:030c3d00013dd0a6
:030c3e00013db3c2
:030c3f00013d95df
:030c4000013d78fb
:030c4100013d5a18
:030c4200013d3c35
:030c4300013d1f51
:030c4400013d016e
:030c4500013ce48b
:030c4600013cc6a8
:030c4700013ca8c5
:030c4800013c8be1
:030c4900013c6dfe
:030c4a00013c4f1b
:030c4b00013c3237
:030c4c00013c1454
:030c4d00013bf672
:030c4e00013bd98e
:030c4f00013bbbab
:030c5000013b9dc8
:030c5100013b80e4
:030c5200013b6201
:030c5300013b441e
:030c5400013b273a
:030c5500013b0957
:030c5600013aeb75
:030c5700013acd92
:030c5800013ab0ae
:030c5900013a92cb
:030c5a00013a74e8
:030c5b00013a5704
:030c5c00013a3921
:030c5d00013a1b3e
:030c5e000139fd5c
:030c5f000139df79
:030c60000139c295
:030c61000139a4b2
:030c6200013986cf
:030c6300013968ec
:030c640001394a09
:030c650001392d25
:030c660001390f42
:030c67000138f160
:030c68000138d37d
:030c69000138b59a
:030c6a00013897b7
:030c6b0001387ad3
:030c6c0001385cf0
:030c6d0001383e0d
:030c6e000138202a
:030c6f0001380247
:030c70000137e465
:030c71000137c682
:030c72000137a89f
:030c730001378abc
:030c740001376cd9
:030c750001374ff5
:030c760001373112
:030c77000137132f
:030c78000136f54d
:030c79000136d76a
:030c7a000136b987
:030c7b0001369ba4
:030c7c0001367dc1
:030c7d0001365fde
:030c7e00013641fb
:030c7f0001362318
:030c800001360535
:030c81000135e753
:030c82000135c970
:030c83000135ab8d
:030c840001358daa
:030c850001356fc7
:030c8600013551e4
:030c870001353301
:030c88000135151e
:030c89000134f73c
:030c8a000134d959
:030c8b000134bb76
:030c8c0001349c94
:030c8d0001347eb1
:030c8e00013460ce
:030c8f00013442eb
:030c900001342408
:030c910001340625
:030c92000133e843
:030c93000133ca60
:030c94000133ac7d
:030c950001338d9b
:030c960001336fb8
:030c9700013351d5
:030c9800013333f2
:030c99000133150f
:030c9a000132f72d
:030c9b000132d84b
:030c9c000132ba68
:030c9d0001329c85
:030c9e0001327ea2
:030c9f00013260bf
:030ca000013242dc
:030ca100013223fa
:030ca20001320517
:030ca3000131e735
:030ca4000131c952
:030ca5000131aa70
:030ca60001318c8d
:030ca70001316eaa
:030ca800013150c7
:030ca900013131e5
:030caa0001311302
:030cab000130f520
:030cac000130d73d
:030cad000130b85b
:030cae0001309a78
:030caf0001307c95
:030cb00001305db3
:030cb10001303fd0
:030cb200013021ed
:030cb3000130020b
:030cb400012fe429
:030cb500012fc646
:030cb600012fa764
:030cb700012f8981
:030cb800012f6b9e
:030cb900012f4cbc
:030cba00012f2ed9
:030cbb00012f0ff7
:030cbc00012ef115
:030cbd00012ed332
:030cbe00012eb450
:030cbf00012e966d
:030cc000012e778b
:030cc100012e59a8
:030cc200012e3bc5
:030cc300012e1ce3
:030cc400012dfe01
:030cc500012ddf1f
:030cc600012dc13c
:030cc700012da25a
:030cc800012d8477
:030cc900012d6595
:030cca00012d47b2
:030ccb00012d28d0
:030ccc00012d0aed
:030ccd00012cec0b
:030cce00012ccd29
:030ccf00012cae47
:030cd000012c9064
:030cd100012c7182
:030cd200012c539f
:030cd300012c34bd
:030cd400012c16da
:030cd500012bf7f9
:030cd600012bd916
:030cd700012bba34
:030cd800012b9c51
:030cd900012b7d6f
:030cda00012b5e8d
:030cdb00012b40aa
:030cdc00012b21c8
:030cdd00012b03e5
:030cde00012ae404
:030cdf00012ac522
:030ce000012aa73f
:030ce100012a885d
:030ce200012a6a7a
:030ce300012a4b98
:030ce400012a2cb6
:030ce500012a0ed3
:030ce6000129eff2
:030ce7000129d010
:030ce8000129b22d
:030ce9000129934b
:030cea0001297469
:030ceb0001295686
:030cec00012937a4
:030ced00012918c2
:030cee000128fae0
:030cef000128dbfe
:030cf0000128bc1c
:030cf10001289d3a
:030cf20001287f57
:030cf30001286075
:030cf40001284193
:030cf500012822b1
:030cf600012804ce
:030cf7000127e5ed
:030cf8000127c60b
:030cf9000127a729
:030cfa0001278946
:030cfb0001276a64
:030cfc0001274b82
:030cfd0001272ca0
:030cfe0001270dbe
:030cff000126efdc
:030d00000126d0f9
:030d01000126b117
:030d020001269235
:030d030001267353
:030d040001265471
:030d05000126368e
:030d0600012617ac
:030d07000125f8cb
:030d08000125d9e9
:030d09000125ba07
:030d0a0001259b25
:030d0b0001257c43
:030d0c0001255d61
:030d0d0001253f7e
:030d0e000125209c
:030d0f00012501ba
:030d10000124e2d9
:030d11000124c3f7
:030d12000124a415
:030d130001248533
:030d140001246651
:030d15000124476f
:030d16000124288d
:030d1700012409ab
:030d18000123eaca
:030d19000123cbe8
:030d1a000123ac06
:030d1b0001238d24
:030d1c0001236e42
:030d1d0001234f60
:030d1e000123307e
:030d1f000123119c
:030d20000122f2bb
:030d21000122d3d9
:030d22000122b4f7
:030d230001229515
:030d240001227633
:030d250001225751
:030d26000122386f
:030d27000122198d
:030d28000121faac
:030d29000121dbca
:030d2a000121bce8
:030d2b0001219d06
:030d2c0001217e24
:030d2d0001215e43
:030d2e0001213f61
:030d2f000121207f
:030d30000121019d
:030d31000120e2bc
:030d32000120c3da
:030d33000120a4f8
:030d340001208516
:030d350001206535
:030d360001204653
:030d370001202771
:030d38000120088f
:030d3900011fe9ae
:030d3a00011fcacc
:030d3b00011faaeb
:030d3c00011f8b09
:030d3d00011f6c27
:030d3e00011f4d45
:030d3f00011f2e63
:030d4000011f0e82
:030d4100011eefa1
:030d4200011ed0bf
:030d4300011eb1dd
:030d4400011e92fb
:030d4500011e721a
:030d4600011e5338
:030d4700011e3456
:030d4800011e1574
:030d4900011df594
:030d4a00011dd6b2
:030d4b00011db7d0
:030d4c00011d97ef
:030d4d00011d780d
:030d4e00011d592b
:030d4f00011d3a49
:030d5000011d1a68
:030d5100011cfb87
:030d5200011cdca5
:030d5300011cbcc4
:030d5400011c9de2
:030d5500011c7e00
:030d5600011c5e1f
:030d5700011c3f3d
:030d5800011c205b
:030d5900011c007a
:030d5a00011be199
:030d5b00011bc1b8
:030d5c00011ba2d6
:030d5d00011b83f4
:030d5e00011b6313
:030d5f00011b4431
:030d6000011b2450
:030d6100011b056e
:030d6200011ae68d
:030d6300011ac6ac
:030d6400011aa7ca
:030d6500011a87e9
:030d6600011a6807
:030d6700011a4826
:030d6800011a2944
:030d6900011a0a62
:030d6a000119ea82
:030d6b000119cba0
:030d6c000119abbf
:030d6d0001198cdd
:030d6e0001196cfc
:030d6f0001194d1a
:030d700001192d39
:030d710001190e57
:030d72000118ee77
:030d73000118cf95
:030d74000118afb4
:030d7500011890d2
:030d7600011870f1
:030d770001185010
:030d78000118312e
:030d79000118114d
:030d7a000117f26c
:030d7b000117d28b
:030d7c000117b3a9
:030d7d00011793c8
:030d7e00011773e7
:030d7f0001175405
:030d800001173424
:030d810001171542
:030d82000116f562
:030d83000116d581
:030d84000116b69f
:030d8500011696be
:030d8600011677dc
:030d8700011657fb
:030d88000116371a
:030d890001161838
:030d8a000115f858
:030d8b000115d877
:030d8c000115b995
:030d8d00011599b4
:030d8e00011579d3
:030d8f0001155af1
:030d900001153a10
:030d910001151a2f
:030d92000114fb4e
:030d93000114db6d
:030d94000114bb8c
:030d950001149bab
:030d960001147cc9
:030d970001145ce8
:030d980001143c07
:030d990001141c26
:030d9a000113fd45
:030d9b000113dd64
:030d9c000113bd83
:030d9d0001139da2
:030d9e0001137ec0
:030d9f0001135edf
:030da00001133efe
:030da10001131e1d
:030da2000112fe3d
:030da3000112df5b
:030da4000112bf7a
:030da50001129f99
:030da60001127fb8
:030da70001125fd7
:030da800011240f5
:030da90001122014
:030daa0001120033
:030dab000111e053
:030dac000111c072
:030dad000111a091
:030dae00011180b0
:030daf00011161ce
:030db000011141ed
:030db1000111210c
:030db2000111012b
:030db3000110e14b
:030db4000110c16a
:030db5000110a189
:030db600011081a8
:030db700011061c7
:030db800011041e6
:030db90001102204
:030dba0001100223
:030dbb00010fe243
:030dbc00010fc262
:030dbd00010fa281
:030dbe00010f82a0
:030dbf00010f62bf
:030dc000010f42de
:030dc100010f22fd
:030dc200010f021c
:030dc300010ee23c
:030dc400010ec25b
:030dc500010ea27a
:030dc600010e8299
:030dc700010e62b8
:030dc800010e42d7
:030dc900010e22f6
:030dca00010e0215
:030dcb00010de235
:030dcc00010dc254
:030dcd00010da273
:030dce00010d8292
:030dcf00010d62b1
:030dd000010d42d0
:030dd100010d22ef
:030dd200010d010f
:030dd300010ce12f
:030dd400010cc14e
:030dd500010ca16d
:030dd600010c818c
:030dd700010c61ab
:030dd800010c41ca
:030dd900010c21e9
:030dda00010c0108
:030ddb00010be128
:030ddc00010bc048
:030ddd00010ba067
:030dde00010b8086
:030ddf00010b60a5
:030de000010b40c4
:030de100010b20e3
:030de200010b0002
