:03000000000000fd
:03000100000019e3
:03000200000032c9
:0300030000004baf
:0300040000006594
:0300050000007e7a
:0300060000009760
:030007000000b046
:030008000000c92c
:030009000000e212
:03000a000000fbf8
:03000b00000114dd
:03000c0000012ec2
:03000d00000147a8
:03000e000001608e
:03000f0000017974
:030010000001925a
:030011000001ab40
:030012000001c426
:030013000001de0b
:030014000001f7f1
:03001500000210d6
:03001600000229bc
:03001700000242a2
:0300180000025b88
:030019000002746e
:03001a0000028d54
:03001b000002a739
:03001c000002c01f
:03001d000002d905
:03001e000002f2eb
:03001f0000030bd0
:03002000000324b6
:0300210000033d9c
:0300220000035781
:0300230000037067
:030024000003894d
:030025000003a233
:030026000003bb19
:030027000003d4ff
:030028000003ede5
:03002900000406ca
:03002a00000420af
:03002b0000043995
:03002c000004527b
:03002d0000046b61
:03002e0000048447
:03002f0000049d2d
:030030000004b613
:030031000004cff9
:030032000004e9de
:03003300000502c3
:0300340000051ba9
:030035000005348f
:0300360000054d75
:030037000005665b
:0300380000057f41
:0300390000059926
:03003a000005b20c
:03003b000005cbf2
:03003c000005e4d8
:03003d000005fdbe
:03003e00000616a3
:03003f0000062f89
:030040000006486f
:0300410000066254
:0300420000067b3a
:0300430000069420
:030044000006ad06
:030045000006c6ec
:030046000006dfd2
:030047000006f8b8
:030048000007119d
:0300490000072b82
:03004a0000074468
:03004b0000075d4e
:03004c0000077634
:03004d0000078f1a
:03004e000007a800
:03004f000007c1e6
:030050000007dbcb
:030051000007f4b1
:0300520000080d96
:030053000008267c
:0300540000083f62
:0300550000085848
:030056000008712e
:0300570000088a14
:030058000008a4f9
:030059000008bddf
:03005a000008d6c5
:03005b000008efab
:03005c0000090890
:03005d0000092176
:03005e0000093a5c
:03005f0000095342
:0300600000096d27
:030061000009860d
:0300620000099ff3
:030063000009b8d9
:030064000009d1bf
:030065000009eaa5
:03006600000a038a
:03006700000a1c70
:03006800000a3655
:03006900000a4f3b
:03006a00000a6821
:03006b00000a8107
:03006c00000a9aed
:03006d00000ab3d3
:03006e00000accb9
:03006f00000ae69e
:03007000000aff84
:03007100000b1869
:03007200000b314f
:03007300000b4a35
:03007400000b631b
:03007500000b7c01
:03007600000b95e7
:03007700000bafcc
:03007800000bc8b2
:03007900000be198
:03007a00000bfa7e
:03007b00000c1363
:03007c00000c2c49
:03007d00000c452f
:03007e00000c5e15
:03007f00000c78fa
:03008000000c91e0
:03008100000caac6
:03008200000cc3ac
:03008300000cdc92
:03008400000cf578
:03008500000d0e5d
:03008600000d2743
:03008700000d4128
:03008800000d5a0e
:03008900000d73f4
:03008a00000d8cda
:03008b00000da5c0
:03008c00000dbea6
:03008d00000dd78c
:03008e00000df072
:03008f00000e0a56
:03009000000e233c
:03009100000e3c22
:03009200000e5508
:03009300000e6eee
:03009400000e87d4
:03009500000ea0ba
:03009600000eb9a0
:03009700000ed286
:03009800000eec6b
:03009900000f0550
:03009a00000f1e36
:03009b00000f371c
:03009c00000f5002
:03009d00000f69e8
:03009e00000f82ce
:03009f00000f9bb4
:0300a000000fb599
:0300a100000fce7f
:0300a200000fe765
:0300a3000010004a
:0300a40000101930
:0300a50000103216
:0300a60000104bfc
:0300a700001064e2
:0300a80000107ec7
:0300a900001097ad
:0300aa000010b093
:0300ab000010c979
:0300ac000010e25f
:0300ad000010fb45
:0300ae000011142a
:0300af0000112d10
:0300b000001146f6
:0300b100001160db
:0300b200001179c1
:0300b300001192a7
:0300b4000011ab8d
:0300b5000011c473
:0300b6000011dd59
:0300b7000011f63f
:0300b80000120f24
:0300b90000122909
:0300ba00001242ef
:0300bb0000125bd5
:0300bc00001274bb
:0300bd0000128da1
:0300be000012a687
:0300bf000012bf6d
:0300c0000012d853
:0300c1000012f139
:0300c20000130b1d
:0300c30000132403
:0300c40000133de9
:0300c500001356cf
:0300c60000136fb5
:0300c7000013889b
:0300c8000013a181
:0300c9000013ba67
:0300ca000013d44c
:0300cb000013ed32
:0300cc0000140617
:0300cd0000141ffd
:0300ce00001438e3
:0300cf00001451c9
:0300d00000146aaf
:0300d10000148395
:0300d20000149c7b
:0300d3000014b660
:0300d4000014cf46
:0300d5000014e82c
:0300d60000150111
:0300d70000151af7
:0300d800001533dd
:0300d90000154cc3
:0300da00001565a9
:0300db0000157e8f
:0300dc0000159874
:0300dd000015b15a
:0300de000015ca40
:0300df000015e326
:0300e0000015fc0c
:0300e100001615f1
:0300e20000162ed7
:0300e300001647bd
:0300e400001660a3
:0300e50000167a88
:0300e6000016936e
:0300e7000016ac54
:0300e8000016c53a
:0300e9000016de20
:0300ea000016f706
:0300eb00001710eb
:0300ec00001729d1
:0300ed00001742b7
:0300ee0000175b9d
:0300ef0000177582
:0300f00000178e68
:0300f1000017a74e
:0300f2000017c034
:0300f3000017d91a
:0300f4000017f200
:0300f50000180be5
:0300f600001824cb
:0300f70000183db1
:0300f80000185796
:0300f9000018707c
:0300fa0000188962
:0300fb000018a248
:0300fc000018bb2e
:0300fd000018d414
:0300fe000018edfa
:0300ff00001906df
:0301000000191fc4
:03010100001938aa
:030102000019528f
:0301030000196b75
:030104000019845b
:0301050000199d41
:030106000019b627
:030107000019cf0d
:030108000019e8f3
:03010900001a01d8
:03010a00001a1abe
:03010b00001a33a4
:03010c00001a4d89
:03010d00001a666f
:03010e00001a7f55
:03010f00001a983b
:03011000001ab121
:03011100001aca07
:03011200001ae3ed
:03011300001afcd3
:03011400001b15b8
:03011500001b2e9e
:03011600001b4883
:03011700001b6169
:03011800001b7a4f
:03011900001b9335
:03011a00001bac1b
:03011b00001bc501
:03011c00001bdee7
:03011d00001bf7cd
:03011e00001c10b2
:03011f00001c2998
:03012000001c427e
:03012100001c5c63
:03012200001c7549
:03012300001c8e2f
:03012400001ca715
:03012500001cc0fb
:03012600001cd9e1
:03012700001cf2c7
:03012800001d0bac
:03012900001d2492
:03012a00001d3d78
:03012b00001d575d
:03012c00001d7043
:03012d00001d8929
:03012e00001da20f
:03012f00001dbbf5
:03013000001dd4db
:03013100001dedc1
:03013200001e06a6
:03013300001e1f8c
:03013400001e3872
:03013500001e5158
:03013600001e6b3d
:03013700001e8423
:03013800001e9d09
:03013900001eb6ef
:03013a00001ecfd5
:03013b00001ee8bb
:03013c00001f01a0
:03013d00001f1a86
:03013e00001f336c
:03013f00001f4c52
:03014000001f6538
:03014100001f7e1e
:03014200001f9803
:03014300001fb1e9
:03014400001fcacf
:03014500001fe3b5
:03014600001ffc9b
:0301470000201580
:0301480000202e66
:030149000020474c
:03014a0000206032
:03014b0000207918
:03014c00002092fe
:03014d000020abe4
:03014e000020c5c9
:03014f000020deaf
:030150000020f795
:030151000021107a
:0301520000212960
:0301530000214246
:0301540000215b2c
:0301550000217412
:0301560000218df8
:030157000021a6de
:030158000021bfc4
:030159000021d8aa
:03015a000021f190
:03015b0000220b74
:03015c000022245a
:03015d0000223d40
:03015e0000225626
:03015f0000226f0c
:03016000002288f2
:030161000022a1d8
:030162000022babe
:030163000022d3a4
:030164000022ec8a
:030165000023056f
:0301660000231e55
:030167000023373b
:0301680000235120
:0301690000236a06
:03016a00002383ec
:03016b0000239cd2
:03016c000023b5b8
:03016d000023ce9e
:03016e000023e784
:03016f0000240069
:030170000024194f
:0301710000243235
:0301720000244b1b
:0301730000246401
:0301740000247de7
:03017500002496cd
:030176000024b0b2
:030177000024c998
:030178000024e27e
:030179000024fb64
:03017a0000251449
:03017b0000252d2f
:03017c0000254615
:03017d0000255ffb
:03017e00002578e1
:03017f00002591c7
:030180000025aaad
:030181000025c393
:030182000025dc79
:030183000025f55f
:0301840000260e44
:030185000026272a
:030186000026410f
:0301870000265af5
:03018800002673db
:0301890000268cc1
:03018a000026a5a7
:03018b000026be8d
:03018c000026d773
:03018d000026f059
:03018e000027093e
:03018f0000272224
:0301900000273b0a
:03019100002754f0
:0301920000276dd6
:03019300002786bc
:0301940000279fa2
:030195000027b888
:030196000027d26d
:030197000027eb53
:0301980000280438
:0301990000281d1e
:03019a0000283604
:03019b0000284fea
:03019c00002868d0
:03019d00002881b6
:03019e0000289a9c
:03019f000028b382
:0301a0000028cc68
:0301a1000028e54e
:0301a2000028fe34
:0301a30000291719
:0301a400002930ff
:0301a500002949e5
:0301a600002962cb
:0301a70000297bb1
:0301a80000299497
:0301a9000029ae7c
:0301aa000029c762
:0301ab000029e048
:0301ac000029f92e
:0301ad00002a1213
:0301ae00002a2bf9
:0301af00002a44df
:0301b000002a5dc5
:0301b100002a76ab
:0301b200002a8f91
:0301b300002aa877
:0301b400002ac15d
:0301b500002ada43
:0301b600002af329
:0301b700002b0c0e
:0301b800002b25f4
:0301b900002b3eda
:0301ba00002b57c0
:0301bb00002b70a6
:0301bc00002b898c
:0301bd00002ba272
:0301be00002bbb58
:0301bf00002bd43e
:0301c000002bee23
:0301c100002c0708
:0301c200002c20ee
:0301c300002c39d4
:0301c400002c52ba
:0301c500002c6ba0
:0301c600002c8486
:0301c700002c9d6c
:0301c800002cb652
:0301c900002ccf38
:0301ca00002ce81e
:0301cb00002d0103
:0301cc00002d1ae9
:0301cd00002d33cf
:0301ce00002d4cb5
:0301cf00002d659b
:0301d000002d7e81
:0301d100002d9767
:0301d200002db04d
:0301d300002dc933
:0301d400002de219
:0301d500002dfbff
:0301d600002e14e4
:0301d700002e2dca
:0301d800002e46b0
:0301d900002e5f96
:0301da00002e787c
:0301db00002e9162
:0301dc00002eaa48
:0301dd00002ec42d
:0301de00002edd13
:0301df00002ef6f9
:0301e000002f0fde
:0301e100002f28c4
:0301e200002f41aa
:0301e300002f5a90
:0301e400002f7376
:0301e500002f8c5c
:0301e600002fa542
:0301e700002fbe28
:0301e800002fd70e
:0301e900002ff0f4
:0301ea00003009d9
:0301eb00003022bf
:0301ec0000303ba5
:0301ed000030548b
:0301ee0000306d71
:0301ef0000308657
:0301f00000309f3d
:0301f1000030b823
:0301f2000030d109
:0301f3000030eaef
:0301f400003103d4
:0301f50000311cba
:0301f600003135a0
:0301f70000314e86
:0301f8000031676c
:0301f90000318052
:0301fa0000319938
:0301fb000031b21e
:0301fc000031cb04
:0301fd000031e4ea
:0301fe000031fdd0
:0301ff00003216b5
:0302000000322f9a
:0302010000324880
:0302020000326166
:0302030000327a4c
:0302040000329332
:030205000032ac18
:030206000032c5fe
:030207000032dee4
:030208000032f7ca
:03020900003310af
:03020a0000332995
:03020b000033427b
:03020c0000335b61
:03020d0000337447
:03020e0000338d2d
:03020f000033a613
:030210000033bff9
:030211000033d8df
:030212000033f1c5
:0302130000340aaa
:0302140000342390
:0302150000343c76
:030216000034555c
:0302170000346e42
:0302180000348728
:030219000034a00e
:03021a000034b9f4
:03021b000034d2da
:03021c000034ebc0
:03021d00003504a5
:03021e0000351d8b
:03021f0000353671
:0302200000354f57
:030221000035683d
:0302220000358123
:0302230000359a09
:030224000035b3ef
:030225000035ccd5
:030226000035e5bb
:030227000035fea1
:0302280000361786
:030229000036306c
:03022a0000364952
:03022b0000366238
:03022c0000367b1e
:03022d0000369404
:03022e000036adea
:03022f000036c6d0
:030230000036dfb6
:030231000036f89c
:0302320000371181
:0302330000372a67
:030234000037434d
:0302350000375c33
:0302360000377519
:0302370000378eff
:030238000037a7e5
:030239000037c0cb
:03023a000037d9b1
:03023b000037f297
:03023c0000380b7c
:03023d0000382462
:03023e0000383d48
:03023f000038562e
:0302400000386f14
:03024100003888fa
:030242000038a1e0
:030243000038bac6
:030244000038d3ac
:030245000038ec92
:0302460000390577
:0302470000391e5d
:0302480000393743
:0302490000395029
:03024a000039690f
:03024b00003982f5
:03024c0000399bdb
:03024d000039b4c1
:03024e000039cda7
:03024f000039e68d
:030250000039ff73
:03025100003a1858
:03025200003a303f
:03025300003a4925
:03025400003a620b
:03025500003a7bf1
:03025600003a94d7
:03025700003aadbd
:03025800003ac6a3
:03025900003adf89
:03025a00003af86f
:03025b00003b1154
:03025c00003b2a3a
:03025d00003b4320
:03025e00003b5c06
:03025f00003b75ec
:03026000003b8ed2
:03026100003ba7b8
:03026200003bc09e
:03026300003bd984
:03026400003bf26a
:03026500003c0b4f
:03026600003c2435
:03026700003c3d1b
:03026800003c5601
:03026900003c6fe7
:03026a00003c88cd
:03026b00003ca1b3
:03026c00003cba99
:03026d00003cd280
:03026e00003ceb66
:03026f00003d044b
:03027000003d1d31
:03027100003d3617
:03027200003d4ffd
:03027300003d68e3
:03027400003d81c9
:03027500003d9aaf
:03027600003db395
:03027700003dcc7b
:03027800003de561
:03027900003dfe47
:03027a00003e172c
:03027b00003e3012
:03027c00003e49f8
:03027d00003e62de
:03027e00003e7bc4
:03027f00003e94aa
:03028000003eac91
:03028100003ec577
:03028200003ede5d
:03028300003ef743
:03028400003f1028
:03028500003f290e
:03028600003f42f4
:03028700003f5bda
:03028800003f74c0
:03028900003f8da6
:03028a00003fa68c
:03028b00003fbf72
:03028c00003fd858
:03028d00003ff13e
:03028e0000400a23
:03028f0000402309
:0302900000403cef
:03029100004054d6
:0302920000406dbc
:03029300004086a2
:0302940000409f88
:030295000040b86e
:030296000040d154
:030297000040ea3a
:030298000041031f
:0302990000411c05
:03029a00004135eb
:03029b0000414ed1
:03029c00004167b7
:03029d000041809d
:03029e0000419983
:03029f000041b16a
:0302a0000041ca50
:0302a1000041e336
:0302a2000041fc1c
:0302a30000421501
:0302a40000422ee7
:0302a500004247cd
:0302a600004260b3
:0302a70000427999
:0302a8000042927f
:0302a9000042ab65
:0302aa000042c44b
:0302ab000042dd31
:0302ac000042f518
:0302ad0000430efd
:0302ae00004327e3
:0302af00004340c9
:0302b000004359af
:0302b10000437295
:0302b20000438b7b
:0302b3000043a461
:0302b4000043bd47
:0302b5000043d62d
:0302b6000043ef13
:0302b700004407f9
:0302b800004420df
:0302b900004439c5
:0302ba00004452ab
:0302bb0000446b91
:0302bc0000448477
:0302bd0000449d5d
:0302be000044b643
:0302bf000044cf29
:0302c0000044e80f
:0302c100004501f4
:0302c200004519db
:0302c300004532c1
:0302c40000454ba7
:0302c5000045648d
:0302c60000457d73
:0302c70000459659
:0302c8000045af3f
:0302c9000045c825
:0302ca000045e10b
:0302cb000045faf1
:0302cc00004612d7
:0302cd0000462bbd
:0302ce00004644a3
:0302cf0000465d89
:0302d0000046766f
:0302d10000468f55
:0302d2000046a83b
:0302d3000046c121
:0302d4000046da07
:0302d5000046f2ee
:0302d60000470bd3
:0302d700004724b9
:0302d80000473d9f
:0302d90000475685
:0302da0000476f6b
:0302db0000478851
:0302dc000047a137
:0302dd000047ba1d
:0302de000047d204
:0302df000047ebea
:0302e000004804cf
:0302e10000481db5
:0302e2000048369b
:0302e30000484f81
:0302e40000486867
:0302e5000048814d
:0302e60000489934
:0302e7000048b21a
:0302e8000048cb00
:0302e9000048e4e6
:0302ea000048fdcc
:0302eb00004916b1
:0302ec0000492f97
:0302ed000049487d
:0302ee0000496163
:0302ef000049794a
:0302f00000499230
:0302f1000049ab16
:0302f2000049c4fc
:0302f3000049dde2
:0302f4000049f6c8
:0302f500004a0fad
:0302f600004a2794
:0302f700004a407a
:0302f800004a5960
:0302f900004a7246
:0302fa00004a8b2c
:0302fb00004aa412
:0302fc00004abdf8
:0302fd00004ad6de
:0302fe00004aeec5
:0302ff00004b07aa
:03030000004b208f
:03030100004b3975
:03030200004b525b
:03030300004b6b41
:03030400004b8427
:03030500004b9c0e
:03030600004bb5f4
:03030700004bceda
:03030800004be7c0
:03030900004c00a5
:03030a00004c198b
:03030b00004c3271
:03030c00004c4a58
:03030d00004c633e
:03030e00004c7c24
:03030f00004c950a
:03031000004caef0
:03031100004cc7d6
:03031200004cdfbd
:03031300004cf8a3
:03031400004d1188
:03031500004d2a6e
:03031600004d4354
:03031700004d5c3a
:03031800004d7520
:03031900004d8d07
:03031a00004da6ed
:03031b00004dbfd3
:03031c00004dd8b9
:03031d00004df19f
:03031e00004e0a84
:03031f00004e226b
:03032000004e3b51
:03032100004e5437
:03032200004e6d1d
:03032300004e8603
:03032400004e9fe9
:03032500004eb7d0
:03032600004ed0b6
:03032700004ee99c
:03032800004f0281
:03032900004f1b67
:03032a00004f344d
:03032b00004f4c34
:03032c00004f651a
:03032d00004f7e00
:03032e00004f97e6
:03032f00004fb0cc
:03033000004fc9b2
:03033100004fe199
:03033200004ffa7f
:0303330000501364
:0303340000502c4a
:0303350000504530
:0303360000505e16
:03033700005076fd
:0303380000508fe3
:030339000050a8c9
:03033a000050c1af
:03033b000050da95
:03033c000050f27c
:03033d0000510b61
:03033e0000512447
:03033f0000513d2d
:0303400000515613
:0303410000516ff9
:03034200005187e0
:030343000051a0c6
:030344000051b9ac
:030345000051d292
:030346000051eb78
:030347000052035e
:0303480000521c44
:030349000052352a
:03034a0000524e10
:03034b00005267f6
:03034c0000527fdd
:03034d00005298c3
:03034e000052b1a9
:03034f000052ca8f
:030350000052e375
:030351000052fb5c
:0303520000531441
:0303530000532d27
:030354000053460d
:0303550000535ff3
:03035600005377da
:03035700005390c0
:030358000053a9a6
:030359000053c28c
:03035a000053db72
:03035b000053f359
:03035c0000540c3e
:03035d0000542524
:03035e0000543e0a
:03035f00005457f0
:0303600000546fd7
:03036100005488bd
:030362000054a1a3
:030363000054ba89
:030364000054d270
:030365000054eb56
:030366000055043b
:0303670000551d21
:0303680000553607
:0303690000554eee
:03036a00005567d4
:03036b00005580ba
:03036c00005599a0
:03036d000055b286
:03036e000055ca6d
:03036f000055e353
:030370000055fc39
:030371000056151e
:0303720000562d05
:03037300005646eb
:0303740000565fd1
:03037500005678b7
:030376000056909e
:030377000056a984
:030378000056c26a
:030379000056db50
:03037a000056f436
:03037b0000570c1c
:03037c0000572502
:03037d0000573ee8
:03037e00005757ce
:03037f0000576fb5
:030380000057889b
:030381000057a181
:030382000057ba67
:030383000057d24e
:030384000057eb34
:0303850000580419
:0303860000581dff
:03038700005835e6
:0303880000584ecc
:03038900005867b2
:03038a0000588098
:03038b000058987f
:03038c000058b165
:03038d000058ca4b
:03038e000058e331
:03038f000058fb18
:03039000005914fd
:0303910000592de3
:03039200005946c9
:0303930000595eb0
:0303940000597796
:030395000059907c
:030396000059a962
:030397000059c149
:030398000059da2f
:030399000059f315
:03039a00005a0cfa
:03039b00005a24e1
:03039c00005a3dc7
:03039d00005a56ad
:03039e00005a6f93
:03039f00005a877a
:0303a000005aa060
:0303a100005ab946
:0303a200005ad22c
:0303a300005aea13
:0303a400005b03f8
:0303a500005b1cde
:0303a600005b35c4
:0303a700005b4dab
:0303a800005b6691
:0303a900005b7f77
:0303aa00005b975e
:0303ab00005bb044
:0303ac00005bc92a
:0303ad00005be210
:0303ae00005bfaf7
:0303af00005c13dc
:0303b000005c2cc2
:0303b100005c45a8
:0303b200005c5d8f
:0303b300005c7675
:0303b400005c8f5b
:0303b500005ca742
:0303b600005cc028
:0303b700005cd90e
:0303b800005cf2f4
:0303b900005d0ada
:0303ba00005d23c0
:0303bb00005d3ca6
:0303bc00005d548d
:0303bd00005d6d73
:0303be00005d8659
:0303bf00005d9f3f
:0303c000005db726
:0303c100005dd00c
:0303c200005de9f2
:0303c300005e01d8
:0303c400005e1abe
:0303c500005e33a4
:0303c600005e4b8b
:0303c700005e6471
:0303c800005e7d57
:0303c900005e963d
:0303ca00005eae24
:0303cb00005ec70a
:0303cc00005ee0f0
:0303cd00005ef8d7
:0303ce00005f11bc
:0303cf00005f2aa2
:0303d000005f4289
:0303d100005f5b6f
:0303d200005f7455
:0303d300005f8d3b
:0303d400005fa522
:0303d500005fbe08
:0303d600005fd7ee
:0303d700005fefd5
:0303d800006008ba
:0303d900006021a0
:0303da0000603987
:0303db000060526d
:0303dc0000606b53
:0303dd000060833a
:0303de0000609c20
:0303df000060b506
:0303e0000060cded
:0303e1000060e6d3
:0303e2000060ffb9
:0303e3000061179f
:0303e40000613085
:0303e5000061496b
:0303e60000616152
:0303e70000617a38
:0303e8000061931e
:0303e9000061ab05
:0303ea000061c4eb
:0303eb000061ddd1
:0303ec000061f6b7
:0303ed0000620e9d
:0303ee0000622783
:0303ef0000624069
:0303f00000625850
:0303f10000627136
:0303f2000062891d
:0303f3000062a203
:0303f4000062bbe9
:0303f5000062d3d0
:0303f6000062ecb6
:0303f7000063059b
:0303f80000631d82
:0303f90000633668
:0303fa0000634f4e
:0303fb0000636735
:0303fc000063801b
:0303fd0000639901
:0303fe000063b1e8
:0303ff000063cace
:030400000063e3b3
:030401000063fb9a
:030402000064147f
:0304030000642d65
:030404000064454c
:0304050000645e32
:0304060000647718
:0304070000648fff
:030408000064a8e5
:030409000064c0cc
:03040a000064d9b2
:03040b000064f298
:03040c0000650a7e
:03040d0000652364
:03040e0000653c4a
:03040f0000655431
:0304100000656d17
:03041100006586fd
:0304120000659ee4
:030413000065b7ca
:030414000065cfb1
:030415000065e897
:030416000066017c
:0304170000661963
:0304180000663249
:0304190000664b2f
:03041a0000666316
:03041b0000667cfc
:03041c00006695e2
:03041d000066adc9
:03041e000066c6af
:03041f000066de96
:030420000066f77c
:0304210000671061
:0304220000672848
:030423000067412e
:0304240000675915
:03042500006772fb
:0304260000678be1
:030427000067a3c8
:030428000067bcae
:030429000067d594
:03042a000067ed7b
:03042b0000680660
:03042c0000681e47
:03042d000068372d
:03042e0000685013
:03042f00006868fa
:03043000006881e0
:03043100006899c7
:030432000068b2ad
:030433000068cb93
:030434000068e37a
:030435000068fc60
:0304360000691446
:0304370000692d2c
:0304380000694612
:0304390000695ef9
:03043a00006977df
:03043b0000698fc6
:03043c000069a8ac
:03043d000069c192
:03043e000069d979
:03043f000069f25f
:03044000006a0a45
:03044100006a232b
:03044200006a3b12
:03044300006a54f8
:03044400006a6dde
:03044500006a85c5
:03044600006a9eab
:03044700006ab692
:03044800006acf78
:03044900006ae85e
:03044a00006b0044
:03044b00006b192a
:03044c00006b3111
:03044d00006b4af7
:03044e00006b62de
:03044f00006b7bc4
:03045000006b94aa
:03045100006bac91
:03045200006bc577
:03045300006bdd5e
:03045400006bf644
:03045500006c0e2a
:03045600006c2710
:03045700006c40f6
:03045800006c58dd
:03045900006c71c3
:03045a00006c89aa
:03045b00006ca290
:03045c00006cba77
:03045d00006cd35d
:03045e00006ceb44
:03045f00006d0429
:03046000006d1d0f
:03046100006d35f6
:03046200006d4edc
:03046300006d66c3
:03046400006d7fa9
:03046500006d9790
:03046600006db076
:03046700006dc85d
:03046800006de143
:03046900006dfa29
:03046a00006e120f
:03046b00006e2bf5
:03046c00006e43dc
:03046d00006e5cc2
:03046e00006e74a9
:03046f00006e8d8f
:03047000006ea576
:03047100006ebe5c
:03047200006ed643
:03047300006eef29
:03047400006f070f
:03047500006f20f5
:03047600006f39db
:03047700006f51c2
:03047800006f6aa8
:03047900006f828f
:03047a00006f9b75
:03047b00006fb35c
:03047c00006fcc42
:03047d00006fe429
:03047e00006ffd0f
:03047f00007015f5
:0304800000702edb
:03048100007046c2
:0304820000705fa8
:030483000070778f
:0304840000709075
:030485000070a85c
:030486000070c142
:030487000070d929
:030488000070f20f
:0304890000710af5
:03048a00007123db
:03048b0000713bc2
:03048c00007154a8
:03048d0000716d8e
:03048e0000718575
:03048f0000719e5b
:030490000071b642
:030491000071cf28
:030492000071e70f
:03049300007200f4
:03049400007218db
:03049500007231c1
:03049600007249a8
:030497000072628e
:0304980000727a75
:030499000072935b
:03049a000072ab42
:03049b000072c428
:03049c000072dc0f
:03049d000072f5f5
:03049e0000730ddb
:03049f00007325c2
:0304a00000733ea8
:0304a1000073568f
:0304a20000736f75
:0304a3000073875c
:0304a4000073a042
:0304a5000073b829
:0304a6000073d10f
:0304a7000073e9f6
:0304a800007402db
:0304a90000741ac2
:0304aa00007433a8
:0304ab0000744b8f
:0304ac0000746475
:0304ad0000747c5c
:0304ae0000749542
:0304af000074ad29
:0304b0000074c60f
:0304b1000074def6
:0304b2000074f7dc
:0304b30000750fc2
:0304b400007528a8
:0304b5000075408f
:0304b60000755876
:0304b7000075715c
:0304b80000758943
:0304b9000075a229
:0304ba000075ba10
:0304bb000075d3f6
:0304bc000075ebdd
:0304bd00007604c2
:0304be0000761ca9
:0304bf000076358f
:0304c00000764d76
:0304c1000076655d
:0304c20000767e43
:0304c3000076962a
:0304c4000076af10
:0304c5000076c7f7
:0304c6000076e0dd
:0304c7000076f8c4
:0304c800007711a9
:0304c90000772990
:0304ca0000774177
:0304cb0000775a5d
:0304cc0000777244
:0304cd0000778b2a
:0304ce000077a311
:0304cf000077bcf7
:0304d0000077d4de
:0304d1000077edc4
:0304d200007805aa
:0304d30000781d91
:0304d40000783677
:0304d50000784e5e
:0304d60000786744
:0304d70000787f2b
:0304d80000789811
:0304d9000078b0f8
:0304da000078c8df
:0304db000078e1c5
:0304dc000078f9ac
:0304dd0000791291
:0304de0000792a78
:0304df000079435e
:0304e00000795b45
:0304e1000079732c
:0304e20000798c12
:0304e3000079a4f9
:0304e4000079bddf
:0304e5000079d5c6
:0304e6000079edad
:0304e700007a0692
:0304e800007a1e79
:0304e900007a375f
:0304ea00007a4f46
:0304eb00007a672d
:0304ec00007a8013
:0304ed00007a98fa
:0304ee00007ab1e0
:0304ef00007ac9c7
:0304f000007ae1ae
:0304f100007afa94
:0304f200007b127a
:0304f300007b2b60
:0304f400007b4347
:0304f500007b5b2e
:0304f600007b7414
:0304f700007b8cfb
:0304f800007ba5e1
:0304f900007bbdc8
:0304fa00007bd5af
:0304fb00007bee95
:0304fc00007c067b
:0304fd00007c1f61
:0304fe00007c3748
:0304ff00007c4f2f
:03050000007c6814
:03050100007c80fb
:03050200007c98e2
:03050300007cb1c8
:03050400007cc9af
:03050500007ce295
:03050600007cfa7c
:03050700007d1262
:03050800007d2b48
:03050900007d432f
:03050a00007d5b16
:03050b00007d74fc
:03050c00007d8ce3
:03050d00007da4ca
:03050e00007dbdb0
:03050f00007dd597
:03051000007dee7d
:03051100007e0663
:03051200007e1e4a
:03051300007e3730
:03051400007e4f17
:03051500007e67fe
:03051600007e80e4
:03051700007e98cb
:03051800007eb0b2
:03051900007ec998
:03051a00007ee17f
:03051b00007ef966
:03051c00007f124b
:03051d00007f2a32
:03051e00007f4318
:03051f00007f5bff
:03052000007f73e6
:03052100007f8ccc
:03052200007fa4b3
:03052300007fbc9a
:03052400007fd580
:03052500007fed67
:030526000080054d
:0305270000801e33
:030528000080361a
:0305290000804e01
:03052a00008067e7
:03052b0000807fce
:03052c00008097b5
:03052d000080b09b
:03052e000080c882
:03052f000080e069
:030530000080f850
:0305310000811135
:030532000081291c
:0305330000814103
:0305340000815ae9
:03053500008172d0
:0305360000818ab7
:030537000081a39d
:030538000081bb84
:030539000081d36b
:03053a000081ec51
:03053b0000820437
:03053c0000821c1e
:03053d0000823504
:03053e0000824deb
:03053f00008265d2
:0305400000827db9
:030541000082969f
:030542000082ae86
:030543000082c66d
:030544000082df53
:030545000082f73a
:0305460000830f20
:0305470000832806
:03054800008340ed
:03054900008358d4
:03054a00008370bb
:03054b00008389a1
:03054c000083a188
:03054d000083b96f
:03054e000083d255
:03054f000083ea3c
:0305500000840222
:0305510000841a09
:03055200008433ef
:0305530000844bd6
:03055400008463bd
:0305550000847ca3
:030556000084948a
:030557000084ac71
:030558000084c458
:030559000084dd3e
:03055a000084f525
:03055b0000850d0b
:03055c00008525f2
:03055d0000853ed8
:03055e00008556bf
:03055f0000856ea6
:030560000085878c
:0305610000859f73
:030562000085b75a
:030563000085cf41
:030564000085e827
:030565000086000d
:03056600008618f4
:03056700008630db
:03056800008649c1
:03056900008661a8
:03056a000086798f
:03056b0000869176
:03056c000086aa5c
:03056d000086c243
:03056e000086da2a
:03056f000086f211
:0305700000870bf6
:03057100008723dd
:0305720000873bc4
:03057300008753ab
:0305740000876c91
:0305750000878478
:0305760000879c5f
:030577000087b446
:030578000087cc2d
:030579000087e513
:03057a000087fdfa
:03057b00008815e0
:03057c0000882dc7
:03057d00008846ad
:03057e0000885e94
:03057f000088767b
:0305800000888e62
:030581000088a748
:030582000088bf2f
:030583000088d716
:030584000088effd
:03058500008907e3
:03058600008920c9
:03058700008938b0
:0305880000895097
:030589000089687e
:03058a0000898065
:03058b000089994b
:03058c000089b132
:03058d000089c919
:03058e000089e100
:03058f000089f9e7
:03059000008a12cc
:03059100008a2ab3
:03059200008a429a
:03059300008a5a81
:03059400008a7268
:03059500008a8b4e
:03059600008aa335
:03059700008abb1c
:03059800008ad303
:03059900008aebea
:03059a00008b04cf
:03059b00008b1cb6
:03059c00008b349d
:03059d00008b4c84
:03059e00008b646b
:03059f00008b7d51
:0305a000008b9538
:0305a100008bad1f
:0305a200008bc506
:0305a300008bdded
:0305a400008bf5d4
:0305a500008c0eb9
:0305a600008c26a0
:0305a700008c3e87
:0305a800008c566e
:0305a900008c6e55
:0305aa00008c863c
:0305ab00008c9f22
:0305ac00008cb709
:0305ad00008ccff0
:0305ae00008ce7d7
:0305af00008cffbe
:0305b000008d17a4
:0305b100008d308a
:0305b200008d4871
:0305b300008d6058
:0305b400008d783f
:0305b500008d9026
:0305b600008da80d
:0305b700008dc1f3
:0305b800008dd9da
:0305b900008df1c1
:0305ba00008e09a7
:0305bb00008e218e
:0305bc00008e3975
:0305bd00008e515c
:0305be00008e6a42
:0305bf00008e8229
:0305c000008e9a10
:0305c100008eb2f7
:0305c200008ecade
:0305c300008ee2c5
:0305c400008efaac
:0305c500008f1391
:0305c600008f2b78
:0305c700008f435f
:0305c800008f5b46
:0305c900008f732d
:0305ca00008f8b14
:0305cb00008fa3fb
:0305cc00008fbbe2
:0305cd00008fd4c8
:0305ce00008fecaf
:0305cf0000900495
:0305d00000901c7c
:0305d10000903463
:0305d20000904c4a
:0305d30000906431
:0305d40000907c18
:0305d500009094ff
:0305d6000090ade5
:0305d7000090c5cc
:0305d8000090ddb3
:0305d9000090f59a
:0305da0000910d80
:0305db0000912567
:0305dc0000913d4e
:0305dd0000915535
:0305de0000916d1c
:0305df0000918503
:0305e00000919ee9
:0305e1000091b6d0
:0305e2000091ceb7
:0305e3000091e69e
:0305e4000091fe85
:0305e5000092166b
:0305e60000922e52
:0305e70000924639
:0305e80000925e20
:0305e90000927607
:0305ea0000928eee
:0305eb000092a7d4
:0305ec000092bfbb
:0305ed000092d7a2
:0305ee000092ef89
:0305ef000093076f
:0305f00000931f56
:0305f1000093373d
:0305f20000934f24
:0305f3000093670b
:0305f40000937ff2
:0305f500009397d9
:0305f6000093afc0
:0305f7000093c7a7
:0305f8000093df8e
:0305f9000093f874
:0305fa000094105a
:0305fb0000942841
:0305fc0000944028
:0305fd000094580f
:0305fe00009470f6
:0305ff00009488dd
:030600000094a0c3
:030601000094b8aa
:030602000094d091
:030603000094e878
:030604000095005e
:0306050000951845
:030606000095302c
:0306070000954813
:03060800009560fa
:03060900009578e1
:03060a00009590c8
:03060b000095a8af
:03060c000095c096
:03060d000095d87d
:03060e000095f064
:03060f0000960949
:0306100000962130
:0306110000963917
:03061200009651fe
:03061300009669e5
:03061400009681cc
:03061500009699b3
:030616000096b19a
:030617000096c981
:030618000096e168
:030619000096f94f
:03061a0000971135
:03061b000097291c
:03061c0000974103
:03061d00009759ea
:03061e00009771d1
:03061f00009789b8
:030620000097a19f
:030621000097b986
:030622000097d16d
:030623000097e954
:030624000098013a
:0306250000981921
:0306260000983108
:03062700009849ef
:03062800009861d6
:03062900009879bd
:03062a00009891a4
:03062b000098a98b
:03062c000098c172
:03062d000098d959
:03062e000098f140
:03062f0000990926
:030630000099210d
:03063100009939f4
:03063200009951db
:03063300009969c2
:03063400009981a9
:0306350000999990
:030636000099b177
:030637000099c95e
:030638000099e145
:030639000099f82d
:03063a00009a1013
:03063b00009a28fa
:03063c00009a40e1
:03063d00009a58c8
:03063e00009a70af
:03063f00009a8896
:03064000009aa07d
:03064100009ab864
:03064200009ad04b
:03064300009ae832
:03064400009b0018
:03064500009b18ff
:03064600009b30e6
:03064700009b48cd
:03064800009b60b4
:03064900009b789b
:03064a00009b9082
:03064b00009ba869
:03064c00009bc050
:03064d00009bd837
:03064e00009bf01e
:03064f00009c0705
:03065000009c1fec
:03065100009c37d3
:03065200009c4fba
:03065300009c67a1
:03065400009c7f88
:03065500009c976f
:03065600009caf56
:03065700009cc73d
:03065800009cdf24
:03065900009cf70b
:03065a00009d0ff1
:03065b00009d27d8
:03065c00009d3fbf
:03065d00009d56a7
:03065e00009d6e8e
:03065f00009d8675
:03066000009d9e5c
:03066100009db643
:03066200009dce2a
:03066300009de611
:03066400009dfef8
:03066500009e16de
:03066600009e2ec5
:03066700009e46ac
:03066800009e5d94
:03066900009e757b
:03066a00009e8d62
:03066b00009ea549
:03066c00009ebd30
:03066d00009ed517
:03066e00009eedfe
:03066f00009f05e4
:03067000009f1dcb
:03067100009f34b3
:03067200009f4c9a
:03067300009f6481
:03067400009f7c68
:03067500009f944f
:03067600009fac36
:03067700009fc41d
:03067800009fdc04
:03067900009ff3ec
:03067a0000a00bd2
:03067b0000a023b9
:03067c0000a03ba0
:03067d0000a05387
:03067e0000a06b6e
:03067f0000a08355
:0306800000a09b3c
:0306810000a0b224
:0306820000a0ca0b
:0306830000a0e2f2
:0306840000a0fad9
:0306850000a112bf
:0306860000a12aa6
:0306870000a1428d
:0306880000a15975
:0306890000a1715c
:03068a0000a18943
:03068b0000a1a12a
:03068c0000a1b911
:03068d0000a1d1f8
:03068e0000a1e9df
:03068f0000a200c6
:0306900000a218ad
:0306910000a23094
:0306920000a2487b
:0306930000a26062
:0306940000a27849
:0306950000a28f31
:0306960000a2a718
:0306970000a2bfff
:0306980000a2d7e6
:0306990000a2efcd
:03069a0000a307b3
:03069b0000a31e9b
:03069c0000a33682
:03069d0000a34e69
:03069e0000a36650
:03069f0000a37e37
:0306a00000a3951f
:0306a10000a3ad06
:0306a20000a3c5ed
:0306a30000a3ddd4
:0306a40000a3f5bb
:0306a50000a40da1
:0306a60000a42489
:0306a70000a43c70
:0306a80000a45457
:0306a90000a46c3e
:0306aa0000a48425
:0306ab0000a49b0d
:0306ac0000a4b3f4
:0306ad0000a4cbdb
:0306ae0000a4e3c2
:0306af0000a4fba9
:0306b00000a51290
:0306b10000a52a77
:0306b20000a5425e
:0306b30000a55a45
:0306b40000a5712d
:0306b50000a58914
:0306b60000a5a1fb
:0306b70000a5b9e2
:0306b80000a5d1c9
:0306b90000a5e8b1
:0306ba0000a60097
:0306bb0000a6187e
:0306bc0000a63065
:0306bd0000a6474d
:0306be0000a65f34
:0306bf0000a6771b
:0306c00000a68f02
:0306c10000a6a7e9
:0306c20000a6bed1
:0306c30000a6d6b8
:0306c40000a6ee9f
:0306c50000a70685
:0306c60000a71d6d
:0306c70000a73554
:0306c80000a74d3b
:0306c90000a76522
:0306ca0000a77c0a
:0306cb0000a794f1
:0306cc0000a7acd8
:0306cd0000a7c4bf
:0306ce0000a7dba7
:0306cf0000a7f38e
:0306d00000a80b74
:0306d10000a8235b
:0306d20000a83a43
:0306d30000a8522a
:0306d40000a86a11
:0306d50000a881f9
:0306d60000a899e0
:0306d70000a8b1c7
:0306d80000a8c9ae
:0306d90000a8e096
:0306da0000a8f87d
:0306db0000a91063
:0306dc0000a9284a
:0306dd0000a93f32
:0306de0000a95719
:0306df0000a96f00
:0306e00000a986e8
:0306e10000a99ecf
:0306e20000a9b6b6
:0306e30000a9ce9d
:0306e40000a9e585
:0306e50000a9fd6c
:0306e60000aa1552
:0306e70000aa2c3a
:0306e80000aa4421
:0306e90000aa5c08
:0306ea0000aa74ef
:0306eb0000aa8bd7
:0306ec0000aaa3be
:0306ed0000aabba5
:0306ee0000aad28d
:0306ef0000aaea74
:0306f00000ab025a
:0306f10000ab1942
:0306f20000ab3129
:0306f30000ab4910
:0306f40000ab60f8
:0306f50000ab78df
:0306f60000ab90c6
:0306f70000aba7ae
:0306f80000abbf95
:0306f90000abd77c
:0306fa0000abee64
:0306fb0000ac064a
:0306fc0000ac1e31
:0306fd0000ac3519
:0306fe0000ac4d00
:0306ff0000ac65e7
:0307000000ac7cce
:0307010000ac94b5
:0307020000acac9c
:0307030000acc384
:0307040000acdb6b
:0307050000acf352
:0307060000ad0a39
:0307070000ad2220
:0307080000ad3a07
:0307090000ad51ef
:03070a0000ad69d6
:03070b0000ad81bd
:03070c0000ad98a5
:03070d0000adb08c
:03070e0000adc873
:03070f0000addf5b
:0307100000adf742
:0307110000ae0f28
:0307120000ae2610
:0307130000ae3ef7
:0307140000ae55df
:0307150000ae6dc6
:0307160000ae85ad
:0307170000ae9c95
:0307180000aeb47c
:0307190000aecc63
:03071a0000aee34b
:03071b0000aefb32
:03071c0000af1219
:03071d0000af2a00
:03071e0000af42e7
:03071f0000af59cf
:0307200000af71b6
:0307210000af889e
:0307220000afa085
:0307230000afb86c
:0307240000afcf54
:0307250000afe73b
:0307260000afff22
:0307270000b01609
:0307280000b02ef0
:0307290000b045d8
:03072a0000b05dbf
:03072b0000b075a6
:03072c0000b08c8e
:03072d0000b0a475
:03072e0000b0bb5d
:03072f0000b0d344
:0307300000b0ea2c
:0307310000b10212
:0307320000b11af9
:0307330000b131e1
:0307340000b149c8
:0307350000b160b0
:0307360000b17897
:0307370000b18f7f
:0307380000b1a766
:0307390000b1bf4d
:03073a0000b1d635
:03073b0000b1ee1c
:03073c0000b20503
:03073d0000b21dea
:03073e0000b234d2
:03073f0000b24cb9
:0307400000b264a0
:0307410000b27b88
:0307420000b2936f
:0307430000b2aa57
:0307440000b2c23e
:0307450000b2d926
:0307460000b2f10d
:0307470000b308f4
:0307480000b320db
:0307490000b338c2
:03074a0000b34faa
:03074b0000b36791
:03074c0000b37e79
:03074d0000b39660
:03074e0000b3ad48
:03074f0000b3c52f
:0307500000b3dc17
:0307510000b3f4fe
:0307520000b40be5
:0307530000b423cc
:0307540000b43ab4
:0307550000b4529b
:0307560000b46983
:0307570000b4816a
:0307580000b49852
:0307590000b4b039
:03075a0000b4c820
:03075b0000b4df08
:03075c0000b4f7ef
:03075d0000b50ed6
:03075e0000b526bd
:03075f0000b53da5
:0307600000b5558c
:0307610000b56c74
:0307620000b5845b
:0307630000b59b43
:0307640000b5b32a
:0307650000b5ca12
:0307660000b5e2f9
:0307670000b5f9e1
:0307680000b611c7
:0307690000b628af
:03076a0000b64096
:03076b0000b6577e
:03076c0000b66e66
:03076d0000b6864d
:03076e0000b69d35
:03076f0000b6b51c
:0307700000b6cc04
:0307710000b6e4eb
:0307720000b6fbd3
:0307730000b713b9
:0307740000b72aa1
:0307750000b74288
:0307760000b75970
:0307770000b77157
:0307780000b7883f
:0307790000b7a026
:03077a0000b7b70e
:03077b0000b7cff5
:03077c0000b7e6dd
:03077d0000b7fdc5
:03077e0000b815ab
:03077f0000b82c93
:0307800000b8447a
:0307810000b85b62
:0307820000b87349
:0307830000b88a31
:0307840000b8a218
:0307850000b8b900
:0307860000b8d0e8
:0307870000b8e8cf
:0307880000b8ffb7
:0307890000b9179d
:03078a0000b92e85
:03078b0000b9466c
:03078c0000b95d54
:03078d0000b9743c
:03078e0000b98c23
:03078f0000b9a30b
:0307900000b9bbf2
:0307910000b9d2da
:0307920000b9eac1
:0307930000ba01a8
:0307940000ba1890
:0307950000ba3077
:0307960000ba475f
:0307970000ba5f46
:0307980000ba762e
:0307990000ba8d16
:03079a0000baa5fd
:03079b0000babce5
:03079c0000bad4cc
:03079d0000baebb4
:03079e0000bb029b
:03079f0000bb1a82
:0307a00000bb316a
:0307a10000bb4951
:0307a20000bb6039
:0307a30000bb7721
:0307a40000bb8f08
:0307a50000bba6f0
:0307a60000bbbed7
:0307a70000bbd5bf
:0307a80000bbeca7
:0307a90000bc048d
:0307aa0000bc1b75
:0307ab0000bc325d
:0307ac0000bc4a44
:0307ad0000bc612c
:0307ae0000bc7913
:0307af0000bc90fb
:0307b00000bca7e3
:0307b10000bcbfca
:0307b20000bcd6b2
:0307b30000bced9a
:0307b40000bd0580
:0307b50000bd1c68
:0307b60000bd3350
:0307b70000bd4b37
:0307b80000bd621f
:0307b90000bd7a06
:0307ba0000bd91ee
:0307bb0000bda8d6
:0307bc0000bdc0bd
:0307bd0000bdd7a5
:0307be0000bdee8d
:0307bf0000be0673
:0307c00000be1d5b
:0307c10000be3443
:0307c20000be4c2a
:0307c30000be6312
:0307c40000be7afa
:0307c50000be92e1
:0307c60000bea9c9
:0307c70000bec0b1
:0307c80000bed898
:0307c90000beef80
:0307ca0000bf0667
:0307cb0000bf1e4e
:0307cc0000bf3536
:0307cd0000bf4c1e
:0307ce0000bf6306
:0307cf0000bf7bed
:0307d00000bf92d5
:0307d10000bfa9bd
:0307d20000bfc1a4
:0307d30000bfd88c
:0307d40000bfef74
:0307d50000c0075a
:0307d60000c01e42
:0307d70000c0352a
:0307d80000c04c12
:0307d90000c064f9
:0307da0000c07be1
:0307db0000c092c9
:0307dc0000c0aab0
:0307dd0000c0c198
:0307de0000c0d880
:0307df0000c0ef68
:0307e00000c1074e
:0307e10000c11e36
:0307e20000c1351e
:0307e30000c14d05
:0307e40000c164ed
:0307e50000c17bd5
:0307e60000c192bd
:0307e70000c1aaa4
:0307e80000c1c18c
:0307e90000c1d874
:0307ea0000c1ef5c
:0307eb0000c20742
:0307ec0000c21e2a
:0307ed0000c23512
:0307ee0000c24cfa
:0307ef0000c264e1
:0307f00000c27bc9
:0307f10000c292b1
:0307f20000c2a999
:0307f30000c2c180
:0307f40000c2d868
:0307f50000c2ef50
:0307f60000c30637
:0307f70000c31e1e
:0307f80000c33506
:0307f90000c34cee
:0307fa0000c363d6
:0307fb0000c37bbd
:0307fc0000c392a5
:0307fd0000c3a98d
:0307fe0000c3c075
:0307ff0000c3d75d
:0308000000c3ef43
:0308010000c4062a
:0308020000c41d12
:0308030000c434fa
:0308040000c44ce1
:0308050000c463c9
:0308060000c47ab1
:0308070000c49199
:0308080000c4a881
:0308090000c4c068
:03080a0000c4d750
:03080b0000c4ee38
:03080c0000c5051f
:03080d0000c51c07
:03080e0000c534ee
:03080f0000c54bd6
:0308100000c562be
:0308110000c579a6
:0308120000c5908e
:0308130000c5a875
:0308140000c5bf5d
:0308150000c5d645
:0308160000c5ed2d
:0308170000c60414
:0308180000c61bfc
:0308190000c633e3
:03081a0000c64acb
:03081b0000c661b3
:03081c0000c6789b
:03081d0000c68f83
:03081e0000c6a66b
:03081f0000c6be52
:0308200000c6d53a
:0308210000c6ec22
:0308220000c70309
:0308230000c71af1
:0308240000c731d9
:0308250000c749c0
:0308260000c760a8
:0308270000c77790
:0308280000c78e78
:0308290000c7a560
:03082a0000c7bc48
:03082b0000c7d330
:03082c0000c7eb17
:03082d0000c802fe
:03082e0000c819e6
:03082f0000c830ce
:0308300000c847b6
:0308310000c85e9e
:0308320000c87586
:0308330000c88c6e
:0308340000c8a455
:0308350000c8bb3d
:0308360000c8d225
:0308370000c8e90d
:0308380000c900f4
:0308390000c917dc
:03083a0000c92ec4
:03083b0000c945ac
:03083c0000c95d93
:03083d0000c9747b
:03083e0000c98b63
:03083f0000c9a24b
:0308400000c9b933
:0308410000c9d01b
:0308420000c9e703
:0308430000c9feeb
:0308440000ca15d2
:0308450000ca2cba
:0308460000ca43a2
:0308470000ca5b89
:0308480000ca7271
:0308490000ca8959
:03084a0000caa041
:03084b0000cab729
:03084c0000cace11
:03084d0000cae5f9
:03084e0000cafce1
:03084f0000cb13c8
:0308500000cb2ab0
:0308510000cb4198
:0308520000cb5880
:0308530000cb6f68
:0308540000cb874f
:0308550000cb9e37
:0308560000cbb51f
:0308570000cbcc07
:0308580000cbe3ef
:0308590000cbfad7
:03085a0000cc11be
:03085b0000cc28a6
:03085c0000cc3f8e
:03085d0000cc5676
:03085e0000cc6d5e
:03085f0000cc8446
:0308600000cc9b2e
:0308610000ccb216
:0308620000ccc9fe
:0308630000cce0e6
:0308640000ccf7ce
:0308650000cd0eb5
:0308660000cd259d
:0308670000cd3c85
:0308680000cd536d
:0308690000cd6a55
:03086a0000cd813d
:03086b0000cd9825
:03086c0000cdaf0d
:03086d0000cdc6f5
:03086e0000cddddd
:03086f0000cdf5c4
:0308700000ce0cab
:0308710000ce2393
:0308720000ce3a7b
:0308730000ce5163
:0308740000ce684b
:0308750000ce7f33
:0308760000ce961b
:0308770000cead03
:0308780000cec4eb
:0308790000cedbd3
:03087a0000cef1bc
:03087b0000cf08a3
:03087c0000cf1f8b
:03087d0000cf3673
:03087e0000cf4d5b
:03087f0000cf6443
:0308800000cf7b2b
:0308810000cf9213
:0308820000cfa9fb
:0308830000cfc0e3
:0308840000cfd7cb
:0308850000cfeeb3
:0308860000d0059a
:0308870000d01c82
:0308880000d0336a
:0308890000d04a52
:03088a0000d0613a
:03088b0000d07822
:03088c0000d08f0a
:03088d0000d0a6f2
:03088e0000d0bdda
:03088f0000d0d4c2
:0308900000d0ebaa
:0308910000d10291
:0308920000d11979
:0308930000d13061
:0308940000d14749
:0308950000d15d32
:0308960000d1741a
:0308970000d18b02
:0308980000d1a2ea
:0308990000d1b9d2
:03089a0000d1d0ba
:03089b0000d1e7a2
:03089c0000d1fe8a
:03089d0000d21571
:03089e0000d22c59
:03089f0000d24341
:0308a00000d25a29
:0308a10000d27111
:0308a20000d287fa
:0308a30000d29ee2
:0308a40000d2b5ca
:0308a50000d2ccb2
:0308a60000d2e39a
:0308a70000d2fa82
:0308a80000d31169
:0308a90000d32851
:0308aa0000d33f39
:0308ab0000d35621
:0308ac0000d36c0a
:0308ad0000d383f2
:0308ae0000d39ada
:0308af0000d3b1c2
:0308b00000d3c8aa
:0308b10000d3df92
:0308b20000d3f67a
:0308b30000d40d61
:0308b40000d4234a
:0308b50000d43a32
:0308b60000d4511a
:0308b70000d46802
:0308b80000d47fea
:0308b90000d496d2
:0308ba0000d4adba
:0308bb0000d4c4a2
:0308bc0000d4da8b
:0308bd0000d4f173
:0308be0000d5085a
:0308bf0000d51f42
:0308c00000d5362a
:0308c10000d54d12
:0308c20000d564fa
:0308c30000d57ae3
:0308c40000d591cb
:0308c50000d5a8b3
:0308c60000d5bf9b
:0308c70000d5d683
:0308c80000d5ed6b
:0308c90000d60353
:0308ca0000d61a3b
:0308cb0000d63123
:0308cc0000d6480b
:0308cd0000d65ff3
:0308ce0000d676db
:0308cf0000d68cc4
:0308d00000d6a3ac
:0308d10000d6ba94
:0308d20000d6d17c
:0308d30000d6e864
:0308d40000d6fe4d
:0308d50000d71534
:0308d60000d72c1c
:0308d70000d74304
:0308d80000d75aec
:0308d90000d770d5
:0308da0000d787bd
:0308db0000d79ea5
:0308dc0000d7b58d
:0308dd0000d7cc75
:0308de0000d7e25e
:0308df0000d7f946
:0308e00000d8102d
:0308e10000d82715
:0308e20000d83efd
:0308e30000d854e6
:0308e40000d86bce
:0308e50000d882b6
:0308e60000d8999e
:0308e70000d8af87
:0308e80000d8c66f
:0308e90000d8dd57
:0308ea0000d8f43f
:0308eb0000d90b26
:0308ec0000d9210f
:0308ed0000d938f7
:0308ee0000d94fdf
:0308ef0000d966c7
:0308f00000d97cb0
:0308f10000d99398
:0308f20000d9aa80
:0308f30000d9c168
:0308f40000d9d751
:0308f50000d9ee39
:0308f60000da0520
:0308f70000da1c08
:0308f80000da32f1
:0308f90000da49d9
:0308fa0000da60c1
:0308fb0000da76aa
:0308fc0000da8d92
:0308fd0000daa47a
:0308fe0000dabb62
:0308ff0000dad14b
:0309000000dae832
:0309010000daff1a
:0309020000db1601
:0309030000db2cea
:0309040000db43d2
:0309050000db5aba
:0309060000db70a3
:0309070000db878b
:0309080000db9e73
:0309090000dbb45c
:03090a0000dbcb44
:03090b0000dbe22c
:03090c0000dbf914
:03090d0000dc0ffc
:03090e0000dc26e4
:03090f0000dc3dcc
:0309100000dc53b5
:0309110000dc6a9d
:0309120000dc8185
:0309130000dc976e
:0309140000dcae56
:0309150000dcc53e
:0309160000dcdb27
:0309170000dcf20f
:0309180000dd09f6
:0309190000dd1fdf
:03091a0000dd36c7
:03091b0000dd4daf
:03091c0000dd6398
:03091d0000dd7a80
:03091e0000dd9168
:03091f0000dda751
:0309200000ddbe39
:0309210000ddd521
:0309220000ddeb0a
:0309230000de02f1
:0309240000de19d9
:0309250000de2fc2
:0309260000de46aa
:0309270000de5d92
:0309280000de737b
:0309290000de8a63
:03092a0000dea04c
:03092b0000deb734
:03092c0000dece1c
:03092d0000dee405
:03092e0000defbed
:03092f0000df12d4
:0309300000df28bd
:0309310000df3fa5
:0309320000df558e
:0309330000df6c76
:0309340000df835e
:0309350000df9947
:0309360000dfb02f
:0309370000dfc717
:0309380000dfdd00
:0309390000dff4e8
:03093a0000e00ad0
:03093b0000e021b8
:03093c0000e038a0
:03093d0000e04e89
:03093e0000e06571
:03093f0000e07b5a
:0309400000e09242
:0309410000e0a82b
:0309420000e0bf13
:0309430000e0d6fb
:0309440000e0ece4
:0309450000e103cb
:0309460000e119b4
:0309470000e1309c
:0309480000e14685
:0309490000e15d6d
:03094a0000e17455
:03094b0000e18a3e
:03094c0000e1a126
:03094d0000e1b70f
:03094e0000e1cef7
:03094f0000e1e4e0
:0309500000e1fbc8
:0309510000e212af
:0309520000e22898
:0309530000e23f80
:0309540000e25569
:0309550000e26c51
:0309560000e2823a
:0309570000e29922
:0309580000e2af0b
:0309590000e2c6f3
:03095a0000e2dcdc
:03095b0000e2f3c4
:03095c0000e309ac
:03095d0000e32094
:03095e0000e3367d
:03095f0000e34d65
:0309600000e3644d
:0309610000e37a36
:0309620000e3911e
:0309630000e3a707
:0309640000e3beef
:0309650000e3d4d8
:0309660000e3ebc0
:0309670000e401a8
:0309680000e41890
:0309690000e42e79
:03096a0000e44561
:03096b0000e45b4a
:03096c0000e47232
:03096d0000e4881b
:03096e0000e49f03
:03096f0000e4b5ec
:0309700000e4ccd4
:0309710000e4e2bd
:0309720000e4f9a5
:0309730000e50f8d
:0309740000e52576
:0309750000e53c5e
:0309760000e55247
:0309770000e5692f
:0309780000e57f18
:0309790000e59600
:03097a0000e5ace9
:03097b0000e5c3d1
:03097c0000e5d9ba
:03097d0000e5f0a2
:03097e0000e6068a
:03097f0000e61d72
:0309800000e6335b
:0309810000e64944
:0309820000e6602c
:0309830000e67615
:0309840000e68dfd
:0309850000e6a3e6
:0309860000e6bace
:0309870000e6d0b7
:0309880000e6e79f
:0309890000e6fd88
:03098a0000e71370
:03098b0000e72a58
:03098c0000e74041
:03098d0000e75729
:03098e0000e76d12
:03098f0000e783fb
:0309900000e79ae3
:0309910000e7b0cc
:0309920000e7c7b4
:0309930000e7dd9d
:0309940000e7f485
:0309950000e80a6d
:0309960000e82056
:0309970000e8373e
:0309980000e84d27
:0309990000e8640f
:03099a0000e87af8
:03099b0000e890e1
:03099c0000e8a7c9
:03099d0000e8bdb2
:03099e0000e8d39b
:03099f0000e8ea83
:0309a00000e9006b
:0309a10000e91753
:0309a20000e92d3c
:0309a30000e94325
:0309a40000e95a0d
:0309a50000e970f6
:0309a60000e986df
:0309a70000e99dc7
:0309a80000e9b3b0
:0309a90000e9ca98
:0309aa0000e9e081
:0309ab0000e9f66a
:0309ac0000ea0d51
:0309ad0000ea233a
:0309ae0000ea3923
:0309af0000ea500b
:0309b00000ea66f4
:0309b10000ea7cdd
:0309b20000ea93c5
:0309b30000eaa9ae
:0309b40000eabf97
:0309b50000ead67f
:0309b60000eaec68
:0309b70000eb0250
:0309b80000eb1938
:0309b90000eb2f21
:0309ba0000eb450a
:0309bb0000eb5cf2
:0309bc0000eb72db
:0309bd0000eb88c4
:0309be0000eb9fac
:0309bf0000ebb595
:0309c00000ebcb7e
:0309c10000ebe266
:0309c20000ebf84f
:0309c30000ec0e37
:0309c40000ec2420
:0309c50000ec3b08
:0309c60000ec51f1
:0309c70000ec67da
:0309c80000ec7ec2
:0309c90000ec94ab
:0309ca0000ecaa94
:0309cb0000ecc17c
:0309cc0000ecd765
:0309cd0000eced4e
:0309ce0000ed0336
:0309cf0000ed1a1e
:0309d00000ed3007
:0309d10000ed46f0
:0309d20000ed5cd9
:0309d30000ed73c1
:0309d40000ed89aa
:0309d50000ed9f93
:0309d60000edb67b
:0309d70000edcc64
:0309d80000ede24d
:0309d90000edf836
:0309da0000ee0f1d
:0309db0000ee2506
:0309dc0000ee3bef
:0309dd0000ee51d8
:0309de0000ee68c0
:0309df0000ee7ea9
:0309e00000ee9492
:0309e10000eeaa7b
:0309e20000eec064
:0309e30000eed74c
:0309e40000eeed35
:0309e50000ef031d
:0309e60000ef1906
:0309e70000ef30ee
:0309e80000ef46d7
:0309e90000ef5cc0
:0309ea0000ef72a9
:0309eb0000ef8892
:0309ec0000ef9f7a
:0309ed0000efb563
:0309ee0000efcb4c
:0309ef0000efe135
:0309f00000eff81d
:0309f10000f00e05
:0309f20000f024ee
:0309f30000f03ad7
:0309f40000f050c0
:0309f50000f066a9
:0309f60000f07d91
:0309f70000f0937a
:0309f80000f0a963
:0309f90000f0bf4c
:0309fa0000f0d535
:0309fb0000f0ec1d
:0309fc0000f10205
:0309fd0000f118ee
:0309fe0000f12ed7
:0309ff0000f144c0
:030a000000f15aa8
:030a010000f17190
:030a020000f18779
:030a030000f19d62
:030a040000f1b34b
:030a050000f1c934
:030a060000f1df1d
:030a070000f1f605
:030a080000f20ced
:030a090000f222d6
:030a0a0000f238bf
:030a0b0000f24ea8
:030a0c0000f26491
:030a0d0000f27a7a
:030a0e0000f29162
:030a0f0000f2a74b
:030a100000f2bd34
:030a110000f2d31d
:030a120000f2e906
:030a130000f2ffef
:030a140000f315d7
:030a150000f32bc0
:030a160000f342a8
:030a170000f35891
:030a180000f36e7a
:030a190000f38463
:030a1a0000f39a4c
:030a1b0000f3b035
:030a1c0000f3c61e
:030a1d0000f3dc07
:030a1e0000f3f2f0
:030a1f0000f408d8
:030a200000f41fc0
:030a210000f435a9
:030a220000f44b92
:030a230000f4617b
:030a240000f47764
:030a250000f48d4d
:030a260000f4a336
:030a270000f4b91f
:030a280000f4cf08
:030a290000f4e5f1
:030a2a0000f4fbda
:030a2b0000f511c2
:030a2c0000f527ab
:030a2d0000f53e93
:030a2e0000f5547c
:030a2f0000f56a65
:030a300000f5804e
:030a310000f59637
:030a320000f5ac20
:030a330000f5c209
:030a340000f5d8f2
:030a350000f5eedb
:030a360000f604c3
:030a370000f61aac
:030a380000f63095
:030a390000f6467e
:030a3a0000f65c67
:030a3b0000f67250
:030a3c0000f68839
:030a3d0000f69e22
:030a3e0000f6b40b
:030a3f0000f6caf4
:030a400000f6e0dd
:030a410000f6f6c6
:030a420000f70cae
:030a430000f72297
:030a440000f73880
:030a450000f74e69
:030a460000f76452
:030a470000f77a3b
:030a480000f79024
:030a490000f7a60d
:030a4a0000f7bcf6
:030a4b0000f7d2df
:030a4c0000f7e8c8
:030a4d0000f7feb1
:030a4e0000f81499
:030a4f0000f82a82
:030a500000f8406b
:030a510000f85654
:030a520000f86c3d
:030a530000f88226
:030a540000f8980f
:030a550000f8aef8
:030a560000f8c4e1
:030a570000f8daca
:030a580000f8f0b3
:030a590000f9069b
:030a5a0000f91c84
:030a5b0000f9326d
:030a5c0000f94856
:030a5d0000f95e3f
:030a5e0000f97428
:030a5f0000f98a11
:030a600000f9a0fa
:030a610000f9b6e3
:030a620000f9cccc
:030a630000f9e2b5
:030a640000f9f79f
:030a650000fa0d87
:030a660000fa2370
:030a670000fa3959
:030a680000fa4f42
:030a690000fa652b
:030a6a0000fa7b14
:030a6b0000fa91fd
:030a6c0000faa7e6
:030a6d0000fabdcf
:030a6e0000fad3b8
:030a6f0000fae9a1
:030a700000fafe8b
:030a710000fb1473
:030a720000fb2a5c
:030a730000fb4045
:030a740000fb562e
:030a750000fb6c17
:030a760000fb8200
:030a770000fb98e9
:030a780000fbaed2
:030a790000fbc4bb
:030a7a0000fbd9a5
:030a7b0000fbef8e
:030a7c0000fc0576
:030a7d0000fc1b5f
:030a7e0000fc3148
:030a7f0000fc4731
:030a800000fc5d1a
:030a810000fc7303
:030a820000fc88ed
:030a830000fc9ed6
:030a840000fcb4bf
:030a850000fccaa8
:030a860000fce091
:030a870000fcf67a
:030a880000fd0c62
:030a890000fd214c
:030a8a0000fd3735
:030a8b0000fd4d1e
:030a8c0000fd6307
:030a8d0000fd79f0
:030a8e0000fd8fd9
:030a8f0000fda4c3
:030a900000fdbaac
:030a910000fdd095
:030a920000fde67e
:030a930000fdfc67
:030a940000fe124f
:030a950000fe2739
:030a960000fe3d22
:030a970000fe530b
:030a980000fe69f4
:030a990000fe7fdd
:030a9a0000fe94c7
:030a9b0000feaab0
:030a9c0000fec099
:030a9d0000fed682
:030a9e0000feec6b
:030a9f0000ff0154
:030aa00000ff173d
:030aa10000ff2d26
:030aa20000ff430f
:030aa30000ff59f8
:030aa40000ff6ee2
:030aa50000ff84cb
:030aa60000ff9ab4
:030aa70000ffb09d
:030aa80000ffc587
:030aa90000ffdb70
:030aaa0000fff159
:030aab0001000740
:030aac0001001d29
:030aad0001003213
:030aae00010048fc
:030aaf0001005ee5
:030ab000010074ce
:030ab100010089b8
:030ab20001009fa1
:030ab3000100b58a
:030ab4000100cb73
:030ab5000100e05d
:030ab6000100f646
:030ab70001010c2e
:030ab80001012118
:030ab90001013701
:030aba0001014dea
:030abb00010163d3
:030abc00010178bd
:030abd0001018ea6
:030abe000101a48f
:030abf000101ba78
:030ac0000101cf62
:030ac1000101e54b
:030ac2000101fb34
:030ac3000102101d
:030ac40001022606
:030ac50001023cef
:030ac600010252d8
:030ac700010267c2
:030ac80001027dab
:030ac90001029394
:030aca000102a87e
:030acb000102be67
:030acc000102d450
:030acd000102e93a
:030ace000102ff23
:030acf000103150b
:030ad00001032af5
:030ad100010340de
:030ad200010356c7
:030ad30001036bb1
:030ad4000103819a
:030ad50001039783
:030ad6000103ac6d
:030ad7000103c256
:030ad8000103d83f
:030ad9000103ed29
:030ada0001040311
:030adb00010419fa
:030adc0001042ee4
:030add00010444cd
:030ade0001045ab6
:030adf0001046fa0
:030ae00001048589
:030ae10001049b72
:030ae2000104b05c
:030ae3000104c645
:030ae4000104db2f
:030ae5000104f118
:030ae60001050700
:030ae70001051cea
:030ae800010532d3
:030ae900010547bd
:030aea0001055da6
:030aeb000105738f
:030aec0001058879
:030aed0001059e62
:030aee000105b44b
:030aef000105c935
:030af0000105df1e
:030af1000105f408
:030af20001060af0
:030af300010620d9
:030af400010635c3
:030af50001064bac
:030af60001066096
:030af7000106767f
:030af80001068b69
:030af9000106a152
:030afa000106b73b
:030afb000106cc25
:030afc000106e20e
:030afd000106f7f8
:030afe0001070de0
:030aff00010722ca
:030b0000010738b2
:030b010001074e9b
:030b020001076385
:030b03000107796e
:030b040001078e58
:030b05000107a441
:030b06000107b92b
:030b07000107cf14
:030b08000107e4fe
:030b09000107fae7
:030b0a0001080fd0
:030b0b00010825b9
:030b0c0001083aa3
:030b0d000108508c
:030b0e0001086675
:030b0f0001087b5f
:030b100001089148
:030b11000108a632
:030b12000108bc1b
:030b13000108d105
:030b14000108e7ee
:030b15000108fcd8
:030b1600010912c0
:030b1700010927aa
:030b180001093d93
:030b19000109527d
:030b1a0001096866
:030b1b0001097d50
:030b1c0001099339
:030b1d000109a823
:030b1e000109be0c
:030b1f000109d3f6
:030b20000109e9df
:030b21000109fec9
:030b2200010a13b2
:030b2300010a299b
:030b2400010a3e85
:030b2500010a546e
:030b2600010a6958
:030b2700010a7f41
:030b2800010a942b
:030b2900010aaa14
:030b2a00010abffe
:030b2b00010ad5e7
:030b2c00010aead1
:030b2d00010b00b9
:030b2e00010b15a3
:030b2f00010b2a8d
:030b3000010b4076
:030b3100010b5560
:030b3200010b6b49
:030b3300010b8033
:030b3400010b961c
:030b3500010bab06
:030b3600010bc0f0
:030b3700010bd6d9
:030b3800010bebc3
:030b3900010c01ab
:030b3a00010c1695
:030b3b00010c2b7f
:030b3c00010c4168
:030b3d00010c5652
:030b3e00010c6c3b
:030b3f00010c8125
:030b4000010c960f
:030b4100010cacf8
:030b4200010cc1e2
:030b4300010cd7cb
:030b4400010cecb5
:030b4500010d019e
:030b4600010d1787
:030b4700010d2c71
:030b4800010d425a
:030b4900010d5744
:030b4a00010d6c2e
:030b4b00010d8217
:030b4c00010d9701
:030b4d00010daceb
:030b4e00010dc2d4
:030b4f00010dd7be
:030b5000010deda7
:030b5100010e0290
:030b5200010e177a
:030b5300010e2d63
:030b5400010e424d
:030b5500010e5737
:030b5600010e6d20
:030b5700010e820a
:030b5800010e97f4
:030b5900010eaddd
:030b5a00010ec2c7
:030b5b00010ed7b1
:030b5c00010eed9a
:030b5d00010f0283
:030b5e00010f176d
:030b5f00010f2d56
:030b6000010f4240
:030b6100010f572a
:030b6200010f6d13
:030b6300010f82fd
:030b6400010f97e7
:030b6500010facd1
:030b6600010fc2ba
:030b6700010fd7a4
:030b6800010fec8e
:030b690001100276
:030b6a0001101760
:030b6b0001102c4a
:030b6c0001104134
:030b6d000110571d
:030b6e0001106c07
:030b6f00011081f1
:030b7000011097da
:030b71000110acc4
:030b72000110c1ae
:030b73000110d698
:030b74000110ec81
:030b75000111016a
:030b760001111654
:030b770001112b3e
:030b780001114127
:030b790001115611
:030b7a0001116bfb
:030b7b00011180e5
:030b7c00011196ce
:030b7d000111abb8
:030b7e000111c0a2
:030b7f000111d58c
:030b80000111eb75
:030b81000112005e
:030b820001121548
:030b830001122a32
:030b84000112401b
:030b850001125505
:030b860001126aef
:030b870001127fd9
:030b8800011294c3
:030b89000112aaac
:030b8a000112bf96
:030b8b000112d480
:030b8c000112e96a
:030b8d000112fe54
:030b8e000113143c
:030b8f0001132926
:030b900001133e10
:030b9100011353fa
:030b9200011368e4
:030b930001137ecd
:030b9400011393b7
:030b95000113a8a1
:030b96000113bd8b
:030b97000113d275
:030b98000113e85e
:030b99000113fd48
:030b9a0001141231
:030b9b000114271b
:030b9c0001143c05
:030b9d00011451ef
:030b9e00011467d8
:030b9f0001147cc2
:030ba000011491ac
:030ba1000114a696
:030ba2000114bb80
:030ba3000114d06a
:030ba4000114e554
:030ba5000114fb3d
:030ba60001151026
:030ba70001152510
:030ba80001153afa
:030ba90001154fe4
:030baa00011564ce
:030bab00011579b8
:030bac0001158ea2
:030bad000115a48b
:030bae000115b975
:030baf000115ce5f
:030bb0000115e349
:030bb1000115f833
:030bb20001160d1c
:030bb30001162206
:030bb400011637f0
:030bb50001164cda
:030bb600011661c4
:030bb700011677ad
:030bb80001168c97
:030bb9000116a181
:030bba000116b66b
:030bbb000116cb55
:030bbc000116e03f
:030bbd000116f529
:030bbe0001170a12
:030bbf0001171ffc
:030bc000011734e6
:030bc100011749d0
:030bc20001175eba
:030bc300011773a4
:030bc4000117898d
:030bc50001179e77
:030bc6000117b361
:030bc7000117c84b
:030bc8000117dd35
:030bc9000117f21f
:030bca0001180708
:030bcb0001181cf2
:030bcc00011831dc
:030bcd00011846c6
:030bce0001185bb0
:030bcf000118709a
:030bd00001188584
:030bd10001189a6e
:030bd2000118af58
:030bd3000118c442
:030bd4000118d92c
:030bd5000118ee16
:030bd600011903ff
:030bd700011918e9
:030bd80001192dd3
:030bd900011942bd
:030bda00011957a7
:030bdb0001196c91
:030bdc000119817b
:030bdd0001199665
:030bde000119ab4f
:030bdf000119c039
:030be0000119d523
:030be1000119ea0d
:030be2000119fff7
:030be300011a14e0
:030be400011a29ca
:030be500011a3eb4
:030be600011a539e
:030be700011a6888
:030be800011a7d72
:030be900011a925c
:030bea00011aa746
:030beb00011abc30
:030bec00011ad11a
:030bed00011ae604
:030bee00011afbee
:030bef00011b10d7
:030bf000011b24c2
:030bf100011b39ac
:030bf200011b4e96
:030bf300011b6380
:030bf400011b786a
:030bf500011b8d54
:030bf600011ba23e
:030bf700011bb728
:030bf800011bcc12
:030bf900011be1fc
:030bfa00011bf6e6
:030bfb00011c0bcf
:030bfc00011c20b9
:030bfd00011c34a4
:030bfe00011c498e
:030bff00011c5e78
:030c0000011c7361
:030c0100011c884b
:030c0200011c9d35
:030c0300011cb21f
:030c0400011cc709
:030c0500011cdcf3
:030c0600011cf0de
:030c0700011d05c7
:030c0800011d1ab1
:030c0900011d2f9b
:030c0a00011d4485
:030c0b00011d596f
:030c0c00011d6e59
:030c0d00011d8343
:030c0e00011d972e
:030c0f00011dac18
:030c1000011dc102
:030c1100011dd6ec
:030c1200011debd6
:030c1300011e00bf
:030c1400011e15a9
:030c1500011e2994
:030c1600011e3e7e
:030c1700011e5368
:030c1800011e6852
:030c1900011e7d3c
:030c1a00011e9226
:030c1b00011ea611
:030c1c00011ebbfb
:030c1d00011ed0e5
:030c1e00011ee5cf
:030c1f00011efab9
:030c2000011f0ea3
:030c2100011f238d
:030c2200011f3877
:030c2300011f4d61
:030c2400011f624b
:030c2500011f7636
:030c2600011f8b20
:030c2700011fa00a
:030c2800011fb5f4
:030c2900011fcade
:030c2a00011fdec9
:030c2b00011ff3b3
:030c2c000120089c
:030c2d0001201d86
:030c2e0001203270
:030c2f000120465b
:030c300001205b45
:030c31000120702f
:030c320001208519
:030c330001209904
:030c34000120aeee
:030c35000120c3d8
:030c36000120d8c2
:030c37000120ecad
:030c380001210196
:030c390001211680
:030c3a0001212b6a
:030c3b0001213f55
:030c3c000121543f
:030c3d0001216929
:030c3e0001217e13
:030c3f00012192fe
:030c40000121a7e8
:030c41000121bcd2
:030c42000121d0bd
:030c43000121e5a7
:030c44000121fa91
:030c450001220f7a
:030c460001222365
:030c47000122384f
:030c480001224d39
:030c490001226124
:030c4a000122760e
:030c4b0001228bf8
:030c4c000122a0e2
:030c4d000122b4cd
:030c4e000122c9b7
:030c4f000122dea1
:030c50000122f28c
:030c510001230775
:030c520001231c5f
:030c53000123304a
:030c540001234534
:030c550001235a1e
:030c560001236e09
:030c5700012383f3
:030c5800012398dd
:030c59000123acc8
:030c5a000123c1b2
:030c5b000123d69c
:030c5c000123ea87
:030c5d000123ff71
:030c5e000124145a
:030c5f0001242845
:030c600001243d2f
:030c61000124511a
:030c620001246604
:030c630001247bee
:030c640001248fd9
:030c65000124a4c3
:030c66000124b9ad
:030c67000124cd98
:030c68000124e282
:030c69000124f66d
:030c6a0001250b56
:030c6b0001252040
:030c6c000125342b
:030c6d0001254915
:030c6e0001255d00
:030c6f00012572ea
:030c7000012587d4
:030c710001259bbf
:030c72000125b0a9
:030c73000125c494
:030c74000125d97e
:030c75000125ee68
:030c760001260252
:030c77000126173c
:030c780001262b27
:030c790001264011
:030c7a00012654fc
:030c7b00012669e6
:030c7c0001267ed0
:030c7d00012692bb
:030c7e000126a7a5
:030c7f000126bb90
:030c80000126d07a
:030c81000126e465
:030c82000126f94f
:030c830001270d39
:030c840001272223
:030c85000127360e
:030c860001274bf8
:030c8700012760e2
:030c8800012774cd
:030c8900012789b7
:030c8a0001279da2
:030c8b000127b28c
:030c8c000127c677
:030c8d000127db61
:030c8e000127ef4c
:030c8f0001280435
:030c900001281820
:030c910001282d0a
:030c9200012841f5
:030c9300012856df
:030c940001286aca
:030c950001287fb4
:030c96000128939f
:030c97000128a889
:030c98000128bc74
:030c99000128d15e
:030c9a000128e549
:030c9b000128fa33
:030c9c0001290e1d
:030c9d0001292208
:030c9e00012937f2
:030c9f0001294bdd
:030ca000012960c7
:030ca100012974b2
:030ca2000129899c
:030ca30001299d87
:030ca4000129b271
:030ca5000129c65c
:030ca6000129db46
:030ca7000129ef31
:030ca800012a031b
:030ca900012a1805
:030caa00012a2cf0
:030cab00012a41da
:030cac00012a55c5
:030cad00012a6aaf
:030cae00012a7e9a
:030caf00012a9285
:030cb000012aa76f
:030cb100012abb5a
:030cb200012ad044
:030cb300012ae42f
:030cb400012af81a
:030cb500012b0d03
:030cb600012b21ee
:030cb700012b36d8
:030cb800012b4ac3
:030cb900012b5eae
:030cba00012b7398
:030cbb00012b8783
:030cbc00012b9c6d
:030cbd00012bb058
:030cbe00012bc443
:030cbf00012bd92d
:030cc000012bed18
:030cc100012c0102
:030cc200012c16ec
:030cc300012c2ad7
:030cc400012c3fc1
:030cc500012c53ac
:030cc600012c6797
:030cc700012c7c81
:030cc800012c906c
:030cc900012ca457
:030cca00012cb941
:030ccb00012ccd2c
:030ccc00012ce117
:030ccd00012cf601
:030cce00012d0aeb
:030ccf00012d1ed6
:030cd000012d33c0
:030cd100012d47ab
:030cd200012d5b96
:030cd300012d7080
:030cd400012d846b
:030cd500012d9856
:030cd600012dad40
:030cd700012dc12b
:030cd800012dd516
:030cd900012de901
:030cda00012dfeeb
:030cdb00012e12d5
:030cdc00012e26c0
:030cdd00012e3baa
:030cde00012e4f95
:030cdf00012e6380
:030ce000012e776b
:030ce100012e8c55
:030ce200012ea040
:030ce300012eb42b
:030ce400012ec915
:030ce500012edd00
:030ce600012ef1eb
:030ce700012f05d5
:030ce800012f1abf
:030ce900012f2eaa
:030cea00012f4295
:030ceb00012f5680
:030cec00012f6b6a
:030ced00012f7f55
:030cee00012f9340
:030cef00012fa72b
:030cf000012fbc15
:030cf100012fd000
:030cf200012fe4eb
:030cf300012ff8d6
:030cf40001300cc0
:030cf500013021aa
:030cf60001303595
:030cf70001304980
:030cf80001305d6b
:030cf90001307255
:030cfa0001308640
:030cfb0001309a2b
:030cfc000130ae16
:030cfd000130c201
:030cfe000130d7eb
:030cff000130ebd6
:030d00000130ffc0
:030d0100013113aa
:030d020001312795
:030d030001313b80
:030d04000131506a
:030d050001316455
:030d060001317840
:030d070001318c2b
:030d08000131a016
:030d09000131b401
:030d0a000131c9eb
:030d0b000131ddd6
:030d0c000131f1c1
:030d0d00013205ab
:030d0e0001321996
:030d0f0001322d81
:030d10000132426b
:030d110001325656
:030d120001326a41
:030d130001327e2c
:030d140001329217
:030d15000132a602
:030d16000132baed
:030d17000132ced8
:030d18000132e3c2
:030d19000132f7ad
:030d1a0001330b97
:030d1b0001331f82
:030d1c000133336d
:030d1d0001334758
:030d1e0001335b43
:030d1f0001336f2e
:030d200001338319
:030d210001339704
:030d22000133acee
:030d23000133c0d9
:030d24000133d4c4
:030d25000133e8af
:030d26000133fc9a
:030d270001341084
:030d28000134246f
:030d29000134385a
:030d2a0001344c45
:030d2b0001346030
:030d2c000134741b
:030d2d0001348806
:030d2e0001349cf1
:030d2f000134b0dc
:030d30000134c5c6
:030d31000134d9b1
:030d32000134ed9c
:030d330001350186
:030d340001351571
:030d35000135295c
:030d360001353d47
:030d370001355132
:030d38000135651d
:030d390001357908
:030d3a0001358df3
:030d3b000135a1de
:030d3c000135b5c9
:030d3d000135c9b4
:030d3e000135dd9f
:030d3f000135f18a
:030d400001360574
:030d41000136195f
:030d420001362d4a
:030d430001364135
:030d440001365520
:030d45000136690b
:030d460001367df6
:030d4700013691e1
:030d48000136a5cc
:030d49000136b9b7
:030d4a000136cda2
:030d4b000136e18d
:030d4c000136f578
:030d4d0001370962
:030d4e0001371d4d
:030d4f0001373138
:030d500001374523
:030d51000137590e
:030d520001376cfa
:030d5300013780e5
:030d5400013794d0
:030d55000137a8bb
:030d56000137bca6
:030d57000137d091
:030d58000137e47c
:030d59000137f867
:030d5a0001380c51
:030d5b000138203c
:030d5c0001383427
:030d5d0001384812
:030d5e0001385cfd
:030d5f00013870e8
:030d6000013883d4
:030d6100013897bf
:030d62000138abaa
:030d63000138bf95
:030d64000138d380
:030d65000138e76b
:030d66000138fb56
:030d670001390f40
:030d68000139232b
:030d690001393716
:030d6a0001394a02
:030d6b0001395eed
:030d6c00013972d8
:030d6d00013986c3
:030d6e0001399aae
:030d6f000139ae99
:030d70000139c284
:030d71000139d570
:030d72000139e95b
:030d73000139fd46
:030d7400013a1130
:030d7500013a251b
:030d7600013a3906
:030d7700013a4df1
:030d7800013a60dd
:030d7900013a74c8
:030d7a00013a88b3
:030d7b00013a9c9e
:030d7c00013ab089
:030d7d00013ac474
:030d7e00013ad760
:030d7f00013aeb4b
:030d8000013aff36
:030d8100013b1320
:030d8200013b270b
:030d8300013b3af7
:030d8400013b4ee2
:030d8500013b62cd
:030d8600013b76b8
:030d8700013b8aa3
:030d8800013b9d8f
:030d8900013bb17a
:030d8a00013bc565
:030d8b00013bd950
:030d8c00013bed3b
:030d8d00013c0026
:030d8e00013c1411
:030d8f00013c28fc
:030d9000013c3ce7
:030d9100013c4fd3
:030d9200013c63be
:030d9300013c77a9
:030d9400013c8b94
:030d9500013c9e80
:030d9600013cb26b
:030d9700013cc656
:030d9800013cda41
:030d9900013ced2d
:030d9a00013d0117
:030d9b00013d1502
:030d9c00013d29ed
:030d9d00013d3cd9
:030d9e00013d50c4
:030d9f00013d64af
:030da000013d789a
:030da100013d8b86
:030da200013d9f71
:030da300013db35c
:030da400013dc648
:030da500013dda33
:030da600013dee1e
:030da700013e0109
:030da800013e15f4
:030da900013e29df
:030daa00013e3dca
:030dab00013e50b6
:030dac00013e64a1
:030dad00013e788c
:030dae00013e8b78
:030daf00013e9f63
:030db000013eb34e
:030db100013ec63a
:030db200013eda25
:030db300013eee10
:030db400013f01fb
:030db500013f15e6
:030db600013f29d1
:030db700013f3cbd
:030db800013f50a8
:030db900013f6493
:030dba00013f777f
:030dbb00013f8b6a
:030dbc00013f9e56
:030dbd00013fb241
:030dbe00013fc62c
:030dbf00013fd918
:030dc000013fed03
:030dc100014001ed
:030dc200014014d9
:030dc300014028c4
:030dc40001403bb0
:030dc50001404f9b
:030dc60001406386
:030dc70001407672
:030dc80001408a5d
:030dc90001409d49
:030dca000140b134
:030dcb000140c51f
:030dcc000140d80b
:030dcd000140ecf6
:030dce000140ffe2
:030dcf00014113cc
:030dd000014127b7
:030dd10001413aa3
:030dd20001414e8e
:030dd3000141617a
:030dd40001417565
:030dd50001418851
:030dd60001419c3c
:030dd7000141af28
:030dd8000141c313
:030dd9000141d7fe
:030dda000141eaea
:030ddb000141fed5
:030ddc00014211c0
:030ddd00014225ab
:030dde0001423897
:030ddf0001424c82
:030de00001425f6e
:030de10001427359
:030de20001428645
