:03000000000000fd
:03000100000026d6
:0300020000004bb0
:0300030000007189
:0300040000009762
:030005000000bc3c
:030006000000e215
:03000700000108ed
:0300080000012ec6
:03000900000153a0
:03000a0000017979
:03000b0000019f52
:03000c000001c42c
:03000d000001ea05
:03000e00000210dd
:03000f00000235b7
:0300100000025b90
:0300110000028169
:030012000002a742
:030013000002cc1c
:030014000002f2f5
:03001500000318cd
:0300160000033da7
:0300170000036380
:0300180000038959
:030019000003ae33
:03001a000003d40c
:03001b000003fae5
:03001c00000420bd
:03001d0000044597
:03001e0000046b70
:03001f0000049149
:030020000004b623
:030021000004dcfc
:03002200000502d4
:03002300000527ae
:0300240000054d87
:0300250000057360
:0300260000059939
:030027000005be13
:030028000005e4ec
:0300290000060ac4
:03002a0000062f9e
:03002b0000065577
:03002c0000067b50
:03002d000006a02a
:03002e000006c603
:03002f000006ecdc
:03003000000711b5
:030031000007378e
:0300320000075d67
:0300330000078340
:030034000007a81a
:030035000007cef3
:030036000007f4cc
:03003700000819a5
:0300380000083f7e
:0300390000086557
:03003a0000088a31
:03003b000008b00a
:03003c000008d6e3
:03003d000008fcbc
:03003e0000092195
:03003f000009476e
:0300400000096d47
:0300410000099221
:030042000009b8fa
:030043000009ded3
:03004400000a03ac
:03004500000a2985
:03004600000a4f5e
:03004700000a7438
:03004800000a9a11
:03004900000ac0ea
:03004a00000ae6c3
:03004b00000b0b9c
:03004c00000b3175
:03004d00000b574e
:03004e00000b7c28
:03004f00000ba201
:03005000000bc8da
:03005100000bedb4
:03005200000c138c
:03005300000c3965
:03005400000c5e3f
:03005500000c8418
:03005600000caaf1
:03005700000ccfcb
:03005800000cf5a4
:03005900000d1b7c
:03005a00000d4155
:03005b00000d662f
:03005c00000d8c08
:03005d00000db2e1
:03005e00000dd7bb
:03005f00000dfd94
:03006000000e236c
:03006100000e4846
:03006200000e6e1f
:03006300000e94f8
:03006400000eb9d2
:03006500000edfab
:03006600000f0583
:03006700000f2a5d
:03006800000f5036
:03006900000f760f
:03006a00000f9be9
:03006b00000fc1c2
:03006c00000fe79b
:03006d0000100c74
:03006e000010324d
:03006f0000105826
:0300700000107eff
:030071000010a3d9
:030072000010c9b2
:030073000010ef8b
:0300740000111464
:0300750000113a3d
:0300760000116016
:03007700001185f0
:030078000011abc9
:030079000011d1a2
:03007a000011f67c
:03007b0000121c54
:03007c000012422d
:03007d0000126707
:03007e0000128de0
:03007f000012b3b9
:030080000012d893
:030081000012fe6c
:0300820000132444
:030083000013491e
:0300840000136ff7
:03008500001395d0
:030086000013baaa
:030087000013e083
:030088000014065b
:0300890000142b35
:03008a000014510e
:03008b00001477e7
:03008c0000149cc1
:03008d000014c29a
:03008e000014e873
:03008f0000150d4c
:0300900000153325
:03009100001559fe
:0300920000157ed8
:030093000015a4b1
:030094000015ca8a
:030095000015ef64
:030096000016153c
:0300970000163b15
:03009800001660ef
:03009900001686c8
:03009a000016aca1
:03009b000016d17b
:03009c000016f754
:03009d0000171d2c
:03009e0000174206
:03009f00001768df
:0300a00000178eb8
:0300a1000017b392
:0300a2000017d96b
:0300a3000017ff44
:0300a4000018241d
:0300a50000184af6
:0300a600001870cf
:0300a700001895a9
:0300a8000018bb82
:0300a9000018e15b
:0300aa0000190634
:0300ab0000192c0d
:0300ac00001952e6
:0300ad00001977c0
:0300ae0000199d99
:0300af000019c372
:0300b0000019e84c
:0300b100001a0e24
:0300b200001a33fe
:0300b300001a59d7
:0300b400001a7fb0
:0300b500001aa48a
:0300b600001aca63
:0300b700001af03c
:0300b800001b1515
:0300b900001b3bee
:0300ba00001b61c7
:0300bb00001b86a1
:0300bc00001bac7a
:0300bd00001bd253
:0300be00001bf72d
:0300bf00001c1d05
:0300c000001c42df
:0300c100001c68b8
:0300c200001c8e91
:0300c300001cb36b
:0300c400001cd944
:0300c500001cff1d
:0300c600001d24f6
:0300c700001d4acf
:0300c800001d70a8
:0300c900001d9582
:0300ca00001dbb5b
:0300cb00001de134
:0300cc00001e060d
:0300cd00001e2ce6
:0300ce00001e51c0
:0300cf00001e7799
:0300d000001e9d72
:0300d100001ec24c
:0300d200001ee825
:0300d300001f0efd
:0300d400001f33d7
:0300d500001f59b0
:0300d600001f7e8a
:0300d700001fa463
:0300d800001fca3c
:0300d900001fef16
:0300da00002015ee
:0300db0000203bc7
:0300dc00002060a1
:0300dd000020867a
:0300de000020ab54
:0300df000020d12d
:0300e0000020f706
:0300e10000211cdf
:0300e200002142b8
:0300e30000216891
:0300e40000218d6b
:0300e5000021b344
:0300e6000021d81e
:0300e7000021fef7
:0300e800002224cf
:0300e900002249a9
:0300ea0000226f82
:0300eb000022945c
:0300ec000022ba35
:0300ed000022e00e
:0300ee00002305e7
:0300ef0000232bc0
:0300f00000235199
:0300f10000237673
:0300f20000239c4c
:0300f3000023c126
:0300f4000023e7ff
:0300f50000240dd7
:0300f600002432b1
:0300f7000024588a
:0300f80000247d64
:0300f9000024a33d
:0300fa000024c916
:0300fb000024eef0
:0300fc00002514c8
:0300fd00002539a2
:0300fe0000255f7b
:0300ff0000258554
:030100000025aa2d
:030101000025d006
:030102000025f5e0
:0301030000261bb8
:0301040000264191
:030105000026666b
:0301060000268c44
:030107000026b11e
:030108000026d7f7
:030109000026fdd0
:03010a00002722a9
:03010b0000274882
:03010c0000276d5c
:03010d0000279335
:03010e000027b80f
:03010f000027dee8
:03011000002804c0
:030111000028299a
:0301120000284f73
:030113000028744d
:0301140000289a26
:030115000028c0ff
:030116000028e5d9
:0301170000290bb1
:030118000029308b
:0301190000295664
:03011a0000297b3e
:03011b000029a117
:03011c000029c7f0
:03011d000029ecca
:03011e00002a12a2
:03011f00002a377c
:03012000002a5d55
:03012100002a822f
:03012200002aa808
:03012300002acee1
:03012400002af3bb
:03012500002b1993
:03012600002b3e6d
:03012700002b6446
:03012800002b8920
:03012900002baff9
:03012a00002bd4d3
:03012b00002bfaac
:03012c00002c2084
:03012d00002c455e
:03012e00002c6b37
:03012f00002c9011
:03013000002cb6ea
:03013100002cdbc4
:03013200002d019c
:03013300002d2775
:03013400002d4c4f
:03013500002d7228
:03013600002d9702
:03013700002dbddb
:03013800002de2b5
:03013900002e088d
:03013a00002e2d67
:03013b00002e5340
:03013c00002e781a
:03013d00002e9ef3
:03013e00002ec4cc
:03013f00002ee9a6
:03014000002f0f7e
:03014100002f3458
:03014200002f5a31
:03014300002f7f0b
:03014400002fa5e4
:03014500002fcabe
:03014600002ff097
:0301470000301570
:0301480000303b49
:0301490000306023
:03014a00003086fc
:03014b000030abd6
:03014c000030d1af
:03014d000030f788
:03014e0000311c61
:03014f000031423a
:0301500000316714
:0301510000318ded
:030152000031b2c7
:030153000031d8a0
:030154000031fd7a
:0301550000322352
:030156000032482c
:0301570000326e05
:03015800003293df
:030159000032b9b8
:03015a000032de92
:03015b000033046a
:03015c0000332944
:03015d0000334f1d
:03015e00003374f7
:03015f0000339ad0
:030160000033bfaa
:030161000033e583
:0301620000340a5c
:0301630000343035
:030164000034550f
:0301650000347be8
:030166000034a0c2
:030167000034c69b
:030168000034eb75
:030169000035114d
:03016a0000353627
:03016b0000355c00
:03016c00003581da
:03016d000035a7b3
:03016e000035cc8d
:03016f000035f266
:030170000036173f
:0301710000363d18
:03017200003662f2
:03017300003688cb
:030174000036ada5
:030175000036d37e
:030176000036f858
:0301770000371e30
:030178000037430a
:03017900003769e3
:03017a0000378ebd
:03017b000037b496
:03017c000037d970
:03017d000037ff49
:03017e0000382422
:03017f00003849fc
:0301800000386fd5
:03018100003894af
:030182000038ba88
:030183000038df62
:030184000039053a
:0301850000392a14
:03018600003950ed
:03018700003975c7
:0301880000399ba0
:030189000039c07a
:03018a000039e653
:03018b00003a0b2c
:03018c00003a3006
:03018d00003a56df
:03018e00003a7bb9
:03018f00003aa192
:03019000003ac66c
:03019100003aec45
:03019200003b111e
:03019300003b37f7
:03019400003b5cd1
:03019500003b82aa
:03019600003ba784
:03019700003bcc5e
:03019800003bf237
:03019900003c1710
:03019a00003c3de9
:03019b00003c62c3
:03019c00003c889c
:03019d00003cad76
:03019e00003cd250
:03019f00003cf829
:0301a000003d1d02
:0301a100003d43db
:0301a200003d68b5
:0301a300003d8e8e
:0301a400003db368
:0301a500003dd842
:0301a600003dfe1b
:0301a700003e23f4
:0301a800003e49cd
:0301a900003e6ea7
:0301aa00003e9480
:0301ab00003eb95a
:0301ac00003ede34
:0301ad00003f040c
:0301ae00003f29e6
:0301af00003f4fbf
:0301b000003f7499
:0301b100003f9973
:0301b200003fbf4c
:0301b300003fe426
:0301b40000400afe
:0301b50000402fd8
:0301b600004054b2
:0301b70000407a8b
:0301b80000409f65
:0301b9000040c53e
:0301ba000040ea18
:0301bb0000410ff1
:0301bc00004135ca
:0301bd0000415aa4
:0301be000041807d
:0301bf000041a557
:0301c0000041ca31
:0301c1000041f00a
:0301c200004215e3
:0301c30000423bbc
:0301c40000426096
:0301c50000428570
:0301c6000042ab49
:0301c7000042d023
:0301c8000042f5fd
:0301c90000431bd5
:0301ca00004340af
:0301cb0000436688
:0301cc0000438b62
:0301cd000043b03c
:0301ce000043d615
:0301cf000043fbef
:0301d000004420c8
:0301d100004446a1
:0301d20000446b7b
:0301d30000449055
:0301d4000044b62e
:0301d5000044db08
:0301d600004501e0
:0301d700004526ba
:0301d80000454b94
:0301d9000045716d
:0301da0000459647
:0301db000045bb21
:0301dc000045e1fa
:0301dd00004606d3
:0301de0000462bad
:0301df0000465186
:0301e00000467660
:0301e10000469b3a
:0301e2000046c113
:0301e3000046e6ed
:0301e40000470bc6
:0301e5000047319f
:0301e60000475679
:0301e70000477b53
:0301e8000047a12c
:0301e9000047c606
:0301ea000047ebe0
:0301eb00004811b8
:0301ec0000483692
:0301ed0000485b6c
:0301ee0000488145
:0301ef000048a61f
:0301f0000048cbf9
:0301f1000048f1d2
:0301f200004916ab
:0301f30000493b85
:0301f4000049615e
:0301f50000498638
:0301f6000049ab12
:0301f7000049d0ec
:0301f8000049f6c5
:0301f900004a1b9e
:0301fa00004a4078
:0301fb00004a6651
:0301fc00004a8b2b
:0301fd00004ab005
:0301fe00004ad6de
:0301ff00004afbb8
:03020000004b2090
:03020100004b456a
:03020200004b6b43
:03020300004b901d
:03020400004bb5f7
:03020500004bdbd0
:03020600004c00a9
:03020700004c2583
:03020800004c4a5d
:03020900004c7036
:03020a00004c9510
:03020b00004cbaea
:03020c00004cdfc4
:03020d00004d059c
:03020e00004d2a76
:03020f00004d4f50
:03021000004d7529
:03021100004d9a03
:03021200004dbfdd
:03021300004de4b7
:03021400004e0a8f
:03021500004e2f69
:03021600004e5443
:03021700004e791d
:03021800004e9ff6
:03021900004ec4d0
:03021a00004ee9aa
:03021b00004f0e83
:03021c00004f345c
:03021d00004f5936
:03021e00004f7e10
:03021f00004fa3ea
:03022000004fc9c3
:03022100004fee9d
:0302220000501376
:0302230000503850
:0302240000505e29
:0302250000508303
:030226000050a8dd
:030227000050cdb7
:030228000050f291
:0302290000511869
:03022a0000513d43
:03022b000051621d
:03022c00005187f7
:03022d000051add0
:03022e000051d2aa
:03022f000051f784
:0302300000521c5d
:0302310000524137
:0302320000526710
:0302330000528cea
:030234000052b1c4
:030235000052d69e
:030236000052fb78
:0302370000532150
:030238000053462a
:0302390000536b04
:03023a00005390de
:03023b000053b5b8
:03023c000053db91
:03023d000054006a
:03023e0000542544
:03023f0000544a1e
:0302400000546ff8
:03024100005495d1
:030242000054baab
:030243000054df85
:030244000055045e
:0302450000552938
:0302460000554e12
:03024700005574eb
:03024800005599c5
:030249000055be9f
:03024a000055e379
:03024b0000560852
:03024c0000562d2c
:03024d0000565305
:03024e00005678df
:03024f0000569db9
:030250000056c293
:030251000056e76d
:0302520000570c46
:0302530000573120
:03025400005757f9
:0302550000577cd3
:030256000057a1ad
:030257000057c687
:030258000057eb61
:030259000058103a
:03025a0000583514
:03025b0000585bed
:03025c00005880c7
:03025d000058a5a1
:03025e000058ca7b
:03025f000058ef55
:030260000059142e
:0302610000593908
:0302620000595ee2
:03026300005984bb
:030264000059a995
:030265000059ce6f
:030266000059f349
:03026700005a1822
:03026800005a3dfc
:03026900005a62d6
:03026a00005a87b0
:03026b00005aac8a
:03026c00005ad263
:03026d00005af73d
:03026e00005b1c16
:03026f00005b41f0
:03027000005b66ca
:03027100005b8ba4
:03027200005bb07e
:03027300005bd558
:03027400005bfa32
:03027500005c1f0b
:03027600005c45e4
:03027700005c6abe
:03027800005c8f98
:03027900005cb472
:03027a00005cd94c
:03027b00005cfe26
:03027c00005d23ff
:03027d00005d48d9
:03027e00005d6db3
:03027f00005d928d
:03028000005db767
:03028100005ddc41
:03028200005e011a
:03028300005e26f4
:03028400005e4bce
:03028500005e71a7
:03028600005e9681
:03028700005ebb5b
:03028800005ee035
:03028900005f050e
:03028a00005f2ae8
:03028b00005f4fc2
:03028c00005f749c
:03028d00005f9976
:03028e00005fbe50
:03028f00005fe32a
:0302900000600803
:0302910000602ddd
:03029200006052b7
:0302930000607791
:0302940000609c6b
:030295000060c145
:030296000060e61f
:0302970000610bf8
:03029800006130d2
:03029900006155ac
:03029a0000617a86
:03029b0000619f60
:03029c000061c43a
:03029d000061e914
:03029e0000620eed
:03029f00006233c7
:0302a000006258a1
:0302a10000627d7b
:0302a2000062a255
:0302a3000062c72f
:0302a4000062ec09
:0302a500006311e2
:0302a600006336bc
:0302a70000635b96
:0302a80000638070
:0302a9000063a54a
:0302aa000063ca24
:0302ab000063effe
:0302ac00006414d7
:0302ad00006439b1
:0302ae0000645e8b
:0302af0000648365
:0302b0000064a83f
:0302b1000064cd19
:0302b2000064f2f3
:0302b300006517cc
:0302b40000653ca6
:0302b50000656180
:0302b6000065865a
:0302b7000065ab34
:0302b8000065cf0f
:0302b9000065f4e9
:0302ba00006619c2
:0302bb0000663e9c
:0302bc0000666376
:0302bd0000668850
:0302be000066ad2a
:0302bf000066d204
:0302c0000066f7de
:0302c10000671cb7
:0302c20000674191
:0302c3000067666b
:0302c40000678b45
:0302c5000067b01f
:0302c6000067d5f9
:0302c7000067f9d4
:0302c80000681ead
:0302c90000684387
:0302ca0000686861
:0302cb0000688d3b
:0302cc000068b215
:0302cd000068d7ef
:0302ce000068fcc9
:0302cf00006921a2
:0302d0000069467c
:0302d10000696a57
:0302d20000698f31
:0302d3000069b40b
:0302d4000069d9e5
:0302d5000069febf
:0302d600006a2398
:0302d700006a4872
:0302d800006a6d4c
:0302d900006a9226
:0302da00006ab601
:0302db00006adbdb
:0302dc00006b00b4
:0302dd00006b258e
:0302de00006b4a68
:0302df00006b6f42
:0302e000006b941c
:0302e100006bb8f7
:0302e200006bddd1
:0302e300006c02aa
:0302e400006c2784
:0302e500006c4c5e
:0302e600006c7138
:0302e700006c9612
:0302e800006cbaed
:0302e900006cdfc7
:0302ea00006d04a0
:0302eb00006d297a
:0302ec00006d4e54
:0302ed00006d732e
:0302ee00006d9709
:0302ef00006dbce3
:0302f000006de1bd
:0302f100006e0696
:0302f200006e2b70
:0302f300006e4f4b
:0302f400006e7425
:0302f500006e99ff
:0302f600006ebed9
:0302f700006ee3b3
:0302f800006f078d
:0302f900006f2c67
:0302fa00006f5141
:0302fb00006f761b
:0302fc00006f9bf5
:0302fd00006fbfd0
:0302fe00006fe4aa
:0302ff0000700983
:0303000000702e5c
:0303010000705336
:0303020000707711
:0303030000709ceb
:030304000070c1c5
:030305000070e69f
:0303060000710a79
:0303070000712f53
:030308000071542d
:0303090000717907
:03030a0000719ee1
:03030b000071c2bc
:03030c000071e796
:03030d0000720c6f
:03030e0000723149
:03030f0000725524
:0303100000727afe
:0303110000729fd8
:030312000072c4b2
:030313000072e88d
:0303140000730d66
:0303150000733240
:030316000073561b
:0303170000737bf5
:030318000073a0cf
:030319000073c5a9
:03031a000073e984
:03031b0000740e5d
:03031c0000743337
:03031d0000745811
:03031e0000747cec
:03031f000074a1c6
:030320000074c6a0
:030321000074ea7b
:0303220000750f54
:030323000075342e
:0303240000755809
:0303250000757de3
:030326000075a2bd
:030327000075c797
:030328000075eb72
:030329000076104b
:03032a0000763525
:03032b0000765900
:03032c0000767eda
:03032d000076a3b4
:03032e000076c78f
:03032f000076ec69
:0303300000771142
:030331000077351d
:0303320000775af7
:0303330000777fd1
:030334000077a3ac
:030335000077c886
:030336000077ed60
:030337000078113a
:0303380000783614
:0303390000785aef
:03033a0000787fc9
:03033b000078a4a3
:03033c000078c87e
:03033d000078ed58
:03033e0000791231
:03033f000079360c
:0303400000795be6
:03034100007980c0
:030342000079a49b
:030343000079c975
:030344000079ed50
:03034500007a1229
:03034600007a3703
:03034700007a5bde
:03034800007a80b8
:03034900007aa493
:03034a00007ac96d
:03034b00007aee47
:03034c00007b1221
:03034d00007b37fb
:03034e00007b5bd6
:03034f00007b80b0
:03035000007ba58a
:03035100007bc965
:03035200007bee3f
:03035300007c1219
:03035400007c37f3
:03035500007c5bce
:03035600007c80a8
:03035700007ca582
:03035800007cc95d
:03035900007cee37
:03035a00007d1211
:03035b00007d37eb
:03035c00007d5bc6
:03035d00007d80a0
:03035e00007da47b
:03035f00007dc955
:03036000007dee2f
:03036100007e1209
:03036200007e37e3
:03036300007e5bbe
:03036400007e8098
:03036500007ea473
:03036600007ec94d
:03036700007eed28
:03036800007f1201
:03036900007f36dc
:03036a00007f5bb6
:03036b00007f7f91
:03036c00007fa46b
:03036d00007fc846
:03036e00007fed20
:03036f00008011fa
:03037000008036d4
:0303710000805aaf
:0303720000807f89
:030373000080a364
:030374000080c83e
:030375000080ec19
:03037600008111f2
:03037700008135cd
:0303780000815aa7
:0303790000817e82
:03037a000081a35c
:03037b000081c737
:03037c000081ec11
:03037d00008210eb
:03037e00008235c5
:03037f00008259a0
:0303800000827d7b
:030381000082a255
:030382000082c630
:030383000082eb0a
:0303840000830fe4
:03038500008334be
:0303860000835899
:0303870000837d73
:030388000083a14e
:030389000083c529
:03038a000083ea03
:03038b0000840edd
:03038c00008433b7
:03038d0000845792
:03038e0000847c6c
:03038f000084a047
:030390000084c422
:030391000084e9fc
:0303920000850dd6
:03039300008532b0
:030394000085568b
:0303950000857a66
:0303960000859f40
:030397000085c31b
:030398000085e8f5
:0303990000860ccf
:03039a00008630aa
:03039b0000865584
:03039c000086795f
:03039d0000869d3a
:03039e000086c214
:03039f000086e6ef
:0303a00000870bc8
:0303a10000872fa3
:0303a2000087537e
:0303a30000877858
:0303a40000879c33
:0303a5000087c00e
:0303a6000087e5e8
:0303a700008809c2
:0303a80000882d9d
:0303a90000885277
:0303aa0000887652
:0303ab0000889a2d
:0303ac000088bf07
:0303ad000088e3e2
:0303ae00008907bc
:0303af0000892c96
:0303b00000895071
:0303b1000089744c
:0303b20000899926
:0303b3000089bd01
:0303b4000089e1dc
:0303b500008a06b5
:0303b600008a2a90
:0303b700008a4e6b
:0303b800008a7246
:0303b900008a9720
:0303ba00008abbfb
:0303bb00008adfd6
:0303bc00008b04af
:0303bd00008b288a
:0303be00008b4c65
:0303bf00008b7040
:0303c000008b951a
:0303c100008bb9f5
:0303c200008bddd0
:0303c300008c02a9
:0303c400008c2684
:0303c500008c4a5f
:0303c600008c6e3a
:0303c700008c9314
:0303c800008cb7ef
:0303c900008cdbca
:0303ca00008cffa5
:0303cb00008d247e
:0303cc00008d4859
:0303cd00008d6c34
:0303ce00008d900f
:0303cf00008db4ea
:0303d000008dd9c4
:0303d100008dfd9f
:0303d200008e2179
:0303d300008e4554
:0303d400008e6a2e
:0303d500008e8e09
:0303d600008eb2e4
:0303d700008ed6bf
:0303d800008efa9a
:0303d900008f1f73
:0303da00008f434e
:0303db00008f6729
:0303dc00008f8b04
:0303dd00008fafdf
:0303de00008fd4b9
:0303df00008ff894
:0303e00000901c6e
:0303e10000904049
:0303e20000906424
:0303e300009088ff
:0303e4000090add9
:0303e5000090d1b4
:0303e6000090f58f
:0303e70000911969
:0303e80000913d44
:0303e9000091611f
:0303ea00009185fa
:0303eb000091aad4
:0303ec000091ceaf
:0303ed000091f28a
:0303ee0000921664
:0303ef0000923a3f
:0303f00000925e1a
:0303f100009282f5
:0303f2000092a7cf
:0303f3000092cbaa
:0303f4000092ef85
:0303f5000093135f
:0303f6000093373a
:0303f70000935b15
:0303f80000937ff0
:0303f9000093a3cb
:0303fa000093c7a6
:0303fb000093eb81
:0303fc000094105a
:0303fd0000943435
:0303fe0000945810
:0303ff0000947ceb
:030400000094a0c5
:030401000094c4a0
:030402000094e87b
:0304030000950c55
:0304040000953030
:030405000095540b
:03040600009578e6
:0304070000959cc1
:030408000095c09c
:030409000095e477
:03040a0000960950
:03040b0000962d2b
:03040c0000965106
:03040d00009675e1
:03040e00009699bc
:03040f000096bd97
:030410000096e172
:030411000097054c
:0304120000972927
:0304130000974d02
:03041400009771dd
:03041500009795b8
:030416000097b993
:030417000097dd6e
:0304180000980148
:0304190000982523
:03041a00009849fe
:03041b0000986dd9
:03041c00009891b4
:03041d000098b58f
:03041e000098d96a
:03041f000098fd45
:030420000099211f
:03042100009945fa
:03042200009969d5
:0304230000998db0
:030424000099b18b
:030425000099d566
:030426000099f842
:03042700009a1c1c
:03042800009a40f7
:03042900009a64d2
:03042a00009a88ad
:03042b00009aac88
:03042c00009ad063
:03042d00009af43e
:03042e00009b1818
:03042f00009b3cf3
:03043000009b60ce
:03043100009b84a9
:03043200009ba884
:03043300009bcc5f
:03043400009bf03a
:03043500009c1315
:03043600009c37f0
:03043700009c5bcb
:03043800009c7fa6
:03043900009ca381
:03043a00009cc75c
:03043b00009ceb37
:03043c00009d0f11
:03043d00009d33ec
:03043e00009d56c8
:03043f00009d7aa3
:03044000009d9e7e
:03044100009dc259
:03044200009de634
:03044300009e0a0e
:03044400009e2ee9
:03044500009e51c5
:03044600009e75a0
:03044700009e997b
:03044800009ebd56
:03044900009ee131
:03044a00009f050b
:03044b00009f29e6
:03044c00009f4cc2
:03044d00009f709d
:03044e00009f9478
:03044f00009fb853
:03045000009fdc2e
:03045100009fff0a
:0304520000a023e4
:0304530000a047bf
:0304540000a06b9a
:0304550000a08f75
:0304560000a0b251
:0304570000a0d62c
:0304580000a0fa07
:0304590000a11ee1
:03045a0000a142bc
:03045b0000a16598
:03045c0000a18973
:03045d0000a1ad4e
:03045e0000a1d129
:03045f0000a1f405
:0304600000a218df
:0304610000a23cba
:0304620000a26095
:0304630000a28371
:0304640000a2a74c
:0304650000a2cb27
:0304660000a2ef02
:0304670000a312dd
:0304680000a336b8
:0304690000a35a93
:03046a0000a37e6e
:03046b0000a3a14a
:03046c0000a3c525
:03046d0000a3e900
:03046e0000a40dda
:03046f0000a430b6
:0304700000a45491
:0304710000a4786c
:0304720000a49b48
:0304730000a4bf23
:0304740000a4e3fe
:0304750000a506d9
:0304760000a52ab4
:0304770000a54e8f
:0304780000a5716b
:0304790000a59546
:03047a0000a5b921
:03047b0000a5dcfd
:03047c0000a600d7
:03047d0000a624b2
:03047e0000a6478e
:03047f0000a66b69
:0304800000a68f44
:0304810000a6b220
:0304820000a6d6fb
:0304830000a6fad6
:0304840000a71db1
:0304850000a7418c
:0304860000a76567
:0304870000a78843
:0304880000a7ac1e
:0304890000a7cffa
:03048a0000a7f3d5
:03048b0000a817af
:03048c0000a83a8b
:03048d0000a85e66
:03048e0000a88142
:03048f0000a8a51d
:0304900000a8c9f8
:0304910000a8ecd4
:0304920000a910ae
:0304930000a9338a
:0304940000a95765
:0304950000a97b40
:0304960000a99e1c
:0304970000a9c2f7
:0304980000a9e5d3
:0304990000aa09ad
:03049a0000aa2c89
:03049b0000aa5064
:03049c0000aa743f
:03049d0000aa971b
:03049e0000aabbf6
:03049f0000aaded2
:0304a00000ab02ac
:0304a10000ab2588
:0304a20000ab4963
:0304a30000ab6c3f
:0304a40000ab901a
:0304a50000abb3f6
:0304a60000abd7d1
:0304a70000abfaad
:0304a80000ac1e87
:0304a90000ac4163
:0304aa0000ac653e
:0304ab0000ac881a
:0304ac0000acacf5
:0304ad0000accfd1
:0304ae0000acf3ac
:0304af0000ad1687
:0304b00000ad3a62
:0304b10000ad5d3e
:0304b20000ad8119
:0304b30000ada4f5
:0304b40000adc8d0
:0304b50000adebac
:0304b60000ae0f86
:0304b70000ae3262
:0304b80000ae553e
:0304b90000ae7919
:0304ba0000ae9cf5
:0304bb0000aec0d0
:0304bc0000aee3ac
:0304bd0000af0786
:0304be0000af2a62
:0304bf0000af4d3e
:0304c00000af7119
:0304c10000af94f5
:0304c20000afb8d0
:0304c30000afdbac
:0304c40000afff87
:0304c50000b02262
:0304c60000b0453e
:0304c70000b06919
:0304c80000b08cf5
:0304c90000b0afd1
:0304ca0000b0d3ac
:0304cb0000b0f688
:0304cc0000b11a62
:0304cd0000b13d3e
:0304ce0000b1601a
:0304cf0000b184f5
:0304d00000b1a7d1
:0304d10000b1caad
:0304d20000b1ee88
:0304d30000b21163
:0304d40000b2343f
:0304d50000b2581a
:0304d60000b27bf6
:0304d70000b29ed2
:0304d80000b2c2ad
:0304d90000b2e589
:0304da0000b30864
:0304db0000b32c3f
:0304dc0000b34f1b
:0304dd0000b372f7
:0304de0000b396d2
:0304df0000b3b9ae
:0304e00000b3dc8a
:0304e10000b40064
:0304e20000b42340
:0304e30000b4461c
:0304e40000b469f8
:0304e50000b48dd3
:0304e60000b4b0af
:0304e70000b4d38b
:0304e80000b4f766
:0304e90000b51a41
:0304ea0000b53d1d
:0304eb0000b560f9
:0304ec0000b584d4
:0304ed0000b5a7b0
:0304ee0000b5ca8c
:0304ef0000b5ed68
:0304f00000b61142
:0304f10000b6341e
:0304f20000b657fa
:0304f30000b67ad6
:0304f40000b69db2
:0304f50000b6c18d
:0304f60000b6e469
:0304f70000b70744
:0304f80000b72a20
:0304f90000b74dfc
:0304fa0000b771d7
:0304fb0000b794b3
:0304fc0000b7b78f
:0304fd0000b7da6b
:0304fe0000b7fd47
:0304ff0000b82121
:0305000000b844fc
:0305010000b867d8
:0305020000b88ab4
:0305030000b8ad90
:0305040000b8d06c
:0305050000b8f447
:0305060000b91722
:0305070000b93afe
:0305080000b95dda
:0305090000b980b6
:03050a0000b9a392
:03050b0000b9c66e
:03050c0000b9ea49
:03050d0000ba0d24
:03050e0000ba3000
:03050f0000ba53dc
:0305100000ba76b8
:0305110000ba9994
:0305120000babc70
:0305130000badf4c
:0305140000bb0227
:0305150000bb2602
:0305160000bb49de
:0305170000bb6cba
:0305180000bb8f96
:0305190000bbb272
:03051a0000bbd54e
:03051b0000bbf82a
:03051c0000bc1b05
:03051d0000bc3ee1
:03051e0000bc61bd
:03051f0000bc8499
:0305200000bca775
:0305210000bcca51
:0305220000bced2d
:0305230000bd1008
:0305240000bd33e4
:0305250000bd56c0
:0305260000bd7a9b
:0305270000bd9d77
:0305280000bdc053
:0305290000bde32f
:03052a0000be060a
:03052b0000be29e6
:03052c0000be4cc2
:03052d0000be6f9e
:03052e0000be927a
:03052f0000beb556
:0305300000bed832
:0305310000befb0e
:0305320000bf1ee9
:0305330000bf40c6
:0305340000bf63a2
:0305350000bf867e
:0305360000bfa95a
:0305370000bfcc36
:0305380000bfef12
:0305390000c012ed
:03053a0000c035c9
:03053b0000c058a5
:03053c0000c07b81
:03053d0000c09e5d
:03053e0000c0c139
:03053f0000c0e415
:0305400000c107f0
:0305410000c12acc
:0305420000c14da8
:0305430000c16f85
:0305440000c19261
:0305450000c1b53d
:0305460000c1d819
:0305470000c1fbf5
:0305480000c21ed0
:0305490000c241ac
:03054a0000c26488
:03054b0000c28764
:03054c0000c2a941
:03054d0000c2cc1d
:03054e0000c2eff9
:03054f0000c312d4
:0305500000c335b0
:0305510000c3588c
:0305520000c37b68
:0305530000c39d45
:0305540000c3c021
:0305550000c3e3fd
:0305560000c406d8
:0305570000c429b4
:0305580000c44c90
:0305590000c46e6d
:03055a0000c49149
:03055b0000c4b425
:03055c0000c4d701
:03055d0000c4fadd
:03055e0000c51cb9
:03055f0000c53f95
:0305600000c56271
:0305610000c5854d
:0305620000c5a829
:0305630000c5ca06
:0305640000c5ede2
:0305650000c610bd
:0305660000c63399
:0305670000c65576
:0305680000c67852
:0305690000c69b2e
:03056a0000c6be0a
:03056b0000c6e0e7
:03056c0000c703c2
:03056d0000c7269e
:03056e0000c7497a
:03056f0000c76b57
:0305700000c78e33
:0305710000c7b10f
:0305720000c7d3ec
:0305730000c7f6c8
:0305740000c819a3
:0305750000c83c7f
:0305760000c85e5c
:0305770000c88138
:0305780000c8a414
:0305790000c8c6f1
:03057a0000c8e9cd
:03057b0000c90ca8
:03057c0000c92e85
:03057d0000c95161
:03057e0000c9743d
:03057f0000c9961a
:0305800000c9b9f6
:0305810000c9dcd2
:0305820000c9feaf
:0305830000ca218a
:0305840000ca4367
:0305850000ca6643
:0305860000ca891f
:0305870000caabfc
:0305880000caced8
:0305890000caf1b4
:03058a0000cb1390
:03058b0000cb366c
:03058c0000cb5849
:03058d0000cb7b25
:03058e0000cb9e01
:03058f0000cbc0de
:0305900000cbe3ba
:0305910000cc0596
:0305920000cc2872
:0305930000cc4a4f
:0305940000cc6d2b
:0305950000cc9007
:0305960000ccb2e4
:0305970000ccd5c0
:0305980000ccf79d
:0305990000cd1a78
:03059a0000cd3c55
:03059b0000cd5f31
:03059c0000cd810e
:03059d0000cda4ea
:03059e0000cdc6c7
:03059f0000cde9a3
:0305a00000ce0c7e
:0305a10000ce2e5b
:0305a20000ce5137
:0305a30000ce7314
:0305a40000ce96f0
:0305a50000ceb8cd
:0305a60000cedba9
:0305a70000cefd86
:0305a80000cf1f62
:0305a90000cf423e
:0305aa0000cf641b
:0305ab0000cf87f7
:0305ac0000cfa9d4
:0305ad0000cfccb0
:0305ae0000cfee8d
:0305af0000d01168
:0305b00000d03345
:0305b10000d05621
:0305b20000d078fe
:0305b30000d09adb
:0305b40000d0bdb7
:0305b50000d0df94
:0305b60000d1026f
:0305b70000d1244c
:0305b80000d14728
:0305b90000d16905
:0305ba0000d18be2
:0305bb0000d1aebe
:0305bc0000d1d09b
:0305bd0000d1f278
:0305be0000d21553
:0305bf0000d23730
:0305c00000d25a0c
:0305c10000d27ce9
:0305c20000d29ec6
:0305c30000d2c1a2
:0305c40000d2e37f
:0305c50000d3055b
:0305c60000d32837
:0305c70000d34a14
:0305c80000d36cf1
:0305c90000d38fcd
:0305ca0000d3b1aa
:0305cb0000d3d387
:0305cc0000d3f663
:0305cd0000d4183f
:0305ce0000d43a1c
:0305cf0000d45df8
:0305d00000d47fd5
:0305d10000d4a1b2
:0305d20000d4c48e
:0305d30000d4e66b
:0305d40000d50847
:0305d50000d52a24
:0305d60000d54d00
:0305d70000d56fdd
:0305d80000d591ba
:0305d90000d5b397
:0305da0000d5d673
:0305db0000d5f850
:0305dc0000d61a2c
:0305dd0000d63c09
:0305de0000d65fe5
:0305df0000d681c2
:0305e00000d6a39f
:0305e10000d6c57c
:0305e20000d6e858
:0305e30000d70a34
:0305e40000d72c11
:0305e50000d74eee
:0305e60000d770cb
:0305e70000d793a7
:0305e80000d7b584
:0305e90000d7d761
:0305ea0000d7f93e
:0305eb0000d81b1a
:0305ec0000d83ef6
:0305ed0000d860d3
:0305ee0000d882b0
:0305ef0000d8a48d
:0305f00000d8c66a
:0305f10000d8e847
:0305f20000d90b22
:0305f30000d92dff
:0305f40000d94fdc
:0305f50000d971b9
:0305f60000d99396
:0305f70000d9b573
:0305f80000d9d750
:0305f90000d9f92d
:0305fa0000da1c08
:0305fb0000da3ee5
:0305fc0000da60c2
:0305fd0000da829f
:0305fe0000daa47c
:0305ff0000dac659
:0306000000dae835
:0306010000db0a11
:0306020000db2cee
:0306030000db4ecb
:0306040000db70a8
:0306050000db9285
:0306060000dbb462
:0306070000dbd73e
:0306080000dbf91b
:0306090000dc1bf7
:03060a0000dc3dd4
:03060b0000dc5fb1
:03060c0000dc818e
:03060d0000dca36b
:03060e0000dcc548
:03060f0000dce725
:0306100000dd0901
:0306110000dd2bde
:0306120000dd4dbb
:0306130000dd6f98
:0306140000dd9175
:0306150000ddb352
:0306160000ddd52f
:0306170000ddf70c
:0306180000de19e8
:0306190000de3bc5
:03061a0000de5da2
:03061b0000de7f7f
:03061c0000dea05d
:03061d0000dec23a
:03061e0000dee417
:03061f0000df06f3
:0306200000df28d0
:0306210000df4aad
:0306220000df6c8a
:0306230000df8e67
:0306240000dfb044
:0306250000dfd221
:0306260000dff4fe
:0306270000e016da
:0306280000e038b7
:0306290000e05995
:03062a0000e07b72
:03062b0000e09d4f
:03062c0000e0bf2c
:03062d0000e0e109
:03062e0000e103e5
:03062f0000e125c2
:0306300000e146a0
:0306310000e1687d
:0306320000e18a5a
:0306330000e1ac37
:0306340000e1ce14
:0306350000e1f0f1
:0306360000e212cd
:0306370000e233ab
:0306380000e25588
:0306390000e27765
:03063a0000e29942
:03063b0000e2bb1f
:03063c0000e2dcfd
:03063d0000e2feda
:03063e0000e320b6
:03063f0000e34293
:0306400000e36470
:0306410000e3854e
:0306420000e3a72b
:0306430000e3c908
:0306440000e3ebe5
:0306450000e40cc2
:0306460000e42e9f
:0306470000e4507c
:0306480000e47259
:0306490000e49337
:03064a0000e4b514
:03064b0000e4d7f1
:03064c0000e4f9ce
:03064d0000e51aab
:03064e0000e53c88
:03064f0000e55e65
:0306500000e57f43
:0306510000e5a120
:0306520000e5c3fd
:0306530000e5e4db
:0306540000e606b7
:0306550000e62894
:0306560000e64972
:0306570000e66b4f
:0306580000e68d2c
:0306590000e6ae0a
:03065a0000e6d0e7
:03065b0000e6f2c4
:03065c0000e713a1
:03065d0000e7357e
:03065e0000e7575b
:03065f0000e77839
:0306600000e79a16
:0306610000e7bcf3
:0306620000e7ddd1
:0306630000e7ffae
:0306640000e8208b
:0306650000e84268
:0306660000e86445
:0306670000e88523
:0306680000e8a700
:0306690000e8c8de
:03066a0000e8eabb
:03066b0000e90b98
:03066c0000e92d75
:03066d0000e94f52
:03066e0000e97030
:03066f0000e9920d
:0306700000e9b3eb
:0306710000e9d5c8
:0306720000e9f6a6
:0306730000ea1882
:0306740000ea3960
:0306750000ea5b3d
:0306760000ea7c1b
:0306770000ea9ef8
:0306780000eabfd6
:0306790000eae1b3
:03067a0000eb0290
:03067b0000eb246d
:03067c0000eb454b
:03067d0000eb6728
:03067e0000eb8806
:03067f0000ebaae3
:0306800000ebcbc1
:0306810000ebed9e
:0306820000ec0e7b
:0306830000ec3058
:0306840000ec5136
:0306850000ec7313
:0306860000ec94f1
:0306870000ecb5cf
:0306880000ecd7ac
:0306890000ecf88a
:03068a0000ed1a66
:03068b0000ed3b44
:03068c0000ed5c22
:03068d0000ed7eff
:03068e0000ed9fdd
:03068f0000edc1ba
:0306900000ede298
:0306910000ee0375
:0306920000ee2552
:0306930000ee4630
:0306940000ee680d
:0306950000ee89eb
:0306960000eeaac9
:0306970000eecca6
:0306980000eeed84
:0306990000ef0e61
:03069a0000ef303e
:03069b0000ef511c
:03069c0000ef72fa
:03069d0000ef94d7
:03069e0000efb5b5
:03069f0000efd693
:0306a00000eff870
:0306a10000f0194d
:0306a20000f03a2b
:0306a30000f05b09
:0306a40000f07de6
:0306a50000f09ec4
:0306a60000f0bfa2
:0306a70000f0e17f
:0306a80000f1025c
:0306a90000f1233a
:0306aa0000f14418
:0306ab0000f166f5
:0306ac0000f187d3
:0306ad0000f1a8b1
:0306ae0000f1c98f
:0306af0000f1ea6d
:0306b00000f20c49
:0306b10000f22d27
:0306b20000f24e05
:0306b30000f26fe3
:0306b40000f291c0
:0306b50000f2b29e
:0306b60000f2d37c
:0306b70000f2f45a
:0306b80000f31537
:0306b90000f33615
:0306ba0000f358f2
:0306bb0000f379d0
:0306bc0000f39aae
:0306bd0000f3bb8c
:0306be0000f3dc6a
:0306bf0000f3fd48
:0306c00000f41f24
:0306c10000f44002
:0306c20000f461e0
:0306c30000f482be
:0306c40000f4a39c
:0306c50000f4c47a
:0306c60000f4e558
:0306c70000f50635
:0306c80000f52713
:0306c90000f549f0
:0306ca0000f56ace
:0306cb0000f58bac
:0306cc0000f5ac8a
:0306cd0000f5cd68
:0306ce0000f5ee46
:0306cf0000f60f23
:0306d00000f63001
:0306d10000f651df
:0306d20000f672bd
:0306d30000f6939b
:0306d40000f6b479
:0306d50000f6d557
:0306d60000f6f635
:0306d70000f71712
:0306d80000f738f0
:0306d90000f759ce
:0306da0000f77aac
:0306db0000f79b8a
:0306dc0000f7bc68
:0306dd0000f7dd46
:0306de0000f7fe24
:0306df0000f81f01
:0306e00000f840df
:0306e10000f861bd
:0306e20000f8829b
:0306e30000f8a379
:0306e40000f8c457
:0306e50000f8e535
:0306e60000f90612
:0306e70000f927f0
:0306e80000f948ce
:0306e90000f969ac
:0306ea0000f98a8a
:0306eb0000f9ab68
:0306ec0000f9cc46
:0306ed0000f9ec25
:0306ee0000fa0d02
:0306ef0000fa2ee0
:0306f00000fa4fbe
:0306f10000fa709c
:0306f20000fa917a
:0306f30000fab258
:0306f40000fad336
:0306f50000faf414
:0306f60000fb14f2
:0306f70000fb35d0
:0306f80000fb56ae
:0306f90000fb778c
:0306fa0000fb986a
:0306fb0000fbb948
:0306fc0000fbd927
:0306fd0000fbfa05
:0306fe0000fc1be2
:0306ff0000fc3cc0
:0307000000fc5d9d
:0307010000fc7d7c
:0307020000fc9e5a
:0307030000fcbf38
:0307040000fce016
:0307050000fd01f3
:0307060000fd21d2
:0307070000fd42b0
:0307080000fd638e
:0307090000fd846c
:03070a0000fda44b
:03070b0000fdc529
:03070c0000fde607
:03070d0000fe07e4
:03070e0000fe27c3
:03070f0000fe48a1
:0307100000fe697f
:0307110000fe8a5d
:0307120000feaa3c
:0307130000fecb1a
:0307140000feecf8
:0307150000ff0cd6
:0307160000ff2db4
:0307170000ff4e92
:0307180000ff6e71
:0307190000ff8f4f
:03071a0000ffb02d
:03071b0000ffd00c
:03071c0000fff1ea
:03071d00010012c6
:03071e00010032a5
:03071f0001005383
:0307200001007461
:0307210001009440
:030722000100b51e
:030723000100d5fd
:030724000100f6db
:03072500010117b8
:0307260001013797
:0307270001015875
:0307280001017854
:0307290001019932
:03072a000101ba10
:03072b000101daef
:03072c000101fbcd
:03072d0001021bab
:03072e0001023c89
:03072f0001025c68
:0307300001027d46
:0307310001029d25
:030732000102be03
:030733000102dfe1
:030734000102ffc0
:030735000103209d
:030736000103407c
:030737000103615a
:0307380001038139
:030739000103a217
:03073a000103c2f6
:03073b000103e3d4
:03073c00010403b2
:03073d0001042391
:03073e000104446f
:03073f000104644e
:030740000104852c
:030741000104a50b
:030742000104c6e9
:030743000104e6c8
:03074400010507a5
:0307450001052784
:0307460001054763
:0307470001056841
:0307480001058820
:030749000105a9fe
:03074a000105c9dd
:03074b000105eabb
:03074c0001060a99
:03074d0001062a78
:03074e0001064b56
:03074f0001066b35
:0307500001068b14
:030751000106acf2
:030752000106ccd1
:030753000106ecb0
:0307540001070d8d
:0307550001072d6c
:0307560001074e4a
:0307570001076e29
:0307580001078e08
:030759000107aee7
:03075a000107cfc5
:03075b000107efa4
:03075c0001080f82
:03075d0001083060
:03075e000108503f
:03075f000108701e
:03076000010891fc
:030761000108b1db
:030762000108d1ba
:030763000108f199
:0307640001091276
:0307650001093255
:0307660001095234
:0307670001097213
:03076800010993f1
:030769000109b3d0
:03076a000109d3af
:03076b000109f38e
:03076c00010a136c
:03076d00010a344a
:03076e00010a5429
:03076f00010a7408
:03077000010a94e7
:03077100010ab4c6
:03077200010ad5a4
:03077300010af583
:03077400010b1561
:03077500010b3540
:03077600010b551f
:03077700010b75fe
:03077800010b96dc
:03077900010bb6bb
:03077a00010bd69a
:03077b00010bf679
:03077c00010c1657
:03077d00010c3636
:03077e00010c5615
:03077f00010c76f4
:03078000010c96d3
:03078100010cb7b1
:03078200010cd790
:03078300010cf76f
:03078400010d174d
:03078500010d372c
:03078600010d570b
:03078700010d77ea
:03078800010d97c9
:03078900010db7a8
:03078a00010dd787
:03078b00010df766
:03078c00010e1744
:03078d00010e3723
:03078e00010e5702
:03078f00010e77e1
:03079000010e97c0
:03079100010eb79f
:03079200010ed77e
:03079300010ef75d
:03079400010f173b
:03079500010f371a
:03079600010f57f9
:03079700010f77d8
:03079800010f97b7
:03079900010fb796
:03079a00010fd775
:03079b00010ff754
:03079c0001101732
:03079d0001103711
:03079e00011057f0
:03079f00011077cf
:0307a000011097ae
:0307a1000110b78d
:0307a2000110d66d
:0307a3000110f64c
:0307a4000111162a
:0307a50001113609
:0307a600011156e8
:0307a700011176c7
:0307a800011196a6
:0307a9000111b685
:0307aa000111d565
:0307ab000111f544
:0307ac0001121522
:0307ad0001123501
:0307ae00011255e0
:0307af00011275bf
:0307b0000112949f
:0307b1000112b47e
:0307b2000112d45d
:0307b3000112f43c
:0307b4000113141a
:0307b500011333fa
:0307b600011353d9
:0307b700011373b8
:0307b80001139397
:0307b9000113b376
:0307ba000113d256
:0307bb000113f235
:0307bc0001141213
:0307bd00011432f2
:0307be00011451d2
:0307bf00011471b1
:0307c00001149190
:0307c1000114b16f
:0307c2000114d04f
:0307c3000114f02e
:0307c4000115100c
:0307c50001152fec
:0307c60001154fcb
:0307c70001156faa
:0307c80001158e8a
:0307c9000115ae69
:0307ca000115ce48
:0307cb000115ed28
:0307cc0001160d06
:0307cd0001162de5
:0307ce0001164cc5
:0307cf0001166ca4
:0307d00001168c83
:0307d1000116ab63
:0307d2000116cb42
:0307d3000116eb21
:0307d40001170a00
:0307d50001172adf
:0307d600011749bf
:0307d7000117699e
:0307d8000117897d
:0307d9000117a85d
:0307da000117c83c
:0307db000117e71c
:0307dc00011807fa
:0307dd00011826da
:0307de00011846b9
:0307df0001186599
:0307e00001188578
:0307e1000118a557
:0307e2000118c437
:0307e3000118e416
:0307e400011903f5
:0307e500011923d4
:0307e600011942b4
:0307e70001196293
:0307e80001198173
:0307e9000119a152
:0307ea000119c032
:0307eb000119e011
:0307ec000119fff1
:0307ed00011a1ed0
:0307ee00011a3eaf
:0307ef00011a5d8f
:0307f000011a7d6e
:0307f100011a9c4e
:0307f200011abc2d
:0307f300011adb0d
:0307f400011afbec
:0307f500011b1acb
:0307f600011b39ab
:0307f700011b598a
:0307f800011b786a
:0307f900011b9849
:0307fa00011bb729
:0307fb00011bd609
:0307fc00011bf6e8
:0307fd00011c15c7
:0307fe00011c34a7
:0307ff00011c5486
:03080000011c7365
:03080100011c9245
:03080200011cb224
:03080300011cd104
:03080400011cf0e4
:03080500011d10c2
:03080600011d2fa2
:03080700011d4e82
:03080800011d6e61
:03080900011d8d41
:03080a00011dac21
:03080b00011dcc00
:03080c00011debe0
:03080d00011e0abf
:03080e00011e299f
:03080f00011e497e
:03081000011e685e
:03081100011e873e
:03081200011ea61e
:03081300011ec6fd
:03081400011ee5dd
:03081500011f04bc
:03081600011f239c
:03081700011f427c
:03081800011f625b
:03081900011f813b
:03081a00011fa01b
:03081b00011fbffb
:03081c00011fdedb
:03081d00011ffeba
:03081e0001201d99
:03081f0001203c79
:0308200001205b59
:0308210001207a39
:0308220001209919
:030823000120b9f8
:030824000120d8d8
:030825000120f7b8
:0308260001211697
:0308270001213577
:0308280001215457
:0308290001217337
:03082a0001219217
:03082b000121b1f7
:03082c000121d0d7
:03082d000121f0b6
:03082e0001220f95
:03082f0001222e75
:0308300001224d55
:0308310001226c35
:0308320001228b15
:030833000122aaf5
:030834000122c9d5
:030835000122e8b5
:0308360001230794
:0308370001232674
:0308380001234554
:0308390001236434
:03083a0001238314
:03083b000123a2f4
:03083c000123c1d4
:03083d000123e0b4
:03083e000123ff94
:03083f0001241e73
:0308400001243d53
:0308410001245c33
:0308420001247b13
:0308430001249af3
:030844000124b9d3
:030845000124d7b4
:030846000124f694
:0308470001251573
:0308480001253453
:0308490001255333
:03084a0001257213
:03084b00012591f3
:03084c000125b0d3
:03084d000125cfb3
:03084e000125ee93
:03084f0001260c73
:0308500001262b53
:0308510001264a33
:0308520001266913
:03085300012688f3
:030854000126a7d3
:030855000126c5b4
:030856000126e494
:0308570001270373
:0308580001272253
:0308590001274133
:03085a0001276013
:03085b0001277ef4
:03085c0001279dd4
:03085d000127bcb4
:03085e000127db94
:03085f000127f975
:0308600001281854
:0308610001283734
:0308620001285614
:03086300012874f5
:03086400012893d5
:030865000128b2b5
:030866000128d195
:030867000128ef76
:0308680001290e55
:0308690001292d35
:03086a0001294b16
:03086b0001296af6
:03086c00012989d6
:03086d000129a7b7
:03086e000129c697
:03086f000129e577
:03087000012a0357
:03087100012a2237
:03087200012a4117
:03087300012a5ff8
:03087400012a7ed8
:03087500012a9db8
:03087600012abb99
:03087700012ada79
:03087800012af85a
:03087900012b1739
:03087a00012b3619
:03087b00012b54fa
:03087c00012b73da
:03087d00012b91bb
:03087e00012bb09b
:03087f00012bcf7b
:03088000012bed5c
:03088100012c0c3b
:03088200012c2a1c
:03088300012c49fc
:03088400012c67dd
:03088500012c86bd
:03088600012ca49e
:03088700012cc37e
:03088800012ce15f
:03088900012d003e
:03088a00012d1e1f
:03088b00012d3dff
:03088c00012d5be0
:03088d00012d7ac0
:03088e00012d98a1
:03088f00012db781
:03089000012dd562
:03089100012df442
:03089200012e1222
:03089300012e3003
:03089400012e4fe3
:03089500012e6dc4
:03089600012e8ca4
:03089700012eaa85
:03089800012ec965
:03089900012ee746
:03089a00012f0526
:03089b00012f2406
:03089c00012f42e7
:03089d00012f60c8
:03089e00012f7fa8
:03089f00012f9d89
:0308a000012fbc69
:0308a100012fda4a
:0308a200012ff82b
:0308a3000130170a
:0308a400013035eb
:0308a500013053cc
:0308a600013072ac
:0308a7000130908d
:0308a8000130ae6e
:0308a9000130cc4f
:0308aa000130eb2f
:0308ab000131090f
:0308ac00013127f0
:0308ad00013146d0
:0308ae00013164b1
:0308af0001318292
:0308b0000131a073
:0308b1000131bf53
:0308b2000131dd34
:0308b3000131fb15
:0308b400013219f5
:0308b500013237d6
:0308b600013256b6
:0308b70001327497
:0308b80001329278
:0308b9000132b059
:0308ba000132ce3a
:0308bb000132ed1a
:0308bc0001330bfa
:0308bd00013329db
:0308be00013347bc
:0308bf000133659d
:0308c0000133837e
:0308c1000133a25e
:0308c2000133c03f
:0308c3000133de20
:0308c4000133fc01
:0308c50001341ae1
:0308c600013438c2
:0308c700013456a3
:0308c80001347484
:0308c90001349265
:0308ca000134b046
:0308cb000134cf26
:0308cc000134ed07
:0308cd0001350be7
:0308ce00013529c8
:0308cf00013547a9
:0308d0000135658a
:0308d1000135836b
:0308d2000135a14c
:0308d3000135bf2d
:0308d4000135dd0e
:0308d5000135fbef
:0308d600013619cf
:0308d700013637b0
:0308d80001365591
:0308d90001367372
:0308da0001369153
:0308db000136af34
:0308dc000136cd15
:0308dd000136ebf6
:0308de00013709d6
:0308df00013727b7
:0308e00001374598
:0308e10001376379
:0308e2000137805b
:0308e30001379e3c
:0308e4000137bc1d
:0308e5000137dafe
:0308e6000137f8df
:0308e700013816bf
:0308e800013834a0
:0308e90001385281
:0308ea0001387062
:0308eb0001388d44
:0308ec000138ab25
:0308ed000138c906
:0308ee000138e7e7
:0308ef00013905c7
:0308f000013923a8
:0308f1000139408a
:0308f20001395e6b
:0308f30001397c4c
:0308f40001399a2d
:0308f5000139b80e
:0308f6000139d5f0
:0308f7000139f3d1
:0308f800013a11b1
:0308f900013a2f92
:0308fa00013a4d73
:0308fb00013a6a55
:0308fc00013a8836
:0308fd00013aa617
:0308fe00013ac4f8
:0308ff00013ae1da
:03090000013affba
:03090100013b1d9a
:03090200013b3a7c
:03090300013b585d
:03090400013b763e
:03090500013b941f
:03090600013bb101
:03090700013bcfe2
:03090800013bedc3
:03090900013c0aa4
:03090a00013c2885
:03090b00013c4666
:03090c00013c6348
:03090d00013c8129
:03090e00013c9e0b
:03090f00013cbcec
:03091000013cdacd
:03091100013cf7af
:03091200013d158f
:03091300013d3271
:03091400013d5052
:03091500013d6e33
:03091600013d8b15
:03091700013da9f6
:03091800013dc6d8
:03091900013de4b9
:03091a00013e019a
:03091b00013e1f7b
:03091c00013e3d5c
:03091d00013e5a3e
:03091e00013e781f
:03091f00013e9501
:03092000013eb3e2
:03092100013ed0c4
:03092200013eeea5
:03092300013f0b86
:03092400013f2967
:03092500013f4649
:03092600013f642a
:03092700013f810c
:03092800013f9eee
:03092900013fbccf
:03092a00013fd9b1
:03092b00013ff792
:03092c0001401473
:03092d0001403254
:03092e0001404f36
:03092f0001406c18
:0309300001408af9
:030931000140a7db
:030932000140c5bc
:030933000140e29e
:030934000140ff80
:0309350001411d60
:0309360001413a42
:0309370001415724
:0309380001417505
:03093900014192e7
:03093a000141afc9
:03093b000141cdaa
:03093c000141ea8c
:03093d000142076d
:03093e000142254e
:03093f0001424230
:0309400001425f12
:0309410001427df3
:0309420001429ad5
:030943000142b7b7
:030944000142d499
:030945000142f27a
:0309460001430f5b
:0309470001432c3d
:030948000143491f
:0309490001436700
:03094a00014384e2
:03094b000143a1c4
:03094c000143bea6
:03094d000143db88
:03094e000143f969
:03094f000144164a
:030950000144332c
:030951000144500e
:0309520001446df0
:0309530001448bd1
:030954000144a8b3
:030955000144c595
:030956000144e277
:030957000144ff59
:0309580001451c3a
:030959000145391c
:03095a00014556fe
:03095b00014574df
:03095c00014591c1
:03095d000145aea3
:03095e000145cb85
:03095f000145e867
:0309600001460548
:030961000146222a
:0309620001463f0c
:0309630001465cee
:03096400014679d0
:03096500014696b2
:030966000146b394
:030967000146d076
:030968000146ed58
:0309690001470a39
:03096a000147271b
:03096b00014744fd
:03096c00014761df
:03096d0001477ec1
:03096e0001479ba3
:03096f000147b885
:030970000147d567
:030971000147f249
:0309720001480f2a
:0309730001482c0c
:03097400014849ee
:03097500014866d0
:03097600014883b2
:030977000148a094
:030978000148bd76
:030979000148da58
:03097a000148f63b
:03097b000149131c
:03097c00014930fe
:03097d0001494de0
:03097e0001496ac2
:03097f00014987a4
:030980000149a486
:030981000149c069
:030982000149dd4b
:030983000149fa2d
:03098400014a170e
:03098500014a34f0
:03098600014a51d2
:03098700014a6db5
:03098800014a8a97
:03098900014aa779
:03098a00014ac45b
:03098b00014ae13d
:03098c00014afd20
:03098d00014b1a01
:03098e00014b37e3
:03098f00014b54c5
:03099000014b70a8
:03099100014b8d8a
:03099200014baa6c
:03099300014bc64f
:03099400014be331
:03099500014c0012
:03099600014c1df4
:03099700014c39d7
:03099800014c56b9
:03099900014c739b
:03099a00014c8f7e
:03099b00014cac60
:03099c00014cc942
:03099d00014ce525
:03099e00014d0206
:03099f00014d1fe8
:0309a000014d3bcb
:0309a100014d58ad
:0309a200014d7490
:0309a300014d9172
:0309a400014dae54
:0309a500014dca37
:0309a600014de719
:0309a700014e03fb
:0309a800014e20dd
:0309a900014e3cc0
:0309aa00014e59a2
:0309ab00014e7684
:0309ac00014e9267
:0309ad00014eaf49
:0309ae00014ecb2c
:0309af00014ee80e
:0309b000014f04f0
:0309b100014f21d2
:0309b200014f3db5
:0309b300014f5a97
:0309b400014f767a
:0309b500014f935c
:0309b600014faf3f
:0309b700014fcc21
:0309b800014fe804
:0309b900015004e6
:0309ba00015021c8
:0309bb0001503dab
:0309bc0001505a8d
:0309bd0001507670
:0309be0001509352
:0309bf000150af35
:0309c0000150cb18
:0309c1000150e8fa
:0309c200015104dc
:0309c300015121be
:0309c40001513da1
:0309c50001515984
:0309c60001517666
:0309c70001519249
:0309c8000151ae2c
:0309c9000151cb0e
:0309ca000151e7f1
:0309cb00015203d3
:0309cc00015220b5
:0309cd0001523c98
:0309ce000152587b
:0309cf000152745e
:0309d00001529140
:0309d1000152ad23
:0309d2000152c906
:0309d3000152e6e8
:0309d400015302ca
:0309d50001531ead
:0309d60001533a90
:0309d70001535772
:0309d80001537355
:0309d90001538f38
:0309da000153ab1b
:0309db000153c7fe
:0309dc000153e4e0
:0309dd00015400c2
:0309de0001541ca5
:0309df0001543888
:0309e0000154546b
:0309e1000154704e
:0309e20001548d30
:0309e3000154a913
:0309e4000154c5f6
:0309e5000154e1d9
:0309e6000154fdbc
:0309e7000155199e
:0309e80001553581
:0309e90001555263
:0309ea0001556e46
:0309eb0001558a29
:0309ec000155a60c
:0309ed000155c2ef
:0309ee000155ded2
:0309ef000155fab5
:0309f00001561697
:0309f1000156327a
:0309f20001564e5d
:0309f30001566a40
:0309f40001568623
:0309f5000156a206
:0309f6000156bee9
:0309f7000156dacc
:0309f8000156f6af
:0309f90001571291
:0309fa0001572e74
:0309fb0001574a57
:0309fc000157663a
:0309fd000157821d
:0309fe0001579e00
:0309ff000157bae3
:030a00000157d6c5
:030a01000157f2a8
:030a020001580e8a
:030a030001582a6d
:030a040001584650
:030a050001586134
:030a060001587d17
:030a0700015899fa
:030a08000158b5dd
:030a09000158d1c0
:030a0a000158eda3
:030a0b0001590985
:030a0c0001592568
:030a0d000159404c
:030a0e0001595c2f
:030a0f0001597812
:030a1000015994f5
:030a11000159b0d8
:030a12000159ccbb
:030a13000159e79f
:030a1400015a0381
:030a1500015a1f64
:030a1600015a3b47
:030a1700015a562b
:030a1800015a720e
:030a1900015a8ef1
:030a1a00015aaad4
:030a1b00015ac5b8
:030a1c00015ae19b
:030a1d00015afd7e
:030a1e00015b1960
:030a1f00015b3444
:030a2000015b5027
:030a2100015b6c0a
:030a2200015b87ee
:030a2300015ba3d1
:030a2400015bbfb4
:030a2500015bda98
:030a2600015bf67b
:030a2700015c125d
:030a2800015c2d41
:030a2900015c4924
:030a2a00015c6507
:030a2b00015c80eb
:030a2c00015c9cce
:030a2d00015cb7b2
:030a2e00015cd395
:030a2f00015cef78
:030a3000015d0a5b
:030a3100015d263e
:030a3200015d4122
:030a3300015d5d05
:030a3400015d79e8
:030a3500015d94cc
:030a3600015db0af
:030a3700015dcb93
:030a3800015de776
:030a3900015e0259
:030a3a00015e1e3c
:030a3b00015e3920
:030a3c00015e5503
:030a3d00015e70e7
:030a3e00015e8cca
:030a3f00015ea7ae
:030a4000015ec391
:030a4100015ede75
:030a4200015efa58
:030a4300015f153b
:030a4400015f301f
:030a4500015f4c02
:030a4600015f67e6
:030a4700015f83c9
:030a4800015f9ead
:030a4900015fb991
:030a4a00015fd574
:030a4b00015ff058
:030a4c0001600c3a
:030a4d000160271e
:030a4e0001604202
:030a4f0001605ee5
:030a5000016079c9
:030a5100016094ad
:030a52000160b090
:030a53000160cb74
:030a54000160e658
:030a55000161023a
:030a560001611d1e
:030a570001613802
:030a5800016154e5
:030a590001616fc9
:030a5a0001618aad
:030a5b000161a591
:030a5c000161c174
:030a5d000161dc58
:030a5e000161f73c
:030a5f000162121f
:030a600001622e02
:030a6100016249e6
:030a6200016264ca
:030a630001627fae
:030a640001629a92
:030a65000162b675
:030a66000162d159
:030a67000162ec3d
:030a680001630720
:030a690001632204
:030a6a0001633de8
:030a6b00016359cb
:030a6c00016374af
:030a6d0001638f93
:030a6e000163aa77
:030a6f000163c55b
:030a70000163e03f
:030a71000163fb23
:030a720001641606
:030a7300016431ea
:030a740001644dcd
:030a7500016468b1
:030a760001648395
:030a770001649e79
:030a78000164b95d
:030a79000164d441
:030a7a000164ef25
:030a7b0001650a08
:030a7c00016525ec
:030a7d00016540d0
:030a7e0001655bb4
:030a7f0001657698
:030a80000165917c
:030a81000165ac60
:030a82000165c744
:030a83000165e228
:030a84000165fd0c
:030a8500016618ef
:030a8600016633d3
:030a870001664eb7
:030a88000166689c
:030a890001668380
:030a8a0001669e64
:030a8b000166b948
:030a8c000166d42c
:030a8d000166ef10
:030a8e0001670af3
:030a8f00016725d7
:030a9000016740bb
:030a910001675aa0
:030a920001677584
:030a930001679068
:030a94000167ab4c
:030a95000167c630
:030a96000167e114
:030a97000167fbf9
:030a9800016816dc
:030a9900016831c0
:030a9a0001684ca4
:030a9b0001686788
:030a9c000168816d
:030a9d0001689c51
:030a9e000168b735
:030a9f000168d219
:030aa0000168ecfe
:030aa100016907e1
:030aa200016922c5
:030aa30001693da9
:030aa4000169578e
:030aa50001697272
:030aa60001698d56
:030aa7000169a73b
:030aa8000169c21f
:030aa9000169dd03
:030aaa000169f7e8
:030aab00016a12cb
:030aac00016a2daf
:030aad00016a4794
:030aae00016a6278
:030aaf00016a7d5c
:030ab000016a9741
:030ab100016ab225
:030ab200016acc0a
:030ab300016ae7ee
:030ab400016b02d1
:030ab500016b1cb6
:030ab600016b379a
:030ab700016b517f
:030ab800016b6c63
:030ab900016b8648
:030aba00016ba12c
:030abb00016bbc10
:030abc00016bd6f5
:030abd00016bf1d9
:030abe00016c0bbd
:030abf00016c26a1
:030ac000016c4086
:030ac100016c5b6a
:030ac200016c754f
:030ac300016c9033
:030ac400016caa18
:030ac500016cc4fd
:030ac600016cdfe1
:030ac700016cf9c6
:030ac800016d14a9
:030ac900016d2e8e
:030aca00016d4972
:030acb00016d6357
:030acc00016d7d3c
:030acd00016d9820
:030ace00016db205
:030acf00016dcde9
:030ad000016de7ce
:030ad100016e01b2
:030ad200016e1c96
:030ad300016e367b
:030ad400016e5060
:030ad500016e6b44
:030ad600016e8529
:030ad700016e9f0e
:030ad800016ebaf2
:030ad900016ed4d7
:030ada00016eeebc
:030adb00016f099f
:030adc00016f2384
:030add00016f3d69
:030ade00016f574e
:030adf00016f7232
:030ae000016f8c17
:030ae100016fa6fc
:030ae200016fc0e1
:030ae300016fdbc5
:030ae400016ff5aa
:030ae50001700f8e
:030ae60001702973
:030ae70001704358
:030ae80001705e3c
:030ae90001707821
:030aea0001709206
:030aeb000170aceb
:030aec000170c6d0
:030aed000170e0b5
:030aee000170fb99
:030aef000171157d
:030af00001712f62
:030af10001714947
:030af2000171632c
:030af30001717d11
:030af400017197f6
:030af5000171b1db
:030af6000171cbc0
:030af7000171e6a4
:030af80001720088
:030af90001721a6d
:030afa0001723452
:030afb0001724e37
:030afc000172681c
:030afd0001728201
:030afe0001729ce6
:030aff000172b6cb
:030b00000172d0af
:030b01000172ea94
:030b020001730478
:030b030001731e5d
:030b040001733842
:030b050001735227
:030b060001736c0c
:030b0700017386f1
:030b080001739fd7
:030b09000173b9bc
:030b0a000173d3a1
:030b0b000173ed86
:030b0c000174076a
:030b0d000174214f
:030b0e0001743b34
:030b0f0001745519
:030b100001746ffe
:030b1100017489e3
:030b12000174a2c9
:030b13000174bcae
:030b14000174d693
:030b15000174f078
:030b160001750a5c
:030b170001752441
:030b180001753d27
:030b19000175570c
:030b1a00017571f1
:030b1b0001758bd6
:030b1c000175a5bb
:030b1d000175bea1
:030b1e000175d886
:030b1f000175f26b
:030b200001760c4f
:030b210001762535
:030b220001763f1a
:030b2300017659ff
:030b2400017672e5
:030b250001768cca
:030b26000176a6af
:030b27000176c094
:030b28000176d97a
:030b29000176f35f
:030b2a0001770d43
:030b2b0001772629
:030b2c000177400e
:030b2d0001775af3
:030b2e00017773d9
:030b2f0001778dbe
:030b30000177a6a4
:030b31000177c089
:030b32000177da6e
:030b33000177f354
:030b340001780d38
:030b35000178261e
:030b360001784003
:030b370001785ae8
:030b3800017873ce
:030b390001788db3
:030b3a000178a699
:030b3b000178c07e
:030b3c000178d964
:030b3d000178f349
:030b3e0001790c2e
:030b3f0001792613
:030b400001793ff9
:030b4100017959de
:030b4200017972c4
:030b430001798ca9
:030b44000179a58f
:030b45000179bf74
:030b46000179d85a
:030b47000179f23f
:030b4800017a0b24
:030b4900017a240a
:030b4a00017a3eef
:030b4b00017a57d5
:030b4c00017a71ba
:030b4d00017a8aa0
:030b4e00017aa386
:030b4f00017abd6b
:030b5000017ad651
:030b5100017aef37
:030b5200017b091b
:030b5300017b2201
:030b5400017b3be7
:030b5500017b55cc
:030b5600017b6eb2
:030b5700017b8798
:030b5800017ba17d
:030b5900017bba63
:030b5a00017bd349
:030b5b00017bed2e
:030b5c00017c0613
:030b5d00017c1ff9
:030b5e00017c38df
:030b5f00017c52c4
:030b6000017c6baa
:030b6100017c8490
:030b6200017c9d76
:030b6300017cb65c
:030b6400017cd041
:030b6500017ce927
:030b6600017d020c
:030b6700017d1bf2
:030b6800017d34d8
:030b6900017d4ebd
:030b6a00017d67a3
:030b6b00017d8089
:030b6c00017d996f
:030b6d00017db255
:030b6e00017dcb3b
:030b6f00017de421
:030b7000017dfd07
:030b7100017e17eb
:030b7200017e30d1
:030b7300017e49b7
:030b7400017e629d
:030b7500017e7b83
:030b7600017e9469
:030b7700017ead4f
:030b7800017ec635
:030b7900017edf1b
:030b7a00017ef801
:030b7b00017f11e6
:030b7c00017f2acc
:030b7d00017f43b2
:030b7e00017f5c98
:030b7f00017f757e
:030b8000017f8e64
:030b8100017fa74a
:030b8200017fc030
:030b8300017fd916
:030b8400017ff2fc
:030b850001800be1
:030b8600018024c7
:030b870001803dad
:030b880001805693
:030b890001806e7a
:030b8a0001808760
:030b8b000180a046
:030b8c000180b92c
:030b8d000180d212
:030b8e000180ebf8
:030b8f00018104dd
:030b900001811dc3
:030b9100018135aa
:030b920001814e90
:030b930001816776
:030b94000181805c
:030b950001819942
:030b96000181b129
:030b97000181ca0f
:030b98000181e3f5
:030b99000181fcdb
:030b9a00018215c0
:030b9b0001822da7
:030b9c000182468d
:030b9d0001825f73
:030b9e0001827859
:030b9f0001829040
:030ba0000182a926
:030ba1000182c20c
:030ba2000182daf3
:030ba3000182f3d9
:030ba40001830cbe
:030ba500018324a5
:030ba60001833d8b
:030ba70001835671
:030ba80001836e58
:030ba9000183873e
:030baa000183a024
:030bab000183b80b
:030bac000183d1f1
:030bad000183ead7
:030bae00018402bd
:030baf0001841ba3
:030bb0000184338a
:030bb10001844c70
:030bb20001846457
:030bb30001847d3d
:030bb40001849623
:030bb5000184ae0a
:030bb6000184c7f0
:030bb7000184dfd7
:030bb8000184f8bd
:030bb900018510a3
:030bba0001852989
:030bbb0001854170
:030bbc0001855a56
:030bbd000185723d
:030bbe0001858b23
:030bbf000185a30a
:030bc0000185bcf0
:030bc1000185d4d7
:030bc2000185ecbe
:030bc300018605a3
:030bc40001861d8a
:030bc50001863670
:030bc60001864e57
:030bc7000186663e
:030bc80001867f24
:030bc9000186970b
:030bca000186b0f1
:030bcb000186c8d8
:030bcc000186e0bf
:030bcd000186f9a5
:030bce000187118b
:030bcf0001872972
:030bd00001874258
:030bd10001875a3f
:030bd20001877226
:030bd30001878b0c
:030bd4000187a3f3
:030bd5000187bbda
:030bd6000187d3c1
:030bd7000187eca7
:030bd8000188048d
:030bd90001881c74
:030bda000188345b
:030bdb0001884d41
:030bdc0001886528
:030bdd0001887d0f
:030bde00018895f6
:030bdf000188addd
:030be0000188c6c3
:030be1000188deaa
:030be2000188f691
:030be30001890e77
:030be4000189265e
:030be50001893e45
:030be6000189572b
:030be70001896f12
:030be800018987f9
:030be90001899fe0
:030bea000189b7c7
:030beb000189cfae
:030bec000189e795
:030bed000189ff7c
:030bee00018a1762
:030bef00018a2f49
:030bf000018a482f
:030bf100018a6016
:030bf200018a78fd
:030bf300018a90e4
:030bf400018aa8cb
:030bf500018ac0b2
:030bf600018ad899
:030bf700018af080
:030bf800018b0866
:030bf900018b204d
:030bfa00018b3834
:030bfb00018b501b
:030bfc00018b6802
:030bfd00018b7fea
:030bfe00018b97d1
:030bff00018bafb8
:030c0000018bc79e
:030c0100018bdf85
:030c0200018bf76c
:030c0300018c0f52
:030c0400018c2739
:030c0500018c3f20
:030c0600018c5707
:030c0700018c6eef
:030c0800018c86d6
:030c0900018c9ebd
:030c0a00018cb6a4
:030c0b00018cce8b
:030c0c00018ce672
:030c0d00018cfd5a
:030c0e00018d1540
:030c0f00018d2d27
:030c1000018d450e
:030c1100018d5df5
:030c1200018d74dd
:030c1300018d8cc4
:030c1400018da4ab
:030c1500018dbc92
:030c1600018dd37a
:030c1700018deb61
:030c1800018e0347
:030c1900018e1b2e
:030c1a00018e3216
:030c1b00018e4afd
:030c1c00018e62e4
:030c1d00018e79cc
:030c1e00018e91b3
:030c1f00018ea99a
:030c2000018ec082
:030c2100018ed869
:030c2200018ef050
:030c2300018f0737
:030c2400018f1f1e
:030c2500018f3606
:030c2600018f4eed
:030c2700018f66d4
:030c2800018f7dbc
:030c2900018f95a3
:030c2a00018fac8b
:030c2b00018fc472
:030c2c00018fdb5a
:030c2d00018ff341
:030c2e0001900a28
:030c2f000190220f
:030c300001903af6
:030c3100019051de
:030c3200019069c5
:030c3300019080ad
:030c340001909894
:030c35000190af7c
:030c36000190c664
:030c37000190de4b
:030c38000190f533
:030c390001910d19
:030c3a0001912401
:030c3b0001913ce8
:030c3c00019153d0
:030c3d0001916ab8
:030c3e000191829f
:030c3f0001919987
:030c40000191b16e
:030c41000191c856
:030c42000191df3e
:030c43000191f725
:030c440001920e0c
:030c4500019225f4
:030c460001923ddb
:030c4700019254c3
:030c480001926bab
:030c490001928392
:030c4a0001929a7a
:030c4b000192b162
:030c4c000192c949
:030c4d000192e031
:030c4e000192f719
:030c4f0001930e00
:030c5000019326e7
:030c510001933dcf
:030c5200019354b7
:030c530001936b9f
:030c540001938287
:030c550001939a6e
:030c56000193b156
:030c57000193c83e
:030c58000193df26
:030c59000193f60e
:030c5a0001940df5
:030c5b00019425dc
:030c5c0001943cc4
:030c5d00019453ac
:030c5e0001946a94
:030c5f000194817c
:030c600001949864
:030c61000194af4c
:030c62000194c634
:030c63000194de1b
:030c64000194f503
:030c650001950cea
:030c6600019523d2
:030c670001953aba
:030c6800019551a2
:030c69000195688a
:030c6a0001957f72
:030c6b000195965a
:030c6c000195ad42
:030c6d000195c42a
:030c6e000195db12
:030c6f000195f2fa
:030c7000019609e1
:030c7100019620c9
:030c7200019637b1
:030c730001964e99
:030c740001966581
:030c750001967c69
:030c760001969252
:030c77000196a93a
:030c78000196c022
:030c79000196d70a
:030c7a000196eef2
:030c7b00019705d9
:030c7c0001971cc1
:030c7d00019733a9
:030c7e0001974992
:030c7f000197607a
:030c800001977762
:030c810001978e4a
:030c82000197a532
:030c83000197bc1a
:030c84000197d203
:030c85000197e9eb
:030c8600019800d2
:030c8700019817ba
:030c880001982da3
:030c89000198448b
:030c8a0001985b73
:030c8b000198725b
:030c8c0001988844
:030c8d0001989f2c
:030c8e000198b614
:030c8f000198cdfc
:030c90000198e3e5
:030c91000198facd
:030c9200019911b4
:030c93000199279d
:030c940001993e85
:030c95000199556d
:030c960001996b56
:030c97000199823e
:030c980001999827
:030c99000199af0f
:030c9a000199c6f7
:030c9b000199dce0
:030c9c000199f3c8
:030c9d00019a09b0
:030c9e00019a2098
:030c9f00019a3780
:030ca000019a4d69
:030ca100019a6451
:030ca200019a7a3a
:030ca300019a9122
:030ca400019aa70b
:030ca500019abef3
:030ca600019ad4dc
:030ca700019aebc4
:030ca800019b01ac
:030ca900019b1894
:030caa00019b2e7d
:030cab00019b4565
:030cac00019b5b4e
:030cad00019b7236
:030cae00019b881f
:030caf00019b9e08
:030cb000019bb5f0
:030cb100019bcbd9
:030cb200019be2c1
:030cb300019bf8aa
:030cb400019c0e92
:030cb500019c257a
:030cb600019c3b63
:030cb700019c524b
:030cb800019c6834
:030cb900019c7e1d
:030cba00019c9505
:030cbb00019cabee
:030cbc00019cc1d7
:030cbd00019cd7c0
:030cbe00019ceea8
:030cbf00019d0490
:030cc000019d1a79
:030cc100019d3161
:030cc200019d474a
:030cc300019d5d33
:030cc400019d731c
:030cc500019d8a04
:030cc600019da0ed
:030cc700019db6d6
:030cc800019dccbf
:030cc900019de2a8
:030cca00019df990
:030ccb00019e0f78
:030ccc00019e2561
:030ccd00019e3b4a
:030cce00019e5133
:030ccf00019e671c
:030cd000019e7e04
:030cd100019e94ed
:030cd200019eaad6
:030cd300019ec0bf
:030cd400019ed6a8
:030cd500019eec91
:030cd600019f0279
:030cd700019f1862
:030cd800019f2e4b
:030cd900019f4434
:030cda00019f5a1d
:030cdb00019f7006
:030cdc00019f86ef
:030cdd00019f9cd8
:030cde00019fb2c1
:030cdf00019fc9a9
:030ce000019fde93
:030ce100019ff47c
:030ce20001a00a64
:030ce30001a0204d
:030ce40001a03636
:030ce50001a04c1f
:030ce60001a06208
:030ce70001a078f1
:030ce80001a08eda
:030ce90001a0a4c3
:030cea0001a0baac
:030ceb0001a0d095
:030cec0001a0e67e
:030ced0001a0fc67
:030cee0001a11150
:030cef0001a12739
:030cf00001a13d22
:030cf10001a1530b
:030cf20001a169f4
:030cf30001a17fdd
:030cf40001a195c6
:030cf50001a1aab0
:030cf60001a1c099
:030cf70001a1d682
:030cf80001a1ec6b
:030cf90001a20154
:030cfa0001a2173d
:030cfb0001a22d26
:030cfc0001a2430f
:030cfd0001a258f9
:030cfe0001a26ee2
:030cff0001a284cb
:030d000001a29ab3
:030d010001a2af9d
:030d020001a2c586
:030d030001a2db6f
:030d040001a2f059
:030d050001a30641
:030d060001a31c2a
:030d070001a33114
:030d080001a347fd
:030d090001a35de6
:030d0a0001a372d0
:030d0b0001a388b9
:030d0c0001a39ea2
:030d0d0001a3b38c
:030d0e0001a3c975
:030d0f0001a3de5f
:030d100001a3f448
:030d110001a40931
:030d120001a41f1a
:030d130001a43404
:030d140001a44aed
:030d150001a460d6
:030d160001a475c0
:030d170001a48ba9
:030d180001a4a093
:030d190001a4b67c
:030d1a0001a4cb66
:030d1b0001a4e14f
:030d1c0001a4f639
:030d1d0001a50b22
:030d1e0001a5210b
:030d1f0001a536f5
:030d200001a54cde
:030d210001a561c8
:030d220001a577b1
:030d230001a58c9b
:030d240001a5a185
:030d250001a5b76e
:030d260001a5cc58
:030d270001a5e142
:030d280001a5f72b
:030d290001a60c14
:030d2a0001a622fd
:030d2b0001a637e7
:030d2c0001a64cd1
:030d2d0001a661bb
:030d2e0001a677a4
:030d2f0001a68c8e
:030d300001a6a178
:030d310001a6b761
:030d320001a6cc4b
:030d330001a6e135
:030d340001a6f61f
:030d350001a70c07
:030d360001a721f1
:030d370001a736db
:030d380001a74bc5
:030d390001a761ae
:030d3a0001a77698
:030d3b0001a78b82
:030d3c0001a7a06c
:030d3d0001a7b556
:030d3e0001a7ca40
:030d3f0001a7e029
:030d400001a7f513
:030d410001a80afc
:030d420001a81fe6
:030d430001a834d0
:030d440001a849ba
:030d450001a85ea4
:030d460001a8738e
:030d470001a88878
:030d480001a89d62
:030d490001a8b34b
:030d4a0001a8c835
:030d4b0001a8dd1f
:030d4c0001a8f209
:030d4d0001a907f2
:030d4e0001a91cdc
:030d4f0001a931c6
:030d500001a946b0
:030d510001a95b9a
:030d520001a97084
:030d530001a9856e
:030d540001a99a58
:030d550001a9af42
:030d560001a9c42c
:030d570001a9d817
:030d580001a9ed01
:030d590001aa02ea
:030d5a0001aa17d4
:030d5b0001aa2cbe
:030d5c0001aa41a8
:030d5d0001aa5692
:030d5e0001aa6b7c
:030d5f0001aa8066
:030d600001aa9451
:030d610001aaa93b
:030d620001aabe25
:030d630001aad30f
:030d640001aae8f9
:030d650001aafde3
:030d660001ab11cd
:030d670001ab26b7
:030d680001ab3ba1
:030d690001ab508b
:030d6a0001ab6476
:030d6b0001ab7960
:030d6c0001ab8e4a
:030d6d0001aba334
:030d6e0001abb71f
:030d6f0001abcc09
:030d700001abe1f3
:030d710001abf6dd
:030d720001ac0ac7
:030d730001ac1fb1
:030d740001ac349b
:030d750001ac4886
:030d760001ac5d70
:030d770001ac725a
:030d780001ac8645
:030d790001ac9b2f
:030d7a0001acaf1a
:030d7b0001acc404
:030d7c0001acd9ee
:030d7d0001acedd9
:030d7e0001ad02c2
:030d7f0001ad16ad
:030d800001ad2b97
:030d810001ad4081
:030d820001ad546c
:030d830001ad6956
:030d840001ad7d41
:030d850001ad922b
:030d860001ada616
:030d870001adbb00
:030d880001adcfeb
:030d890001ade4d5
:030d8a0001adf8c0
:030d8b0001ae0da9
:030d8c0001ae2194
:030d8d0001ae357f
:030d8e0001ae4a69
:030d8f0001ae5e54
:030d900001ae733e
:030d910001ae8729
:030d920001ae9c13
:030d930001aeb0fe
:030d940001aec4e9
:030d950001aed9d3
:030d960001aeedbe
:030d970001af01a8
:030d980001af1692
:030d990001af2a7d
:030d9a0001af3e68
:030d9b0001af5352
:030d9c0001af673d
:030d9d0001af7b28
:030d9e0001af9012
:030d9f0001afa4fd
:030da00001afb8e8
:030da10001afccd3
:030da20001afe1bd
:030da30001aff5a8
:030da40001b00992
:030da50001b01d7d
:030da60001b03267
:030da70001b04652
:030da80001b05a3d
:030da90001b06e28
:030daa0001b08213
:030dab0001b097fd
:030dac0001b0abe8
:030dad0001b0bfd3
:030dae0001b0d3be
:030daf0001b0e7a9
:030db00001b0fb94
:030db10001b10f7e
:030db20001b12369
:030db30001b13853
:030db40001b14c3e
:030db50001b16029
:030db60001b17414
:030db70001b188ff
:030db80001b19cea
:030db90001b1b0d5
:030dba0001b1c4c0
:030dbb0001b1d8ab
:030dbc0001b1ec96
:030dbd0001b20080
:030dbe0001b2146b
:030dbf0001b22856
:030dc00001b23c41
:030dc10001b2502c
:030dc20001b26417
:030dc30001b27802
:030dc40001b28ced
:030dc50001b2a0d8
:030dc60001b2b4c3
:030dc70001b2c8ae
:030dc80001b2db9a
:030dc90001b2ef85
:030dca0001b3036f
:030dcb0001b3175a
:030dcc0001b32b45
:030dcd0001b33f30
:030dce0001b3531b
:030dcf0001b36706
:030dd00001b37af2
:030dd10001b38edd
:030dd20001b3a2c8
:030dd30001b3b6b3
:030dd40001b3ca9e
:030dd50001b3dd8a
:030dd60001b3f175
:030dd70001b4055f
:030dd80001b4194a
:030dd90001b42c36
:030dda0001b44021
:030ddb0001b4540c
:030ddc0001b468f7
:030ddd0001b47be3
:030dde0001b48fce
:030ddf0001b4a3b9
:030de00001b4b6a5
:030de10001b4ca90
:030de20001b4de7b
